{
  "address": "0x79861FF7E609C50d719cbeb3526921B7C7E5c849",
  "abi": [
    {
      "inputs": [],
      "name": "Launchpeg__BatchRevealNotInitialized",
      "type": "error"
    },
    {
      "inputs": [],
      "name": "Launchpeg__BatchRevealStarted",
      "type": "error"
    },
    {
      "inputs": [],
      "name": "Launchpeg__HasBeenForceRevealed",
      "type": "error"
    },
    {
      "inputs": [],
      "name": "Launchpeg__InvalidBatchRevealSize",
      "type": "error"
    },
    {
      "inputs": [],
      "name": "Launchpeg__InvalidCallbackGasLimit",
      "type": "error"
    },
    {
      "inputs": [],
      "name": "Launchpeg__InvalidCoordinator",
      "type": "error"
    },
    {
      "inputs": [],
      "name": "Launchpeg__InvalidKeyHash",
      "type": "error"
    },
    {
      "inputs": [],
      "name": "Launchpeg__InvalidRevealDates",
      "type": "error"
    },
    {
      "inputs": [],
      "name": "Launchpeg__IsNotInTheConsumerList",
      "type": "error"
    },
    {
      "inputs": [],
      "name": "Launchpeg__Unauthorized",
      "type": "error"
    },
    {
      "inputs": [
        {
          "internalType": "address",
          "name": "have",
          "type": "address"
        },
        {
          "internalType": "address",
          "name": "want",
          "type": "address"
        }
      ],
      "name": "OnlyCoordinatorCanFulfill",
      "type": "error"
    },
    {
      "anonymous": false,
      "inputs": [
        {
          "indexed": false,
          "internalType": "uint8",
          "name": "version",
          "type": "uint8"
        }
      ],
      "name": "Initialized",
      "type": "event"
    },
    {
      "anonymous": false,
      "inputs": [
        {
          "indexed": true,
          "internalType": "address",
          "name": "previousOwner",
          "type": "address"
        },
        {
          "indexed": true,
          "internalType": "address",
          "name": "newOwner",
          "type": "address"
        }
      ],
      "name": "OwnershipTransferred",
      "type": "event"
    },
    {
      "anonymous": false,
      "inputs": [
        {
          "indexed": false,
          "internalType": "address",
          "name": "baseLaunchpeg",
          "type": "address"
        },
        {
          "indexed": false,
          "internalType": "uint256",
          "name": "batchNumber",
          "type": "uint256"
        },
        {
          "indexed": false,
          "internalType": "uint256",
          "name": "batchSeed",
          "type": "uint256"
        }
      ],
      "name": "Reveal",
      "type": "event"
    },
    {
      "anonymous": false,
      "inputs": [
        {
          "indexed": false,
          "internalType": "address",
          "name": "baseLaunchpeg",
          "type": "address"
        },
        {
          "indexed": false,
          "internalType": "uint256",
          "name": "revealBatchSize",
          "type": "uint256"
        }
      ],
      "name": "RevealBatchSizeSet",
      "type": "event"
    },
    {
      "anonymous": false,
      "inputs": [
        {
          "indexed": false,
          "internalType": "address",
          "name": "baseLaunchpeg",
          "type": "address"
        },
        {
          "indexed": false,
          "internalType": "uint256",
          "name": "revealInterval",
          "type": "uint256"
        }
      ],
      "name": "RevealIntervalSet",
      "type": "event"
    },
    {
      "anonymous": false,
      "inputs": [
        {
          "indexed": false,
          "internalType": "address",
          "name": "baseLaunchpeg",
          "type": "address"
        },
        {
          "indexed": false,
          "internalType": "uint256",
          "name": "revealStartTime",
          "type": "uint256"
        }
      ],
      "name": "RevealStartTimeSet",
      "type": "event"
    },
    {
      "anonymous": false,
      "inputs": [
        {
          "indexed": false,
          "internalType": "address",
          "name": "_vrfCoordinator",
          "type": "address"
        },
        {
          "indexed": false,
          "internalType": "bytes32",
          "name": "_keyHash",
          "type": "bytes32"
        },
        {
          "indexed": false,
          "internalType": "uint64",
          "name": "_subscriptionId",
          "type": "uint64"
        },
        {
          "indexed": false,
          "internalType": "uint32",
          "name": "_callbackGasLimit",
          "type": "uint32"
        }
      ],
      "name": "VRFSet",
      "type": "event"
    },
    {
      "inputs": [],
      "name": "callbackGasLimit",
      "outputs": [
        {
          "internalType": "uint32",
          "name": "",
          "type": "uint32"
        }
      ],
      "stateMutability": "view",
      "type": "function"
    },
    {
      "inputs": [
        {
          "internalType": "address",
          "name": "_baseLaunchpeg",
          "type": "address"
        },
        {
          "internalType": "uint256",
          "name": "_revealBatchSize",
          "type": "uint256"
        },
        {
          "internalType": "uint256",
          "name": "_revealStartTime",
          "type": "uint256"
        },
        {
          "internalType": "uint256",
          "name": "_revealInterval",
          "type": "uint256"
        }
      ],
      "name": "configure",
      "outputs": [],
      "stateMutability": "nonpayable",
      "type": "function"
    },
    {
      "inputs": [
        {
          "internalType": "address",
          "name": "_baseLaunchpeg",
          "type": "address"
        }
      ],
      "name": "forceReveal",
      "outputs": [],
      "stateMutability": "nonpayable",
      "type": "function"
    },
    {
      "inputs": [
        {
          "internalType": "address",
          "name": "_baseLaunchpeg",
          "type": "address"
        },
        {
          "internalType": "uint256",
          "name": "_startId",
          "type": "uint256"
        }
      ],
      "name": "getShuffledTokenId",
      "outputs": [
        {
          "internalType": "uint256",
          "name": "",
          "type": "uint256"
        }
      ],
      "stateMutability": "view",
      "type": "function"
    },
    {
      "inputs": [
        {
          "internalType": "address",
          "name": "_baseLaunchpeg",
          "type": "address"
        },
        {
          "internalType": "uint256",
          "name": "_totalSupply",
          "type": "uint256"
        }
      ],
      "name": "hasBatchToReveal",
      "outputs": [
        {
          "internalType": "bool",
          "name": "",
          "type": "bool"
        },
        {
          "internalType": "uint256",
          "name": "",
          "type": "uint256"
        }
      ],
      "stateMutability": "view",
      "type": "function"
    },
    {
      "inputs": [],
      "name": "initialize",
      "outputs": [],
      "stateMutability": "nonpayable",
      "type": "function"
    },
    {
      "inputs": [
        {
          "internalType": "address",
          "name": "_baseLaunchpeg",
          "type": "address"
        }
      ],
      "name": "isBatchRevealInitialized",
      "outputs": [
        {
          "internalType": "bool",
          "name": "",
          "type": "bool"
        }
      ],
      "stateMutability": "view",
      "type": "function"
    },
    {
      "inputs": [],
      "name": "keyHash",
      "outputs": [
        {
          "internalType": "bytes32",
          "name": "",
          "type": "bytes32"
        }
      ],
      "stateMutability": "view",
      "type": "function"
    },
    {
      "inputs": [
        {
          "internalType": "address",
          "name": "",
          "type": "address"
        },
        {
          "internalType": "uint256",
          "name": "",
          "type": "uint256"
        }
      ],
      "name": "launchpegToBatchToSeed",
      "outputs": [
        {
          "internalType": "uint256",
          "name": "",
          "type": "uint256"
        }
      ],
      "stateMutability": "view",
      "type": "function"
    },
    {
      "inputs": [
        {
          "internalType": "address",
          "name": "",
          "type": "address"
        }
      ],
      "name": "launchpegToConfig",
      "outputs": [
        {
          "internalType": "uint256",
          "name": "collectionSize",
          "type": "uint256"
        },
        {
          "internalType": "int128",
          "name": "intCollectionSize",
          "type": "int128"
        },
        {
          "internalType": "uint256",
          "name": "revealBatchSize",
          "type": "uint256"
        },
        {
          "internalType": "uint256",
          "name": "revealStartTime",
          "type": "uint256"
        },
        {
          "internalType": "uint256",
          "name": "revealInterval",
          "type": "uint256"
        }
      ],
      "stateMutability": "view",
      "type": "function"
    },
    {
      "inputs": [
        {
          "internalType": "address",
          "name": "",
          "type": "address"
        }
      ],
      "name": "launchpegToHasBeenForceRevealed",
      "outputs": [
        {
          "internalType": "bool",
          "name": "",
          "type": "bool"
        }
      ],
      "stateMutability": "view",
      "type": "function"
    },
    {
      "inputs": [
        {
          "internalType": "address",
          "name": "",
          "type": "address"
        }
      ],
      "name": "launchpegToLastTokenReveal",
      "outputs": [
        {
          "internalType": "uint256",
          "name": "",
          "type": "uint256"
        }
      ],
      "stateMutability": "view",
      "type": "function"
    },
    {
      "inputs": [
        {
          "internalType": "address",
          "name": "",
          "type": "address"
        }
      ],
      "name": "launchpegToNextBatchToReveal",
      "outputs": [
        {
          "internalType": "uint256",
          "name": "",
          "type": "uint256"
        }
      ],
      "stateMutability": "view",
      "type": "function"
    },
    {
      "inputs": [
        {
          "internalType": "address",
          "name": "",
          "type": "address"
        }
      ],
      "name": "launchpegToRangeLength",
      "outputs": [
        {
          "internalType": "uint256",
          "name": "",
          "type": "uint256"
        }
      ],
      "stateMutability": "view",
      "type": "function"
    },
    {
      "inputs": [
        {
          "internalType": "address",
          "name": "",
          "type": "address"
        },
        {
          "internalType": "uint256",
          "name": "",
          "type": "uint256"
        }
      ],
      "name": "launchpegToVrfRequestedForBatch",
      "outputs": [
        {
          "internalType": "bool",
          "name": "",
          "type": "bool"
        }
      ],
      "stateMutability": "view",
      "type": "function"
    },
    {
      "inputs": [],
      "name": "owner",
      "outputs": [
        {
          "internalType": "address",
          "name": "",
          "type": "address"
        }
      ],
      "stateMutability": "view",
      "type": "function"
    },
    {
      "inputs": [
        {
          "internalType": "uint256",
          "name": "requestId",
          "type": "uint256"
        },
        {
          "internalType": "uint256[]",
          "name": "randomWords",
          "type": "uint256[]"
        }
      ],
      "name": "rawFulfillRandomWords",
      "outputs": [],
      "stateMutability": "nonpayable",
      "type": "function"
    },
    {
      "inputs": [],
      "name": "renounceOwnership",
      "outputs": [],
      "stateMutability": "nonpayable",
      "type": "function"
    },
    {
      "inputs": [],
      "name": "requestConfirmations",
      "outputs": [
        {
          "internalType": "uint16",
          "name": "",
          "type": "uint16"
        }
      ],
      "stateMutability": "view",
      "type": "function"
    },
    {
      "inputs": [
        {
          "internalType": "address",
          "name": "_baseLaunchpeg",
          "type": "address"
        },
        {
          "internalType": "uint256",
          "name": "_totalSupply",
          "type": "uint256"
        }
      ],
      "name": "revealNextBatch",
      "outputs": [
        {
          "internalType": "bool",
          "name": "",
          "type": "bool"
        }
      ],
      "stateMutability": "nonpayable",
      "type": "function"
    },
    {
      "inputs": [
        {
          "internalType": "address",
          "name": "_baseLaunchpeg",
          "type": "address"
        },
        {
          "internalType": "uint256",
          "name": "_revealBatchSize",
          "type": "uint256"
        }
      ],
      "name": "setRevealBatchSize",
      "outputs": [],
      "stateMutability": "nonpayable",
      "type": "function"
    },
    {
      "inputs": [
        {
          "internalType": "address",
          "name": "_baseLaunchpeg",
          "type": "address"
        },
        {
          "internalType": "uint256",
          "name": "_revealInterval",
          "type": "uint256"
        }
      ],
      "name": "setRevealInterval",
      "outputs": [],
      "stateMutability": "nonpayable",
      "type": "function"
    },
    {
      "inputs": [
        {
          "internalType": "address",
          "name": "_baseLaunchpeg",
          "type": "address"
        },
        {
          "internalType": "uint256",
          "name": "_revealStartTime",
          "type": "uint256"
        }
      ],
      "name": "setRevealStartTime",
      "outputs": [],
      "stateMutability": "nonpayable",
      "type": "function"
    },
    {
      "inputs": [
        {
          "internalType": "address",
          "name": "_vrfCoordinator",
          "type": "address"
        },
        {
          "internalType": "bytes32",
          "name": "_keyHash",
          "type": "bytes32"
        },
        {
          "internalType": "uint64",
          "name": "_subscriptionId",
          "type": "uint64"
        },
        {
          "internalType": "uint32",
          "name": "_callbackGasLimit",
          "type": "uint32"
        }
      ],
      "name": "setVRF",
      "outputs": [],
      "stateMutability": "nonpayable",
      "type": "function"
    },
    {
      "inputs": [],
      "name": "subscriptionId",
      "outputs": [
        {
          "internalType": "uint64",
          "name": "",
          "type": "uint64"
        }
      ],
      "stateMutability": "view",
      "type": "function"
    },
    {
      "inputs": [
        {
          "internalType": "address",
          "name": "newOwner",
          "type": "address"
        }
      ],
      "name": "transferOwnership",
      "outputs": [],
      "stateMutability": "nonpayable",
      "type": "function"
    },
    {
      "inputs": [],
      "name": "useVRF",
      "outputs": [
        {
          "internalType": "bool",
          "name": "",
          "type": "bool"
        }
      ],
      "stateMutability": "view",
      "type": "function"
    },
    {
      "inputs": [
        {
          "internalType": "uint256",
          "name": "",
          "type": "uint256"
        }
      ],
      "name": "vrfRequestIdToLaunchpeg",
      "outputs": [
        {
          "internalType": "address",
          "name": "",
          "type": "address"
        }
      ],
      "stateMutability": "view",
      "type": "function"
    }
  ],
  "transactionHash": "0xa8c9c12db0b9d7091a06b34e4c60b5674875d024db009d92bc2f407c14db1b7d",
  "args": [],
  "numDeployments": 2,
  "solcInputHash": "2f4e5b5aa7ef47523f540970c4ce4246",
  "bytecode": "0x608060405234801561001057600080fd5b5061214e806100206000396000f3fe608060405234801561001057600080fd5b50600436106101845760003560e01c80638129fc1c116100d9578063b0fb162f11610087578063b0fb162f1461042f578063b7b134961461044a578063bc2af1b61461045d578063d66f3a791461047d578063ed90d38714610490578063f2fde38b146104b0578063fbbc872b146104c357600080fd5b80638129fc1c1461035e5780638a5b5993146103665780638da5cb5b146103795780639305d53a1461039e578063989030af146103c7578063a4c25c99146103f2578063ad9e22af1461040557600080fd5b806324f746971161013657806324f74697146102b15780633e967802146102d657806342517341146102f75780635825fadf1461030a57806361728f391461032d57806367e1460014610336578063715018a61461035657600080fd5b8063060383411461018957806309c1ba2e146101ab57806312244936146101db5780631733377b146101f0578063181d2588146102035780631fe543e31461027057806322ae5b6d14610283575b600080fd5b606a546101969060ff1681565b60405190151581526020015b60405180910390f35b606a546101c39061010090046001600160401b031681565b6040516001600160401b0390911681526020016101a2565b6101ee6101e9366004611b0e565b6104d6565b005b6101966101fe366004611b3a565b61054e565b610245610211366004611b3a565b606560205260009081526040902080546001820154600283015460038401546004909401549293600f9290920b9290919085565b60408051958652600f9490940b6020860152928401919091526060830152608082015260a0016101a2565b6101ee61027e366004611bc0565b61056b565b610196610291366004611b0e565b606f60209081526000928352604080842090915290825290205460ff1681565b606c546102c19063ffffffff1681565b60405163ffffffff90911681526020016101a2565b6102e96102e4366004611b0e565b6105be565b6040519081526020016101a2565b6101ee610305366004611c61565b6106f9565b610196610318366004611b3a565b606e6020526000908152604090205460ff1681565b6102e9606b5481565b6102e9610344366004611b3a565b606d6020526000908152604090205481565b6101ee6107fd565b6101ee610811565b6101ee610374366004611b0e565b61093d565b6033546001600160a01b03165b6040516001600160a01b0390911681526020016101a2565b6103866103ac366004611c9c565b6066602052600090815260409020546001600160a01b031681565b6102e96103d5366004611b0e565b606760209081526000928352604080842090915290825290205481565b6101ee610400366004611b3a565b6109af565b610418610413366004611b0e565b610a97565b6040805192151583526020830191909152016101a2565b610437600381565b60405161ffff90911681526020016101a2565b6101ee610458366004611b0e565b610b5f565b6102e961046b366004611b3a565b60686020526000908152604090205481565b6101ee61048b366004611cdc565b610bd1565b6102e961049e366004611b3a565b60696020526000908152604090205481565b6101ee6104be366004611b3a565b610ec1565b6101966104d1366004611b0e565b610f37565b6104de611147565b816104e88161054e565b6105055760405163632e11e160e11b815260040160405180910390fd5b6001600160a01b03831660009081526068602052604090205483901561053e5760405163268eb6a760e21b815260040160405180910390fd5b61054884846111a1565b50505050565b6001600160a01b0316600090815260656020526040902054151590565b6000546001600160a01b031633146105b05760005460405163073e64fd60e21b81523360048201526001600160a01b0390911660248201526044015b60405180910390fd5b6105ba8282611280565b5050565b6001600160a01b03821660009081526065602052604081206001810154600290910154600f9190910b90826105f38286611d5b565b6001600160a01b038716600090815260696020526040812054919250906001600160401b0381111561062757610627611b57565b60405190808252806020026020018201604052801561066c57816020015b60408051808201909152600080825260208201528152602001906001900390816106455790505b5090506106a187838587606960008d6001600160a01b03166001600160a01b03168152602001908152602001600020546113e5565b6001600160a01b0388166000908152606760209081526040808320868452909152812054919250906106d38589611d6f565b6106dd9190611d83565b90506106eb888284886114c7565b955050505050505b92915050565b610701611147565b6001600160a01b03841660009081526068602052604090205484901561073a5760405163268eb6a760e21b815260040160405180910390fd5b6000856001600160a01b03166345c0f5336040518163ffffffff1660e01b8152600401602060405180830381865afa15801561077a573d6000803e3d6000fd5b505050506040513d601f19601f8201168201806040525081019061079e9190611d9b565b6001600160a01b038716600090815260656020526040902081815560010180546001600160801b0319166001600160801b03831617905590506107e186866111a1565b6107eb868561162a565b6107f586846116b3565b505050505050565b610805611147565b61080f6000611727565b565b600054600160a81b900460ff161580801561083957506000546001600160a01b90910460ff16105b8061085a5750303b15801561085a5750600054600160a01b900460ff166001145b6108bd5760405162461bcd60e51b815260206004820152602e60248201527f496e697469616c697a61626c653a20636f6e747261637420697320616c72656160448201526d191e481a5b9a5d1a585b1a5e995960921b60648201526084016105a7565b6000805460ff60a01b1916600160a01b17905580156108ea576000805460ff60a81b1916600160a81b1790555b6108f2611779565b801561093a576000805460ff60a81b19169055604051600181527f7f26b83ff96e1f2b6a682f133852f6798a09c465da95921460cefb38474024989060200160405180910390a15b50565b610945611147565b8161094f8161054e565b61096c5760405163632e11e160e11b815260040160405180910390fd5b6001600160a01b0383166000908152606860205260409020548390156109a55760405163268eb6a760e21b815260040160405180910390fd5b61054884846116b3565b6109b7611147565b6001600160a01b03811660009081526065602090815260408083206002015460689092528220549091908290816109f0576109f0611d2f565b6001600160a01b0385166000908152606860209081526040808320805488019055606590915290208054600290910154929091049250610a3391859184916117aa565b6001600160a01b0383166000908152606e60209081526040808320805460ff1916600117905560678252808320848452909152908190205490516000805160206120f983398151915291610a8a9186918591611db4565b60405180910390a1505050565b6001600160a01b03821660009081526065602090815260408083206002810154600382015460049092015460689094529184205484939084848281610ade57610ade611d2f565b049050610aeb8382611dd5565b610af59085611d83565b421080610b0a5750610b078583611d83565b88105b80610b3857506001600160a01b0389166000908152606f6020908152604080832084845290915290205460ff165b15610b4d57600096509450610b589350505050565b600196509450505050505b9250929050565b610b67611147565b81610b718161054e565b610b8e5760405163632e11e160e11b815260040160405180910390fd5b6001600160a01b038316600090815260686020526040902054839015610bc75760405163268eb6a760e21b815260040160405180910390fd5b610548848461162a565b610bd9611147565b6001600160a01b038416610c005760405163148b036560e31b815260040160405180910390fd5b600080856001600160a01b0316620122916040518163ffffffff1660e01b8152600401600060405180830381865afa158015610c40573d6000803e3d6000fd5b505050506040513d6000823e601f3d908101601f19168201604052610c689190810190611df4565b92509250508163ffffffff168363ffffffff161180610c8e5750614e208363ffffffff16105b15610cac5760405163386883d560e21b815260040160405180910390fd5b6000805b8251811015610cf45786838281518110610ccc57610ccc611eb5565b602002602001015103610ce25760019150610cf4565b80610cec81611ecb565b915050610cb0565b5080610d135760405163f0471d8160e01b815260040160405180910390fd5b60405163523e3b4b60e11b81526001600160401b03861660048201526000906001600160a01b0389169063a47c769690602401600060405180830381865afa158015610d63573d6000803e3d6000fd5b505050506040513d6000823e601f3d908101601f19168201604052610d8b9190810190611ee4565b93505050506000805b8251811015610dea57306001600160a01b0316838281518110610db957610db9611eb5565b60200260200101516001600160a01b031603610dd85760019150610dea565b80610de281611ecb565b915050610d94565b5080610e0957604051637af8935960e01b815260040160405180910390fd5b606a8054600080546001600160a01b038d166001600160a01b03199091168117909155606b8b90556001600160401b038a16610100810268ffffffffffffffffff1990931692909217600117909255606c805463ffffffff8a1663ffffffff19909116811790915560408051938452602084018c9052838101929092526060830152517ff3f5a94accd1162546526b6c953c564c76d28a3513d2f9a1ce52df04dff6b9b09181900360800190a1505050505050505050565b610ec9611147565b6001600160a01b038116610f2e5760405162461bcd60e51b815260206004820152602660248201527f4f776e61626c653a206e6577206f776e657220697320746865207a65726f206160448201526564647265737360d01b60648201526084016105a7565b61093a81611727565b60006001600160a01b0383163314610f6257604051633059e46160e21b815260040160405180910390fd5b600080610f6f8585610a97565b9250905080610f83576000925050506106f3565b606a5460ff16156110845760008054606b54606a54606c546040516305d3b1d360e41b815260048101939093526101009091046001600160401b031660248301526003604483015263ffffffff166064820152600160848201526001600160a01b0390911690635d3b1d309060a4016020604051808303816000875af1158015611011573d6000803e3d6000fd5b505050506040513d601f19601f820116820180604052508101906110359190611d9b565b600090815260666020908152604080832080546001600160a01b0319166001600160a01b038b169081179091558352606f82528083208684529091529020805460ff191660011790555061113c565b6001600160a01b038516600090815260656020908152604080832060020154606890925282208054919290916110bb908490611d83565b90915550506001600160a01b038516600090815260656020526040902080546002909101546110ee9187918591906117aa565b6001600160a01b0385166000908152606760209081526040808320858452909152908190205490516000805160206120f9833981519152916111339188918691611db4565b60405180910390a15b506001949350505050565b6033546001600160a01b0316331461080f5760405162461bcd60e51b815260206004820181905260248201527f4f776e61626c653a2063616c6c6572206973206e6f7420746865206f776e657260448201526064016105a7565b806000036111c257604051636d0ca73b60e11b815260040160405180910390fd5b6001600160a01b0382166000908152606560205260409020546111e58282611d6f565b1515806111f157508082115b1561120f57604051636d0ca73b60e11b815260040160405180910390fd5b6112198282611d5b565b611224906002611dd5565b6001600160a01b03841660009081526069602090815260408083209390935560659052819020600201839055517fc45cea90ada88f563f8541c1339ae3c5135feeaf4d2556a38505faef63cdb70290610a8a9085908590611fc5565b6000828152606660209081526040808320546001600160a01b0316808452606e9092529091205460ff16156112c8576040516390d5f04560e01b815260040160405180910390fd5b6001600160a01b038116600090815260656020908152604080832060028101549054606d9093529083208054919391908261130283611ecb565b9091555090508260006113158284611dd5565b61131f9085611fde565b8760008151811061133257611332611eb5565b60200260200101516113449190611d6f565b6001600160a01b038716600081815260676020908152604080832088845282528083208590559282526068905290812080549293508492909190611389908490611d83565b90915550506001600160a01b0386166000908152606760209081526040808320868452909152908190205490516000805160206120f9833981519152916113d39189918791611db4565b60405180910390a15050505050505050565b60606000826001600160401b0381111561140157611401611b57565b60405190808252806020026020018201604052801561144657816020015b604080518082019091526000808252602082015281526020019060019003908161141f5790505b5090506000805b878110156114ba576001600160a01b0389166000908152606760209081526040808320848452909152812054611486908b90868a6114c7565b905060006114948983611ff5565b90506114a3858383878c61185f565b9350505080806114b290611ecb565b91505061144d565b5090979650505050505050565b60008381805b60028110156116095760005b6001600160a01b0389166000908152606960205260409020548110156115c457600087828151811061150d5761150d611eb5565b6020026020010151600001519050600088838151811061152f5761152f611eb5565b602002602001015160200151905081600f0b85600f0b121561159d5760006115578787611ff5565b905082600f0b81600f0b121561157e576001600160801b0316965061162295505050505050565b6115888684612046565b6115929088612046565b9650819550506115af565b80600f0b85600f0b12156115af578094505b505080806115bc90611ecb565b9150506114d9565b50600f85900b6115d48484611ff5565b600f0b126115f7576115e68286612046565b6115f09084612046565b9250600091505b8061160181611ecb565b9150506114cd565b506116148282611ff5565b6001600160801b0316925050505b949350505050565b611637426283d600611d83565b81111561165757604051636de655ff60e01b815260040160405180910390fd5b6001600160a01b03821660009081526065602052604090819020600301829055517fbfa9d50c2493c256ccdadfbf65839537d0a493e97ee86341a58a165fe8896907906116a79084908490611fc5565b60405180910390a15050565b620d2f008111156116d757604051636de655ff60e01b815260040160405180910390fd5b6001600160a01b03821660009081526065602052604090819020600401829055517f822f3034de4596d2370379d37276293111dc9c8214c3145954d9c728030be7c1906116a79084908490611fc5565b603380546001600160a01b038381166001600160a01b0319831681179093556040519116919082907f8be0079c531659141344cd1fd0a4f28419497f9722a3daafe3b4186f6b6457e090600090a35050565b600054600160a81b900460ff166117a25760405162461bcd60e51b81526004016105a790612096565b61080f611aa9565b6000333a4342446117bc600184611fde565b604080516001600160a01b0390971660208801528601949094526060850192909252608084015260a08301524060c08201523060e08201526101000160408051601f198184030181529190528051602090910120905061181c8285611dd5565b6118269084611fde565b6118309082611d6f565b6001600160a01b0390951660009081526067602090815260408083209683529590529390932093909355505050565b600082815b848110156119bb57600088828151811061188057611880611eb5565b602002602001015160000151905060008983815181106118a2576118a2611eb5565b602002602001015160200151905081600f0b89600f0b1280156118c457508684145b156118cd578293505b81600f0b89600f0b1280156118e7575081600f0b88600f0b135b80611909575088600f0b82600f0b13158015611909575080600f0b88600f0b13155b80611929575080600f0b89600f0b128015611929575080600f0b88600f0b135b156119a657600061193a8a8a612046565b90506119468a84611adb565b99506119528383612046565b61195c828c611ff5565b6119669190611ff5565b98506040518060400160405280600019600f0b8152602001600019600f0b8152508b858151811061199957611999611eb5565b6020026020010181905250505b505080806119b390611ecb565b915050611864565b50835b81811115611a1a57876119d2600183611fde565b815181106119e2576119e2611eb5565b60200260200101518882815181106119fc576119fc611eb5565b60200260200101819052508080611a12906120e1565b9150506119be565b50604051806040016040528087600f0b8152602001611a398786611adb565b600f0b815250878281518110611a5157611a51611eb5565b60200260200101819052508380611a6790611ecb565b94505082600f0b85600f0b1315611a9e57611a8f876000611a888689612046565b878761185f565b5083611a9a81611ecb565b9450505b509195945050505050565b600054600160a81b900460ff16611ad25760405162461bcd60e51b81526004016105a790612096565b61080f33611727565b600081600f0b83600f0b12611af05781611af2565b825b9392505050565b6001600160a01b038116811461093a57600080fd5b60008060408385031215611b2157600080fd5b8235611b2c81611af9565b946020939093013593505050565b600060208284031215611b4c57600080fd5b8135611af281611af9565b634e487b7160e01b600052604160045260246000fd5b604051601f8201601f191681016001600160401b0381118282101715611b9557611b95611b57565b604052919050565b60006001600160401b03821115611bb657611bb6611b57565b5060051b60200190565b60008060408385031215611bd357600080fd5b823591506020808401356001600160401b03811115611bf157600080fd5b8401601f81018613611c0257600080fd5b8035611c15611c1082611b9d565b611b6d565b81815260059190911b82018301908381019088831115611c3457600080fd5b928401925b82841015611c5257833582529284019290840190611c39565b80955050505050509250929050565b60008060008060808587031215611c7757600080fd5b8435611c8281611af9565b966020860135965060408601359560600135945092505050565b600060208284031215611cae57600080fd5b5035919050565b6001600160401b038116811461093a57600080fd5b63ffffffff8116811461093a57600080fd5b60008060008060808587031215611cf257600080fd5b8435611cfd81611af9565b9350602085013592506040850135611d1481611cb5565b91506060850135611d2481611cca565b939692955090935050565b634e487b7160e01b600052601260045260246000fd5b634e487b7160e01b600052601160045260246000fd5b600082611d6a57611d6a611d2f565b500490565b600082611d7e57611d7e611d2f565b500690565b60008219821115611d9657611d96611d45565b500190565b600060208284031215611dad57600080fd5b5051919050565b6001600160a01b039390931683526020830191909152604082015260600190565b6000816000190483118215151615611def57611def611d45565b500290565b600080600060608486031215611e0957600080fd5b835161ffff81168114611e1b57600080fd5b80935050602080850151611e2e81611cca565b60408601519093506001600160401b03811115611e4a57600080fd5b8501601f81018713611e5b57600080fd5b8051611e69611c1082611b9d565b81815260059190911b82018301908381019089831115611e8857600080fd5b928401925b82841015611ea657835182529284019290840190611e8d565b80955050505050509250925092565b634e487b7160e01b600052603260045260246000fd5b600060018201611edd57611edd611d45565b5060010190565b60008060008060808587031215611efa57600080fd5b84516001600160601b0381168114611f1157600080fd5b80945050602080860151611f2481611cb5565b6040870151909450611f3581611af9565b60608701519093506001600160401b03811115611f5157600080fd5b8601601f81018813611f6257600080fd5b8051611f70611c1082611b9d565b81815260059190911b8201830190838101908a831115611f8f57600080fd5b928401925b82841015611fb6578351611fa781611af9565b82529284019290840190611f94565b979a9699509497505050505050565b6001600160a01b03929092168252602082015260400190565b600082821015611ff057611ff0611d45565b500390565b6000600f82810b9084900b828212801560016001607f1b038490038313161561202057612020611d45565b60016001607f1b0319839003821281161561203d5761203d611d45565b50019392505050565b6000600f82810b9084900b828112801560016001607f1b031983018412161561207157612071611d45565b60016001607f1b038201831381161561208c5761208c611d45565b5090039392505050565b6020808252602b908201527f496e697469616c697a61626c653a20636f6e7472616374206973206e6f74206960408201526a6e697469616c697a696e6760a81b606082015260800190565b6000816120f0576120f0611d45565b50600019019056febd515cb7fe6810ea1d996c4efb3231c8b281498ca8062a4ec905d41943824bdfa26469706673582212209d2f13d136db5452ee5b4e72968370a4647ae8b59f0426e9e2cd6606eb6d60f764736f6c634300080d0033",
  "devdoc": {
    "events": {
      "Reveal(address,uint256,uint256)": {
        "details": "Emitted on revealNextBatch() and forceReveal()",
        "params": {
          "baseLaunchpeg": "Base launchpeg address",
          "batchNumber": "The batch revealed",
          "batchSeed": "The random number drawn"
        }
      },
      "RevealBatchSizeSet(address,uint256)": {
        "details": "Emitted on setRevealBatchSize()",
        "params": {
          "baseLaunchpeg": "Base launchpeg address",
          "revealBatchSize": "New reveal batch size"
        }
      },
      "RevealIntervalSet(address,uint256)": {
        "details": "Emitted on setRevealInterval()",
        "params": {
          "baseLaunchpeg": "Base launchpeg address",
          "revealInterval": "New reveal interval"
        }
      },
      "RevealStartTimeSet(address,uint256)": {
        "details": "Emitted on setRevealStartTime()",
        "params": {
          "baseLaunchpeg": "Base launchpeg address",
          "revealStartTime": "New reveal start time"
        }
      },
      "VRFSet(address,bytes32,uint64,uint32)": {
        "details": "emitted on setVRF()",
        "params": {
          "_callbackGasLimit": "Max gas used by the coordinator callback",
          "_keyHash": "Keyhash of the gas lane wanted",
          "_subscriptionId": "Chainlink subscription ID",
          "_vrfCoordinator": "Chainlink coordinator address"
        }
      }
    },
    "kind": "dev",
    "methods": {
      "configure(address,uint256,uint256,uint256)": {
        "details": "Configure batch reveal for a given launch",
        "params": {
          "_baseLaunchpeg": "Base launchpeg address",
          "_revealBatchSize": "Size of the batch reveal",
          "_revealInterval": "Batch reveal interval",
          "_revealStartTime": "Batch reveal start time"
        }
      },
      "forceReveal(address)": {
        "details": "Force reveal, should be restricted to owner"
      },
      "getShuffledTokenId(address,uint256)": {
        "details": "Gets the random token URI number from tokenId",
        "params": {
          "_baseLaunchpeg": "Base launchpeg address",
          "_startId": "Token Id to consider"
        },
        "returns": {
          "_0": "uriId Revealed Token URI Id"
        }
      },
      "hasBatchToReveal(address,uint256)": {
        "details": "Returns true if a batch can be revealed",
        "params": {
          "_baseLaunchpeg": "Base launchpeg address",
          "_totalSupply": "Number of token already minted"
        },
        "returns": {
          "_0": "hasToRevealInfo Returns a bool saying whether a reveal can be triggered or not and the number of the next batch that will be revealed"
        }
      },
      "owner()": {
        "details": "Returns the address of the current owner."
      },
      "renounceOwnership()": {
        "details": "Leaves the contract without owner. It will not be possible to call `onlyOwner` functions anymore. Can only be called by the current owner. NOTE: Renouncing ownership will leave the contract without an owner, thereby removing any functionality that is only available to the owner."
      },
      "revealNextBatch(address,uint256)": {
        "details": "Reveals next batch if possibleIf using VRF, the reveal happens on the coordinator callback call",
        "params": {
          "_baseLaunchpeg": "Base launchpeg address",
          "_totalSupply": "Number of token already minted"
        },
        "returns": {
          "_0": "isRevealed Returns false if it is not possible to reveal the next batch"
        }
      },
      "setRevealBatchSize(address,uint256)": {
        "params": {
          "_baseLaunchpeg": "Base launchpeg address",
          "_revealBatchSize": "New reveal batch size"
        }
      },
      "setRevealInterval(address,uint256)": {
        "params": {
          "_baseLaunchpeg": "Base launchpeg address",
          "_revealInterval": "New batch reveal interval"
        }
      },
      "setRevealStartTime(address,uint256)": {
        "params": {
          "_baseLaunchpeg": "Base launchpeg address",
          "_revealStartTime": "New batch reveal start time"
        }
      },
      "setVRF(address,bytes32,uint64,uint32)": {
        "params": {
          "_callbackGasLimit": "Max gas used by the coordinator callback",
          "_keyHash": "Keyhash of the gas lane wanted",
          "_subscriptionId": "Chainlink subscription ID",
          "_vrfCoordinator": "Chainlink coordinator address"
        }
      },
      "transferOwnership(address)": {
        "details": "Transfers ownership of the contract to a new account (`newOwner`). Can only be called by the current owner."
      }
    },
    "stateVariables": {
      "launchpegToHasBeenForceRevealed": {
        "details": "VRF will not be used anymore if a batch has been force revealed"
      },
      "launchpegToRangeLength": {
        "details": "Size of the array that will store already taken URIs numbers by launchpeg"
      },
      "launchpegToVrfRequestedForBatch": {
        "details": "Prevents people from spamming the random words request and therefore reveal more batches than expected"
      }
    },
    "title": "BatchReveal",
    "version": 1
  },
  "userdoc": {
    "kind": "user",
    "methods": {
      "callbackGasLimit()": {
        "notice": "Depends on the number of requested values that you want sent to the fulfillRandomWords() function. Storing each word costs about 20,000 gas, so 100,000 is a safe default for this example contract. Test and adjust this limit based on the network that you select, the size of the request, and the processing of the callback request in the fulfillRandomWords() function."
      },
      "initialize()": {
        "notice": "Initialize batch reveal"
      },
      "isBatchRevealInitialized(address)": {
        "notice": "Returns true if batch reveal is configured for the given launchpeg Since the collection size is set only when batch reveal is initialized, and the collection size cannot be 0, we assume a 0 value means the batch reveal configuration has not been initialized."
      },
      "keyHash()": {
        "notice": "The gas lane to use, which specifies the maximum gas price to bump to. For a list of available gas lanes on each network, see https://docs.chain.link/docs/vrf-contracts/#configurations"
      },
      "launchpegToBatchToSeed(address,uint256)": {
        "notice": "Randomized seeds used to shuffle TokenURIs by launchpeg"
      },
      "launchpegToConfig(address)": {
        "notice": "Batch reveal configuration by launchpeg"
      },
      "launchpegToHasBeenForceRevealed(address)": {
        "notice": "True when force revealed has been triggered for the given launchpeg"
      },
      "launchpegToLastTokenReveal(address)": {
        "notice": "Last token that has been revealed by launchpeg"
      },
      "launchpegToNextBatchToReveal(address)": {
        "notice": "Next batch that will be revealed by VRF (if activated) by launchpeg"
      },
      "launchpegToVrfRequestedForBatch(address,uint256)": {
        "notice": "Has the random number for a batch already been asked by launchpeg"
      },
      "rawFulfillRandomWords(uint256,uint256[])": {
        "notice": "rawFulfillRandomness is called by VRFCoordinator when it receives a valid VRF proof. rawFulfillRandomness then calls fulfillRandomness, after validating the origin of the call"
      },
      "requestConfirmations()": {
        "notice": "Number of block confirmations that the coordinator will wait before triggering the callback The default is 3"
      },
      "setRevealBatchSize(address,uint256)": {
        "notice": "Set the reveal batch size. Can only be set after batch reveal has been initialized and before a batch has been revealed."
      },
      "setRevealInterval(address,uint256)": {
        "notice": "Set the batch reveal interval. Can only be set after batch reveal has been initialized and before a batch has been revealed."
      },
      "setRevealStartTime(address,uint256)": {
        "notice": "Set the batch reveal start time. Can only be set after batch reveal has been initialized and before a batch has been revealed."
      },
      "setVRF(address,bytes32,uint64,uint32)": {
        "notice": "Set VRF configuration"
      },
      "subscriptionId()": {
        "notice": "Chainlink subscription ID"
      },
      "useVRF()": {
        "notice": "Contract uses VRF or pseudo-randomness"
      },
      "vrfRequestIdToLaunchpeg(uint256)": {
        "notice": "VRF request ids by launchpeg"
      }
    },
    "notice": "Implements a gas efficient way of revealing NFT URIs gradually",
    "version": 1
  },
  "storageLayout": {
    "storage": [
      {
        "astId": 17692,
        "contract": "contracts/BatchReveal.sol:BatchReveal",
        "label": "vrfCoordinator",
        "offset": 0,
        "slot": "0",
        "type": "t_address"
      },
      {
        "astId": 825,
        "contract": "contracts/BatchReveal.sol:BatchReveal",
        "label": "_initialized",
        "offset": 20,
        "slot": "0",
        "type": "t_uint8"
      },
      {
        "astId": 828,
        "contract": "contracts/BatchReveal.sol:BatchReveal",
        "label": "_initializing",
        "offset": 21,
        "slot": "0",
        "type": "t_bool"
      },
      {
        "astId": 3314,
        "contract": "contracts/BatchReveal.sol:BatchReveal",
        "label": "__gap",
        "offset": 0,
        "slot": "1",
        "type": "t_array(t_uint256)50_storage"
      },
      {
        "astId": 678,
        "contract": "contracts/BatchReveal.sol:BatchReveal",
        "label": "_owner",
        "offset": 0,
        "slot": "51",
        "type": "t_address"
      },
      {
        "astId": 798,
        "contract": "contracts/BatchReveal.sol:BatchReveal",
        "label": "__gap",
        "offset": 0,
        "slot": "52",
        "type": "t_array(t_uint256)49_storage"
      },
      {
        "astId": 9288,
        "contract": "contracts/BatchReveal.sol:BatchReveal",
        "label": "launchpegToConfig",
        "offset": 0,
        "slot": "101",
        "type": "t_mapping(t_address,t_struct(BatchRevealConfig)18682_storage)"
      },
      {
        "astId": 9293,
        "contract": "contracts/BatchReveal.sol:BatchReveal",
        "label": "vrfRequestIdToLaunchpeg",
        "offset": 0,
        "slot": "102",
        "type": "t_mapping(t_uint256,t_address)"
      },
      {
        "astId": 9301,
        "contract": "contracts/BatchReveal.sol:BatchReveal",
        "label": "launchpegToBatchToSeed",
        "offset": 0,
        "slot": "103",
        "type": "t_mapping(t_address,t_mapping(t_uint256,t_uint256))"
      },
      {
        "astId": 9307,
        "contract": "contracts/BatchReveal.sol:BatchReveal",
        "label": "launchpegToLastTokenReveal",
        "offset": 0,
        "slot": "104",
        "type": "t_mapping(t_address,t_uint256)"
      },
      {
        "astId": 9312,
        "contract": "contracts/BatchReveal.sol:BatchReveal",
        "label": "launchpegToRangeLength",
        "offset": 0,
        "slot": "105",
        "type": "t_mapping(t_address,t_uint256)"
      },
      {
        "astId": 9316,
        "contract": "contracts/BatchReveal.sol:BatchReveal",
        "label": "useVRF",
        "offset": 0,
        "slot": "106",
        "type": "t_bool"
      },
      {
        "astId": 9320,
        "contract": "contracts/BatchReveal.sol:BatchReveal",
        "label": "subscriptionId",
        "offset": 1,
        "slot": "106",
        "type": "t_uint64"
      },
      {
        "astId": 9324,
        "contract": "contracts/BatchReveal.sol:BatchReveal",
        "label": "keyHash",
        "offset": 0,
        "slot": "107",
        "type": "t_bytes32"
      },
      {
        "astId": 9328,
        "contract": "contracts/BatchReveal.sol:BatchReveal",
        "label": "callbackGasLimit",
        "offset": 0,
        "slot": "108",
        "type": "t_uint32"
      },
      {
        "astId": 9339,
        "contract": "contracts/BatchReveal.sol:BatchReveal",
        "label": "launchpegToNextBatchToReveal",
        "offset": 0,
        "slot": "109",
        "type": "t_mapping(t_address,t_uint256)"
      },
      {
        "astId": 9345,
        "contract": "contracts/BatchReveal.sol:BatchReveal",
        "label": "launchpegToHasBeenForceRevealed",
        "offset": 0,
        "slot": "110",
        "type": "t_mapping(t_address,t_bool)"
      },
      {
        "astId": 9353,
        "contract": "contracts/BatchReveal.sol:BatchReveal",
        "label": "launchpegToVrfRequestedForBatch",
        "offset": 0,
        "slot": "111",
        "type": "t_mapping(t_address,t_mapping(t_uint256,t_bool))"
      }
    ],
    "types": {
      "t_address": {
        "encoding": "inplace",
        "label": "address",
        "numberOfBytes": "20"
      },
      "t_array(t_uint256)49_storage": {
        "base": "t_uint256",
        "encoding": "inplace",
        "label": "uint256[49]",
        "numberOfBytes": "1568"
      },
      "t_array(t_uint256)50_storage": {
        "base": "t_uint256",
        "encoding": "inplace",
        "label": "uint256[50]",
        "numberOfBytes": "1600"
      },
      "t_bool": {
        "encoding": "inplace",
        "label": "bool",
        "numberOfBytes": "1"
      },
      "t_bytes32": {
        "encoding": "inplace",
        "label": "bytes32",
        "numberOfBytes": "32"
      },
      "t_int128": {
        "encoding": "inplace",
        "label": "int128",
        "numberOfBytes": "16"
      },
      "t_mapping(t_address,t_bool)": {
        "encoding": "mapping",
        "key": "t_address",
        "label": "mapping(address => bool)",
        "numberOfBytes": "32",
        "value": "t_bool"
      },
      "t_mapping(t_address,t_mapping(t_uint256,t_bool))": {
        "encoding": "mapping",
        "key": "t_address",
        "label": "mapping(address => mapping(uint256 => bool))",
        "numberOfBytes": "32",
        "value": "t_mapping(t_uint256,t_bool)"
      },
      "t_mapping(t_address,t_mapping(t_uint256,t_uint256))": {
        "encoding": "mapping",
        "key": "t_address",
        "label": "mapping(address => mapping(uint256 => uint256))",
        "numberOfBytes": "32",
        "value": "t_mapping(t_uint256,t_uint256)"
      },
      "t_mapping(t_address,t_struct(BatchRevealConfig)18682_storage)": {
        "encoding": "mapping",
        "key": "t_address",
        "label": "mapping(address => struct IBatchReveal.BatchRevealConfig)",
        "numberOfBytes": "32",
        "value": "t_struct(BatchRevealConfig)18682_storage"
      },
      "t_mapping(t_address,t_uint256)": {
        "encoding": "mapping",
        "key": "t_address",
        "label": "mapping(address => uint256)",
        "numberOfBytes": "32",
        "value": "t_uint256"
      },
      "t_mapping(t_uint256,t_address)": {
        "encoding": "mapping",
        "key": "t_uint256",
        "label": "mapping(uint256 => address)",
        "numberOfBytes": "32",
        "value": "t_address"
      },
      "t_mapping(t_uint256,t_bool)": {
        "encoding": "mapping",
        "key": "t_uint256",
        "label": "mapping(uint256 => bool)",
        "numberOfBytes": "32",
        "value": "t_bool"
      },
      "t_mapping(t_uint256,t_uint256)": {
        "encoding": "mapping",
        "key": "t_uint256",
        "label": "mapping(uint256 => uint256)",
        "numberOfBytes": "32",
        "value": "t_uint256"
      },
      "t_struct(BatchRevealConfig)18682_storage": {
        "encoding": "inplace",
        "label": "struct IBatchReveal.BatchRevealConfig",
        "members": [
          {
            "astId": 18670,
            "contract": "contracts/BatchReveal.sol:BatchReveal",
            "label": "collectionSize",
            "offset": 0,
            "slot": "0",
            "type": "t_uint256"
          },
          {
            "astId": 18672,
            "contract": "contracts/BatchReveal.sol:BatchReveal",
            "label": "intCollectionSize",
            "offset": 0,
            "slot": "1",
            "type": "t_int128"
          },
          {
            "astId": 18675,
            "contract": "contracts/BatchReveal.sol:BatchReveal",
            "label": "revealBatchSize",
            "offset": 0,
            "slot": "2",
            "type": "t_uint256"
          },
          {
            "astId": 18678,
            "contract": "contracts/BatchReveal.sol:BatchReveal",
            "label": "revealStartTime",
            "offset": 0,
            "slot": "3",
            "type": "t_uint256"
          },
          {
            "astId": 18681,
            "contract": "contracts/BatchReveal.sol:BatchReveal",
            "label": "revealInterval",
            "offset": 0,
            "slot": "4",
            "type": "t_uint256"
          }
        ],
        "numberOfBytes": "160"
      },
      "t_uint256": {
        "encoding": "inplace",
        "label": "uint256",
        "numberOfBytes": "32"
      },
      "t_uint32": {
        "encoding": "inplace",
        "label": "uint32",
        "numberOfBytes": "4"
      },
      "t_uint64": {
        "encoding": "inplace",
        "label": "uint64",
        "numberOfBytes": "8"
      },
      "t_uint8": {
        "encoding": "inplace",
        "label": "uint8",
        "numberOfBytes": "1"
      }
    }
  }
}