{
  "address": "0xce7a5026c27df8FeC436969E45BF3C0Ad94Bd57f",
  "abi": [
    {
      "inputs": [
        {
          "internalType": "contract ILaunchpegFactory",
          "name": "_launchpegFactoryV1",
          "type": "address"
        },
        {
          "internalType": "contract ILaunchpegFactory",
          "name": "_launchpegFactoryV2",
          "type": "address"
        },
        {
          "internalType": "address",
          "name": "_batchReveal",
          "type": "address"
        }
      ],
      "stateMutability": "nonpayable",
      "type": "constructor"
    },
    {
      "inputs": [],
      "name": "LaunchpegLens__InvalidContract",
      "type": "error"
    },
    {
      "inputs": [],
      "name": "LaunchpegLens__InvalidLaunchpegType",
      "type": "error"
    },
    {
      "inputs": [],
      "name": "LaunchpegLens__InvalidLaunchpegVersion",
      "type": "error"
    },
    {
      "inputs": [],
      "name": "batchReveal",
      "outputs": [
        {
          "internalType": "address",
          "name": "",
          "type": "address"
        }
      ],
      "stateMutability": "view",
      "type": "function"
    },
    {
      "inputs": [
        {
          "internalType": "address",
          "name": "_launchpeg",
          "type": "address"
        },
        {
          "internalType": "address",
          "name": "_user",
          "type": "address"
        }
      ],
      "name": "getLaunchpegData",
      "outputs": [
        {
          "components": [
            {
              "internalType": "address",
              "name": "id",
              "type": "address"
            },
            {
              "internalType": "enum LaunchpegLens.LaunchpegType",
              "name": "launchType",
              "type": "uint8"
            },
            {
              "components": [
                {
                  "internalType": "string",
                  "name": "name",
                  "type": "string"
                },
                {
                  "internalType": "string",
                  "name": "symbol",
                  "type": "string"
                },
                {
                  "internalType": "uint256",
                  "name": "collectionSize",
                  "type": "uint256"
                },
                {
                  "internalType": "uint256",
                  "name": "maxPerAddressDuringMint",
                  "type": "uint256"
                },
                {
                  "internalType": "uint256",
                  "name": "totalSupply",
                  "type": "uint256"
                },
                {
                  "internalType": "string",
                  "name": "unrevealedURI",
                  "type": "string"
                },
                {
                  "internalType": "string",
                  "name": "baseURI",
                  "type": "string"
                }
              ],
              "internalType": "struct LaunchpegLens.CollectionData",
              "name": "collectionData",
              "type": "tuple"
            },
            {
              "components": [
                {
                  "internalType": "enum IBaseLaunchpeg.Phase",
                  "name": "currentPhase",
                  "type": "uint8"
                },
                {
                  "internalType": "uint256",
                  "name": "amountForAuction",
                  "type": "uint256"
                },
                {
                  "internalType": "uint256",
                  "name": "amountForAllowlist",
                  "type": "uint256"
                },
                {
                  "internalType": "uint256",
                  "name": "amountForDevs",
                  "type": "uint256"
                },
                {
                  "internalType": "uint256",
                  "name": "auctionSaleStartTime",
                  "type": "uint256"
                },
                {
                  "internalType": "uint256",
                  "name": "preMintStartTime",
                  "type": "uint256"
                },
                {
                  "internalType": "uint256",
                  "name": "allowlistStartTime",
                  "type": "uint256"
                },
                {
                  "internalType": "uint256",
                  "name": "publicSaleStartTime",
                  "type": "uint256"
                },
                {
                  "internalType": "uint256",
                  "name": "publicSaleEndTime",
                  "type": "uint256"
                },
                {
                  "internalType": "uint256",
                  "name": "auctionStartPrice",
                  "type": "uint256"
                },
                {
                  "internalType": "uint256",
                  "name": "auctionEndPrice",
                  "type": "uint256"
                },
                {
                  "internalType": "uint256",
                  "name": "auctionSaleDuration",
                  "type": "uint256"
                },
                {
                  "internalType": "uint256",
                  "name": "auctionDropInterval",
                  "type": "uint256"
                },
                {
                  "internalType": "uint256",
                  "name": "auctionDropPerStep",
                  "type": "uint256"
                },
                {
                  "internalType": "uint256",
                  "name": "allowlistDiscountPercent",
                  "type": "uint256"
                },
                {
                  "internalType": "uint256",
                  "name": "publicSaleDiscountPercent",
                  "type": "uint256"
                },
                {
                  "internalType": "uint256",
                  "name": "auctionPrice",
                  "type": "uint256"
                },
                {
                  "internalType": "uint256",
                  "name": "allowlistPrice",
                  "type": "uint256"
                },
                {
                  "internalType": "uint256",
                  "name": "publicSalePrice",
                  "type": "uint256"
                },
                {
                  "internalType": "uint256",
                  "name": "lastAuctionPrice",
                  "type": "uint256"
                },
                {
                  "internalType": "uint256",
                  "name": "amountMintedDuringAuction",
                  "type": "uint256"
                },
                {
                  "internalType": "uint256",
                  "name": "amountMintedDuringPreMint",
                  "type": "uint256"
                },
                {
                  "internalType": "uint256",
                  "name": "amountClaimedDuringPreMint",
                  "type": "uint256"
                },
                {
                  "internalType": "uint256",
                  "name": "amountMintedDuringAllowlist",
                  "type": "uint256"
                },
                {
                  "internalType": "uint256",
                  "name": "amountMintedDuringPublicSale",
                  "type": "uint256"
                }
              ],
              "internalType": "struct LaunchpegLens.LaunchpegData",
              "name": "launchpegData",
              "type": "tuple"
            },
            {
              "components": [
                {
                  "internalType": "enum IBaseLaunchpeg.Phase",
                  "name": "currentPhase",
                  "type": "uint8"
                },
                {
                  "internalType": "uint256",
                  "name": "amountForAllowlist",
                  "type": "uint256"
                },
                {
                  "internalType": "uint256",
                  "name": "amountForDevs",
                  "type": "uint256"
                },
                {
                  "internalType": "uint256",
                  "name": "preMintStartTime",
                  "type": "uint256"
                },
                {
                  "internalType": "uint256",
                  "name": "allowlistStartTime",
                  "type": "uint256"
                },
                {
                  "internalType": "uint256",
                  "name": "publicSaleStartTime",
                  "type": "uint256"
                },
                {
                  "internalType": "uint256",
                  "name": "publicSaleEndTime",
                  "type": "uint256"
                },
                {
                  "internalType": "uint256",
                  "name": "allowlistPrice",
                  "type": "uint256"
                },
                {
                  "internalType": "uint256",
                  "name": "salePrice",
                  "type": "uint256"
                },
                {
                  "internalType": "uint256",
                  "name": "amountMintedDuringPreMint",
                  "type": "uint256"
                },
                {
                  "internalType": "uint256",
                  "name": "amountClaimedDuringPreMint",
                  "type": "uint256"
                },
                {
                  "internalType": "uint256",
                  "name": "amountMintedDuringAllowlist",
                  "type": "uint256"
                },
                {
                  "internalType": "uint256",
                  "name": "amountMintedDuringPublicSale",
                  "type": "uint256"
                }
              ],
              "internalType": "struct LaunchpegLens.FlatLaunchpegData",
              "name": "flatLaunchpegData",
              "type": "tuple"
            },
            {
              "components": [
                {
                  "internalType": "uint256",
                  "name": "revealBatchSize",
                  "type": "uint256"
                },
                {
                  "internalType": "uint256",
                  "name": "lastTokenRevealed",
                  "type": "uint256"
                },
                {
                  "internalType": "uint256",
                  "name": "revealStartTime",
                  "type": "uint256"
                },
                {
                  "internalType": "uint256",
                  "name": "revealInterval",
                  "type": "uint256"
                }
              ],
              "internalType": "struct LaunchpegLens.RevealData",
              "name": "revealData",
              "type": "tuple"
            },
            {
              "components": [
                {
                  "internalType": "uint256",
                  "name": "balanceOf",
                  "type": "uint256"
                },
                {
                  "internalType": "uint256",
                  "name": "numberMinted",
                  "type": "uint256"
                },
                {
                  "internalType": "uint256",
                  "name": "numberMintedWithPreMint",
                  "type": "uint256"
                },
                {
                  "internalType": "uint256",
                  "name": "allowanceForAllowlistMint",
                  "type": "uint256"
                }
              ],
              "internalType": "struct LaunchpegLens.UserData",
              "name": "userData",
              "type": "tuple"
            },
            {
              "components": [
                {
                  "internalType": "address[]",
                  "name": "projectOwners",
                  "type": "address[]"
                },
                {
                  "internalType": "uint256",
                  "name": "amountMintedByDevs",
                  "type": "uint256"
                },
                {
                  "internalType": "uint256",
                  "name": "withdrawAVAXStartTime",
                  "type": "uint256"
                },
                {
                  "internalType": "uint256",
                  "name": "launchpegBalanceAVAX",
                  "type": "uint256"
                }
              ],
              "internalType": "struct LaunchpegLens.ProjectOwnerData",
              "name": "projectOwnerData",
              "type": "tuple"
            },
            {
              "components": [
                {
                  "internalType": "uint256[]",
                  "name": "tokenSet",
                  "type": "uint256[]"
                },
                {
                  "internalType": "enum IBaseLaunchpeg.Phase",
                  "name": "currentPhase",
                  "type": "uint8"
                },
                {
                  "internalType": "uint256",
                  "name": "amountForAllowlist",
                  "type": "uint256"
                },
                {
                  "internalType": "uint256",
                  "name": "amountForDevs",
                  "type": "uint256"
                },
                {
                  "internalType": "uint256",
                  "name": "preMintStartTime",
                  "type": "uint256"
                },
                {
                  "internalType": "uint256",
                  "name": "publicSaleStartTime",
                  "type": "uint256"
                },
                {
                  "internalType": "uint256",
                  "name": "publicSaleEndTime",
                  "type": "uint256"
                },
                {
                  "internalType": "uint256",
                  "name": "allowlistPrice",
                  "type": "uint256"
                },
                {
                  "internalType": "uint256",
                  "name": "salePrice",
                  "type": "uint256"
                },
                {
                  "internalType": "uint256",
                  "name": "amountMintedDuringPreMint",
                  "type": "uint256"
                },
                {
                  "internalType": "uint256",
                  "name": "amountClaimedDuringPreMint",
                  "type": "uint256"
                },
                {
                  "internalType": "uint256",
                  "name": "amountMintedDuringAllowlist",
                  "type": "uint256"
                },
                {
                  "internalType": "uint256",
                  "name": "amountMintedDuringPublicSale",
                  "type": "uint256"
                }
              ],
              "internalType": "struct LaunchpegLens.ERC1155SingleBundleData",
              "name": "erc1155SingleBundleData",
              "type": "tuple"
            }
          ],
          "internalType": "struct LaunchpegLens.LensData",
          "name": "",
          "type": "tuple"
        }
      ],
      "stateMutability": "view",
      "type": "function"
    },
    {
      "inputs": [
        {
          "internalType": "address",
          "name": "_contract",
          "type": "address"
        }
      ],
      "name": "getLaunchpegType",
      "outputs": [
        {
          "internalType": "enum LaunchpegLens.LaunchpegType",
          "name": "",
          "type": "uint8"
        },
        {
          "internalType": "enum LaunchpegLens.LaunchpegVersion",
          "name": "",
          "type": "uint8"
        }
      ],
      "stateMutability": "view",
      "type": "function"
    },
    {
      "inputs": [
        {
          "internalType": "enum LaunchpegLens.LaunchpegType",
          "name": "_type",
          "type": "uint8"
        },
        {
          "internalType": "enum LaunchpegLens.LaunchpegVersion",
          "name": "_version",
          "type": "uint8"
        },
        {
          "internalType": "uint256",
          "name": "_number",
          "type": "uint256"
        },
        {
          "internalType": "uint256",
          "name": "_limit",
          "type": "uint256"
        },
        {
          "internalType": "address",
          "name": "_user",
          "type": "address"
        }
      ],
      "name": "getLaunchpegsByTypeAndVersion",
      "outputs": [
        {
          "components": [
            {
              "internalType": "address",
              "name": "id",
              "type": "address"
            },
            {
              "internalType": "enum LaunchpegLens.LaunchpegType",
              "name": "launchType",
              "type": "uint8"
            },
            {
              "components": [
                {
                  "internalType": "string",
                  "name": "name",
                  "type": "string"
                },
                {
                  "internalType": "string",
                  "name": "symbol",
                  "type": "string"
                },
                {
                  "internalType": "uint256",
                  "name": "collectionSize",
                  "type": "uint256"
                },
                {
                  "internalType": "uint256",
                  "name": "maxPerAddressDuringMint",
                  "type": "uint256"
                },
                {
                  "internalType": "uint256",
                  "name": "totalSupply",
                  "type": "uint256"
                },
                {
                  "internalType": "string",
                  "name": "unrevealedURI",
                  "type": "string"
                },
                {
                  "internalType": "string",
                  "name": "baseURI",
                  "type": "string"
                }
              ],
              "internalType": "struct LaunchpegLens.CollectionData",
              "name": "collectionData",
              "type": "tuple"
            },
            {
              "components": [
                {
                  "internalType": "enum IBaseLaunchpeg.Phase",
                  "name": "currentPhase",
                  "type": "uint8"
                },
                {
                  "internalType": "uint256",
                  "name": "amountForAuction",
                  "type": "uint256"
                },
                {
                  "internalType": "uint256",
                  "name": "amountForAllowlist",
                  "type": "uint256"
                },
                {
                  "internalType": "uint256",
                  "name": "amountForDevs",
                  "type": "uint256"
                },
                {
                  "internalType": "uint256",
                  "name": "auctionSaleStartTime",
                  "type": "uint256"
                },
                {
                  "internalType": "uint256",
                  "name": "preMintStartTime",
                  "type": "uint256"
                },
                {
                  "internalType": "uint256",
                  "name": "allowlistStartTime",
                  "type": "uint256"
                },
                {
                  "internalType": "uint256",
                  "name": "publicSaleStartTime",
                  "type": "uint256"
                },
                {
                  "internalType": "uint256",
                  "name": "publicSaleEndTime",
                  "type": "uint256"
                },
                {
                  "internalType": "uint256",
                  "name": "auctionStartPrice",
                  "type": "uint256"
                },
                {
                  "internalType": "uint256",
                  "name": "auctionEndPrice",
                  "type": "uint256"
                },
                {
                  "internalType": "uint256",
                  "name": "auctionSaleDuration",
                  "type": "uint256"
                },
                {
                  "internalType": "uint256",
                  "name": "auctionDropInterval",
                  "type": "uint256"
                },
                {
                  "internalType": "uint256",
                  "name": "auctionDropPerStep",
                  "type": "uint256"
                },
                {
                  "internalType": "uint256",
                  "name": "allowlistDiscountPercent",
                  "type": "uint256"
                },
                {
                  "internalType": "uint256",
                  "name": "publicSaleDiscountPercent",
                  "type": "uint256"
                },
                {
                  "internalType": "uint256",
                  "name": "auctionPrice",
                  "type": "uint256"
                },
                {
                  "internalType": "uint256",
                  "name": "allowlistPrice",
                  "type": "uint256"
                },
                {
                  "internalType": "uint256",
                  "name": "publicSalePrice",
                  "type": "uint256"
                },
                {
                  "internalType": "uint256",
                  "name": "lastAuctionPrice",
                  "type": "uint256"
                },
                {
                  "internalType": "uint256",
                  "name": "amountMintedDuringAuction",
                  "type": "uint256"
                },
                {
                  "internalType": "uint256",
                  "name": "amountMintedDuringPreMint",
                  "type": "uint256"
                },
                {
                  "internalType": "uint256",
                  "name": "amountClaimedDuringPreMint",
                  "type": "uint256"
                },
                {
                  "internalType": "uint256",
                  "name": "amountMintedDuringAllowlist",
                  "type": "uint256"
                },
                {
                  "internalType": "uint256",
                  "name": "amountMintedDuringPublicSale",
                  "type": "uint256"
                }
              ],
              "internalType": "struct LaunchpegLens.LaunchpegData",
              "name": "launchpegData",
              "type": "tuple"
            },
            {
              "components": [
                {
                  "internalType": "enum IBaseLaunchpeg.Phase",
                  "name": "currentPhase",
                  "type": "uint8"
                },
                {
                  "internalType": "uint256",
                  "name": "amountForAllowlist",
                  "type": "uint256"
                },
                {
                  "internalType": "uint256",
                  "name": "amountForDevs",
                  "type": "uint256"
                },
                {
                  "internalType": "uint256",
                  "name": "preMintStartTime",
                  "type": "uint256"
                },
                {
                  "internalType": "uint256",
                  "name": "allowlistStartTime",
                  "type": "uint256"
                },
                {
                  "internalType": "uint256",
                  "name": "publicSaleStartTime",
                  "type": "uint256"
                },
                {
                  "internalType": "uint256",
                  "name": "publicSaleEndTime",
                  "type": "uint256"
                },
                {
                  "internalType": "uint256",
                  "name": "allowlistPrice",
                  "type": "uint256"
                },
                {
                  "internalType": "uint256",
                  "name": "salePrice",
                  "type": "uint256"
                },
                {
                  "internalType": "uint256",
                  "name": "amountMintedDuringPreMint",
                  "type": "uint256"
                },
                {
                  "internalType": "uint256",
                  "name": "amountClaimedDuringPreMint",
                  "type": "uint256"
                },
                {
                  "internalType": "uint256",
                  "name": "amountMintedDuringAllowlist",
                  "type": "uint256"
                },
                {
                  "internalType": "uint256",
                  "name": "amountMintedDuringPublicSale",
                  "type": "uint256"
                }
              ],
              "internalType": "struct LaunchpegLens.FlatLaunchpegData",
              "name": "flatLaunchpegData",
              "type": "tuple"
            },
            {
              "components": [
                {
                  "internalType": "uint256",
                  "name": "revealBatchSize",
                  "type": "uint256"
                },
                {
                  "internalType": "uint256",
                  "name": "lastTokenRevealed",
                  "type": "uint256"
                },
                {
                  "internalType": "uint256",
                  "name": "revealStartTime",
                  "type": "uint256"
                },
                {
                  "internalType": "uint256",
                  "name": "revealInterval",
                  "type": "uint256"
                }
              ],
              "internalType": "struct LaunchpegLens.RevealData",
              "name": "revealData",
              "type": "tuple"
            },
            {
              "components": [
                {
                  "internalType": "uint256",
                  "name": "balanceOf",
                  "type": "uint256"
                },
                {
                  "internalType": "uint256",
                  "name": "numberMinted",
                  "type": "uint256"
                },
                {
                  "internalType": "uint256",
                  "name": "numberMintedWithPreMint",
                  "type": "uint256"
                },
                {
                  "internalType": "uint256",
                  "name": "allowanceForAllowlistMint",
                  "type": "uint256"
                }
              ],
              "internalType": "struct LaunchpegLens.UserData",
              "name": "userData",
              "type": "tuple"
            },
            {
              "components": [
                {
                  "internalType": "address[]",
                  "name": "projectOwners",
                  "type": "address[]"
                },
                {
                  "internalType": "uint256",
                  "name": "amountMintedByDevs",
                  "type": "uint256"
                },
                {
                  "internalType": "uint256",
                  "name": "withdrawAVAXStartTime",
                  "type": "uint256"
                },
                {
                  "internalType": "uint256",
                  "name": "launchpegBalanceAVAX",
                  "type": "uint256"
                }
              ],
              "internalType": "struct LaunchpegLens.ProjectOwnerData",
              "name": "projectOwnerData",
              "type": "tuple"
            },
            {
              "components": [
                {
                  "internalType": "uint256[]",
                  "name": "tokenSet",
                  "type": "uint256[]"
                },
                {
                  "internalType": "enum IBaseLaunchpeg.Phase",
                  "name": "currentPhase",
                  "type": "uint8"
                },
                {
                  "internalType": "uint256",
                  "name": "amountForAllowlist",
                  "type": "uint256"
                },
                {
                  "internalType": "uint256",
                  "name": "amountForDevs",
                  "type": "uint256"
                },
                {
                  "internalType": "uint256",
                  "name": "preMintStartTime",
                  "type": "uint256"
                },
                {
                  "internalType": "uint256",
                  "name": "publicSaleStartTime",
                  "type": "uint256"
                },
                {
                  "internalType": "uint256",
                  "name": "publicSaleEndTime",
                  "type": "uint256"
                },
                {
                  "internalType": "uint256",
                  "name": "allowlistPrice",
                  "type": "uint256"
                },
                {
                  "internalType": "uint256",
                  "name": "salePrice",
                  "type": "uint256"
                },
                {
                  "internalType": "uint256",
                  "name": "amountMintedDuringPreMint",
                  "type": "uint256"
                },
                {
                  "internalType": "uint256",
                  "name": "amountClaimedDuringPreMint",
                  "type": "uint256"
                },
                {
                  "internalType": "uint256",
                  "name": "amountMintedDuringAllowlist",
                  "type": "uint256"
                },
                {
                  "internalType": "uint256",
                  "name": "amountMintedDuringPublicSale",
                  "type": "uint256"
                }
              ],
              "internalType": "struct LaunchpegLens.ERC1155SingleBundleData",
              "name": "erc1155SingleBundleData",
              "type": "tuple"
            }
          ],
          "internalType": "struct LaunchpegLens.LensData[]",
          "name": "",
          "type": "tuple[]"
        }
      ],
      "stateMutability": "view",
      "type": "function"
    },
    {
      "inputs": [],
      "name": "launchpegFactoryV1",
      "outputs": [
        {
          "internalType": "contract ILaunchpegFactory",
          "name": "",
          "type": "address"
        }
      ],
      "stateMutability": "view",
      "type": "function"
    },
    {
      "inputs": [],
      "name": "launchpegFactoryV2",
      "outputs": [
        {
          "internalType": "contract ILaunchpegFactory",
          "name": "",
          "type": "address"
        }
      ],
      "stateMutability": "view",
      "type": "function"
    }
  ],
  "transactionHash": "0x675220dee24a5d7eeac2c9b38d260666c39251ba7deee6b7b72443212b7c2698",
  "args": [
    "0x89297078202199faB30E4cF73579f97793174245",
    "0xd4f4aDcBa388FF16f0D1CDABA2038734a9CAbD10",
    "0xC01f9C8Bd9272160a9A48eC62ee71E2be291DE30"
  ],
  "numDeployments": 2,
  "solcInputHash": "c0c857967c3bfd4b475d7beba1d60f90",
  "bytecode": "0x60e06040523480156200001157600080fd5b5060405162003c3038038062003c3083398101604081905262000034916200006b565b6001600160a01b0392831660805290821660a0521660c052620000bf565b6001600160a01b03811681146200006857600080fd5b50565b6000806000606084860312156200008157600080fd5b83516200008e8162000052565b6020850151909350620000a18162000052565b6040850151909250620000b48162000052565b809150509250925092565b60805160a05160c051613b056200012b6000396000818160950152818161104001526110fa01526000818160c9015281816101d6015281816104df0152818161062101526106c101526000818160f0015281816101fc0152818161042a01526105800152613b056000f3fe608060405234801561001057600080fd5b50600436106100625760003560e01c806304fa66ba1461006757806321cc161114610090578063522ea9bc146100c457806354dbc616146100eb578063a6a7b3ea14610112578063d0b54b3b14610133575b600080fd5b61007a61007536600461314c565b610153565b60405161008791906136a1565b60405180910390f35b6100b77f000000000000000000000000000000000000000000000000000000000000000081565b6040516100879190613703565b6100b77f000000000000000000000000000000000000000000000000000000000000000081565b6100b77f000000000000000000000000000000000000000000000000000000000000000081565b610125610120366004613717565b610425565b60405161008792919061373b565b610146610141366004613766565b610756565b604051610087919061379f565b60606000866003811115610169576101696131b3565b036101875760405163883ee45160e01b815260040160405180910390fd5b600085600281111561019b5761019b6131b3565b036101b9576040516305fdabfd60e41b815260040160405180910390fd5b600060018660028111156101cf576101cf6131b3565b146101fa577f000000000000000000000000000000000000000000000000000000000000000061021c565b7f00000000000000000000000000000000000000000000000000000000000000005b905060006001886003811115610234576102346131b3565b61023e91906137c8565b60ff1690506000826001600160a01b031663776f1b1c836040518263ffffffff1660e01b815260040161027391815260200190565b602060405180830381865afa158015610290573d6000803e3d6000fd5b505050506040513d601f19601f820116820180604052508101906102b491906137eb565b905060008187116102c557866102c7565b815b905060008189116102e1576102dc8983613804565b6102e4565b60005b905060606102f28284613804565b6001600160401b038111156103095761030961381b565b60405190808252806020026020018201604052801561034257816020015b61032f612ea5565b8152602001906001900390816103275790505b50905060005b8151811015610415576103e56001600160a01b03881663306ec748888461037060018a613804565b61037a9190613804565b6040516001600160e01b031960e085901b16815260048101929092526024820152604401602060405180830381865afa1580156103bb573d6000803e3d6000fd5b505050506040513d601f19601f820116820180604052508101906103df9190613831565b8a610756565b8282815181106103f7576103f761384e565b6020026020010181905250808061040d90613864565b915050610348565b509b9a5050505050505050505050565b6000807f00000000000000000000000000000000000000000000000000000000000000006001600160a01b031663abcc76176000856040518363ffffffff1660e01b815260040161047792919061387d565b602060405180830381865afa158015610494573d6000803e3d6000fd5b505050506040513d601f19601f820116820180604052508101906104b89190613894565b156104c857506001928392509050565b60405163abcc761760e01b81526001600160a01b037f0000000000000000000000000000000000000000000000000000000000000000169063abcc76179061051790600090879060040161387d565b602060405180830381865afa158015610534573d6000803e3d6000fd5b505050506040513d601f19601f820116820180604052508101906105589190613894565b156105695750600192600292509050565b60405163abcc761760e01b81526001600160a01b037f0000000000000000000000000000000000000000000000000000000000000000169063abcc7617906105b890600190879060040161387d565b602060405180830381865afa1580156105d5573d6000803e3d6000fd5b505050506040513d601f19601f820116820180604052508101906105f99190613894565b1561060a5750600292600192509050565b60405163abcc761760e01b81526001600160a01b037f0000000000000000000000000000000000000000000000000000000000000000169063abcc76179061065990600190879060040161387d565b602060405180830381865afa158015610676573d6000803e3d6000fd5b505050506040513d601f19601f8201168201806040525081019061069a9190613894565b156106aa57506002928392509050565b60405163abcc761760e01b81526001600160a01b037f0000000000000000000000000000000000000000000000000000000000000000169063abcc7617906106f990600290879060040161387d565b602060405180830381865afa158015610716573d6000803e3d6000fd5b505050506040513d601f19601f8201168201806040525081019061073a9190613894565b1561074b5750600392600292509050565b506000928392509050565b61075e612ea5565b60008061076a85610425565b90925090506000826003811115610783576107836131b3565b036107a157604051630ca92ff360e31b815260040160405180910390fd5b6107a9612ea5565b6001600160a01b0386168152602081018360038111156107cb576107cb6131b3565b908160038111156107de576107de6131b3565b9052506107eb86846108d7565b60408201526107fa8683610c67565b60e0820152600381602001516003811115610817576108176131b3565b1461082c576108268683610e4c565b60a08201525b61083886838588611180565b60c0820152600181602001516003811115610855576108556131b3565b0361086e576108648683611589565b60608201526108cc565b600281602001516003811115610886576108866131b3565b0361089f57610895868361214f565b60808201526108cc565b6003816020015160038111156108b7576108b76131b3565b036108cc576108c586612709565b6101008201525b925050505b92915050565b6108df612f18565b826001600160a01b03166306fdde036040518163ffffffff1660e01b8152600401600060405180830381865afa15801561091d573d6000803e3d6000fd5b505050506040513d6000823e601f3d908101601f1916820160405261094591908101906138e6565b8160000181905250826001600160a01b03166395d89b416040518163ffffffff1660e01b8152600401600060405180830381865afa15801561098b573d6000803e3d6000fd5b505050506040513d6000823e601f3d908101601f191682016040526109b391908101906138e6565b8160200181905250826001600160a01b03166345c0f5336040518163ffffffff1660e01b8152600401602060405180830381865afa1580156109f9573d6000803e3d6000fd5b505050506040513d601f19601f82011682018060405250810190610a1d91906137eb565b816040018181525050826001600160a01b0316638bc35c2f6040518163ffffffff1660e01b8152600401602060405180830381865afa158015610a64573d6000803e3d6000fd5b505050506040513d601f19601f82011682018060405250810190610a8891906137eb565b60608201526003826003811115610aa157610aa16131b3565b14610bef57826001600160a01b03166318160ddd6040518163ffffffff1660e01b8152600401602060405180830381865afa158015610ae4573d6000803e3d6000fd5b505050506040513d601f19601f82011682018060405250810190610b0891906137eb565b816080018181525050826001600160a01b0316637035bf186040518163ffffffff1660e01b8152600401600060405180830381865afa158015610b4f573d6000803e3d6000fd5b505050506040513d6000823e601f3d908101601f19168201604052610b7791908101906138e6565b8160a00181905250826001600160a01b0316636c0360eb6040518163ffffffff1660e01b8152600401600060405180830381865afa158015610bbd573d6000803e3d6000fd5b505050506040513d6000823e601f3d908101601f19168201604052610be591908101906138e6565b60c08201526108d1565b6040516303a24d0760e21b8152600060048201526001600160a01b03841690630e89341c90602401600060405180830381865afa158015610c34573d6000803e3d6000fd5b505050506040513d6000823e601f3d908101601f19168201604052610c5c91908101906138e6565b60c082015292915050565b610c6f612f55565b826001600160a01b0316635c7034af6040518163ffffffff1660e01b8152600401602060405180830381865afa158015610cad573d6000803e3d6000fd5b505050506040513d601f19601f82011682018060405250810190610cd191906137eb565b60208201526001600160a01b0383163160608201526001826002811115610cfa57610cfa6131b3565b03610db55760408051600180825281830190925260009160208083019080368337019050509050836001600160a01b031663a4475ce46040518163ffffffff1660e01b8152600401602060405180830381865afa158015610d5f573d6000803e3d6000fd5b505050506040513d601f19601f82011682018060405250810190610d839190613831565b81600081518110610d9657610d9661384e565b6001600160a01b039092166020928302919091019091015281526108d1565b6002826002811115610dc957610dc96131b3565b036108d157610dd783612cc8565b8160000181905250826001600160a01b031663c792e1676040518163ffffffff1660e01b8152600401602060405180830381865afa158015610e1d573d6000803e3d6000fd5b505050506040513d601f19601f82011682018060405250810190610e4191906137eb565b604082015292915050565b610e54612f7d565b6001826002811115610e6857610e686131b3565b03611020576000839050806001600160a01b0316630b5648106040518163ffffffff1660e01b8152600401602060405180830381865afa158015610eb0573d6000803e3d6000fd5b505050506040513d601f19601f82011682018060405250810190610ed491906137eb565b826000018181525050806001600160a01b031663cc0bef846040518163ffffffff1660e01b8152600401602060405180830381865afa158015610f1b573d6000803e3d6000fd5b505050506040513d601f19601f82011682018060405250810190610f3f91906137eb565b826040018181525050806001600160a01b031663247cd8ad6040518163ffffffff1660e01b8152600401602060405180830381865afa158015610f86573d6000803e3d6000fd5b505050506040513d601f19601f82011682018060405250810190610faa91906137eb565b826060018181525050806001600160a01b031663f43191956040518163ffffffff1660e01b8152600401602060405180830381865afa158015610ff1573d6000803e3d6000fd5b505050506040513d601f19601f8201168201806040525081019061101591906137eb565b6020830152506108d1565b6002826002811115611034576110346131b3565b036108d15760008060007f00000000000000000000000000000000000000000000000000000000000000006001600160a01b031663181d2588876040518263ffffffff1660e01b815260040161108a9190613703565b60a060405180830381865afa1580156110a7573d6000803e3d6000fd5b505050506040513d601f19601f820116820180604052508101906110cb9190613970565b8289526040808a0183905260608a0182905251635e1578db60e11b815292975090955093506001600160a01b037f000000000000000000000000000000000000000000000000000000000000000016925063bc2af1b69150611131908990600401613703565b602060405180830381865afa15801561114e573d6000803e3d6000fd5b505050506040513d601f19601f8201168201806040525081019061117291906137eb565b602085015250505092915050565b611188612f7d565b6001600160a01b038216156115815760405163dc33e68160e01b81526001600160a01b0386169063dc33e681906111c3908590600401613703565b602060405180830381865afa1580156111e0573d6000803e3d6000fd5b505050506040513d601f19601f8201168201806040525081019061120491906137eb565b602082015260405163a7cd52cb60e01b81526001600160a01b0386169063a7cd52cb90611235908590600401613703565b602060405180830381865afa158015611252573d6000803e3d6000fd5b505050506040513d601f19601f8201168201806040525081019061127691906137eb565b6060820152600383600381111561128f5761128f6131b3565b0361148557846001600160a01b031662fdd58e83876001600160a01b031663406248246040518163ffffffff1660e01b8152600401600060405180830381865afa1580156112e1573d6000803e3d6000fd5b505050506040513d6000823e601f3d908101601f1916820160405261130991908101906139bf565b60008151811061131b5761131b61384e565b60200260200101516040518363ffffffff1660e01b81526004016113549291906001600160a01b03929092168252602082015260400190565b602060405180830381865afa158015611371573d6000803e3d6000fd5b505050506040513d601f19601f8201168201806040525081019061139591906137eb565b815260405163dc33e68160e01b81526001600160a01b0386169063dc33e681906113c3908590600401613703565b602060405180830381865afa1580156113e0573d6000803e3d6000fd5b505050506040513d601f19601f8201168201806040525081019061140491906137eb565b6040516366b55a0960e01b81526001600160a01b038716906366b55a0990611430908690600401613703565b602060405180830381865afa15801561144d573d6000803e3d6000fd5b505050506040513d601f19601f8201168201806040525081019061147191906137eb565b61147b9190613a64565b6040820152611581565b6002846002811115611499576114996131b3565b036115115760405163aec3922b60e01b81526001600160a01b0386169063aec3922b906114ca908590600401613703565b602060405180830381865afa1580156114e7573d6000803e3d6000fd5b505050506040513d601f19601f8201168201806040525081019061150b91906137eb565b60408201525b6040516370a0823160e01b81526001600160a01b038616906370a082319061153d908590600401613703565b602060405180830381865afa15801561155a573d6000803e3d6000fd5b505050506040513d601f19601f8201168201806040525081019061157e91906137eb565b81525b949350505050565b611591612fa5565b6000839050806001600160a01b031663055ad42e6040518163ffffffff1660e01b8152600401602060405180830381865afa1580156115d4573d6000803e3d6000fd5b505050506040513d601f19601f820116820180604052508101906115f89190613a89565b8290600581111561160b5761160b6131b3565b9081600581111561161e5761161e6131b3565b81525050806001600160a01b031663f7df4c5a6040518163ffffffff1660e01b8152600401602060405180830381865afa158015611660573d6000803e3d6000fd5b505050506040513d601f19601f8201168201806040525081019061168491906137eb565b826020018181525050806001600160a01b031663d62b63036040518163ffffffff1660e01b8152600401602060405180830381865afa1580156116cb573d6000803e3d6000fd5b505050506040513d601f19601f820116820180604052508101906116ef91906137eb565b826040018181525050806001600160a01b031663fbe1aa516040518163ffffffff1660e01b8152600401602060405180830381865afa158015611736573d6000803e3d6000fd5b505050506040513d601f19601f8201168201806040525081019061175a91906137eb565b826060018181525050806001600160a01b031663fab2bf586040518163ffffffff1660e01b8152600401602060405180830381865afa1580156117a1573d6000803e3d6000fd5b505050506040513d601f19601f820116820180604052508101906117c591906137eb565b826080018181525050806001600160a01b03166359d7bc4d6040518163ffffffff1660e01b8152600401602060405180830381865afa15801561180c573d6000803e3d6000fd5b505050506040513d601f19601f8201168201806040525081019061183091906137eb565b8260c0018181525050806001600160a01b0316636bb7b1d96040518163ffffffff1660e01b8152600401602060405180830381865afa158015611877573d6000803e3d6000fd5b505050506040513d601f19601f8201168201806040525081019061189b91906137eb565b8260e0018181525050806001600160a01b031663d756985b6040518163ffffffff1660e01b8152600401602060405180830381865afa1580156118e2573d6000803e3d6000fd5b505050506040513d601f19601f8201168201806040525081019061190691906137eb565b82610120018181525050806001600160a01b031663a04a6ac86040518163ffffffff1660e01b8152600401602060405180830381865afa15801561194e573d6000803e3d6000fd5b505050506040513d601f19601f8201168201806040525081019061197291906137eb565b82610140018181525050806001600160a01b0316630a212ee26040518163ffffffff1660e01b8152600401602060405180830381865afa1580156119ba573d6000803e3d6000fd5b505050506040513d601f19601f820116820180604052508101906119de91906137eb565b82610160018181525050806001600160a01b031663f243669b6040518163ffffffff1660e01b8152600401602060405180830381865afa158015611a26573d6000803e3d6000fd5b505050506040513d601f19601f82011682018060405250810190611a4a91906137eb565b82610180018181525050806001600160a01b031663e6fe34b36040518163ffffffff1660e01b8152600401602060405180830381865afa158015611a92573d6000803e3d6000fd5b505050506040513d601f19601f82011682018060405250810190611ab691906137eb565b826101a0018181525050806001600160a01b031663154895106040518163ffffffff1660e01b8152600401602060405180830381865afa158015611afe573d6000803e3d6000fd5b505050506040513d601f19601f82011682018060405250810190611b2291906137eb565b826101c0018181525050806001600160a01b03166308a3fb4e6040518163ffffffff1660e01b8152600401602060405180830381865afa158015611b6a573d6000803e3d6000fd5b505050506040513d601f19601f82011682018060405250810190611b8e91906137eb565b6101e083015260808201516040516348be804f60e11b815260048101919091526001600160a01b0382169063917d009e90602401602060405180830381865afa158015611bdf573d6000803e3d6000fd5b505050506040513d601f19601f82011682018060405250810190611c0391906137eb565b82610200018181525050806001600160a01b0316637a18c1fe6040518163ffffffff1660e01b8152600401602060405180830381865afa158015611c4b573d6000803e3d6000fd5b505050506040513d601f19601f82011682018060405250810190611c6f91906137eb565b82610260018181525050806001600160a01b031663a54cd7dc6040518163ffffffff1660e01b8152600401602060405180830381865afa158015611cb7573d6000803e3d6000fd5b505050506040513d601f19601f82011682018060405250810190611cdb91906137eb565b82610280018181525050806001600160a01b0316633cc4cadb6040518163ffffffff1660e01b8152600401602060405180830381865afa158015611d23573d6000803e3d6000fd5b505050506040513d601f19601f82011682018060405250810190611d4791906137eb565b826102e0018181525050806001600160a01b031663963331d86040518163ffffffff1660e01b8152600401602060405180830381865afa158015611d8f573d6000803e3d6000fd5b505050506040513d601f19601f82011682018060405250810190611db391906137eb565b6103008301526001836002811115611dcd57611dcd6131b3565b03611eab57836001600160a01b0316630b1019e76040518163ffffffff1660e01b8152600401602060405180830381865afa158015611e10573d6000803e3d6000fd5b505050506040513d601f19601f82011682018060405250810190611e3491906137eb565b82610220018181525050836001600160a01b0316638e8bdd0d6040518163ffffffff1660e01b8152600401602060405180830381865afa158015611e7c573d6000803e3d6000fd5b505050506040513d601f19601f82011682018060405250810190611ea091906137eb565b610240830152612148565b6002836002811115611ebf57611ebf6131b3565b0361214857806001600160a01b03166390967a526040518163ffffffff1660e01b8152600401602060405180830381865afa158015611f02573d6000803e3d6000fd5b505050506040513d601f19601f82011682018060405250810190611f2691906137eb565b82610220018181525050806001600160a01b031663f51f96dd6040518163ffffffff1660e01b8152600401602060405180830381865afa158015611f6e573d6000803e3d6000fd5b505050506040513d601f19601f82011682018060405250810190611f9291906137eb565b82610240018181525050806001600160a01b03166362f4fb2d6040518163ffffffff1660e01b8152600401602060405180830381865afa158015611fda573d6000803e3d6000fd5b505050506040513d601f19601f82011682018060405250810190611ffe91906137eb565b8260a0018181525050806001600160a01b0316631e4d185f6040518163ffffffff1660e01b8152600401602060405180830381865afa158015612045573d6000803e3d6000fd5b505050506040513d601f19601f8201168201806040525081019061206991906137eb565b82610100018181525050806001600160a01b0316632e8f1f506040518163ffffffff1660e01b8152600401602060405180830381865afa1580156120b1573d6000803e3d6000fd5b505050506040513d601f19601f820116820180604052508101906120d591906137eb565b826102a0018181525050806001600160a01b0316636b14bd396040518163ffffffff1660e01b8152600401602060405180830381865afa15801561211d573d6000803e3d6000fd5b505050506040513d601f19601f8201168201806040525081019061214191906137eb565b6102c08301525b5092915050565b612157613062565b6000839050806001600160a01b031663055ad42e6040518163ffffffff1660e01b8152600401602060405180830381865afa15801561219a573d6000803e3d6000fd5b505050506040513d601f19601f820116820180604052508101906121be9190613a89565b829060058111156121d1576121d16131b3565b908160058111156121e4576121e46131b3565b81525050806001600160a01b031663d62b63036040518163ffffffff1660e01b8152600401602060405180830381865afa158015612226573d6000803e3d6000fd5b505050506040513d601f19601f8201168201806040525081019061224a91906137eb565b826020018181525050806001600160a01b031663fbe1aa516040518163ffffffff1660e01b8152600401602060405180830381865afa158015612291573d6000803e3d6000fd5b505050506040513d601f19601f820116820180604052508101906122b591906137eb565b826040018181525050806001600160a01b03166359d7bc4d6040518163ffffffff1660e01b8152600401602060405180830381865afa1580156122fc573d6000803e3d6000fd5b505050506040513d601f19601f8201168201806040525081019061232091906137eb565b826080018181525050806001600160a01b0316636bb7b1d96040518163ffffffff1660e01b8152600401602060405180830381865afa158015612367573d6000803e3d6000fd5b505050506040513d601f19601f8201168201806040525081019061238b91906137eb565b8260a0018181525050806001600160a01b03166390967a526040518163ffffffff1660e01b8152600401602060405180830381865afa1580156123d2573d6000803e3d6000fd5b505050506040513d601f19601f820116820180604052508101906123f691906137eb565b8260e0018181525050806001600160a01b031663f51f96dd6040518163ffffffff1660e01b8152600401602060405180830381865afa15801561243d573d6000803e3d6000fd5b505050506040513d601f19601f8201168201806040525081019061246191906137eb565b82610100018181525050806001600160a01b0316633cc4cadb6040518163ffffffff1660e01b8152600401602060405180830381865afa1580156124a9573d6000803e3d6000fd5b505050506040513d601f19601f820116820180604052508101906124cd91906137eb565b82610160018181525050806001600160a01b031663963331d86040518163ffffffff1660e01b8152600401602060405180830381865afa158015612515573d6000803e3d6000fd5b505050506040513d601f19601f8201168201806040525081019061253991906137eb565b6101808301526002836002811115612553576125536131b3565b0361214857806001600160a01b03166362f4fb2d6040518163ffffffff1660e01b8152600401602060405180830381865afa158015612596573d6000803e3d6000fd5b505050506040513d601f19601f820116820180604052508101906125ba91906137eb565b826060018181525050806001600160a01b0316631e4d185f6040518163ffffffff1660e01b8152600401602060405180830381865afa158015612601573d6000803e3d6000fd5b505050506040513d601f19601f8201168201806040525081019061262591906137eb565b8260c0018181525050806001600160a01b0316632e8f1f506040518163ffffffff1660e01b8152600401602060405180830381865afa15801561266c573d6000803e3d6000fd5b505050506040513d601f19601f8201168201806040525081019061269091906137eb565b82610120018181525050806001600160a01b0316636b14bd396040518163ffffffff1660e01b8152600401602060405180830381865afa1580156126d8573d6000803e3d6000fd5b505050506040513d601f19601f820116820180604052508101906126fc91906137eb565b6101408301525092915050565b6127116130cb565b6000829050806001600160a01b031663406248246040518163ffffffff1660e01b8152600401600060405180830381865afa158015612754573d6000803e3d6000fd5b505050506040513d6000823e601f3d908101601f1916820160405261277c91908101906139bf565b8260000181905250806001600160a01b031663055ad42e6040518163ffffffff1660e01b8152600401602060405180830381865afa1580156127c2573d6000803e3d6000fd5b505050506040513d601f19601f820116820180604052508101906127e69190613a89565b60058111156127f7576127f76131b3565b60ff16600581111561280b5761280b6131b3565b82602001906005811115612821576128216131b3565b90816005811115612834576128346131b3565b81525050806001600160a01b031663754a667e6040518163ffffffff1660e01b8152600401602060405180830381865afa158015612876573d6000803e3d6000fd5b505050506040513d601f19601f8201168201806040525081019061289a9190613aa6565b6001600160801b0316826040018181525050806001600160a01b031663fbe1aa516040518163ffffffff1660e01b8152600401602060405180830381865afa1580156128ea573d6000803e3d6000fd5b505050506040513d601f19601f8201168201806040525081019061290e9190613aa6565b6001600160801b0316826060018181525050806001600160a01b03166362f4fb2d6040518163ffffffff1660e01b8152600401602060405180830381865afa15801561295e573d6000803e3d6000fd5b505050506040513d601f19601f820116820180604052508101906129829190613aa6565b6001600160801b0316826080018181525050806001600160a01b0316636bb7b1d96040518163ffffffff1660e01b8152600401602060405180830381865afa1580156129d2573d6000803e3d6000fd5b505050506040513d601f19601f820116820180604052508101906129f69190613aa6565b6001600160801b03168260a0018181525050806001600160a01b0316631e4d185f6040518163ffffffff1660e01b8152600401602060405180830381865afa158015612a46573d6000803e3d6000fd5b505050506040513d601f19601f82011682018060405250810190612a6a9190613aa6565b6001600160801b03168260c0018181525050806001600160a01b031663a187c89b6040518163ffffffff1660e01b8152600401602060405180830381865afa158015612aba573d6000803e3d6000fd5b505050506040513d601f19601f82011682018060405250810190612ade9190613aa6565b6001600160801b03168260e0018181525050806001600160a01b0316639b6860c86040518163ffffffff1660e01b8152600401602060405180830381865afa158015612b2e573d6000803e3d6000fd5b505050506040513d601f19601f82011682018060405250810190612b529190613aa6565b6001600160801b031682610100018181525050806001600160a01b0316632e8f1f506040518163ffffffff1660e01b8152600401602060405180830381865afa158015612ba3573d6000803e3d6000fd5b505050506040513d601f19601f82011682018060405250810190612bc79190613aa6565b6001600160801b031682610120018181525050806001600160a01b0316636b14bd396040518163ffffffff1660e01b8152600401602060405180830381865afa158015612c18573d6000803e3d6000fd5b505050506040513d601f19601f82011682018060405250810190612c3c91906137eb565b6101408301526000610160830152604080516312c6663b60e31b815290516001600160a01b0383169163963331d89160048083019260209291908290030181865afa158015612c8f573d6000803e3d6000fd5b505050506040513d601f19601f82011682018060405250810190612cb39190613aa6565b6001600160801b031661018083015250919050565b60606000826001600160a01b031663be62da0e6040518163ffffffff1660e01b8152600401602060405180830381865afa158015612d0a573d6000803e3d6000fd5b505050506040513d601f19601f82011682018060405250810190612d2e91906137eb565b60405163ca15c87360e01b8152600481018290529091506000906001600160a01b0385169063ca15c87390602401602060405180830381865afa158015612d79573d6000803e3d6000fd5b505050506040513d601f19601f82011682018060405250810190612d9d91906137eb565b90506000816001600160401b03811115612db957612db961381b565b604051908082528060200260200182016040528015612de2578160200160208202803683370190505b50905060005b82811015612e9c57604051632404341f60e21b815260048101859052602481018290526001600160a01b03871690639010d07c90604401602060405180830381865afa158015612e3c573d6000803e3d6000fd5b505050506040513d601f19601f82011682018060405250810190612e609190613831565b828281518110612e7257612e7261384e565b6001600160a01b039092166020928302919091019091015280612e9481613864565b915050612de8565b50949350505050565b604080516101208101825260008082526020820152908101612ec5612f18565b8152602001612ed2612fa5565b8152602001612edf613062565b8152602001612eec612f7d565b8152602001612ef9612f7d565b8152602001612f06612f55565b8152602001612f136130cb565b905290565b6040518060e00160405280606081526020016060815260200160008152602001600081526020016000815260200160608152602001606081525090565b6040518060800160405280606081526020016000815260200160008152602001600081525090565b6040518060800160405280600081526020016000815260200160008152602001600081525090565b60408051610320810190915280600081526020016000815260200160008152602001600081526020016000815260200160008152602001600081526020016000815260200160008152602001600081526020016000815260200160008152602001600081526020016000815260200160008152602001600081526020016000815260200160008152602001600081526020016000815260200160008152602001600081526020016000815260200160008152602001600081525090565b604080516101a0810190915280600081526020016000815260200160008152602001600081526020016000815260200160008152602001600081526020016000815260200160008152602001600081526020016000815260200160008152602001600081525090565b604080516101a0810190915260608152602081016000815260200160008152602001600081526020016000815260200160008152602001600081526020016000815260200160008152602001600081526020016000815260200160008152602001600081525090565b6001600160a01b038116811461314957600080fd5b50565b600080600080600060a0868803121561316457600080fd5b85356004811061317357600080fd5b945060208601356003811061318757600080fd5b9350604086013592506060860135915060808601356131a581613134565b809150509295509295909350565b634e487b7160e01b600052602160045260246000fd5b600481106131d9576131d96131b3565b9052565b60005b838110156131f85781810151838201526020016131e0565b83811115613207576000848401525b50505050565b600081518084526132258160208601602086016131dd565b601f01601f19169290920160200192915050565b6000815160e0845261324e60e085018261320d565b905060208301518482036020860152613267828261320d565b91505060408301516040850152606083015160608501526080830151608085015260a083015184820360a086015261329f828261320d565b91505060c083015184820360c08601526132b9828261320d565b95945050505050565b600681106131d9576131d96131b3565b6132dd8282516132c2565b6020818101519083015260408082015190830152606080820151908301526080808201519083015260a0808201519083015260c0808201519083015260e08082015190830152610100808201519083015261012080820151908301526101408082015190830152610160808201519083015261018080820151908301526101a080820151908301526101c080820151908301526101e08082015190830152610200808201519083015261022080820151908301526102408082015190830152610260808201519083015261028080820151908301526102a080820151908301526102c080820151908301526102e0808201519083015261030090810151910152565b6133ea8282516132c2565b6020818101519083015260408082015190830152606080820151908301526080808201519083015260a0808201519083015260c0808201519083015260e08082015190830152610100808201519083015261012080820151908301526101408082015190830152610160808201519083015261018090810151910152565b805182526020810151602083015260408101516040830152606081015160608301525050565b8051608080845281519084018190526000916020919082019060a0860190845b818110156134d35783516001600160a01b0316835292840192918401916001016134ae565b50508285015183870152604085015160408701526060850151606087015280935050505092915050565b600081518084526020808501945080840160005b8381101561352d57815187529582019590820190600101613511565b509495945050505050565b60006101a0825181855261354e828601826134fd565b915050602083015161356360208601826132c2565b5060408381015190850152606080840151908501526080808401519085015260a0808401519085015260c0808401519085015260e0808401519085015261010080840151908501526101208084015190850152610140808401519085015261016080840151908501526101809283015192909301919091525090565b80516001600160a01b031682526000610660602083015161360360208601826131c9565b50604083015181604086015261361b82860182613239565b915050606083015161363060608601826132d2565b5060808301516136446103808601826133df565b5060a0830151613658610520860182613468565b5060c083015161366c6105a0860182613468565b5060e0830151848203610620860152613685828261348e565b9150506101008301518482036106408601526132b98282613538565b6000602080830181845280855180835260408601915060408160051b870101925083870160005b828110156136f657603f198886030184526136e48583516135df565b945092850192908501906001016136c8565b5092979650505050505050565b6001600160a01b0391909116815260200190565b60006020828403121561372957600080fd5b813561373481613134565b9392505050565b6040810161374982856131c9565b60038310613759576137596131b3565b8260208301529392505050565b6000806040838503121561377957600080fd5b823561378481613134565b9150602083013561379481613134565b809150509250929050565b60208152600061373460208301846135df565b634e487b7160e01b600052601160045260246000fd5b600060ff821660ff8416808210156137e2576137e26137b2565b90039392505050565b6000602082840312156137fd57600080fd5b5051919050565b600082821015613816576138166137b2565b500390565b634e487b7160e01b600052604160045260246000fd5b60006020828403121561384357600080fd5b815161373481613134565b634e487b7160e01b600052603260045260246000fd5b600060018201613876576138766137b2565b5060010190565b9182526001600160a01b0316602082015260400190565b6000602082840312156138a657600080fd5b8151801515811461373457600080fd5b604051601f8201601f191681016001600160401b03811182821017156138de576138de61381b565b604052919050565b6000602082840312156138f857600080fd5b81516001600160401b038082111561390f57600080fd5b818401915084601f83011261392357600080fd5b8151818111156139355761393561381b565b613948601f8201601f19166020016138b6565b915080825285602082850101111561395f57600080fd5b612e9c8160208401602086016131dd565b600080600080600060a0868803121561398857600080fd5b85519450602086015180600f0b81146139a057600080fd5b6040870151606088015160809098015196999198509695945092505050565b600060208083850312156139d257600080fd5b82516001600160401b03808211156139e957600080fd5b818501915085601f8301126139fd57600080fd5b815181811115613a0f57613a0f61381b565b8060051b9150613a208483016138b6565b8181529183018401918481019088841115613a3a57600080fd5b938501935b83851015613a5857845182529385019390850190613a3f565b98975050505050505050565b60008219821115613a7757613a776137b2565b500190565b6006811061314957600080fd5b600060208284031215613a9b57600080fd5b815161373481613a7c565b600060208284031215613ab857600080fd5b81516001600160801b038116811461373457600080fdfea2646970667358221220f191ef0b2a3f790aea09199e64d568182c96f9b3fa1e6b5ae26acbec99e127f864736f6c634300080d0033",
  "devdoc": {
    "author": "Trader Joe",
    "kind": "dev",
    "methods": {
      "constructor": {
        "details": "LaunchpegLens constructor",
        "params": {
          "_batchReveal": "BatchReveal address",
          "_launchpegFactoryV1": "LaunchpegFactory V1",
          "_launchpegFactoryV2": "LaunchpegFactory V2"
        }
      },
      "getLaunchpegData(address,address)": {
        "params": {
          "_launchpeg": "Contract address to consider",
          "_user": "Address to consider for NFT balances and allowlist allocations"
        },
        "returns": {
          "_0": "LensData Contract data"
        }
      },
      "getLaunchpegType(address)": {
        "params": {
          "_contract": "Contract address to consider"
        },
        "returns": {
          "_0": "LaunchpegType Type of Launchpeg implementation (Dutch Auction / Flat / Unknown)"
        }
      },
      "getLaunchpegsByTypeAndVersion(uint8,uint8,uint256,uint256,address)": {
        "params": {
          "_limit": "Last Launchpeg index to fetch",
          "_number": "Number of Launchpeg to fetch",
          "_type": "Type of Launchpeg to consider",
          "_user": "Address to consider for NFT balances and allowlist allocations",
          "_version": "Launchpeg version"
        },
        "returns": {
          "_0": "LensDataList List of contracts datas, in descending order"
        }
      }
    },
    "title": "Launchpeg Lens",
    "version": 1
  },
  "userdoc": {
    "kind": "user",
    "methods": {
      "batchReveal()": {
        "notice": "BatchReveal address"
      },
      "getLaunchpegData(address,address)": {
        "notice": "Fetch Launchpeg data from the provided address"
      },
      "getLaunchpegType(address)": {
        "notice": "Gets the type and version of Launchpeg"
      },
      "getLaunchpegsByTypeAndVersion(uint8,uint8,uint256,uint256,address)": {
        "notice": "Fetch Launchpeg data by type and version"
      },
      "launchpegFactoryV1()": {
        "notice": "LaunchpegFactory V1"
      },
      "launchpegFactoryV2()": {
        "notice": "LaunchpegFactory V2"
      }
    },
    "notice": "Helper contract to fetch launchpegs data",
    "version": 1
  },
  "storageLayout": {
    "storage": [],
    "types": null
  }
}