{
  "address": "0x8fd5abCCb87defFc00B4722463ad4D4C9a212Eb5",
  "abi": [
    {
      "inputs": [],
      "name": "Launchpeg__BatchRevealNotInitialized",
      "type": "error"
    },
    {
      "inputs": [],
      "name": "Launchpeg__BatchRevealStarted",
      "type": "error"
    },
    {
      "inputs": [],
      "name": "Launchpeg__HasBeenForceRevealed",
      "type": "error"
    },
    {
      "inputs": [],
      "name": "Launchpeg__InvalidBatchRevealSize",
      "type": "error"
    },
    {
      "inputs": [],
      "name": "Launchpeg__InvalidCallbackGasLimit",
      "type": "error"
    },
    {
      "inputs": [],
      "name": "Launchpeg__InvalidCoordinator",
      "type": "error"
    },
    {
      "inputs": [],
      "name": "Launchpeg__InvalidKeyHash",
      "type": "error"
    },
    {
      "inputs": [],
      "name": "Launchpeg__InvalidRevealDates",
      "type": "error"
    },
    {
      "inputs": [],
      "name": "Launchpeg__IsNotInTheConsumerList",
      "type": "error"
    },
    {
      "inputs": [],
      "name": "Launchpeg__Unauthorized",
      "type": "error"
    },
    {
      "inputs": [
        {
          "internalType": "address",
          "name": "have",
          "type": "address"
        },
        {
          "internalType": "address",
          "name": "want",
          "type": "address"
        }
      ],
      "name": "OnlyCoordinatorCanFulfill",
      "type": "error"
    },
    {
      "anonymous": false,
      "inputs": [
        {
          "indexed": true,
          "internalType": "address",
          "name": "previousOwner",
          "type": "address"
        },
        {
          "indexed": true,
          "internalType": "address",
          "name": "newOwner",
          "type": "address"
        }
      ],
      "name": "OwnershipTransferred",
      "type": "event"
    },
    {
      "anonymous": false,
      "inputs": [
        {
          "indexed": false,
          "internalType": "address",
          "name": "baseLaunchpeg",
          "type": "address"
        },
        {
          "indexed": false,
          "internalType": "uint256",
          "name": "batchNumber",
          "type": "uint256"
        },
        {
          "indexed": false,
          "internalType": "uint256",
          "name": "batchSeed",
          "type": "uint256"
        }
      ],
      "name": "Reveal",
      "type": "event"
    },
    {
      "anonymous": false,
      "inputs": [
        {
          "indexed": false,
          "internalType": "address",
          "name": "baseLaunchpeg",
          "type": "address"
        },
        {
          "indexed": false,
          "internalType": "uint256",
          "name": "revealBatchSize",
          "type": "uint256"
        }
      ],
      "name": "RevealBatchSizeSet",
      "type": "event"
    },
    {
      "anonymous": false,
      "inputs": [
        {
          "indexed": false,
          "internalType": "address",
          "name": "baseLaunchpeg",
          "type": "address"
        },
        {
          "indexed": false,
          "internalType": "uint256",
          "name": "revealInterval",
          "type": "uint256"
        }
      ],
      "name": "RevealIntervalSet",
      "type": "event"
    },
    {
      "anonymous": false,
      "inputs": [
        {
          "indexed": false,
          "internalType": "address",
          "name": "baseLaunchpeg",
          "type": "address"
        },
        {
          "indexed": false,
          "internalType": "uint256",
          "name": "revealStartTime",
          "type": "uint256"
        }
      ],
      "name": "RevealStartTimeSet",
      "type": "event"
    },
    {
      "anonymous": false,
      "inputs": [
        {
          "indexed": false,
          "internalType": "address",
          "name": "_vrfCoordinator",
          "type": "address"
        },
        {
          "indexed": false,
          "internalType": "bytes32",
          "name": "_keyHash",
          "type": "bytes32"
        },
        {
          "indexed": false,
          "internalType": "uint64",
          "name": "_subscriptionId",
          "type": "uint64"
        },
        {
          "indexed": false,
          "internalType": "uint32",
          "name": "_callbackGasLimit",
          "type": "uint32"
        }
      ],
      "name": "VRFSet",
      "type": "event"
    },
    {
      "inputs": [],
      "name": "callbackGasLimit",
      "outputs": [
        {
          "internalType": "uint32",
          "name": "",
          "type": "uint32"
        }
      ],
      "stateMutability": "view",
      "type": "function"
    },
    {
      "inputs": [
        {
          "internalType": "address",
          "name": "_baseLaunchpeg",
          "type": "address"
        },
        {
          "internalType": "uint256",
          "name": "_revealBatchSize",
          "type": "uint256"
        },
        {
          "internalType": "uint256",
          "name": "_revealStartTime",
          "type": "uint256"
        },
        {
          "internalType": "uint256",
          "name": "_revealInterval",
          "type": "uint256"
        }
      ],
      "name": "configure",
      "outputs": [],
      "stateMutability": "nonpayable",
      "type": "function"
    },
    {
      "inputs": [
        {
          "internalType": "address",
          "name": "_baseLaunchpeg",
          "type": "address"
        }
      ],
      "name": "forceReveal",
      "outputs": [],
      "stateMutability": "nonpayable",
      "type": "function"
    },
    {
      "inputs": [
        {
          "internalType": "address",
          "name": "_baseLaunchpeg",
          "type": "address"
        },
        {
          "internalType": "uint256",
          "name": "_startId",
          "type": "uint256"
        }
      ],
      "name": "getShuffledTokenId",
      "outputs": [
        {
          "internalType": "uint256",
          "name": "",
          "type": "uint256"
        }
      ],
      "stateMutability": "view",
      "type": "function"
    },
    {
      "inputs": [
        {
          "internalType": "address",
          "name": "_baseLaunchpeg",
          "type": "address"
        },
        {
          "internalType": "uint256",
          "name": "_totalSupply",
          "type": "uint256"
        }
      ],
      "name": "hasBatchToReveal",
      "outputs": [
        {
          "internalType": "bool",
          "name": "",
          "type": "bool"
        },
        {
          "internalType": "uint256",
          "name": "",
          "type": "uint256"
        }
      ],
      "stateMutability": "view",
      "type": "function"
    },
    {
      "inputs": [],
      "name": "initialize",
      "outputs": [],
      "stateMutability": "nonpayable",
      "type": "function"
    },
    {
      "inputs": [
        {
          "internalType": "address",
          "name": "_baseLaunchpeg",
          "type": "address"
        }
      ],
      "name": "isBatchRevealInitialized",
      "outputs": [
        {
          "internalType": "bool",
          "name": "",
          "type": "bool"
        }
      ],
      "stateMutability": "view",
      "type": "function"
    },
    {
      "inputs": [],
      "name": "keyHash",
      "outputs": [
        {
          "internalType": "bytes32",
          "name": "",
          "type": "bytes32"
        }
      ],
      "stateMutability": "view",
      "type": "function"
    },
    {
      "inputs": [
        {
          "internalType": "address",
          "name": "",
          "type": "address"
        },
        {
          "internalType": "uint256",
          "name": "",
          "type": "uint256"
        }
      ],
      "name": "launchpegToBatchToSeed",
      "outputs": [
        {
          "internalType": "uint256",
          "name": "",
          "type": "uint256"
        }
      ],
      "stateMutability": "view",
      "type": "function"
    },
    {
      "inputs": [
        {
          "internalType": "address",
          "name": "",
          "type": "address"
        }
      ],
      "name": "launchpegToConfig",
      "outputs": [
        {
          "internalType": "uint256",
          "name": "collectionSize",
          "type": "uint256"
        },
        {
          "internalType": "int128",
          "name": "intCollectionSize",
          "type": "int128"
        },
        {
          "internalType": "uint256",
          "name": "revealBatchSize",
          "type": "uint256"
        },
        {
          "internalType": "uint256",
          "name": "revealStartTime",
          "type": "uint256"
        },
        {
          "internalType": "uint256",
          "name": "revealInterval",
          "type": "uint256"
        }
      ],
      "stateMutability": "view",
      "type": "function"
    },
    {
      "inputs": [
        {
          "internalType": "address",
          "name": "",
          "type": "address"
        }
      ],
      "name": "launchpegToHasBeenForceRevealed",
      "outputs": [
        {
          "internalType": "bool",
          "name": "",
          "type": "bool"
        }
      ],
      "stateMutability": "view",
      "type": "function"
    },
    {
      "inputs": [
        {
          "internalType": "address",
          "name": "",
          "type": "address"
        }
      ],
      "name": "launchpegToLastTokenReveal",
      "outputs": [
        {
          "internalType": "uint256",
          "name": "",
          "type": "uint256"
        }
      ],
      "stateMutability": "view",
      "type": "function"
    },
    {
      "inputs": [
        {
          "internalType": "address",
          "name": "",
          "type": "address"
        }
      ],
      "name": "launchpegToNextBatchToReveal",
      "outputs": [
        {
          "internalType": "uint256",
          "name": "",
          "type": "uint256"
        }
      ],
      "stateMutability": "view",
      "type": "function"
    },
    {
      "inputs": [
        {
          "internalType": "address",
          "name": "",
          "type": "address"
        }
      ],
      "name": "launchpegToRangeLength",
      "outputs": [
        {
          "internalType": "uint256",
          "name": "",
          "type": "uint256"
        }
      ],
      "stateMutability": "view",
      "type": "function"
    },
    {
      "inputs": [
        {
          "internalType": "address",
          "name": "",
          "type": "address"
        },
        {
          "internalType": "uint256",
          "name": "",
          "type": "uint256"
        }
      ],
      "name": "launchpegToVrfRequestedForBatch",
      "outputs": [
        {
          "internalType": "bool",
          "name": "",
          "type": "bool"
        }
      ],
      "stateMutability": "view",
      "type": "function"
    },
    {
      "inputs": [],
      "name": "owner",
      "outputs": [
        {
          "internalType": "address",
          "name": "",
          "type": "address"
        }
      ],
      "stateMutability": "view",
      "type": "function"
    },
    {
      "inputs": [
        {
          "internalType": "uint256",
          "name": "requestId",
          "type": "uint256"
        },
        {
          "internalType": "uint256[]",
          "name": "randomWords",
          "type": "uint256[]"
        }
      ],
      "name": "rawFulfillRandomWords",
      "outputs": [],
      "stateMutability": "nonpayable",
      "type": "function"
    },
    {
      "inputs": [],
      "name": "renounceOwnership",
      "outputs": [],
      "stateMutability": "nonpayable",
      "type": "function"
    },
    {
      "inputs": [],
      "name": "requestConfirmations",
      "outputs": [
        {
          "internalType": "uint16",
          "name": "",
          "type": "uint16"
        }
      ],
      "stateMutability": "view",
      "type": "function"
    },
    {
      "inputs": [
        {
          "internalType": "address",
          "name": "_baseLaunchpeg",
          "type": "address"
        },
        {
          "internalType": "uint256",
          "name": "_totalSupply",
          "type": "uint256"
        }
      ],
      "name": "revealNextBatch",
      "outputs": [
        {
          "internalType": "bool",
          "name": "",
          "type": "bool"
        }
      ],
      "stateMutability": "nonpayable",
      "type": "function"
    },
    {
      "inputs": [
        {
          "internalType": "address",
          "name": "_baseLaunchpeg",
          "type": "address"
        },
        {
          "internalType": "uint256",
          "name": "_revealBatchSize",
          "type": "uint256"
        }
      ],
      "name": "setRevealBatchSize",
      "outputs": [],
      "stateMutability": "nonpayable",
      "type": "function"
    },
    {
      "inputs": [
        {
          "internalType": "address",
          "name": "_baseLaunchpeg",
          "type": "address"
        },
        {
          "internalType": "uint256",
          "name": "_revealInterval",
          "type": "uint256"
        }
      ],
      "name": "setRevealInterval",
      "outputs": [],
      "stateMutability": "nonpayable",
      "type": "function"
    },
    {
      "inputs": [
        {
          "internalType": "address",
          "name": "_baseLaunchpeg",
          "type": "address"
        },
        {
          "internalType": "uint256",
          "name": "_revealStartTime",
          "type": "uint256"
        }
      ],
      "name": "setRevealStartTime",
      "outputs": [],
      "stateMutability": "nonpayable",
      "type": "function"
    },
    {
      "inputs": [
        {
          "internalType": "address",
          "name": "_vrfCoordinator",
          "type": "address"
        },
        {
          "internalType": "bytes32",
          "name": "_keyHash",
          "type": "bytes32"
        },
        {
          "internalType": "uint64",
          "name": "_subscriptionId",
          "type": "uint64"
        },
        {
          "internalType": "uint32",
          "name": "_callbackGasLimit",
          "type": "uint32"
        }
      ],
      "name": "setVRF",
      "outputs": [],
      "stateMutability": "nonpayable",
      "type": "function"
    },
    {
      "inputs": [],
      "name": "subscriptionId",
      "outputs": [
        {
          "internalType": "uint64",
          "name": "",
          "type": "uint64"
        }
      ],
      "stateMutability": "view",
      "type": "function"
    },
    {
      "inputs": [
        {
          "internalType": "address",
          "name": "newOwner",
          "type": "address"
        }
      ],
      "name": "transferOwnership",
      "outputs": [],
      "stateMutability": "nonpayable",
      "type": "function"
    },
    {
      "inputs": [],
      "name": "useVRF",
      "outputs": [
        {
          "internalType": "bool",
          "name": "",
          "type": "bool"
        }
      ],
      "stateMutability": "view",
      "type": "function"
    },
    {
      "inputs": [
        {
          "internalType": "uint256",
          "name": "",
          "type": "uint256"
        }
      ],
      "name": "vrfRequestIdToLaunchpeg",
      "outputs": [
        {
          "internalType": "address",
          "name": "",
          "type": "address"
        }
      ],
      "stateMutability": "view",
      "type": "function"
    }
  ],
  "transactionHash": "0x8913d2c32a5237d4054cc243b99035413d9afb30bc656b0e5ac332471133235b",
  "args": [],
  "numDeployments": 1,
  "solcInputHash": "6aace975dd9dd5d7c5903517677c8ee9",
  "bytecode": "0x608060405234801561001057600080fd5b50612217806100206000396000f3fe608060405234801561001057600080fd5b50600436106101845760003560e01c80638129fc1c116100d9578063b0fb162f11610087578063b0fb162f1461042a578063b7b1349614610445578063bc2af1b614610458578063d66f3a7914610478578063ed90d3871461048b578063f2fde38b146104ab578063fbbc872b146104be57600080fd5b80638129fc1c1461035e5780638a5b5993146103665780638da5cb5b146103795780639305d53a14610399578063989030af146103c2578063a4c25c99146103ed578063ad9e22af1461040057600080fd5b806324f746971161013657806324f74697146102b15780633e967802146102d657806342517341146102f75780635825fadf1461030a57806361728f391461032d57806367e1460014610336578063715018a61461035657600080fd5b8063060383411461018957806309c1ba2e146101ab57806312244936146101db5780631733377b146101f0578063181d2588146102035780631fe543e31461027057806322ae5b6d14610283575b600080fd5b606a546101969060ff1681565b60405190151581526020015b60405180910390f35b606a546101c39061010090046001600160401b031681565b6040516001600160401b0390911681526020016101a2565b6101ee6101e9366004611ba2565b6104d1565b005b6101966101fe366004611bce565b610579565b610245610211366004611bce565b606560205260009081526040902080546001820154600283015460038401546004909401549293600f9290920b9290919085565b60408051958652600f9490940b6020860152928401919091526060830152608082015260a0016101a2565b6101ee61027e366004611c54565b610596565b610196610291366004611ba2565b606f60209081526000928352604080842090915290825290205460ff1681565b606c546102c19063ffffffff1681565b60405163ffffffff90911681526020016101a2565b6102e96102e4366004611ba2565b6105e4565b6040519081526020016101a2565b6101ee610305366004611cf5565b61071f565b610196610318366004611bce565b606e6020526000908152604090205460ff1681565b6102e9606b5481565b6102e9610344366004611bce565b606d6020526000908152604090205481565b6101ee61084a565b6101ee610885565b6101ee610374366004611ba2565b610959565b6103816109f2565b6040516001600160a01b0390911681526020016101a2565b6103816103a7366004611d30565b6066602052600090815260409020546001600160a01b031681565b6102e96103d0366004611ba2565b606760209081526000928352604080842090915290825290205481565b6101ee6103fb366004611bce565b610a01565b61041361040e366004611ba2565b610b10565b6040805192151583526020830191909152016101a2565b610432600381565b60405161ffff90911681526020016101a2565b6101ee610453366004611ba2565b610bd8565b6102e9610466366004611bce565b60686020526000908152604090205481565b6101ee610486366004611d70565b610c71565b6102e9610499366004611bce565b60696020526000908152604090205481565b6101ee6104b9366004611bce565b610f88565b6101966104cc366004611ba2565b611025565b336104da6109f2565b6001600160a01b0316146105095760405162461bcd60e51b815260040161050090611dc3565b60405180910390fd5b8161051381610579565b6105305760405163632e11e160e11b815260040160405180910390fd5b6001600160a01b0383166000908152606860205260409020548390156105695760405163268eb6a760e21b815260040160405180910390fd5b6105738484611235565b50505050565b6001600160a01b0316600090815260656020526040902054151590565b6000546001600160a01b031633146105d65760005460405163073e64fd60e21b81523360048201526001600160a01b039091166024820152604401610500565b6105e08282611314565b5050565b6001600160a01b03821660009081526065602052604081206001810154600290910154600f9190910b90826106198286611e24565b6001600160a01b038716600090815260696020526040812054919250906001600160401b0381111561064d5761064d611beb565b60405190808252806020026020018201604052801561069257816020015b604080518082019091526000808252602082015281526020019060019003908161066b5790505b5090506106c787838587606960008d6001600160a01b03166001600160a01b0316815260200190815260200160002054611479565b6001600160a01b0388166000908152606760209081526040808320868452909152812054919250906106f98589611e38565b6107039190611e4c565b90506107118882848861155b565b955050505050505b92915050565b336107286109f2565b6001600160a01b03161461074e5760405162461bcd60e51b815260040161050090611dc3565b6001600160a01b0384166000908152606860205260409020548490156107875760405163268eb6a760e21b815260040160405180910390fd5b6000856001600160a01b03166345c0f5336040518163ffffffff1660e01b8152600401602060405180830381865afa1580156107c7573d6000803e3d6000fd5b505050506040513d601f19601f820116820180604052508101906107eb9190611e64565b6001600160a01b038716600090815260656020526040902081815560010180546001600160801b0319166001600160801b038316179055905061082e8686611235565b61083886856116be565b6108428684611747565b505050505050565b336108536109f2565b6001600160a01b0316146108795760405162461bcd60e51b815260040161050090611dc3565b61088360006117bb565b565b600054600160a81b900460ff166108a957600054600160a01b900460ff16156108ad565b303b155b6109105760405162461bcd60e51b815260206004820152602e60248201527f496e697469616c697a61626c653a20636f6e747261637420697320616c72656160448201526d191e481a5b9a5d1a585b1a5e995960921b6064820152608401610500565b600054600160a81b900460ff1615801561093a576000805461ffff60a01b191661010160a01b1790555b61094261180d565b8015610956576000805460ff60a81b191690555b50565b336109626109f2565b6001600160a01b0316146109885760405162461bcd60e51b815260040161050090611dc3565b8161099281610579565b6109af5760405163632e11e160e11b815260040160405180910390fd5b6001600160a01b0383166000908152606860205260409020548390156109e85760405163268eb6a760e21b815260040160405180910390fd5b6105738484611747565b6033546001600160a01b031690565b33610a0a6109f2565b6001600160a01b031614610a305760405162461bcd60e51b815260040161050090611dc3565b6001600160a01b0381166000908152606560209081526040808320600201546068909252822054909190829081610a6957610a69611df8565b6001600160a01b0385166000908152606860209081526040808320805488019055606590915290208054600290910154929091049250610aac918591849161183e565b6001600160a01b0383166000908152606e60209081526040808320805460ff1916600117905560678252808320848452909152908190205490516000805160206121c283398151915291610b039186918591611e7d565b60405180910390a1505050565b6001600160a01b03821660009081526065602090815260408083206002810154600382015460049092015460689094529184205484939084848281610b5757610b57611df8565b049050610b648382611e9e565b610b6e9085611e4c565b421080610b835750610b808583611e4c565b88105b80610bb157506001600160a01b0389166000908152606f6020908152604080832084845290915290205460ff165b15610bc657600096509450610bd19350505050565b600196509450505050505b9250929050565b33610be16109f2565b6001600160a01b031614610c075760405162461bcd60e51b815260040161050090611dc3565b81610c1181610579565b610c2e5760405163632e11e160e11b815260040160405180910390fd5b6001600160a01b038316600090815260686020526040902054839015610c675760405163268eb6a760e21b815260040160405180910390fd5b61057384846116be565b33610c7a6109f2565b6001600160a01b031614610ca05760405162461bcd60e51b815260040161050090611dc3565b6001600160a01b038416610cc75760405163148b036560e31b815260040160405180910390fd5b600080856001600160a01b0316620122916040518163ffffffff1660e01b8152600401600060405180830381865afa158015610d07573d6000803e3d6000fd5b505050506040513d6000823e601f3d908101601f19168201604052610d2f9190810190611ebd565b92509250508163ffffffff168363ffffffff161180610d555750614e208363ffffffff16105b15610d735760405163386883d560e21b815260040160405180910390fd5b6000805b8251811015610dbb5786838281518110610d9357610d93611f7e565b602002602001015103610da95760019150610dbb565b80610db381611f94565b915050610d77565b5080610dda5760405163f0471d8160e01b815260040160405180910390fd5b60405163523e3b4b60e11b81526001600160401b03861660048201526000906001600160a01b0389169063a47c769690602401600060405180830381865afa158015610e2a573d6000803e3d6000fd5b505050506040513d6000823e601f3d908101601f19168201604052610e529190810190611fad565b93505050506000805b8251811015610eb157306001600160a01b0316838281518110610e8057610e80611f7e565b60200260200101516001600160a01b031603610e9f5760019150610eb1565b80610ea981611f94565b915050610e5b565b5080610ed057604051637af8935960e01b815260040160405180910390fd5b606a8054600080546001600160a01b038d166001600160a01b03199091168117909155606b8b90556001600160401b038a16610100810268ffffffffffffffffff1990931692909217600117909255606c805463ffffffff8a1663ffffffff19909116811790915560408051938452602084018c9052838101929092526060830152517ff3f5a94accd1162546526b6c953c564c76d28a3513d2f9a1ce52df04dff6b9b09181900360800190a1505050505050505050565b33610f916109f2565b6001600160a01b031614610fb75760405162461bcd60e51b815260040161050090611dc3565b6001600160a01b03811661101c5760405162461bcd60e51b815260206004820152602660248201527f4f776e61626c653a206e6577206f776e657220697320746865207a65726f206160448201526564647265737360d01b6064820152608401610500565b610956816117bb565b60006001600160a01b038316331461105057604051633059e46160e21b815260040160405180910390fd5b60008061105d8585610b10565b925090508061107157600092505050610719565b606a5460ff16156111725760008054606b54606a54606c546040516305d3b1d360e41b815260048101939093526101009091046001600160401b031660248301526003604483015263ffffffff166064820152600160848201526001600160a01b0390911690635d3b1d309060a4016020604051808303816000875af11580156110ff573d6000803e3d6000fd5b505050506040513d601f19601f820116820180604052508101906111239190611e64565b600090815260666020908152604080832080546001600160a01b0319166001600160a01b038b169081179091558352606f82528083208684529091529020805460ff191660011790555061122a565b6001600160a01b038516600090815260656020908152604080832060020154606890925282208054919290916111a9908490611e4c565b90915550506001600160a01b038516600090815260656020526040902080546002909101546111dc91879185919061183e565b6001600160a01b0385166000908152606760209081526040808320858452909152908190205490516000805160206121c2833981519152916112219188918691611e7d565b60405180910390a15b506001949350505050565b8060000361125657604051636d0ca73b60e11b815260040160405180910390fd5b6001600160a01b0382166000908152606560205260409020546112798282611e38565b15158061128557508082115b156112a357604051636d0ca73b60e11b815260040160405180910390fd5b6112ad8282611e24565b6112b8906002611e9e565b6001600160a01b03841660009081526069602090815260408083209390935560659052819020600201839055517fc45cea90ada88f563f8541c1339ae3c5135feeaf4d2556a38505faef63cdb70290610b03908590859061208e565b6000828152606660209081526040808320546001600160a01b0316808452606e9092529091205460ff161561135c576040516390d5f04560e01b815260040160405180910390fd5b6001600160a01b038116600090815260656020908152604080832060028101549054606d9093529083208054919391908261139683611f94565b9091555090508260006113a98284611e9e565b6113b390856120a7565b876000815181106113c6576113c6611f7e565b60200260200101516113d89190611e38565b6001600160a01b03871660008181526067602090815260408083208884528252808320859055928252606890529081208054929350849290919061141d908490611e4c565b90915550506001600160a01b0386166000908152606760209081526040808320868452909152908190205490516000805160206121c2833981519152916114679189918791611e7d565b60405180910390a15050505050505050565b60606000826001600160401b0381111561149557611495611beb565b6040519080825280602002602001820160405280156114da57816020015b60408051808201909152600080825260208201528152602001906001900390816114b35790505b5090506000805b8781101561154e576001600160a01b038916600090815260676020908152604080832084845290915281205461151a908b90868a61155b565b9050600061152889836120be565b9050611537858383878c6118f3565b93505050808061154690611f94565b9150506114e1565b5090979650505050505050565b60008381805b600281101561169d5760005b6001600160a01b0389166000908152606960205260409020548110156116585760008782815181106115a1576115a1611f7e565b602002602001015160000151905060008883815181106115c3576115c3611f7e565b602002602001015160200151905081600f0b85600f0b12156116315760006115eb87876120be565b905082600f0b81600f0b1215611612576001600160801b031696506116b695505050505050565b61161c868461210f565b611626908861210f565b965081955050611643565b80600f0b85600f0b1215611643578094505b5050808061165090611f94565b91505061156d565b50600f85900b61166884846120be565b600f0b1261168b5761167a828661210f565b611684908461210f565b9250600091505b8061169581611f94565b915050611561565b506116a882826120be565b6001600160801b0316925050505b949350505050565b6116cb426283d600611e4c565b8111156116eb57604051636de655ff60e01b815260040160405180910390fd5b6001600160a01b03821660009081526065602052604090819020600301829055517fbfa9d50c2493c256ccdadfbf65839537d0a493e97ee86341a58a165fe88969079061173b908490849061208e565b60405180910390a15050565b620d2f0081111561176b57604051636de655ff60e01b815260040160405180910390fd5b6001600160a01b03821660009081526065602052604090819020600401829055517f822f3034de4596d2370379d37276293111dc9c8214c3145954d9c728030be7c19061173b908490849061208e565b603380546001600160a01b038381166001600160a01b0319831681179093556040519116919082907f8be0079c531659141344cd1fd0a4f28419497f9722a3daafe3b4186f6b6457e090600090a35050565b600054600160a81b900460ff166118365760405162461bcd60e51b81526004016105009061215f565b610883611b3d565b6000333a4342446118506001846120a7565b604080516001600160a01b0390971660208801528601949094526060850192909252608084015260a08301524060c08201523060e08201526101000160408051601f19818403018152919052805160209091012090506118b08285611e9e565b6118ba90846120a7565b6118c49082611e38565b6001600160a01b0390951660009081526067602090815260408083209683529590529390932093909355505050565b600082815b84811015611a4f57600088828151811061191457611914611f7e565b6020026020010151600001519050600089838151811061193657611936611f7e565b602002602001015160200151905081600f0b89600f0b12801561195857508684145b15611961578293505b81600f0b89600f0b12801561197b575081600f0b88600f0b135b8061199d575088600f0b82600f0b1315801561199d575080600f0b88600f0b13155b806119bd575080600f0b89600f0b1280156119bd575080600f0b88600f0b135b15611a3a5760006119ce8a8a61210f565b90506119da8a84611b6f565b99506119e6838361210f565b6119f0828c6120be565b6119fa91906120be565b98506040518060400160405280600019600f0b8152602001600019600f0b8152508b8581518110611a2d57611a2d611f7e565b6020026020010181905250505b50508080611a4790611f94565b9150506118f8565b50835b81811115611aae5787611a666001836120a7565b81518110611a7657611a76611f7e565b6020026020010151888281518110611a9057611a90611f7e565b60200260200101819052508080611aa6906121aa565b915050611a52565b50604051806040016040528087600f0b8152602001611acd8786611b6f565b600f0b815250878281518110611ae557611ae5611f7e565b60200260200101819052508380611afb90611f94565b94505082600f0b85600f0b1315611b3257611b23876000611b1c868961210f565b87876118f3565b5083611b2e81611f94565b9450505b509195945050505050565b600054600160a81b900460ff16611b665760405162461bcd60e51b81526004016105009061215f565b610883336117bb565b600081600f0b83600f0b12611b845781611b86565b825b9392505050565b6001600160a01b038116811461095657600080fd5b60008060408385031215611bb557600080fd5b8235611bc081611b8d565b946020939093013593505050565b600060208284031215611be057600080fd5b8135611b8681611b8d565b634e487b7160e01b600052604160045260246000fd5b604051601f8201601f191681016001600160401b0381118282101715611c2957611c29611beb565b604052919050565b60006001600160401b03821115611c4a57611c4a611beb565b5060051b60200190565b60008060408385031215611c6757600080fd5b823591506020808401356001600160401b03811115611c8557600080fd5b8401601f81018613611c9657600080fd5b8035611ca9611ca482611c31565b611c01565b81815260059190911b82018301908381019088831115611cc857600080fd5b928401925b82841015611ce657833582529284019290840190611ccd565b80955050505050509250929050565b60008060008060808587031215611d0b57600080fd5b8435611d1681611b8d565b966020860135965060408601359560600135945092505050565b600060208284031215611d4257600080fd5b5035919050565b6001600160401b038116811461095657600080fd5b63ffffffff8116811461095657600080fd5b60008060008060808587031215611d8657600080fd5b8435611d9181611b8d565b9350602085013592506040850135611da881611d49565b91506060850135611db881611d5e565b939692955090935050565b6020808252818101527f4f776e61626c653a2063616c6c6572206973206e6f7420746865206f776e6572604082015260600190565b634e487b7160e01b600052601260045260246000fd5b634e487b7160e01b600052601160045260246000fd5b600082611e3357611e33611df8565b500490565b600082611e4757611e47611df8565b500690565b60008219821115611e5f57611e5f611e0e565b500190565b600060208284031215611e7657600080fd5b5051919050565b6001600160a01b039390931683526020830191909152604082015260600190565b6000816000190483118215151615611eb857611eb8611e0e565b500290565b600080600060608486031215611ed257600080fd5b835161ffff81168114611ee457600080fd5b80935050602080850151611ef781611d5e565b60408601519093506001600160401b03811115611f1357600080fd5b8501601f81018713611f2457600080fd5b8051611f32611ca482611c31565b81815260059190911b82018301908381019089831115611f5157600080fd5b928401925b82841015611f6f57835182529284019290840190611f56565b80955050505050509250925092565b634e487b7160e01b600052603260045260246000fd5b600060018201611fa657611fa6611e0e565b5060010190565b60008060008060808587031215611fc357600080fd5b84516001600160601b0381168114611fda57600080fd5b80945050602080860151611fed81611d49565b6040870151909450611ffe81611b8d565b60608701519093506001600160401b0381111561201a57600080fd5b8601601f8101881361202b57600080fd5b8051612039611ca482611c31565b81815260059190911b8201830190838101908a83111561205857600080fd5b928401925b8284101561207f57835161207081611b8d565b8252928401929084019061205d565b979a9699509497505050505050565b6001600160a01b03929092168252602082015260400190565b6000828210156120b9576120b9611e0e565b500390565b6000600f82810b9084900b828212801560016001607f1b03849003831316156120e9576120e9611e0e565b60016001607f1b0319839003821281161561210657612106611e0e565b50019392505050565b6000600f82810b9084900b828112801560016001607f1b031983018412161561213a5761213a611e0e565b60016001607f1b038201831381161561215557612155611e0e565b5090039392505050565b6020808252602b908201527f496e697469616c697a61626c653a20636f6e7472616374206973206e6f74206960408201526a6e697469616c697a696e6760a81b606082015260800190565b6000816121b9576121b9611e0e565b50600019019056febd515cb7fe6810ea1d996c4efb3231c8b281498ca8062a4ec905d41943824bdfa26469706673582212204b2bd96c3b7e20f679e5fee230028fdecc53c4d5fa3432ef245653f787669b9b64736f6c634300080d0033",
  "devdoc": {
    "events": {
      "Reveal(address,uint256,uint256)": {
        "details": "Emitted on revealNextBatch() and forceReveal()",
        "params": {
          "baseLaunchpeg": "Base launchpeg address",
          "batchNumber": "The batch revealed",
          "batchSeed": "The random number drawn"
        }
      },
      "RevealBatchSizeSet(address,uint256)": {
        "details": "Emitted on setRevealBatchSize()",
        "params": {
          "baseLaunchpeg": "Base launchpeg address",
          "revealBatchSize": "New reveal batch size"
        }
      },
      "RevealIntervalSet(address,uint256)": {
        "details": "Emitted on setRevealInterval()",
        "params": {
          "baseLaunchpeg": "Base launchpeg address",
          "revealInterval": "New reveal interval"
        }
      },
      "RevealStartTimeSet(address,uint256)": {
        "details": "Emitted on setRevealStartTime()",
        "params": {
          "baseLaunchpeg": "Base launchpeg address",
          "revealStartTime": "New reveal start time"
        }
      },
      "VRFSet(address,bytes32,uint64,uint32)": {
        "details": "emitted on setVRF()",
        "params": {
          "_callbackGasLimit": "Max gas used by the coordinator callback",
          "_keyHash": "Keyhash of the gas lane wanted",
          "_subscriptionId": "Chainlink subscription ID",
          "_vrfCoordinator": "Chainlink coordinator address"
        }
      }
    },
    "kind": "dev",
    "methods": {
      "configure(address,uint256,uint256,uint256)": {
        "details": "Configure batch reveal for a given launch",
        "params": {
          "_baseLaunchpeg": "Base launchpeg address",
          "_revealBatchSize": "Size of the batch reveal",
          "_revealInterval": "Batch reveal interval",
          "_revealStartTime": "Batch reveal start time"
        }
      },
      "forceReveal(address)": {
        "details": "Force reveal, should be restricted to owner"
      },
      "getShuffledTokenId(address,uint256)": {
        "details": "Gets the random token URI number from tokenId",
        "params": {
          "_baseLaunchpeg": "Base launchpeg address",
          "_startId": "Token Id to consider"
        },
        "returns": {
          "_0": "uriId Revealed Token URI Id"
        }
      },
      "hasBatchToReveal(address,uint256)": {
        "details": "Returns true if a batch can be revealed",
        "params": {
          "_baseLaunchpeg": "Base launchpeg address",
          "_totalSupply": "Number of token already minted"
        },
        "returns": {
          "_0": "hasToRevealInfo Returns a bool saying whether a reveal can be triggered or not and the number of the next batch that will be revealed"
        }
      },
      "owner()": {
        "details": "Returns the address of the current owner."
      },
      "renounceOwnership()": {
        "details": "Leaves the contract without owner. It will not be possible to call `onlyOwner` functions anymore. Can only be called by the current owner. NOTE: Renouncing ownership will leave the contract without an owner, thereby removing any functionality that is only available to the owner."
      },
      "revealNextBatch(address,uint256)": {
        "details": "Reveals next batch if possibleIf using VRF, the reveal happens on the coordinator callback call",
        "params": {
          "_baseLaunchpeg": "Base launchpeg address",
          "_totalSupply": "Number of token already minted"
        },
        "returns": {
          "_0": "isRevealed Returns false if it is not possible to reveal the next batch"
        }
      },
      "setRevealBatchSize(address,uint256)": {
        "params": {
          "_baseLaunchpeg": "Base launchpeg address",
          "_revealBatchSize": "New reveal batch size"
        }
      },
      "setRevealInterval(address,uint256)": {
        "params": {
          "_baseLaunchpeg": "Base launchpeg address",
          "_revealInterval": "New batch reveal interval"
        }
      },
      "setRevealStartTime(address,uint256)": {
        "params": {
          "_baseLaunchpeg": "Base launchpeg address",
          "_revealStartTime": "New batch reveal start time"
        }
      },
      "setVRF(address,bytes32,uint64,uint32)": {
        "params": {
          "_callbackGasLimit": "Max gas used by the coordinator callback",
          "_keyHash": "Keyhash of the gas lane wanted",
          "_subscriptionId": "Chainlink subscription ID",
          "_vrfCoordinator": "Chainlink coordinator address"
        }
      },
      "transferOwnership(address)": {
        "details": "Transfers ownership of the contract to a new account (`newOwner`). Can only be called by the current owner."
      }
    },
    "stateVariables": {
      "launchpegToHasBeenForceRevealed": {
        "details": "VRF will not be used anymore if a batch has been force revealed"
      },
      "launchpegToRangeLength": {
        "details": "Size of the array that will store already taken URIs numbers by launchpeg"
      },
      "launchpegToVrfRequestedForBatch": {
        "details": "Prevents people from spamming the random words request and therefore reveal more batches than expected"
      }
    },
    "title": "BatchReveal",
    "version": 1
  },
  "userdoc": {
    "kind": "user",
    "methods": {
      "callbackGasLimit()": {
        "notice": "Depends on the number of requested values that you want sent to the fulfillRandomWords() function. Storing each word costs about 20,000 gas, so 100,000 is a safe default for this example contract. Test and adjust this limit based on the network that you select, the size of the request, and the processing of the callback request in the fulfillRandomWords() function."
      },
      "initialize()": {
        "notice": "Initialize batch reveal"
      },
      "isBatchRevealInitialized(address)": {
        "notice": "Returns true if batch reveal is configured for the given launchpeg Since the collection size is set only when batch reveal is initialized, and the collection size cannot be 0, we assume a 0 value means the batch reveal configuration has not been initialized."
      },
      "keyHash()": {
        "notice": "The gas lane to use, which specifies the maximum gas price to bump to. For a list of available gas lanes on each network, see https://docs.chain.link/docs/vrf-contracts/#configurations"
      },
      "launchpegToBatchToSeed(address,uint256)": {
        "notice": "Randomized seeds used to shuffle TokenURIs by launchpeg"
      },
      "launchpegToConfig(address)": {
        "notice": "Batch reveal configuration by launchpeg"
      },
      "launchpegToHasBeenForceRevealed(address)": {
        "notice": "True when force revealed has been triggered for the given launchpeg"
      },
      "launchpegToLastTokenReveal(address)": {
        "notice": "Last token that has been revealed by launchpeg"
      },
      "launchpegToNextBatchToReveal(address)": {
        "notice": "Next batch that will be revealed by VRF (if activated) by launchpeg"
      },
      "launchpegToVrfRequestedForBatch(address,uint256)": {
        "notice": "Has the random number for a batch already been asked by launchpeg"
      },
      "rawFulfillRandomWords(uint256,uint256[])": {
        "notice": "rawFulfillRandomness is called by VRFCoordinator when it receives a valid VRF proof. rawFulfillRandomness then calls fulfillRandomness, after validating the origin of the call"
      },
      "requestConfirmations()": {
        "notice": "Number of block confirmations that the coordinator will wait before triggering the callback The default is 3"
      },
      "setRevealBatchSize(address,uint256)": {
        "notice": "Set the reveal batch size. Can only be set after batch reveal has been initialized and before a batch has been revealed."
      },
      "setRevealInterval(address,uint256)": {
        "notice": "Set the batch reveal interval. Can only be set after batch reveal has been initialized and before a batch has been revealed."
      },
      "setRevealStartTime(address,uint256)": {
        "notice": "Set the batch reveal start time. Can only be set after batch reveal has been initialized and before a batch has been revealed."
      },
      "setVRF(address,bytes32,uint64,uint32)": {
        "notice": "Set VRF configuration"
      },
      "subscriptionId()": {
        "notice": "Chainlink subscription ID"
      },
      "useVRF()": {
        "notice": "Contract uses VRF or pseudo-randomness"
      },
      "vrfRequestIdToLaunchpeg(uint256)": {
        "notice": "VRF request ids by launchpeg"
      }
    },
    "notice": "Implements a gas efficient way of revealing NFT URIs gradually",
    "version": 1
  },
  "storageLayout": {
    "storage": [
      {
        "astId": 11388,
        "contract": "contracts/BatchReveal.sol:BatchReveal",
        "label": "vrfCoordinator",
        "offset": 0,
        "slot": "0",
        "type": "t_address"
      },
      {
        "astId": 810,
        "contract": "contracts/BatchReveal.sol:BatchReveal",
        "label": "_initialized",
        "offset": 20,
        "slot": "0",
        "type": "t_bool"
      },
      {
        "astId": 813,
        "contract": "contracts/BatchReveal.sol:BatchReveal",
        "label": "_initializing",
        "offset": 21,
        "slot": "0",
        "type": "t_bool"
      },
      {
        "astId": 1710,
        "contract": "contracts/BatchReveal.sol:BatchReveal",
        "label": "__gap",
        "offset": 0,
        "slot": "1",
        "type": "t_array(t_uint256)50_storage"
      },
      {
        "astId": 671,
        "contract": "contracts/BatchReveal.sol:BatchReveal",
        "label": "_owner",
        "offset": 0,
        "slot": "51",
        "type": "t_address"
      },
      {
        "astId": 783,
        "contract": "contracts/BatchReveal.sol:BatchReveal",
        "label": "__gap",
        "offset": 0,
        "slot": "52",
        "type": "t_array(t_uint256)49_storage"
      },
      {
        "astId": 5491,
        "contract": "contracts/BatchReveal.sol:BatchReveal",
        "label": "launchpegToConfig",
        "offset": 0,
        "slot": "101",
        "type": "t_mapping(t_address,t_struct(BatchRevealConfig)12378_storage)"
      },
      {
        "astId": 5496,
        "contract": "contracts/BatchReveal.sol:BatchReveal",
        "label": "vrfRequestIdToLaunchpeg",
        "offset": 0,
        "slot": "102",
        "type": "t_mapping(t_uint256,t_address)"
      },
      {
        "astId": 5504,
        "contract": "contracts/BatchReveal.sol:BatchReveal",
        "label": "launchpegToBatchToSeed",
        "offset": 0,
        "slot": "103",
        "type": "t_mapping(t_address,t_mapping(t_uint256,t_uint256))"
      },
      {
        "astId": 5510,
        "contract": "contracts/BatchReveal.sol:BatchReveal",
        "label": "launchpegToLastTokenReveal",
        "offset": 0,
        "slot": "104",
        "type": "t_mapping(t_address,t_uint256)"
      },
      {
        "astId": 5515,
        "contract": "contracts/BatchReveal.sol:BatchReveal",
        "label": "launchpegToRangeLength",
        "offset": 0,
        "slot": "105",
        "type": "t_mapping(t_address,t_uint256)"
      },
      {
        "astId": 5519,
        "contract": "contracts/BatchReveal.sol:BatchReveal",
        "label": "useVRF",
        "offset": 0,
        "slot": "106",
        "type": "t_bool"
      },
      {
        "astId": 5523,
        "contract": "contracts/BatchReveal.sol:BatchReveal",
        "label": "subscriptionId",
        "offset": 1,
        "slot": "106",
        "type": "t_uint64"
      },
      {
        "astId": 5527,
        "contract": "contracts/BatchReveal.sol:BatchReveal",
        "label": "keyHash",
        "offset": 0,
        "slot": "107",
        "type": "t_bytes32"
      },
      {
        "astId": 5531,
        "contract": "contracts/BatchReveal.sol:BatchReveal",
        "label": "callbackGasLimit",
        "offset": 0,
        "slot": "108",
        "type": "t_uint32"
      },
      {
        "astId": 5542,
        "contract": "contracts/BatchReveal.sol:BatchReveal",
        "label": "launchpegToNextBatchToReveal",
        "offset": 0,
        "slot": "109",
        "type": "t_mapping(t_address,t_uint256)"
      },
      {
        "astId": 5548,
        "contract": "contracts/BatchReveal.sol:BatchReveal",
        "label": "launchpegToHasBeenForceRevealed",
        "offset": 0,
        "slot": "110",
        "type": "t_mapping(t_address,t_bool)"
      },
      {
        "astId": 5556,
        "contract": "contracts/BatchReveal.sol:BatchReveal",
        "label": "launchpegToVrfRequestedForBatch",
        "offset": 0,
        "slot": "111",
        "type": "t_mapping(t_address,t_mapping(t_uint256,t_bool))"
      }
    ],
    "types": {
      "t_address": {
        "encoding": "inplace",
        "label": "address",
        "numberOfBytes": "20"
      },
      "t_array(t_uint256)49_storage": {
        "base": "t_uint256",
        "encoding": "inplace",
        "label": "uint256[49]",
        "numberOfBytes": "1568"
      },
      "t_array(t_uint256)50_storage": {
        "base": "t_uint256",
        "encoding": "inplace",
        "label": "uint256[50]",
        "numberOfBytes": "1600"
      },
      "t_bool": {
        "encoding": "inplace",
        "label": "bool",
        "numberOfBytes": "1"
      },
      "t_bytes32": {
        "encoding": "inplace",
        "label": "bytes32",
        "numberOfBytes": "32"
      },
      "t_int128": {
        "encoding": "inplace",
        "label": "int128",
        "numberOfBytes": "16"
      },
      "t_mapping(t_address,t_bool)": {
        "encoding": "mapping",
        "key": "t_address",
        "label": "mapping(address => bool)",
        "numberOfBytes": "32",
        "value": "t_bool"
      },
      "t_mapping(t_address,t_mapping(t_uint256,t_bool))": {
        "encoding": "mapping",
        "key": "t_address",
        "label": "mapping(address => mapping(uint256 => bool))",
        "numberOfBytes": "32",
        "value": "t_mapping(t_uint256,t_bool)"
      },
      "t_mapping(t_address,t_mapping(t_uint256,t_uint256))": {
        "encoding": "mapping",
        "key": "t_address",
        "label": "mapping(address => mapping(uint256 => uint256))",
        "numberOfBytes": "32",
        "value": "t_mapping(t_uint256,t_uint256)"
      },
      "t_mapping(t_address,t_struct(BatchRevealConfig)12378_storage)": {
        "encoding": "mapping",
        "key": "t_address",
        "label": "mapping(address => struct IBatchReveal.BatchRevealConfig)",
        "numberOfBytes": "32",
        "value": "t_struct(BatchRevealConfig)12378_storage"
      },
      "t_mapping(t_address,t_uint256)": {
        "encoding": "mapping",
        "key": "t_address",
        "label": "mapping(address => uint256)",
        "numberOfBytes": "32",
        "value": "t_uint256"
      },
      "t_mapping(t_uint256,t_address)": {
        "encoding": "mapping",
        "key": "t_uint256",
        "label": "mapping(uint256 => address)",
        "numberOfBytes": "32",
        "value": "t_address"
      },
      "t_mapping(t_uint256,t_bool)": {
        "encoding": "mapping",
        "key": "t_uint256",
        "label": "mapping(uint256 => bool)",
        "numberOfBytes": "32",
        "value": "t_bool"
      },
      "t_mapping(t_uint256,t_uint256)": {
        "encoding": "mapping",
        "key": "t_uint256",
        "label": "mapping(uint256 => uint256)",
        "numberOfBytes": "32",
        "value": "t_uint256"
      },
      "t_struct(BatchRevealConfig)12378_storage": {
        "encoding": "inplace",
        "label": "struct IBatchReveal.BatchRevealConfig",
        "members": [
          {
            "astId": 12366,
            "contract": "contracts/BatchReveal.sol:BatchReveal",
            "label": "collectionSize",
            "offset": 0,
            "slot": "0",
            "type": "t_uint256"
          },
          {
            "astId": 12368,
            "contract": "contracts/BatchReveal.sol:BatchReveal",
            "label": "intCollectionSize",
            "offset": 0,
            "slot": "1",
            "type": "t_int128"
          },
          {
            "astId": 12371,
            "contract": "contracts/BatchReveal.sol:BatchReveal",
            "label": "revealBatchSize",
            "offset": 0,
            "slot": "2",
            "type": "t_uint256"
          },
          {
            "astId": 12374,
            "contract": "contracts/BatchReveal.sol:BatchReveal",
            "label": "revealStartTime",
            "offset": 0,
            "slot": "3",
            "type": "t_uint256"
          },
          {
            "astId": 12377,
            "contract": "contracts/BatchReveal.sol:BatchReveal",
            "label": "revealInterval",
            "offset": 0,
            "slot": "4",
            "type": "t_uint256"
          }
        ],
        "numberOfBytes": "160"
      },
      "t_uint256": {
        "encoding": "inplace",
        "label": "uint256",
        "numberOfBytes": "32"
      },
      "t_uint32": {
        "encoding": "inplace",
        "label": "uint32",
        "numberOfBytes": "4"
      },
      "t_uint64": {
        "encoding": "inplace",
        "label": "uint64",
        "numberOfBytes": "8"
      }
    }
  }
}