{
  "address": "0xE3d682bA8eF02b37d3d833ff110a9DEC28B4025e",
  "abi": [
    {
      "inputs": [],
      "name": "ApprovalCallerNotOwnerNorApproved",
      "type": "error"
    },
    {
      "inputs": [],
      "name": "ApprovalQueryForNonexistentToken",
      "type": "error"
    },
    {
      "inputs": [],
      "name": "ApprovalToCurrentOwner",
      "type": "error"
    },
    {
      "inputs": [],
      "name": "ApproveToCaller",
      "type": "error"
    },
    {
      "inputs": [],
      "name": "BalanceQueryForZeroAddress",
      "type": "error"
    },
    {
      "inputs": [],
      "name": "Launchpeg__BatchRevealAlreadyInitialized",
      "type": "error"
    },
    {
      "inputs": [],
      "name": "Launchpeg__BatchRevealDisabled",
      "type": "error"
    },
    {
      "inputs": [],
      "name": "Launchpeg__CanNotMintThisMany",
      "type": "error"
    },
    {
      "inputs": [],
      "name": "Launchpeg__InvalidAllowlistPrice",
      "type": "error"
    },
    {
      "inputs": [],
      "name": "Launchpeg__InvalidClaim",
      "type": "error"
    },
    {
      "inputs": [],
      "name": "Launchpeg__InvalidJoeFeeCollector",
      "type": "error"
    },
    {
      "inputs": [],
      "name": "Launchpeg__InvalidMaxPerAddressDuringMint",
      "type": "error"
    },
    {
      "inputs": [],
      "name": "Launchpeg__InvalidOwner",
      "type": "error"
    },
    {
      "inputs": [],
      "name": "Launchpeg__InvalidPercent",
      "type": "error"
    },
    {
      "inputs": [],
      "name": "Launchpeg__InvalidPhases",
      "type": "error"
    },
    {
      "inputs": [],
      "name": "Launchpeg__InvalidProjectOwner",
      "type": "error"
    },
    {
      "inputs": [],
      "name": "Launchpeg__InvalidQuantity",
      "type": "error"
    },
    {
      "inputs": [],
      "name": "Launchpeg__InvalidRoyaltyInfo",
      "type": "error"
    },
    {
      "inputs": [],
      "name": "Launchpeg__LargerCollectionSizeNeeded",
      "type": "error"
    },
    {
      "inputs": [],
      "name": "Launchpeg__MaxSupplyForDevReached",
      "type": "error"
    },
    {
      "inputs": [],
      "name": "Launchpeg__MaxSupplyReached",
      "type": "error"
    },
    {
      "inputs": [],
      "name": "Launchpeg__NotEligibleForAllowlistMint",
      "type": "error"
    },
    {
      "inputs": [
        {
          "internalType": "uint256",
          "name": "avaxSent",
          "type": "uint256"
        }
      ],
      "name": "Launchpeg__NotEnoughAVAX",
      "type": "error"
    },
    {
      "inputs": [],
      "name": "Launchpeg__NotInitialized",
      "type": "error"
    },
    {
      "inputs": [],
      "name": "Launchpeg__RevealNextBatchNotAvailable",
      "type": "error"
    },
    {
      "inputs": [],
      "name": "Launchpeg__TransferFailed",
      "type": "error"
    },
    {
      "inputs": [],
      "name": "Launchpeg__Unauthorized",
      "type": "error"
    },
    {
      "inputs": [],
      "name": "Launchpeg__WithdrawAVAXNotAvailable",
      "type": "error"
    },
    {
      "inputs": [],
      "name": "Launchpeg__WrongAddressesAndNumSlotsLength",
      "type": "error"
    },
    {
      "inputs": [],
      "name": "Launchpeg__WrongPhase",
      "type": "error"
    },
    {
      "inputs": [],
      "name": "MintToZeroAddress",
      "type": "error"
    },
    {
      "inputs": [],
      "name": "MintZeroQuantity",
      "type": "error"
    },
    {
      "inputs": [
        {
          "internalType": "address",
          "name": "operator",
          "type": "address"
        }
      ],
      "name": "OperatorNotAllowed",
      "type": "error"
    },
    {
      "inputs": [],
      "name": "OwnerQueryForNonexistentToken",
      "type": "error"
    },
    {
      "inputs": [],
      "name": "PendingOwnableUpgradeable__AddressZero",
      "type": "error"
    },
    {
      "inputs": [],
      "name": "PendingOwnableUpgradeable__NoPendingOwner",
      "type": "error"
    },
    {
      "inputs": [],
      "name": "PendingOwnableUpgradeable__NotOwner",
      "type": "error"
    },
    {
      "inputs": [],
      "name": "PendingOwnableUpgradeable__NotPendingOwner",
      "type": "error"
    },
    {
      "inputs": [],
      "name": "PendingOwnableUpgradeable__PendingOwnerAlreadySet",
      "type": "error"
    },
    {
      "inputs": [],
      "name": "SafeAccessControlEnumerableUpgradeable__RoleIsDefaultAdmin",
      "type": "error"
    },
    {
      "inputs": [
        {
          "internalType": "bytes32",
          "name": "role",
          "type": "bytes32"
        },
        {
          "internalType": "address",
          "name": "sender",
          "type": "address"
        }
      ],
      "name": "SafeAccessControlEnumerableUpgradeable__SenderMissingRoleAndIsNotOwner",
      "type": "error"
    },
    {
      "inputs": [],
      "name": "SafePausableUpgradeable__AlreadyPaused",
      "type": "error"
    },
    {
      "inputs": [],
      "name": "SafePausableUpgradeable__AlreadyUnpaused",
      "type": "error"
    },
    {
      "inputs": [],
      "name": "TransferCallerNotOwnerNorApproved",
      "type": "error"
    },
    {
      "inputs": [],
      "name": "TransferFromIncorrectOwner",
      "type": "error"
    },
    {
      "inputs": [],
      "name": "TransferToNonERC721ReceiverImplementer",
      "type": "error"
    },
    {
      "inputs": [],
      "name": "TransferToZeroAddress",
      "type": "error"
    },
    {
      "anonymous": false,
      "inputs": [],
      "name": "AllowlistSeeded",
      "type": "event"
    },
    {
      "anonymous": false,
      "inputs": [
        {
          "indexed": false,
          "internalType": "uint256",
          "name": "allowlistStartTime",
          "type": "uint256"
        }
      ],
      "name": "AllowlistStartTimeSet",
      "type": "event"
    },
    {
      "anonymous": false,
      "inputs": [
        {
          "indexed": true,
          "internalType": "address",
          "name": "owner",
          "type": "address"
        },
        {
          "indexed": true,
          "internalType": "address",
          "name": "approved",
          "type": "address"
        },
        {
          "indexed": true,
          "internalType": "uint256",
          "name": "tokenId",
          "type": "uint256"
        }
      ],
      "name": "Approval",
      "type": "event"
    },
    {
      "anonymous": false,
      "inputs": [
        {
          "indexed": true,
          "internalType": "address",
          "name": "owner",
          "type": "address"
        },
        {
          "indexed": true,
          "internalType": "address",
          "name": "operator",
          "type": "address"
        },
        {
          "indexed": false,
          "internalType": "bool",
          "name": "approved",
          "type": "bool"
        }
      ],
      "name": "ApprovalForAll",
      "type": "event"
    },
    {
      "anonymous": false,
      "inputs": [
        {
          "indexed": true,
          "internalType": "address",
          "name": "sender",
          "type": "address"
        },
        {
          "indexed": false,
          "internalType": "uint256",
          "name": "amount",
          "type": "uint256"
        },
        {
          "indexed": false,
          "internalType": "uint256",
          "name": "fee",
          "type": "uint256"
        }
      ],
      "name": "AvaxWithdraw",
      "type": "event"
    },
    {
      "anonymous": false,
      "inputs": [
        {
          "indexed": false,
          "internalType": "string",
          "name": "baseURI",
          "type": "string"
        }
      ],
      "name": "BaseURISet",
      "type": "event"
    },
    {
      "anonymous": false,
      "inputs": [
        {
          "indexed": true,
          "internalType": "address",
          "name": "receiver",
          "type": "address"
        },
        {
          "indexed": false,
          "internalType": "uint256",
          "name": "feePercent",
          "type": "uint256"
        }
      ],
      "name": "DefaultRoyaltySet",
      "type": "event"
    },
    {
      "anonymous": false,
      "inputs": [
        {
          "indexed": true,
          "internalType": "address",
          "name": "sender",
          "type": "address"
        },
        {
          "indexed": false,
          "internalType": "uint256",
          "name": "quantity",
          "type": "uint256"
        }
      ],
      "name": "DevMint",
      "type": "event"
    },
    {
      "anonymous": false,
      "inputs": [
        {
          "indexed": false,
          "internalType": "uint256",
          "name": "preMintStartTime",
          "type": "uint256"
        },
        {
          "indexed": false,
          "internalType": "uint256",
          "name": "allowlistStartTime",
          "type": "uint256"
        },
        {
          "indexed": false,
          "internalType": "uint256",
          "name": "publicSaleStartTime",
          "type": "uint256"
        },
        {
          "indexed": false,
          "internalType": "uint256",
          "name": "publicSaleEndTime",
          "type": "uint256"
        },
        {
          "indexed": false,
          "internalType": "uint256",
          "name": "allowlistPrice",
          "type": "uint256"
        },
        {
          "indexed": false,
          "internalType": "uint256",
          "name": "salePrice",
          "type": "uint256"
        }
      ],
      "name": "Initialized",
      "type": "event"
    },
    {
      "anonymous": false,
      "inputs": [
        {
          "indexed": false,
          "internalType": "uint256",
          "name": "feePercent",
          "type": "uint256"
        },
        {
          "indexed": false,
          "internalType": "address",
          "name": "feeCollector",
          "type": "address"
        }
      ],
      "name": "JoeFeeInitialized",
      "type": "event"
    },
    {
      "anonymous": false,
      "inputs": [
        {
          "indexed": true,
          "internalType": "address",
          "name": "sender",
          "type": "address"
        },
        {
          "indexed": false,
          "internalType": "uint256",
          "name": "quantity",
          "type": "uint256"
        },
        {
          "indexed": false,
          "internalType": "uint256",
          "name": "price",
          "type": "uint256"
        },
        {
          "indexed": false,
          "internalType": "uint256",
          "name": "startTokenId",
          "type": "uint256"
        },
        {
          "indexed": false,
          "internalType": "enum IBaseLaunchpeg.Phase",
          "name": "phase",
          "type": "uint8"
        }
      ],
      "name": "Mint",
      "type": "event"
    },
    {
      "anonymous": false,
      "inputs": [
        {
          "indexed": true,
          "internalType": "contract IOperatorFilterRegistry",
          "name": "operatorFilterRegistry",
          "type": "address"
        }
      ],
      "name": "OperatorFilterRegistryUpdated",
      "type": "event"
    },
    {
      "anonymous": false,
      "inputs": [
        {
          "indexed": true,
          "internalType": "address",
          "name": "previousOwner",
          "type": "address"
        },
        {
          "indexed": true,
          "internalType": "address",
          "name": "newOwner",
          "type": "address"
        }
      ],
      "name": "OwnershipTransferred",
      "type": "event"
    },
    {
      "anonymous": false,
      "inputs": [
        {
          "indexed": false,
          "internalType": "address",
          "name": "account",
          "type": "address"
        }
      ],
      "name": "Paused",
      "type": "event"
    },
    {
      "anonymous": false,
      "inputs": [
        {
          "indexed": true,
          "internalType": "address",
          "name": "pendingOwner",
          "type": "address"
        }
      ],
      "name": "PendingOwnerSet",
      "type": "event"
    },
    {
      "anonymous": false,
      "inputs": [
        {
          "indexed": true,
          "internalType": "address",
          "name": "sender",
          "type": "address"
        },
        {
          "indexed": false,
          "internalType": "uint256",
          "name": "quantity",
          "type": "uint256"
        },
        {
          "indexed": false,
          "internalType": "uint256",
          "name": "price",
          "type": "uint256"
        }
      ],
      "name": "PreMint",
      "type": "event"
    },
    {
      "anonymous": false,
      "inputs": [
        {
          "indexed": false,
          "internalType": "uint256",
          "name": "preMintStartTime",
          "type": "uint256"
        }
      ],
      "name": "PreMintStartTimeSet",
      "type": "event"
    },
    {
      "anonymous": false,
      "inputs": [
        {
          "indexed": false,
          "internalType": "uint256",
          "name": "publicSaleEndTime",
          "type": "uint256"
        }
      ],
      "name": "PublicSaleEndTimeSet",
      "type": "event"
    },
    {
      "anonymous": false,
      "inputs": [
        {
          "indexed": false,
          "internalType": "uint256",
          "name": "publicSaleStartTime",
          "type": "uint256"
        }
      ],
      "name": "PublicSaleStartTimeSet",
      "type": "event"
    },
    {
      "anonymous": false,
      "inputs": [
        {
          "indexed": true,
          "internalType": "bytes32",
          "name": "role",
          "type": "bytes32"
        },
        {
          "indexed": true,
          "internalType": "bytes32",
          "name": "previousAdminRole",
          "type": "bytes32"
        },
        {
          "indexed": true,
          "internalType": "bytes32",
          "name": "newAdminRole",
          "type": "bytes32"
        }
      ],
      "name": "RoleAdminChanged",
      "type": "event"
    },
    {
      "anonymous": false,
      "inputs": [
        {
          "indexed": true,
          "internalType": "bytes32",
          "name": "role",
          "type": "bytes32"
        },
        {
          "indexed": true,
          "internalType": "address",
          "name": "account",
          "type": "address"
        },
        {
          "indexed": true,
          "internalType": "address",
          "name": "sender",
          "type": "address"
        }
      ],
      "name": "RoleGranted",
      "type": "event"
    },
    {
      "anonymous": false,
      "inputs": [
        {
          "indexed": true,
          "internalType": "bytes32",
          "name": "role",
          "type": "bytes32"
        },
        {
          "indexed": true,
          "internalType": "address",
          "name": "account",
          "type": "address"
        },
        {
          "indexed": true,
          "internalType": "address",
          "name": "sender",
          "type": "address"
        }
      ],
      "name": "RoleRevoked",
      "type": "event"
    },
    {
      "anonymous": false,
      "inputs": [
        {
          "indexed": true,
          "internalType": "address",
          "name": "from",
          "type": "address"
        },
        {
          "indexed": true,
          "internalType": "address",
          "name": "to",
          "type": "address"
        },
        {
          "indexed": true,
          "internalType": "uint256",
          "name": "tokenId",
          "type": "uint256"
        }
      ],
      "name": "Transfer",
      "type": "event"
    },
    {
      "anonymous": false,
      "inputs": [
        {
          "indexed": false,
          "internalType": "address",
          "name": "account",
          "type": "address"
        }
      ],
      "name": "Unpaused",
      "type": "event"
    },
    {
      "anonymous": false,
      "inputs": [
        {
          "indexed": false,
          "internalType": "string",
          "name": "unrevealedURI",
          "type": "string"
        }
      ],
      "name": "UnrevealedURISet",
      "type": "event"
    },
    {
      "anonymous": false,
      "inputs": [
        {
          "indexed": false,
          "internalType": "uint256",
          "name": "withdrawAVAXStartTime",
          "type": "uint256"
        }
      ],
      "name": "WithdrawAVAXStartTimeSet",
      "type": "event"
    },
    {
      "inputs": [],
      "name": "BASIS_POINT_PRECISION",
      "outputs": [
        {
          "internalType": "uint256",
          "name": "",
          "type": "uint256"
        }
      ],
      "stateMutability": "view",
      "type": "function"
    },
    {
      "inputs": [],
      "name": "DEFAULT_ADMIN_ROLE",
      "outputs": [
        {
          "internalType": "bytes32",
          "name": "",
          "type": "bytes32"
        }
      ],
      "stateMutability": "view",
      "type": "function"
    },
    {
      "inputs": [],
      "name": "PAUSER_ADMIN_ROLE",
      "outputs": [
        {
          "internalType": "bytes32",
          "name": "",
          "type": "bytes32"
        }
      ],
      "stateMutability": "view",
      "type": "function"
    },
    {
      "inputs": [],
      "name": "PAUSER_ROLE",
      "outputs": [
        {
          "internalType": "bytes32",
          "name": "",
          "type": "bytes32"
        }
      ],
      "stateMutability": "view",
      "type": "function"
    },
    {
      "inputs": [],
      "name": "PROJECT_OWNER_ROLE",
      "outputs": [
        {
          "internalType": "bytes32",
          "name": "",
          "type": "bytes32"
        }
      ],
      "stateMutability": "view",
      "type": "function"
    },
    {
      "inputs": [],
      "name": "UNPAUSER_ADMIN_ROLE",
      "outputs": [
        {
          "internalType": "bytes32",
          "name": "",
          "type": "bytes32"
        }
      ],
      "stateMutability": "view",
      "type": "function"
    },
    {
      "inputs": [],
      "name": "UNPAUSER_ROLE",
      "outputs": [
        {
          "internalType": "bytes32",
          "name": "",
          "type": "bytes32"
        }
      ],
      "stateMutability": "view",
      "type": "function"
    },
    {
      "inputs": [
        {
          "internalType": "address",
          "name": "",
          "type": "address"
        }
      ],
      "name": "allowlist",
      "outputs": [
        {
          "internalType": "uint256",
          "name": "",
          "type": "uint256"
        }
      ],
      "stateMutability": "view",
      "type": "function"
    },
    {
      "inputs": [
        {
          "internalType": "uint256",
          "name": "_quantity",
          "type": "uint256"
        }
      ],
      "name": "allowlistMint",
      "outputs": [],
      "stateMutability": "payable",
      "type": "function"
    },
    {
      "inputs": [],
      "name": "allowlistPrice",
      "outputs": [
        {
          "internalType": "uint256",
          "name": "",
          "type": "uint256"
        }
      ],
      "stateMutability": "view",
      "type": "function"
    },
    {
      "inputs": [],
      "name": "allowlistStartTime",
      "outputs": [
        {
          "internalType": "uint256",
          "name": "",
          "type": "uint256"
        }
      ],
      "stateMutability": "view",
      "type": "function"
    },
    {
      "inputs": [],
      "name": "amountClaimedDuringPreMint",
      "outputs": [
        {
          "internalType": "uint256",
          "name": "",
          "type": "uint256"
        }
      ],
      "stateMutability": "view",
      "type": "function"
    },
    {
      "inputs": [],
      "name": "amountForAllowlist",
      "outputs": [
        {
          "internalType": "uint256",
          "name": "",
          "type": "uint256"
        }
      ],
      "stateMutability": "view",
      "type": "function"
    },
    {
      "inputs": [],
      "name": "amountForDevs",
      "outputs": [
        {
          "internalType": "uint256",
          "name": "",
          "type": "uint256"
        }
      ],
      "stateMutability": "view",
      "type": "function"
    },
    {
      "inputs": [],
      "name": "amountMintedByDevs",
      "outputs": [
        {
          "internalType": "uint256",
          "name": "",
          "type": "uint256"
        }
      ],
      "stateMutability": "view",
      "type": "function"
    },
    {
      "inputs": [],
      "name": "amountMintedDuringAllowlist",
      "outputs": [
        {
          "internalType": "uint256",
          "name": "",
          "type": "uint256"
        }
      ],
      "stateMutability": "view",
      "type": "function"
    },
    {
      "inputs": [],
      "name": "amountMintedDuringPreMint",
      "outputs": [
        {
          "internalType": "uint256",
          "name": "",
          "type": "uint256"
        }
      ],
      "stateMutability": "view",
      "type": "function"
    },
    {
      "inputs": [],
      "name": "amountMintedDuringPublicSale",
      "outputs": [
        {
          "internalType": "uint256",
          "name": "",
          "type": "uint256"
        }
      ],
      "stateMutability": "view",
      "type": "function"
    },
    {
      "inputs": [
        {
          "internalType": "address",
          "name": "operator",
          "type": "address"
        },
        {
          "internalType": "uint256",
          "name": "tokenId",
          "type": "uint256"
        }
      ],
      "name": "approve",
      "outputs": [],
      "stateMutability": "nonpayable",
      "type": "function"
    },
    {
      "inputs": [
        {
          "internalType": "address",
          "name": "owner",
          "type": "address"
        }
      ],
      "name": "balanceOf",
      "outputs": [
        {
          "internalType": "uint256",
          "name": "",
          "type": "uint256"
        }
      ],
      "stateMutability": "view",
      "type": "function"
    },
    {
      "inputs": [],
      "name": "baseURI",
      "outputs": [
        {
          "internalType": "string",
          "name": "",
          "type": "string"
        }
      ],
      "stateMutability": "view",
      "type": "function"
    },
    {
      "inputs": [
        {
          "internalType": "uint96",
          "name": "_maxQuantity",
          "type": "uint96"
        }
      ],
      "name": "batchClaimPreMint",
      "outputs": [],
      "stateMutability": "nonpayable",
      "type": "function"
    },
    {
      "inputs": [],
      "name": "batchReveal",
      "outputs": [
        {
          "internalType": "contract IBatchReveal",
          "name": "",
          "type": "address"
        }
      ],
      "stateMutability": "view",
      "type": "function"
    },
    {
      "inputs": [],
      "name": "becomeOwner",
      "outputs": [],
      "stateMutability": "nonpayable",
      "type": "function"
    },
    {
      "inputs": [],
      "name": "claimPreMint",
      "outputs": [],
      "stateMutability": "nonpayable",
      "type": "function"
    },
    {
      "inputs": [],
      "name": "collectionSize",
      "outputs": [
        {
          "internalType": "uint256",
          "name": "",
          "type": "uint256"
        }
      ],
      "stateMutability": "view",
      "type": "function"
    },
    {
      "inputs": [],
      "name": "currentPhase",
      "outputs": [
        {
          "internalType": "enum IBaseLaunchpeg.Phase",
          "name": "",
          "type": "uint8"
        }
      ],
      "stateMutability": "view",
      "type": "function"
    },
    {
      "inputs": [
        {
          "internalType": "uint256",
          "name": "_quantity",
          "type": "uint256"
        }
      ],
      "name": "devMint",
      "outputs": [],
      "stateMutability": "nonpayable",
      "type": "function"
    },
    {
      "inputs": [
        {
          "internalType": "uint256",
          "name": "tokenId",
          "type": "uint256"
        }
      ],
      "name": "getApproved",
      "outputs": [
        {
          "internalType": "address",
          "name": "",
          "type": "address"
        }
      ],
      "stateMutability": "view",
      "type": "function"
    },
    {
      "inputs": [
        {
          "internalType": "uint256",
          "name": "_tokenId",
          "type": "uint256"
        }
      ],
      "name": "getOwnershipData",
      "outputs": [
        {
          "components": [
            {
              "internalType": "address",
              "name": "addr",
              "type": "address"
            },
            {
              "internalType": "uint64",
              "name": "startTimestamp",
              "type": "uint64"
            },
            {
              "internalType": "bool",
              "name": "burned",
              "type": "bool"
            }
          ],
          "internalType": "struct ERC721AUpgradeable.TokenOwnership",
          "name": "",
          "type": "tuple"
        }
      ],
      "stateMutability": "view",
      "type": "function"
    },
    {
      "inputs": [
        {
          "internalType": "bytes32",
          "name": "role",
          "type": "bytes32"
        }
      ],
      "name": "getRoleAdmin",
      "outputs": [
        {
          "internalType": "bytes32",
          "name": "",
          "type": "bytes32"
        }
      ],
      "stateMutability": "view",
      "type": "function"
    },
    {
      "inputs": [
        {
          "internalType": "bytes32",
          "name": "role",
          "type": "bytes32"
        },
        {
          "internalType": "uint256",
          "name": "index",
          "type": "uint256"
        }
      ],
      "name": "getRoleMember",
      "outputs": [
        {
          "internalType": "address",
          "name": "",
          "type": "address"
        }
      ],
      "stateMutability": "view",
      "type": "function"
    },
    {
      "inputs": [
        {
          "internalType": "bytes32",
          "name": "role",
          "type": "bytes32"
        }
      ],
      "name": "getRoleMemberCount",
      "outputs": [
        {
          "internalType": "uint256",
          "name": "",
          "type": "uint256"
        }
      ],
      "stateMutability": "view",
      "type": "function"
    },
    {
      "inputs": [
        {
          "internalType": "bytes32",
          "name": "role",
          "type": "bytes32"
        },
        {
          "internalType": "address",
          "name": "account",
          "type": "address"
        }
      ],
      "name": "grantRole",
      "outputs": [],
      "stateMutability": "nonpayable",
      "type": "function"
    },
    {
      "inputs": [],
      "name": "hasBatchToReveal",
      "outputs": [
        {
          "internalType": "bool",
          "name": "",
          "type": "bool"
        },
        {
          "internalType": "uint256",
          "name": "",
          "type": "uint256"
        }
      ],
      "stateMutability": "view",
      "type": "function"
    },
    {
      "inputs": [
        {
          "internalType": "bytes32",
          "name": "role",
          "type": "bytes32"
        },
        {
          "internalType": "address",
          "name": "account",
          "type": "address"
        }
      ],
      "name": "hasRole",
      "outputs": [
        {
          "internalType": "bool",
          "name": "",
          "type": "bool"
        }
      ],
      "stateMutability": "view",
      "type": "function"
    },
    {
      "inputs": [
        {
          "components": [
            {
              "internalType": "string",
              "name": "name",
              "type": "string"
            },
            {
              "internalType": "string",
              "name": "symbol",
              "type": "string"
            },
            {
              "internalType": "address",
              "name": "batchReveal",
              "type": "address"
            },
            {
              "internalType": "uint256",
              "name": "maxPerAddressDuringMint",
              "type": "uint256"
            },
            {
              "internalType": "uint256",
              "name": "collectionSize",
              "type": "uint256"
            },
            {
              "internalType": "uint256",
              "name": "amountForDevs",
              "type": "uint256"
            },
            {
              "internalType": "uint256",
              "name": "amountForAuction",
              "type": "uint256"
            },
            {
              "internalType": "uint256",
              "name": "amountForAllowlist",
              "type": "uint256"
            }
          ],
          "internalType": "struct IBaseLaunchpeg.CollectionData",
          "name": "_collectionData",
          "type": "tuple"
        },
        {
          "components": [
            {
              "internalType": "address",
              "name": "owner",
              "type": "address"
            },
            {
              "internalType": "address",
              "name": "projectOwner",
              "type": "address"
            },
            {
              "internalType": "address",
              "name": "royaltyReceiver",
              "type": "address"
            },
            {
              "internalType": "address",
              "name": "joeFeeCollector",
              "type": "address"
            },
            {
              "internalType": "uint256",
              "name": "joeFeePercent",
              "type": "uint256"
            }
          ],
          "internalType": "struct IBaseLaunchpeg.CollectionOwnerData",
          "name": "_ownerData",
          "type": "tuple"
        }
      ],
      "name": "initialize",
      "outputs": [],
      "stateMutability": "nonpayable",
      "type": "function"
    },
    {
      "inputs": [
        {
          "internalType": "address",
          "name": "_batchReveal",
          "type": "address"
        }
      ],
      "name": "initializeBatchReveal",
      "outputs": [],
      "stateMutability": "nonpayable",
      "type": "function"
    },
    {
      "inputs": [
        {
          "internalType": "uint256",
          "name": "_preMintStartTime",
          "type": "uint256"
        },
        {
          "internalType": "uint256",
          "name": "_allowlistStartTime",
          "type": "uint256"
        },
        {
          "internalType": "uint256",
          "name": "_publicSaleStartTime",
          "type": "uint256"
        },
        {
          "internalType": "uint256",
          "name": "_publicSaleEndTime",
          "type": "uint256"
        },
        {
          "internalType": "uint256",
          "name": "_allowlistPrice",
          "type": "uint256"
        },
        {
          "internalType": "uint256",
          "name": "_salePrice",
          "type": "uint256"
        }
      ],
      "name": "initializePhases",
      "outputs": [],
      "stateMutability": "nonpayable",
      "type": "function"
    },
    {
      "inputs": [
        {
          "internalType": "address",
          "name": "owner",
          "type": "address"
        },
        {
          "internalType": "address",
          "name": "operator",
          "type": "address"
        }
      ],
      "name": "isApprovedForAll",
      "outputs": [
        {
          "internalType": "bool",
          "name": "",
          "type": "bool"
        }
      ],
      "stateMutability": "view",
      "type": "function"
    },
    {
      "inputs": [],
      "name": "joeFeeCollector",
      "outputs": [
        {
          "internalType": "address",
          "name": "",
          "type": "address"
        }
      ],
      "stateMutability": "view",
      "type": "function"
    },
    {
      "inputs": [],
      "name": "joeFeePercent",
      "outputs": [
        {
          "internalType": "uint256",
          "name": "",
          "type": "uint256"
        }
      ],
      "stateMutability": "view",
      "type": "function"
    },
    {
      "inputs": [],
      "name": "maxPerAddressDuringMint",
      "outputs": [
        {
          "internalType": "uint256",
          "name": "",
          "type": "uint256"
        }
      ],
      "stateMutability": "view",
      "type": "function"
    },
    {
      "inputs": [],
      "name": "name",
      "outputs": [
        {
          "internalType": "string",
          "name": "",
          "type": "string"
        }
      ],
      "stateMutability": "view",
      "type": "function"
    },
    {
      "inputs": [
        {
          "internalType": "address",
          "name": "_owner",
          "type": "address"
        }
      ],
      "name": "numberMinted",
      "outputs": [
        {
          "internalType": "uint256",
          "name": "",
          "type": "uint256"
        }
      ],
      "stateMutability": "view",
      "type": "function"
    },
    {
      "inputs": [
        {
          "internalType": "address",
          "name": "_owner",
          "type": "address"
        }
      ],
      "name": "numberMintedWithPreMint",
      "outputs": [
        {
          "internalType": "uint256",
          "name": "",
          "type": "uint256"
        }
      ],
      "stateMutability": "view",
      "type": "function"
    },
    {
      "inputs": [],
      "name": "operatorFilterRegistry",
      "outputs": [
        {
          "internalType": "contract IOperatorFilterRegistry",
          "name": "",
          "type": "address"
        }
      ],
      "stateMutability": "view",
      "type": "function"
    },
    {
      "inputs": [],
      "name": "owner",
      "outputs": [
        {
          "internalType": "address",
          "name": "",
          "type": "address"
        }
      ],
      "stateMutability": "view",
      "type": "function"
    },
    {
      "inputs": [
        {
          "internalType": "uint256",
          "name": "tokenId",
          "type": "uint256"
        }
      ],
      "name": "ownerOf",
      "outputs": [
        {
          "internalType": "address",
          "name": "",
          "type": "address"
        }
      ],
      "stateMutability": "view",
      "type": "function"
    },
    {
      "inputs": [],
      "name": "pause",
      "outputs": [],
      "stateMutability": "nonpayable",
      "type": "function"
    },
    {
      "inputs": [],
      "name": "paused",
      "outputs": [
        {
          "internalType": "bool",
          "name": "",
          "type": "bool"
        }
      ],
      "stateMutability": "view",
      "type": "function"
    },
    {
      "inputs": [],
      "name": "pendingOwner",
      "outputs": [
        {
          "internalType": "address",
          "name": "",
          "type": "address"
        }
      ],
      "stateMutability": "view",
      "type": "function"
    },
    {
      "inputs": [
        {
          "internalType": "uint96",
          "name": "_quantity",
          "type": "uint96"
        }
      ],
      "name": "preMint",
      "outputs": [],
      "stateMutability": "payable",
      "type": "function"
    },
    {
      "inputs": [],
      "name": "preMintStartTime",
      "outputs": [
        {
          "internalType": "uint256",
          "name": "",
          "type": "uint256"
        }
      ],
      "stateMutability": "view",
      "type": "function"
    },
    {
      "inputs": [],
      "name": "publicSaleEndTime",
      "outputs": [
        {
          "internalType": "uint256",
          "name": "",
          "type": "uint256"
        }
      ],
      "stateMutability": "view",
      "type": "function"
    },
    {
      "inputs": [
        {
          "internalType": "uint256",
          "name": "_quantity",
          "type": "uint256"
        }
      ],
      "name": "publicSaleMint",
      "outputs": [],
      "stateMutability": "payable",
      "type": "function"
    },
    {
      "inputs": [],
      "name": "publicSaleStartTime",
      "outputs": [
        {
          "internalType": "uint256",
          "name": "",
          "type": "uint256"
        }
      ],
      "stateMutability": "view",
      "type": "function"
    },
    {
      "inputs": [],
      "name": "renounceOwnership",
      "outputs": [],
      "stateMutability": "nonpayable",
      "type": "function"
    },
    {
      "inputs": [
        {
          "internalType": "bytes32",
          "name": "role",
          "type": "bytes32"
        },
        {
          "internalType": "address",
          "name": "account",
          "type": "address"
        }
      ],
      "name": "renounceRole",
      "outputs": [],
      "stateMutability": "nonpayable",
      "type": "function"
    },
    {
      "inputs": [],
      "name": "revealNextBatch",
      "outputs": [],
      "stateMutability": "nonpayable",
      "type": "function"
    },
    {
      "inputs": [],
      "name": "revokePendingOwner",
      "outputs": [],
      "stateMutability": "nonpayable",
      "type": "function"
    },
    {
      "inputs": [
        {
          "internalType": "bytes32",
          "name": "role",
          "type": "bytes32"
        },
        {
          "internalType": "address",
          "name": "account",
          "type": "address"
        }
      ],
      "name": "revokeRole",
      "outputs": [],
      "stateMutability": "nonpayable",
      "type": "function"
    },
    {
      "inputs": [
        {
          "internalType": "uint256",
          "name": "_tokenId",
          "type": "uint256"
        },
        {
          "internalType": "uint256",
          "name": "_salePrice",
          "type": "uint256"
        }
      ],
      "name": "royaltyInfo",
      "outputs": [
        {
          "internalType": "address",
          "name": "",
          "type": "address"
        },
        {
          "internalType": "uint256",
          "name": "",
          "type": "uint256"
        }
      ],
      "stateMutability": "view",
      "type": "function"
    },
    {
      "inputs": [
        {
          "internalType": "address",
          "name": "from",
          "type": "address"
        },
        {
          "internalType": "address",
          "name": "to",
          "type": "address"
        },
        {
          "internalType": "uint256",
          "name": "tokenId",
          "type": "uint256"
        }
      ],
      "name": "safeTransferFrom",
      "outputs": [],
      "stateMutability": "nonpayable",
      "type": "function"
    },
    {
      "inputs": [
        {
          "internalType": "address",
          "name": "from",
          "type": "address"
        },
        {
          "internalType": "address",
          "name": "to",
          "type": "address"
        },
        {
          "internalType": "uint256",
          "name": "tokenId",
          "type": "uint256"
        },
        {
          "internalType": "bytes",
          "name": "data",
          "type": "bytes"
        }
      ],
      "name": "safeTransferFrom",
      "outputs": [],
      "stateMutability": "nonpayable",
      "type": "function"
    },
    {
      "inputs": [],
      "name": "salePrice",
      "outputs": [
        {
          "internalType": "uint256",
          "name": "",
          "type": "uint256"
        }
      ],
      "stateMutability": "view",
      "type": "function"
    },
    {
      "inputs": [
        {
          "internalType": "address[]",
          "name": "_addresses",
          "type": "address[]"
        },
        {
          "internalType": "uint256[]",
          "name": "_numNfts",
          "type": "uint256[]"
        }
      ],
      "name": "seedAllowlist",
      "outputs": [],
      "stateMutability": "nonpayable",
      "type": "function"
    },
    {
      "inputs": [
        {
          "internalType": "uint256",
          "name": "_allowlistStartTime",
          "type": "uint256"
        }
      ],
      "name": "setAllowlistStartTime",
      "outputs": [],
      "stateMutability": "nonpayable",
      "type": "function"
    },
    {
      "inputs": [
        {
          "internalType": "address",
          "name": "operator",
          "type": "address"
        },
        {
          "internalType": "bool",
          "name": "approved",
          "type": "bool"
        }
      ],
      "name": "setApprovalForAll",
      "outputs": [],
      "stateMutability": "nonpayable",
      "type": "function"
    },
    {
      "inputs": [
        {
          "internalType": "string",
          "name": "_baseURI",
          "type": "string"
        }
      ],
      "name": "setBaseURI",
      "outputs": [],
      "stateMutability": "nonpayable",
      "type": "function"
    },
    {
      "inputs": [
        {
          "internalType": "address",
          "name": "pendingOwner_",
          "type": "address"
        }
      ],
      "name": "setPendingOwner",
      "outputs": [],
      "stateMutability": "nonpayable",
      "type": "function"
    },
    {
      "inputs": [
        {
          "internalType": "uint256",
          "name": "_preMintStartTime",
          "type": "uint256"
        }
      ],
      "name": "setPreMintStartTime",
      "outputs": [],
      "stateMutability": "nonpayable",
      "type": "function"
    },
    {
      "inputs": [
        {
          "internalType": "uint256",
          "name": "_publicSaleEndTime",
          "type": "uint256"
        }
      ],
      "name": "setPublicSaleEndTime",
      "outputs": [],
      "stateMutability": "nonpayable",
      "type": "function"
    },
    {
      "inputs": [
        {
          "internalType": "uint256",
          "name": "_publicSaleStartTime",
          "type": "uint256"
        }
      ],
      "name": "setPublicSaleStartTime",
      "outputs": [],
      "stateMutability": "nonpayable",
      "type": "function"
    },
    {
      "inputs": [
        {
          "internalType": "address",
          "name": "_receiver",
          "type": "address"
        },
        {
          "internalType": "uint96",
          "name": "_feePercent",
          "type": "uint96"
        }
      ],
      "name": "setRoyaltyInfo",
      "outputs": [],
      "stateMutability": "nonpayable",
      "type": "function"
    },
    {
      "inputs": [
        {
          "internalType": "string",
          "name": "_unrevealedURI",
          "type": "string"
        }
      ],
      "name": "setUnrevealedURI",
      "outputs": [],
      "stateMutability": "nonpayable",
      "type": "function"
    },
    {
      "inputs": [
        {
          "internalType": "uint256",
          "name": "_withdrawAVAXStartTime",
          "type": "uint256"
        }
      ],
      "name": "setWithdrawAVAXStartTime",
      "outputs": [],
      "stateMutability": "nonpayable",
      "type": "function"
    },
    {
      "inputs": [
        {
          "internalType": "bytes4",
          "name": "_interfaceId",
          "type": "bytes4"
        }
      ],
      "name": "supportsInterface",
      "outputs": [
        {
          "internalType": "bool",
          "name": "",
          "type": "bool"
        }
      ],
      "stateMutability": "view",
      "type": "function"
    },
    {
      "inputs": [],
      "name": "symbol",
      "outputs": [
        {
          "internalType": "string",
          "name": "",
          "type": "string"
        }
      ],
      "stateMutability": "view",
      "type": "function"
    },
    {
      "inputs": [
        {
          "internalType": "uint256",
          "name": "_id",
          "type": "uint256"
        }
      ],
      "name": "tokenURI",
      "outputs": [
        {
          "internalType": "string",
          "name": "",
          "type": "string"
        }
      ],
      "stateMutability": "view",
      "type": "function"
    },
    {
      "inputs": [],
      "name": "totalSupply",
      "outputs": [
        {
          "internalType": "uint256",
          "name": "",
          "type": "uint256"
        }
      ],
      "stateMutability": "view",
      "type": "function"
    },
    {
      "inputs": [
        {
          "internalType": "address",
          "name": "from",
          "type": "address"
        },
        {
          "internalType": "address",
          "name": "to",
          "type": "address"
        },
        {
          "internalType": "uint256",
          "name": "tokenId",
          "type": "uint256"
        }
      ],
      "name": "transferFrom",
      "outputs": [],
      "stateMutability": "nonpayable",
      "type": "function"
    },
    {
      "inputs": [],
      "name": "unpause",
      "outputs": [],
      "stateMutability": "nonpayable",
      "type": "function"
    },
    {
      "inputs": [],
      "name": "unrevealedURI",
      "outputs": [
        {
          "internalType": "string",
          "name": "",
          "type": "string"
        }
      ],
      "stateMutability": "view",
      "type": "function"
    },
    {
      "inputs": [
        {
          "internalType": "contract IOperatorFilterRegistry",
          "name": "_newRegistry",
          "type": "address"
        }
      ],
      "name": "updateOperatorFilterRegistryAddress",
      "outputs": [],
      "stateMutability": "nonpayable",
      "type": "function"
    },
    {
      "inputs": [
        {
          "internalType": "address",
          "name": "_user",
          "type": "address"
        }
      ],
      "name": "userPendingPreMints",
      "outputs": [
        {
          "internalType": "uint256",
          "name": "",
          "type": "uint256"
        }
      ],
      "stateMutability": "view",
      "type": "function"
    },
    {
      "inputs": [
        {
          "internalType": "address",
          "name": "_to",
          "type": "address"
        }
      ],
      "name": "withdrawAVAX",
      "outputs": [],
      "stateMutability": "nonpayable",
      "type": "function"
    },
    {
      "inputs": [],
      "name": "withdrawAVAXStartTime",
      "outputs": [
        {
          "internalType": "uint256",
          "name": "",
          "type": "uint256"
        }
      ],
      "stateMutability": "view",
      "type": "function"
    }
  ],
  "transactionHash": "0x85093bfd50dd058a2ea5555bd51d6f6eec47f7a8e8436cc4becbd22f4464b2d4",
  "args": [],
  "numDeployments": 1,
  "solcInputHash": "6aace975dd9dd5d7c5903517677c8ee9",
  "bytecode": "0x608060405234801561001057600080fd5b5061598880620000216000396000f3fe60806040526004361061044b5760003560e01c80638456cb5911610236578063b88d4fde1161012f578063d9a6f705116100b1578063d9a6f70514610d87578063dc33e68114610d9d578063e30c397814610dbd578063e63ab1e914610ddb578063e985e9c514610dfd578063f35e231c14610e46578063f51f96dd14610e66578063f9dca98914610e7d578063fb1bb9de14610e92578063fbe1aa5114610eb4578063fe2c7fee14610ecb57600080fd5b8063b88d4fde14610c4d578063b8d1e53214610c6d578063be62da0e14610c8d578063c180526a14610caf578063c42069ec14610cc2578063c5482fe314610ce2578063c792e16714610cf9578063c87b56dd14610d10578063ca15c87314610d30578063d547741f14610d50578063d62b630314610d7057600080fd5b8063984b67d6116101b8578063984b67d614610af6578063a1ef0e5414610b16578063a217fddf14610b36578063a22cb46514610b4b578063a4c98ec414610b6b578063a7cd52cb14610b8b578063aec3922b14610bb9578063b05863d514610bd9578063b0ccc31e14610bf9578063b3ab66b014610c1a578063b560ee6914610c2d57600080fd5b80638456cb59146109a75780638bc35c2f146109bc5780638c6011ca146109d35780638da5cb5b146109e85780639010d07c146109fd57806390967a5214610a1d57806391d1485414610a345780639204065314610a545780639231ab2a14610a7457806395d89b4114610aca578063963331d814610adf57600080fd5b80633cc4cadb116103485780636352211e116102ca5780636352211e1461087157806366b55a091461089157806367ab8a4e146108b15780636b14bd39146108c65780636bb7b1d9146108dd5780636c0360eb146108f45780636d5d40c6146109095780637035bf181461092957806370a082311461093e57806370a952501461095e578063715018a61461099257600080fd5b80633cc4cadb1461075b5780633f4ba83a1461077257806342842e0e1461078757806345c0f533146107a757806355f804b3146107be57806359d7bc4d146107de5780635bb21376146107f55780635c7034af146108165780635c975abb1461082d578063622f1c471461084557806362f4fb2d1461085a57600080fd5b80631c0310a5116103d15780631c0310a5146105da5780631e4d185f146105fa57806321cc16111461061157806323b872dd14610632578063248a9ca31461065257806325a00473146106825780632a55205a146106b65780632e8f1f50146106e45780632f2ff15d146106fb57806336568abe1461071b578063375a069a1461073b57600080fd5b806301ffc9a71461045057806302fa7c471461048557806303851c28146104a757806303b674d3146104d3578063055ad42e146104f357806306fdde0314610515578063081812fc14610537578063095ea7b3146105645780630c2c39a3146105845780630f89952d146105a457806318160ddd146105b7575b600080fd5b34801561045c57600080fd5b5061047061046b366004614e9b565b610eeb565b60405190151581526020015b60405180910390f35b34801561049157600080fd5b506104a56104a0366004614ee4565b610f16565b005b3480156104b357600080fd5b506104bc610fc3565b60408051921515835260208301919091520161047c565b3480156104df57600080fd5b506104a56104ee366004614f19565b611067565b3480156104ff57600080fd5b50610508611169565b60405161047c9190614f6a565b34801561052157600080fd5b5061052a61122a565b60405161047c9190614fd0565b34801561054357600080fd5b50610557610552366004614f19565b6112bc565b60405161047c9190614fe3565b34801561057057600080fd5b506104a561057f366004614ff7565b611300565b34801561059057600080fd5b506104a561059f366004614f19565b611319565b6104a56105b2366004615023565b6113a4565b3480156105c357600080fd5b50606654606554035b60405190815260200161047c565b3480156105e657600080fd5b506104a56105f536600461503e565b61157f565b34801561060657600080fd5b506105cc6101a55481565b34801561061d57600080fd5b5061019954610557906001600160a01b031681565b34801561063e57600080fd5b506104a561064d36600461505b565b6117ff565b34801561065e57600080fd5b506105cc61066d366004614f19565b60009081526099602052604090206001015490565b34801561068e57600080fd5b506105cc7fe0e65c783ac33ff1c5ccf4399c9185066773921d6f8d050bf80781603021f09781565b3480156106c257600080fd5b506106d66106d136600461509c565b611824565b60405161047c9291906150be565b3480156106f057600080fd5b506105cc61019e5481565b34801561070757600080fd5b506104a56107163660046150d7565b6118d4565b34801561072757600080fd5b506104a56107363660046150d7565b611961565b34801561074757600080fd5b506104a5610756366004614f19565b61198a565b34801561076757600080fd5b506105cc6101a05481565b34801561077e57600080fd5b506104a5611acc565b34801561079357600080fd5b506104a56107a236600461505b565b611b5b565b3480156107b357600080fd5b506105cc6101935481565b3480156107ca57600080fd5b506104a56107d9366004615107565b611b80565b3480156107ea57600080fd5b506105cc6101a35481565b34801561080157600080fd5b5061019854610557906001600160a01b031681565b34801561082257600080fd5b506105cc61019d5481565b34801561083957600080fd5b5060fd5460ff16610470565b34801561085157600080fd5b506104a5611bea565b34801561086657600080fd5b506105cc6101a25481565b34801561087d57600080fd5b5061055761088c366004614f19565b611cf6565b34801561089d57600080fd5b506105cc6108ac36600461503e565b611d08565b3480156108bd57600080fd5b506104a5611d73565b3480156108d257600080fd5b506105cc61019f5481565b3480156108e957600080fd5b506105cc6101a45481565b34801561090057600080fd5b5061052a611dd1565b34801561091557600080fd5b506104a5610924366004614f19565b611e60565b34801561093557600080fd5b5061052a611f59565b34801561094a57600080fd5b506105cc61095936600461503e565b611f67565b34801561096a57600080fd5b506105cc7fe516f7ac9747f401e208331379a0bafe3c9c4dbb6501fd23bcef278f7ebaf4e581565b34801561099e57600080fd5b506104a5611fb5565b3480156109b357600080fd5b506104a5611fea565b3480156109c857600080fd5b506105cc6101965481565b3480156109df57600080fd5b506104a5612077565b3480156109f457600080fd5b50610557612158565b348015610a0957600080fd5b50610557610a1836600461509c565b612167565b348015610a2957600080fd5b506105cc6101aa5481565b348015610a4057600080fd5b50610470610a4f3660046150d7565b612186565b348015610a6057600080fd5b506104a5610a6f36600461503e565b6121b1565b348015610a8057600080fd5b50610a94610a8f366004614f19565b61225e565b6040805182516001600160a01b031681526020808401516001600160401b0316908201529181015115159082015260600161047c565b348015610ad657600080fd5b5061052a612284565b348015610aeb57600080fd5b506105cc6101a15481565b348015610b0257600080fd5b506104a5610b11366004614f19565b612293565b348015610b2257600080fd5b506104a5610b31366004614f19565b61237f565b348015610b4257600080fd5b506105cc600081565b348015610b5757600080fd5b506104a5610b66366004615186565b61246b565b348015610b7757600080fd5b506104a5610b86366004615023565b61247f565b348015610b9757600080fd5b506105cc610ba636600461503e565b61019c6020526000908152604090205481565b348015610bc557600080fd5b506105cc610bd436600461503e565b61268e565b348015610be557600080fd5b506104a5610bf43660046151f8565b6126ac565b348015610c0557600080fd5b506101a754610557906001600160a01b031681565b6104a5610c28366004614f19565b6127a5565b348015610c3957600080fd5b506104a5610c48366004615263565b612951565b348015610c5957600080fd5b506104a5610c683660046152d8565b612a19565b348015610c7957600080fd5b506104a5610c8836600461503e565b612a3f565b348015610c9957600080fd5b506105cc6000805160206158b383398151915281565b6104a5610cbd366004614f19565b612a73565b348015610cce57600080fd5b506104a5610cdd36600461503e565b612bd7565b348015610cee57600080fd5b506105cc6101975481565b348015610d0557600080fd5b506105cc6101a65481565b348015610d1c57600080fd5b5061052a610d2b366004614f19565b612c5c565b348015610d3c57600080fd5b506105cc610d4b366004614f19565b612e34565b348015610d5c57600080fd5b506104a5610d6b3660046150d7565b612e4b565b348015610d7c57600080fd5b506105cc6101955481565b348015610d9357600080fd5b506105cc61271081565b348015610da957600080fd5b506105cc610db836600461503e565b612ed8565b348015610dc957600080fd5b506098546001600160a01b0316610557565b348015610de757600080fd5b506105cc6000805160206158f383398151915281565b348015610e0957600080fd5b50610470610e183660046153b7565b6001600160a01b039182166000908152606c6020908152604080832093909416825291909152205460ff1690565b348015610e5257600080fd5b506104a5610e613660046153e5565b612ee3565b348015610e7257600080fd5b506105cc6101ab5481565b348015610e8957600080fd5b506104a561302b565b348015610e9e57600080fd5b506105cc6000805160206158d383398151915281565b348015610ec057600080fd5b506105cc6101945481565b348015610ed757600080fd5b506104a5610ee6366004615107565b61306a565b60006001600160e01b0319821663463ecd7560e01b1480610f105750610f10826130d4565b92915050565b6097546001600160a01b03163314610f4157604051630202a8bf60e61b815260040160405180910390fd5b6109c4816001600160601b03161115610f6d576040516306f644f160e31b815260040160405180910390fd5b610f778282613134565b6040516001600160601b03821681526001600160a01b038316907fd85b7816dca44c313f0fdadd9567f99f3620a2fac7c21a8a7872e1ac4d10fe55906020015b60405180910390a25050565b6101995460009081906001600160a01b0316610fe25750600091829150565b610199546001600160a01b031663ad9e22af306110026066546065540390565b6040518363ffffffff1660e01b815260040161101f9291906150be565b6040805180830381865afa15801561103b573d6000803e3d6000fd5b505050506040513d601f19601f8201168201806040525081019061105f9190615428565b915091509091565b6097546001600160a01b0316331461109257604051630202a8bf60e61b815260040160405180910390fd5b6101a354806000036110b7576040516356a4234d60e11b815260040160405180910390fd5b4281116110d7576040516338df794b60e01b815260040160405180910390fd5b81428110156110f95760405163800877ff60e01b815260040160405180910390fd5b6101a25483108061110c5750826101a454105b1561112a5760405163800877ff60e01b815260040160405180910390fd5b6101a38390556040518381527f9bcdfa29202b48178635d9cf5c57896f671198685cf6b8ddb5e20f3eb4bb1e60906020015b60405180910390a1505050565b60006101a2546000148061117e57506101a354155b8061118a57506101a454155b8061119657506101a554155b806111a357506101a25442105b156111ae5750600090565b6101935460665460655403106111c45750600590565b6101a25442101580156111d957506101a35442105b156111e45750600290565b6101a35442101580156111f957506101a45442105b156112045750600390565b6101a454421015801561121957506101a55442105b156112245750600490565b50600590565b60606067805461123990615456565b80601f016020809104026020016040519081016040528092919081815260200182805461126590615456565b80156112b25780601f10611287576101008083540402835291602001916112b2565b820191906000526020600020905b81548152906001019060200180831161129557829003601f168201915b5050505050905090565b60006112c78261322e565b6112e4576040516333d1c03960e21b815260040160405180910390fd5b506000908152606b60205260409020546001600160a01b031690565b8161130a8161325a565b6113148383613300565b505050565b6097546001600160a01b0316331461134457604051630202a8bf60e61b815260040160405180910390fd5b80428110156113665760405163800877ff60e01b815260040160405180910390fd5b6101a68290556040518281527f90513fea331bb55e4ca73a8d0c053a255347ccb17c621338052705ea997383b3906020015b60405180910390a15050565b60fd5460ff16156113d05760405162461bcd60e51b81526004016113c790615490565b60405180910390fd5b6002806113db611169565b60058111156113ec576113ec614f32565b1461140a576040516338df794b60e01b815260040160405180910390fd5b816001600160601b031660000361143457604051636e5fd58f60e01b815260040160405180910390fd5b33600090815261019c60205260409020546001600160601b038316111561146e576040516390e50aa560e01b815260040160405180910390fd5b61019554826001600160601b031661019e5461148a91906154d0565b11156114a957604051631eddc6a360e11b815260040160405180910390fd5b33600090815261019c6020526040812080546001600160601b03851692906114d29084906154e8565b92505081905550816001600160601b031661019e60008282546114f591906154d0565b9091555061150590503383613388565b60006115116101aa5490565b905060006115286001600160601b038516836154ff565b604080516001600160601b03871681526020810185905291925033917faaa4209473b0e01252afb37fc6a883231b6189d78f5fb75fec9d8345d716d6ba91015b60405180910390a261157981613487565b50505050565b6000805160206158b3833981519152611596612158565b6001600160a01b0316336001600160a01b0316141580156115be57506115bc8133612186565b155b156115e057803360405163f9019a8d60e01b81526004016113c792919061551e565b600261012f54036116335760405162461bcd60e51b815260206004820152601f60248201527f5265656e7472616e637947756172643a207265656e7472616e742063616c6c0060448201526064016113c7565b600261012f5560fd5460ff161561165c5760405162461bcd60e51b81526004016113c790615490565b426101a654118061166e57506101a654155b1561168c57604051633bd1a57d60e11b815260040160405180910390fd5b61019754479060009081901561173c5761271061019754846116ae91906154ff565b6116b8919061554b565b91506116c482846154e8565b610198546040519194506001600160a01b0316908390600081818185875af1925050503d8060008114611713576040519150601f19603f3d011682016040523d82523d6000602084013e611718565b606091505b5050809150508061173c57604051633aa9e60d60e21b815260040160405180910390fd5b6040516001600160a01b038616908490600081818185875af1925050503d8060008114611785576040519150601f19603f3d011682016040523d82523d6000602084013e61178a565b606091505b505080915050806117ae57604051633aa9e60d60e21b815260040160405180910390fd5b60408051848152602081018490526001600160a01b038716917f12eb5d7ccd4ce398edc94007dfbaa22fa2ac8775a3633530f36053ad765262f4910160405180910390a25050600161012f55505050565b826001600160a01b0381163314611819576118193361325a565b611579848484613522565b6000828152610162602090815260408083208151808301909252546001600160a01b038116808352600160a01b9091046001600160601b031692820192909252829161189b575060408051808201909152610161546001600160a01b0381168252600160a01b90046001600160601b031660208201525b6020810151600090612710906118ba906001600160601b0316876154ff565b6118c4919061554b565b91519350909150505b9250929050565b81806118f35760405163e466584960e01b815260040160405180910390fd5b60008381526099602052604090206001015461190d612158565b6001600160a01b0316336001600160a01b03161415801561193557506119338133612186565b155b1561195757803360405163f9019a8d60e01b81526004016113c792919061551e565b611579848461352d565b81806119805760405163e466584960e01b815260040160405180910390fd5b611314838361354f565b6000805160206158b38339815191526119a1612158565b6001600160a01b0316336001600160a01b0316141580156119c957506119c78133612186565b155b156119eb57803360405163f9019a8d60e01b81526004016113c792919061551e565b60fd5460ff1615611a0e5760405162461bcd60e51b81526004016113c790615490565b6101935482611a1b6135c9565b611a2591906154d0565b1115611a4457604051631eddc6a360e11b815260040160405180910390fd5b610194548261019d54611a5791906154d0565b1115611a765760405163011310dd60e31b815260040160405180910390fd5b8161019d54611a8591906154d0565b61019d81905550611a9a3383610196546135f9565b60405182815233907f7d8400f0e58ae2e14f85b63f3afb0ca5b29328d8f48046b205fc7f174cf9b5ed90602001610fb7565b6000805160206158d3833981519152611ae3612158565b6001600160a01b0316336001600160a01b031614158015611b0b5750611b098133612186565b155b15611b2d57803360405163f9019a8d60e01b81526004016113c792919061551e565b60fd5460ff16611b5057604051637514f14160e11b815260040160405180910390fd5b611b5861366f565b50565b826001600160a01b0381163314611b7557611b753361325a565b6115798484846136fc565b6097546001600160a01b03163314611bab57604051630202a8bf60e61b815260040160405180910390fd5b611bb861019a8383614d78565b507ff9c7803e94e0d3c02900d8a90893a6d5e90dd04d32a4cfe825520f82bf9f32f661019a604051611398919061555f565b323314611c0a57604051633059e46160e21b815260040160405180910390fd5b60fd5460ff1615611c2d5760405162461bcd60e51b81526004016113c790615490565b610199546001600160a01b0316611c575760405163114d098b60e31b815260040160405180910390fd5b610199546001600160a01b031663fbbc872b30611c776066546065540390565b6040518363ffffffff1660e01b8152600401611c949291906150be565b6020604051808303816000875af1158015611cb3573d6000803e3d6000fd5b505050506040513d601f19601f82011682018060405250810190611cd791906155e4565b611cf45760405163fc58cf3f60e01b815260040160405180910390fd5b565b6000611d0182613717565b5192915050565b6001600160a01b03811660009081526101a96020526040812054808203611d325750600092915050565b6101a8611d406001836154e8565b81548110611d5057611d50615601565b600091825260209091200154600160a01b90046001600160601b03169392505050565b6097546001600160a01b03163314611d9e57604051630202a8bf60e61b815260040160405180910390fd5b6098546001600160a01b0316611dc75760405163128be5bf60e31b815260040160405180910390fd5b611cf46000613831565b61019a8054611ddf90615456565b80601f0160208091040260200160405190810160405280929190818152602001828054611e0b90615456565b8015611e585780601f10611e2d57610100808354040283529160200191611e58565b820191906000526020600020905b815481529060010190602001808311611e3b57829003601f168201915b505050505081565b6097546001600160a01b03163314611e8b57604051630202a8bf60e61b815260040160405180910390fd5b6101a45480600003611eb0576040516356a4234d60e11b815260040160405180910390fd5b428111611ed0576040516338df794b60e01b815260040160405180910390fd5b8142811015611ef25760405163800877ff60e01b815260040160405180910390fd5b6101a354831080611f055750826101a554105b15611f235760405163800877ff60e01b815260040160405180910390fd5b6101a48390556040518381527f4fe26bfd1cf59c4428b13357bea5ab8239f9889b3f94cd575f98b4c6811dcdc59060200161115c565b61019b8054611ddf90615456565b60006001600160a01b038216611f90576040516323d3ad8160e21b815260040160405180910390fd5b506001600160a01b03166000908152606a60205260409020546001600160401b031690565b6097546001600160a01b03163314611fe057604051630202a8bf60e61b815260040160405180910390fd5b611cf4600061387b565b6000805160206158f3833981519152612001612158565b6001600160a01b0316336001600160a01b03161415801561202957506120278133612186565b155b1561204b57803360405163f9019a8d60e01b81526004016113c792919061551e565b60fd5460ff161561206f576040516329c0c03160e11b815260040160405180910390fd5b611b586138b0565b60fd5460ff161561209a5760405162461bcd60e51b81526004016113c790615490565b6101a3544210156120be576040516338df794b60e01b815260040160405180910390fd5b60006120c933611d08565b9050806000036120ec576040516377348d3360e01b815260040160405180910390fd5b6120f63382613908565b8061019f600082825461210991906154d0565b90915550506101aa546121203383610196546135f9565b3360008051602061593383398151915283838161213c60655490565b61214691906154e8565b6002604051610fb79493929190615617565b6097546001600160a01b031690565b600082815260cb6020526040812061217f9083613b13565b9392505050565b60009182526099602090815260408084206001600160a01b0393909316845291905290205460ff1690565b6097546001600160a01b031633146121dc57604051630202a8bf60e61b815260040160405180910390fd5b610199546001600160a01b031615612207576040516310f038e160e01b815260040160405180910390fd5b60006101a55411801561221d57506101a5544210155b1561223b576040516338df794b60e01b815260040160405180910390fd5b61019980546001600160a01b0319166001600160a01b0392909216919091179055565b6040805160608101825260008082526020820181905291810191909152610f1082613717565b60606068805461123990615456565b6097546001600160a01b031633146122be57604051630202a8bf60e61b815260040160405180910390fd5b6101a254806000036122e3576040516356a4234d60e11b815260040160405180910390fd5b428111612303576040516338df794b60e01b815260040160405180910390fd5b81428110156123255760405163800877ff60e01b815260040160405180910390fd5b826101a35410156123495760405163800877ff60e01b815260040160405180910390fd5b6101a28390556040518381527f9776e1b1502b2f97161fccc0d9f830da6ad81a796cf67c136801fd59dd0444cd9060200161115c565b6097546001600160a01b031633146123aa57604051630202a8bf60e61b815260040160405180910390fd5b6101a554806000036123cf576040516356a4234d60e11b815260040160405180910390fd5b4281116123ef576040516338df794b60e01b815260040160405180910390fd5b81428110156124115760405163800877ff60e01b815260040160405180910390fd5b6101a4548310156124355760405163800877ff60e01b815260040160405180910390fd5b6101a58390556040518381527fdb76c49adfe8600a5db82e1d85e7c1f7565676dac577c6a39744e9c95ad68e3c9060200161115c565b816124758161325a565b6113148383613b1f565b60fd5460ff16156124a25760405162461bcd60e51b81526004016113c790615490565b6101a3544210156124c6576040516338df794b60e01b815260040160405180910390fd5b806001600160601b03166000036124f057604051636e5fd58f60e01b815260040160405180910390fd5b61019f5461019e5403612516576040516377348d3360e01b815260040160405180910390fd5b6101965460006125266101aa5490565b6101a85490915083906000905b60008111801561254c57506000836001600160601b0316115b1561265c5760006101a86125616001846154e8565b8154811061257157612571615601565b6000918252602091829020604080518082019091529101546001600160a01b03811682526001600160601b03600160a01b9091048116928201839052909250851610156125c0578392506125d3565b602081015192506125d082615642565b91505b80516125df9084613908565b6125e98385615659565b93506126038160000151846001600160601b0316886135f9565b80516001600160a01b031660008051602061593383398151915284876001600160601b03821661263260655490565b61263c91906154e8565b600260405161264e9493929190615681565b60405180910390a250612533565b506126678286615659565b6001600160601b031661019f600082825461268291906154d0565b90915550505050505050565b600061269982611d08565b6126a283613bb4565b610f1091906154d0565b6097546001600160a01b031633146126d757604051630202a8bf60e61b815260040160405180910390fd5b828181146126f857604051638d62a9d560e01b815260040160405180910390fd5b60005b818110156127745783838281811061271557612715615601565b9050602002013561019c600088888581811061273357612733615601565b9050602002016020810190612748919061503e565b6001600160a01b031681526020810191909152604001600020558061276c816156ac565b9150506126fb565b506040517f0df27beb8d16f5e61d125286ba69a986a702ac83921bb1864629ca5e662e84d490600090a15050505050565b3233146127c557604051633059e46160e21b815260040160405180910390fd5b60fd5460ff16156127e85760405162461bcd60e51b81526004016113c790615490565b6004806127f3611169565b600581111561280457612804614f32565b14612822576040516338df794b60e01b815260040160405180910390fd5b61019654826128303361268e565b61283a91906154d0565b1115612859576040516335e62b7b60e21b815260040160405180910390fd5b600061019d546101945461286d91906154e8565b905061019354838261287d6135c9565b61288791906154d0565b61289191906154d0565b11156128b057604051631eddc6a360e11b815260040160405180910390fd5b60006128bc6101ab5490565b905060006128ca85836154ff565b90506128e83386604051806020016040528060008152506000613bdf565b846101a160008282546128fb91906154d0565b9091555033905060008051602061593383398151915286848161291d60655490565b61292791906154e8565b60046040516129399493929190615617565b60405180910390a261294a81613487565b5050505050565b600054610100900460ff1661296c5760005460ff1615612974565b612974613d82565b6129d75760405162461bcd60e51b815260206004820152602e60248201527f496e697469616c697a61626c653a20636f6e747261637420697320616c72656160448201526d191e481a5b9a5d1a585b1a5e995960921b60648201526084016113c7565b600054610100900460ff161580156129f9576000805461ffff19166101011790555b612a038383613d93565b8015611314576000805461ff0019169055505050565b836001600160a01b0381163314612a3357612a333361325a565b61294a858585856140a5565b6097546001600160a01b03163314612a6a57604051630202a8bf60e61b815260040160405180910390fd5b611b58816140f5565b60fd5460ff1615612a965760405162461bcd60e51b81526004016113c790615490565b600380612aa1611169565b6005811115612ab257612ab2614f32565b14612ad0576040516338df794b60e01b815260040160405180910390fd5b33600090815261019c6020526040902054821115612b01576040516390e50aa560e01b815260040160405180910390fd5b61019554826101a05461019e54612b1891906154d0565b612b2291906154d0565b1115612b4157604051631eddc6a360e11b815260040160405180910390fd5b33600090815261019c602052604081208054849290612b619084906154e8565b90915550506101aa546000612b7684836154ff565b9050612b863385610196546135f9565b836101a06000828254612b9991906154d0565b90915550339050600080516020615933833981519152858481612bbb60655490565b612bc591906154e8565b60036040516115689493929190615617565b6097546001600160a01b03163314612c0257604051630202a8bf60e61b815260040160405180910390fd5b6001600160a01b038116612c29576040516386850cc360e01b815260040160405180910390fd5b6098546001600160a01b031615612c535760405163033c108960e01b815260040160405180910390fd5b611b5881613831565b610199546060906001600160a01b0316612ca35761019a612c7c83614140565b604051602001612c8d9291906156c5565b6040516020818303038152906040529050919050565b61019954604051635e1578db60e11b81526001600160a01b039091169063bc2af1b690612cd4903090600401614fe3565b602060405180830381865afa158015612cf1573d6000803e3d6000fd5b505050506040513d601f19601f82011682018060405250810190612d159190615748565b8210612dae5761019b8054612d2990615456565b80601f0160208091040260200160405190810160405280929190818152602001828054612d5590615456565b8015612da25780601f10612d7757610100808354040283529160200191612da2565b820191906000526020600020905b815481529060010190602001808311612d8557829003601f168201915b50505050509050919050565b61019954604051631f4b3c0160e11b815261019a91612c7c916001600160a01b0390911690633e96780290612de990309088906004016150be565b602060405180830381865afa158015612e06573d6000803e3d6000fd5b505050506040513d601f19601f82011682018060405250810190612e2a9190615748565b614140565b919050565b600081815260cb60205260408120610f1090614248565b8180612e6a5760405163e466584960e01b815260040160405180910390fd5b600083815260996020526040902060010154612e84612158565b6001600160a01b0316336001600160a01b031614158015612eac5750612eaa8133612186565b155b15612ece57803360405163f9019a8d60e01b81526004016113c792919061551e565b6115798484614252565b6000610f1082613bb4565b6097546001600160a01b03163314612f0e57604051630202a8bf60e61b815260040160405180910390fd5b600080612f19611169565b6005811115612f2a57612f2a614f32565b14612f48576040516338df794b60e01b815260040160405180910390fd5b42871080612f5557508686105b80612f5f57508585105b80612f6957508484105b15612f875760405163800877ff60e01b815260040160405180910390fd5b81831115612fa857604051631da61f9760e11b815260040160405180910390fd5b6101ab8290556101aa8390556101a28790556101a38690556101a48590556101a58490556040805188815260208101889052908101869052606081018590526080810184905260a081018390527f880fa85ac6969827fc8f6a2a8b236fc9789ece8c82b41b17d0865b747de1b9139060c00160405180910390a150505050505050565b6098546001600160a01b031633141580613043575033155b156130615760405163134aa98760e31b815260040160405180910390fd5b611cf43361387b565b6097546001600160a01b0316331461309557604051630202a8bf60e61b815260040160405180910390fd5b6130a261019b8383614d78565b507f4012c6d278d4b460acbc560e9fa4425e187c3b40c848b8dfa248139729efee4361019b604051611398919061555f565b60006001600160e01b0319821662d767f560e71b14806130f857506130f882614274565b806131075750613107826142b4565b806131165750613116826142d9565b806131255750613125826142ef565b80610f105750610f10826142b4565b6127106001600160601b03821611156131a25760405162461bcd60e51b815260206004820152602a60248201527f455243323938313a20726f79616c7479206665652077696c6c206578636565646044820152692073616c65507269636560b01b60648201526084016113c7565b6001600160a01b0382166131f45760405162461bcd60e51b815260206004820152601960248201527822a921991c9c189d1034b73b30b634b2103932b1b2b4bb32b960391b60448201526064016113c7565b604080518082019091526001600160a01b039092168083526001600160601b039091166020909201829052600160a01b9091021761016155565b600060655482108015610f10575050600090815260696020526040902054600160e01b900460ff161590565b6101a7546001600160a01b0316803b156132fc57604051633185c44d60e21b81526001600160a01b0382169063c61711349061329c9030908690600401615761565b602060405180830381865afa1580156132b9573d6000803e3d6000fd5b505050506040513d601f19601f820116820180604052508101906132dd91906155e4565b6132fc5781604051633b79c77360e21b81526004016113c79190614fe3565b5050565b600061330b82611cf6565b9050806001600160a01b0316836001600160a01b03160361333f5760405163250fdee360e21b815260040160405180910390fd5b336001600160a01b0382161480159061335f575061335d8133610e18565b155b1561337d576040516367d9dca160e11b815260040160405180910390fd5b611314838383614314565b6001600160a01b03821660009081526101a960205260409020546101a890801561341d5782826133b96001846154e8565b815481106133c9576133c9615601565b600091825260209091200180546014906133f4908490600160a01b90046001600160601b031661577b565b92506101000a8154816001600160601b0302191690836001600160601b03160217905550611579565b506040805180820182526001600160a01b039485168082526001600160601b039485166020808401918252855460018082018855600088815283812096519451909916600160a01b0293909916929092179390910192909255835490855294909201909152902055565b803410156134aa57604051639968ec3d60e01b81523460048201526024016113c7565b80341115611b58576000336134bf83346154e8565b604051600081818185875af1925050503d80600081146134fb576040519150601f19603f3d011682016040523d82523d6000602084013e613500565b606091505b50509050806132fc57604051633aa9e60d60e21b815260040160405180910390fd5b611314838383614370565b6135378282614549565b600082815260cb6020526040902061131490826145cf565b6001600160a01b03811633146135bf5760405162461bcd60e51b815260206004820152602f60248201527f416363657373436f6e74726f6c3a2063616e206f6e6c792072656e6f756e636560448201526e103937b632b9903337b91039b2b63360891b60648201526084016113c7565b6132fc8282614252565b600061019f5461019e546135e06066546065540390565b6135ea91906154d0565b6135f491906154e8565b905090565b6000613605828461554b565b905060005b8181101561363e5761362e8584604051806020016040528060008152506000613bdf565b613637816156ac565b905061360a565b50600061364b838561579d565b9050801561294a5761294a8582604051806020016040528060008152506000613bdf565b60fd5460ff166136b85760405162461bcd60e51b815260206004820152601460248201527314185d5cd8589b194e881b9bdd081c185d5cd95960621b60448201526064016113c7565b60fd805460ff191690557f5db9ee0a495bf2e6ff9c91a7834c1ba4fdd244a5e8aa4e537bd38aeae4b073aa335b6040516136f29190614fe3565b60405180910390a1565b61131483838360405180602001604052806000815250612a19565b60408051606081018252600080825260208201819052918101919091528160655481101561381857600081815260696020908152604091829020825160608101845290546001600160a01b0381168252600160a01b81046001600160401b031692820192909252600160e01b90910460ff161515918101829052906138165780516001600160a01b0316156137ad579392505050565b5060001901600081815260696020908152604091829020825160608101845290546001600160a01b038116808352600160a01b82046001600160401b031693830193909352600160e01b900460ff1615159281019290925215613811579392505050565b6137ad565b505b604051636f96cda160e11b815260040160405180910390fd5b609880546001600160a01b0319166001600160a01b0383169081179091556040517f68f49b346b94582a8b5f9d10e3fe3365318fe8f191ff8dce7c59c6cad06b02f590600090a250565b61388d6000613888612158565b614252565b6001600160a01b038116156138a7576138a760008261352d565b611b58816145e4565b60fd5460ff16156138d35760405162461bcd60e51b81526004016113c790615490565b60fd805460ff191660011790557f62e78cea01bee320cd4e420270b5ea74000d11b0c9f74754ebdbfc544b05a2586136e53390565b6001600160a01b03821660009081526101a960205260409020546101a89080156115795760008261393a6001846154e8565b8154811061394a5761394a615601565b60009182526020822001546001600160601b03600160a01b9091048116925085168211613978576000613982565b6139828583615659565b9050806001600160601b0316600003613abc5760006139a26001856154e8565b85549091506000906139b6906001906154e8565b9050808214613a715760008660000182815481106139d6576139d6615601565b6000918252602091829020604080518082019091529101546001600160a01b0381168252600160a01b90046001600160601b03169181019190915287549091508190889085908110613a2a57613a2a615601565b600091825260208083208451948201516001600160601b0316600160a01b026001600160a01b03958616179201919091559251909116815260018801909152604090208590555b8554869080613a8257613a826157b1565b6000828152602080822083016000199081018390559092019092556001600160a01b038a168252600188019052604081205550613b0b9050565b8084613ac96001866154e8565b81548110613ad957613ad9615601565b9060005260206000200160000160146101000a8154816001600160601b0302191690836001600160601b031602179055505b505050505050565b600061217f8383614641565b336001600160a01b03831603613b485760405163b06307db60e01b815260040160405180910390fd5b336000818152606c602090815260408083206001600160a01b03871680855290835292819020805460ff191686151590811790915590519081529192917f17307eab39ab6107e8899845ad3d59bd9653f200f220920489ca2b5937696c31910160405180910390a35050565b6001600160a01b03166000908152606a6020526040902054600160401b90046001600160401b031690565b6065546001600160a01b038516613c0857604051622e076360e81b815260040160405180910390fd5b83600003613c295760405163b562e8dd60e01b815260040160405180910390fd5b6001600160a01b0385166000818152606a6020908152604080832080546001600160801b031981166001600160401b038083168c018116918217600160401b67ffffffffffffffff1990941690921783900481168c01811690920217909155858452606990925290912080546001600160e01b031916909217600160a01b429092169190910217905580808501838015613cd05750613cd0876001600160a01b031661466b565b15613d46575b60405182906001600160a01b03891690600090600080516020615913833981519152908290a4613d0f600088848060010195508861467a565b613d2c576040516368d2bf6b60e11b815260040160405180910390fd5b808203613cd6578260655414613d4157600080fd5b613d79565b5b6040516001830192906001600160a01b03891690600090600080516020615913833981519152908290a4808203613d47575b5060655561294a565b6000613d8d3061466b565b15905090565b600054610100900460ff16613dba5760405162461bcd60e51b81526004016113c7906157c7565b613dc2614765565b613dca6147a4565b613dd26147d3565b613e5b613ddf8380615812565b8080601f016020809104026020016040519081016040528093929190818152602001838380828437600092019190915250613e21925050506020850185615812565b8080601f0160208091040260200160405190810160405280939291908181526020018383808284376000920191909152506147fa92505050565b6000613e6a602083018361503e565b6001600160a01b031603613e91576040516313d8249360e31b815260040160405180910390fd5b6000613ea3604083016020840161503e565b6001600160a01b031603613eca576040516331ae7ba360e21b815260040160405180910390fd5b60808201351580613eef57506080820135613eed60e084013560a08501356154d0565b115b15613f0d57604051631a231d4360e21b815260040160405180910390fd5b816080013582606001351115613f365760405163318e1f1760e01b815260040160405180910390fd5b6daaeb6d7670e522a718067333cd4e803b15613fc157604051633e9f1edf60e11b81526001600160a01b03821690637d3e3dbe90613f8e903090733cc6cdda760b79bafa08df41ecfa224f810dceb690600401615761565b600060405180830381600087803b158015613fa857600080fd5b505af1158015613fbc573d6000803e3d6000fd5b505050505b613fca816140f5565b613fe5613fdd606084016040850161503e565b6101f4613134565b61400160808301803590613ffc906060860161503e565b61482b565b614011606084016040850161503e565b61019980546001600160a01b0319166001600160a01b039290921691909117905560808301356101935560608301356101965560a08301356101945560e08301356101955561406e6000805160206158f3833981519152336118d4565b6140906000805160206158b3833981519152610716604085016020860161503e565b6113146140a0602084018461503e565b61387b565b6140b0848484614370565b6140c2836001600160a01b031661466b565b80156140d757506140d58484848461467a565b155b15611579576040516368d2bf6b60e11b815260040160405180910390fd5b6101a780546001600160a01b0319166001600160a01b0383169081179091556040517f1ca1e68a4815cd27afc5aea9e7250e85f275603fbb7912647d3ee68e635b649590600090a250565b6060816000036141675750506040805180820190915260018152600360fc1b602082015290565b8160005b8115614191578061417b816156ac565b915061418a9050600a8361554b565b915061416b565b6000816001600160401b038111156141ab576141ab6152c2565b6040519080825280601f01601f1916602001820160405280156141d5576020820181803683370190505b5090505b8415614240576141ea6001836154e8565b91506141f7600a8661579d565b6142029060306154d0565b60f81b81838151811061421757614217615601565b60200101906001600160f81b031916908160001a905350614239600a8661554b565b94506141d9565b949350505050565b6000610f10825490565b61425c82826148c9565b600082815260cb602052604090206113149082614930565b60006001600160e01b031982166380ac58cd60e01b14806142a557506001600160e01b03198216635b5e139f60e01b145b80610f105750610f10826142d9565b60006001600160e01b0319821663152a902d60e11b1480610f105750610f10826142ef565b6001600160e01b0319166301ffc9a760e01b1490565b60006001600160e01b0319821663f3353d7760e01b1480610f105750610f1082614945565b6000828152606b602052604080822080546001600160a01b0319166001600160a01b0387811691821790925591518593918516917f8c5be1e5ebec7d5bd14f71427d1e84f3dd0314c0f7b2291e5b200ac8c7c3b92591a4505050565b600061437b82613717565b9050836001600160a01b031681600001516001600160a01b0316146143b25760405162a1148160e81b815260040160405180910390fd5b6000336001600160a01b03861614806143d057506143d08533610e18565b806143eb5750336143e0846112bc565b6001600160a01b0316145b90508061440b57604051632ce44b5f60e11b815260040160405180910390fd5b6001600160a01b03841661443257604051633a954ecd60e21b815260040160405180910390fd5b61443e60008487614314565b6001600160a01b038581166000908152606a60209081526040808320805467ffffffffffffffff198082166001600160401b0392831660001901831617909255898616808652838620805493841693831660019081018416949094179055898652606990945282852080546001600160e01b031916909417600160a01b4290921691909102178355870180845292208054919390911661451257606554821461451257805460208601516001600160401b0316600160a01b026001600160e01b03199091166001600160a01b038a16171781555b50505082846001600160a01b0316866001600160a01b031660008051602061591383398151915260405160405180910390a461294a565b6145538282612186565b6132fc5760008281526099602090815260408083206001600160a01b03851684529091529020805460ff1916600117905561458b3390565b6001600160a01b0316816001600160a01b0316837f2f8788117e7eff1d82e926ec794901d17c78024a50270940304540a733656f0d60405160405180910390a45050565b600061217f836001600160a01b03841661495f565b609780546001600160a01b038381166001600160a01b03198084168217909455609880549094169093556040519116919082907f8be0079c531659141344cd1fd0a4f28419497f9722a3daafe3b4186f6b6457e090600090a35050565b600082600001828154811061465857614658615601565b9060005260206000200154905092915050565b6001600160a01b03163b151590565b604051630a85bd0160e11b81526000906001600160a01b0385169063150b7a02906146af903390899088908890600401615858565b6020604051808303816000875af19250505080156146ea575060408051601f3d908101601f191682019092526146e791810190615895565b60015b614748573d808015614718576040519150601f19603f3d011682016040523d82523d6000602084013e61471d565b606091505b508051600003614740576040516368d2bf6b60e11b815260040160405180910390fd5b805181602001fd5b6001600160e01b031916630a85bd0160e11b149050949350505050565b600054610100900460ff1661478c5760405162461bcd60e51b81526004016113c7906157c7565b6147946149ae565b61479c6149ed565b611cf4614a1c565b600054610100900460ff166147cb5760405162461bcd60e51b81526004016113c7906157c7565b611cf4614ab3565b600054610100900460ff16611cf45760405162461bcd60e51b81526004016113c7906157c7565b600054610100900460ff166148215760405162461bcd60e51b81526004016113c7906157c7565b6132fc8282614ae2565b61271082111561484e576040516346b7d95d60e11b815260040160405180910390fd5b6001600160a01b03811661487557604051631a1b629760e21b815260040160405180910390fd5b61019782905561019880546001600160a01b0319166001600160a01b0383161790556040517fd7d086964f00d2604a80288c460231fe9cfc8e9605e838d49017401111f63adb90611398908490849061551e565b6148d38282612186565b156132fc5760008281526099602090815260408083206001600160a01b0385168085529252808320805460ff1916905551339285917ff6391f5c32d9c69d2a47ea670b442974b53935d1edc7fd64eb21e047a839171b9190a45050565b600061217f836001600160a01b038416614b3a565b600061495082614c2d565b80610f105750610f1082614c52565b60008181526001830160205260408120546149a657508154600181810184556000848152602080822090930184905584548482528286019093526040902091909155610f10565b506000610f10565b600054610100900460ff166149d55760405162461bcd60e51b81526004016113c7906157c7565b6149dd614c77565b6149e56147d3565b611cf46147d3565b600054610100900460ff16614a145760405162461bcd60e51b81526004016113c7906157c7565b611cf4614cae565b600054610100900460ff16614a435760405162461bcd60e51b81526004016113c7906157c7565b614a7b6000805160206158f38339815191527fe0e65c783ac33ff1c5ccf4399c9185066773921d6f8d050bf80781603021f097614ce1565b611cf46000805160206158d38339815191527fe516f7ac9747f401e208331379a0bafe3c9c4dbb6501fd23bcef278f7ebaf4e5614ce1565b600054610100900460ff16614ada5760405162461bcd60e51b81526004016113c7906157c7565b600161012f55565b600054610100900460ff16614b095760405162461bcd60e51b81526004016113c7906157c7565b8151614b1c906067906020850190614dfc565b508051614b30906068906020840190614dfc565b5060006065555050565b60008181526001830160205260408120548015614c23576000614b5e6001836154e8565b8554909150600090614b72906001906154e8565b9050818114614bd7576000866000018281548110614b9257614b92615601565b9060005260206000200154905080876000018481548110614bb557614bb5615601565b6000918252602080832090910192909255918252600188019052604090208390555b8554869080614be857614be86157b1565b600190038181906000526020600020016000905590558560010160008681526020019081526020016000206000905560019350505050610f10565b6000915050610f10565b60006001600160e01b031982166322d7505760e11b1480610f105750610f1082614274565b60006001600160e01b03198216635a05180f60e01b1480610f105750610f1082614d2c565b600054610100900460ff16614c9e5760405162461bcd60e51b81526004016113c7906157c7565b614ca66147d3565b611cf4614d51565b600054610100900460ff16614cd55760405162461bcd60e51b81526004016113c7906157c7565b60fd805460ff19169055565b600082815260996020526040808220600101805490849055905190918391839186917fbd79b86ffe0ab8e8776151514217cd7cacd52c909f66475c3af44e129f0b00ff9190a4505050565b60006001600160e01b03198216637965db0b60e01b1480610f105750610f1082614c2d565b600054610100900460ff166130615760405162461bcd60e51b81526004016113c7906157c7565b828054614d8490615456565b90600052602060002090601f016020900481019282614da65760008555614dec565b82601f10614dbf5782800160ff19823516178555614dec565b82800160010185558215614dec579182015b82811115614dec578235825591602001919060010190614dd1565b50614df8929150614e70565b5090565b828054614e0890615456565b90600052602060002090601f016020900481019282614e2a5760008555614dec565b82601f10614e4357805160ff1916838001178555614dec565b82800160010185558215614dec579182015b82811115614dec578251825591602001919060010190614e55565b5b80821115614df85760008155600101614e71565b6001600160e01b031981168114611b5857600080fd5b600060208284031215614ead57600080fd5b813561217f81614e85565b6001600160a01b0381168114611b5857600080fd5b80356001600160601b0381168114612e2f57600080fd5b60008060408385031215614ef757600080fd5b8235614f0281614eb8565b9150614f1060208401614ecd565b90509250929050565b600060208284031215614f2b57600080fd5b5035919050565b634e487b7160e01b600052602160045260246000fd5b60068110614f6657634e487b7160e01b600052602160045260246000fd5b9052565b60208101610f108284614f48565b60005b83811015614f93578181015183820152602001614f7b565b838111156115795750506000910152565b60008151808452614fbc816020860160208601614f78565b601f01601f19169290920160200192915050565b60208152600061217f6020830184614fa4565b6001600160a01b0391909116815260200190565b6000806040838503121561500a57600080fd5b823561501581614eb8565b946020939093013593505050565b60006020828403121561503557600080fd5b61217f82614ecd565b60006020828403121561505057600080fd5b813561217f81614eb8565b60008060006060848603121561507057600080fd5b833561507b81614eb8565b9250602084013561508b81614eb8565b929592945050506040919091013590565b600080604083850312156150af57600080fd5b50508035926020909101359150565b6001600160a01b03929092168252602082015260400190565b600080604083850312156150ea57600080fd5b8235915060208301356150fc81614eb8565b809150509250929050565b6000806020838503121561511a57600080fd5b82356001600160401b038082111561513157600080fd5b818501915085601f83011261514557600080fd5b81358181111561515457600080fd5b86602082850101111561516657600080fd5b60209290920196919550909350505050565b8015158114611b5857600080fd5b6000806040838503121561519957600080fd5b82356151a481614eb8565b915060208301356150fc81615178565b60008083601f8401126151c657600080fd5b5081356001600160401b038111156151dd57600080fd5b6020830191508360208260051b85010111156118cd57600080fd5b6000806000806040858703121561520e57600080fd5b84356001600160401b038082111561522557600080fd5b615231888389016151b4565b9096509450602087013591508082111561524a57600080fd5b50615257878288016151b4565b95989497509550505050565b60008082840360c081121561527757600080fd5b83356001600160401b0381111561528d57600080fd5b840161010081870312156152a057600080fd5b925060a0601f19820112156152b457600080fd5b506020830190509250929050565b634e487b7160e01b600052604160045260246000fd5b600080600080608085870312156152ee57600080fd5b84356152f981614eb8565b9350602085013561530981614eb8565b92506040850135915060608501356001600160401b038082111561532c57600080fd5b818701915087601f83011261534057600080fd5b813581811115615352576153526152c2565b604051601f8201601f19908116603f0116810190838211818310171561537a5761537a6152c2565b816040528281528a602084870101111561539357600080fd5b82602086016020830137600060208483010152809550505050505092959194509250565b600080604083850312156153ca57600080fd5b82356153d581614eb8565b915060208301356150fc81614eb8565b60008060008060008060c087890312156153fe57600080fd5b505084359660208601359650604086013595606081013595506080810135945060a0013592509050565b6000806040838503121561543b57600080fd5b825161544681615178565b6020939093015192949293505050565b600181811c9082168061546a57607f821691505b60208210810361548a57634e487b7160e01b600052602260045260246000fd5b50919050565b60208082526010908201526f14185d5cd8589b194e881c185d5cd95960821b604082015260600190565b634e487b7160e01b600052601160045260246000fd5b600082198211156154e3576154e36154ba565b500190565b6000828210156154fa576154fa6154ba565b500390565b6000816000190483118215151615615519576155196154ba565b500290565b9182526001600160a01b0316602082015260400190565b634e487b7160e01b600052601260045260246000fd5b60008261555a5761555a615535565b500490565b600060208083526000845461557381615456565b8084870152604060018084166000811461559457600181146155a8576155d6565b60ff198516898401526060890195506155d6565b896000528660002060005b858110156155ce5781548b82018601529083019088016155b3565b8a0184019650505b509398975050505050505050565b6000602082840312156155f657600080fd5b815161217f81615178565b634e487b7160e01b600052603260045260246000fd5b8481526020810184905260408101839052608081016156396060830184614f48565b95945050505050565b600081615651576156516154ba565b506000190190565b60006001600160601b0383811690831681811015615679576156796154ba565b039392505050565b6001600160601b03851681526020810184905260408101839052608081016156396060830184614f48565b6000600182016156be576156be6154ba565b5060010190565b60008084546156d381615456565b600182811680156156eb57600181146156fc5761572b565b60ff1984168752828701945061572b565b8860005260208060002060005b858110156157225781548a820152908401908201615709565b50505082870194505b50505050835161573f818360208801614f78565b01949350505050565b60006020828403121561575a57600080fd5b5051919050565b6001600160a01b0392831681529116602082015260400190565b60006001600160601b0382811684821680830382111561573f5761573f6154ba565b6000826157ac576157ac615535565b500690565b634e487b7160e01b600052603160045260246000fd5b6020808252602b908201527f496e697469616c697a61626c653a20636f6e7472616374206973206e6f74206960408201526a6e697469616c697a696e6760a81b606082015260800190565b6000808335601e1984360301811261582957600080fd5b8301803591506001600160401b0382111561584357600080fd5b6020019150368190038213156118cd57600080fd5b6001600160a01b038581168252841660208201526040810183905260806060820181905260009061588b90830184614fa4565b9695505050505050565b6000602082840312156158a757600080fd5b815161217f81614e8556fe770fadb28e0e3026382976ee8b810cb0eb8666922148dd9e10b20cfb9b477ba8427da25fe773164f88948d3e215c94b6554e2ed5e5f203a821c9f2f6131cf75a65d7a28e3265b37a6474929f336521b332c1681b933f6cb9f3376673440d862addf252ad1be2c89b69c2b068fc378daa952ba7f163c4a11628f55a4df523b3efbb20f716bd7ca9427b818f6de485952ab3a5acec2559fb794e3f9a4d9f70e722a2646970667358221220b5db2b3e363b7a127ce3c40edbbda1c3a214ec2372f2713a3959b15763d1ad5f64736f6c634300080d0033",
  "devdoc": {
    "author": "Trader Joe",
    "events": {
      "Initialized(uint256,uint256,uint256,uint256,uint256,uint256)": {
        "details": "Emitted on initializePhases()",
        "params": {
          "allowlistPrice": "Price of the allowlist sale in Avax",
          "allowlistStartTime": "Allowlist mint start time in seconds",
          "preMintStartTime": "Pre-mint start time in seconds",
          "publicSaleEndTime": "Public sale end time in seconds",
          "publicSaleStartTime": "Public sale start time in seconds",
          "salePrice": "Price of the public sale in Avax"
        }
      }
    },
    "kind": "dev",
    "methods": {
      "allowlistMint(uint256)": {
        "params": {
          "_quantity": "Quantity of NFTs to mint"
        }
      },
      "approve(address,uint256)": {
        "details": "`aprove` wrapper to prevent the sender to approve a non-allowed operator",
        "params": {
          "operator": "Address being approved",
          "tokenId": "TokenID approved"
        }
      },
      "balanceOf(address)": {
        "details": "See {IERC721-balanceOf}."
      },
      "batchClaimPreMint(uint96)": {
        "params": {
          "_maxQuantity": "Max quantity of NFTs to mint"
        }
      },
      "currentPhase()": {
        "returns": {
          "_0": "phase Current phase"
        }
      },
      "devMint(uint256)": {
        "details": "Can only mint up to `amountForDevs`",
        "params": {
          "_quantity": "Quantity of NFTs to mint"
        }
      },
      "getApproved(uint256)": {
        "details": "See {IERC721-getApproved}."
      },
      "getOwnershipData(uint256)": {
        "params": {
          "_tokenId": "Token ID"
        },
        "returns": {
          "_0": "TokenOwnership Ownership struct for a specific token ID"
        }
      },
      "getRoleAdmin(bytes32)": {
        "details": "Returns the admin role that controls `role`. See {grantRole} and {revokeRole}. To change a role's admin, use {_setRoleAdmin}."
      },
      "getRoleMember(bytes32,uint256)": {
        "details": "Returns one of the accounts that have `role`. `index` must be a value between 0 and {getRoleMemberCount}, non-inclusive. Role bearers are not sorted in any particular way, and their ordering may change at any point. WARNING: When using {getRoleMember} and {getRoleMemberCount}, make sure you perform all queries on the same block. See the following https://forum.openzeppelin.com/t/iterating-over-elements-on-enumerableset-in-openzeppelin-contracts/2296[forum post] for more information."
      },
      "getRoleMemberCount(bytes32)": {
        "details": "Returns the number of accounts that have `role`. Can be used together with {getRoleMember} to enumerate all bearers of a role."
      },
      "grantRole(bytes32,address)": {
        "details": "If `account` had not been already granted `role`, emits a {RoleGranted} event. Requirements: - the caller must be the `owner` or have ``role``'s admin role. - the role granted can't be `DEFAULT_ADMIN`",
        "params": {
          "account": "The address of the account",
          "role": "The role to grant"
        }
      },
      "hasBatchToReveal()": {
        "returns": {
          "_0": "bool Whether reveal can be triggered or not",
          "_1": "uint256 The number of the next batch that will be revealed"
        }
      },
      "hasRole(bytes32,address)": {
        "details": "Returns `true` if `account` has been granted `role`."
      },
      "initialize((string,string,address,uint256,uint256,uint256,uint256,uint256),(address,address,address,address,uint256))": {
        "params": {
          "_collectionData": "Launchpeg collection data",
          "_ownerData": "Launchpeg owner data"
        }
      },
      "initializeBatchReveal(address)": {
        "details": "Can only be set once. Cannot be initialized once sale has ended.",
        "params": {
          "_batchReveal": "Batch reveal contract address"
        }
      },
      "initializePhases(uint256,uint256,uint256,uint256,uint256,uint256)": {
        "details": "Can only be called once",
        "params": {
          "_allowlistPrice": "Price of the allowlist sale in Avax",
          "_allowlistStartTime": "Allowlist mint start time in seconds",
          "_preMintStartTime": "Pre-mint start time in seconds",
          "_publicSaleEndTime": "Public sale end time in seconds",
          "_publicSaleStartTime": "Public sale start time in seconds",
          "_salePrice": "Price of the public sale in Avax"
        }
      },
      "isApprovedForAll(address,address)": {
        "details": "See {IERC721-isApprovedForAll}."
      },
      "name()": {
        "details": "See {IERC721Metadata-name}."
      },
      "numberMinted(address)": {
        "params": {
          "_owner": "The owner of the NFTs"
        },
        "returns": {
          "_0": "numberMinted Number of NFTs minted"
        }
      },
      "owner()": {
        "returns": {
          "_0": "The address of the current owner"
        }
      },
      "ownerOf(uint256)": {
        "details": "See {IERC721-ownerOf}."
      },
      "pause()": {
        "details": "Sensible part of a contract might be pausable for security reasons. Requirements: - the caller must be the `owner` or have the ``role`` role. - the contrat needs to be unpaused."
      },
      "paused()": {
        "details": "Returns true if the contract is paused, and false otherwise."
      },
      "pendingOwner()": {
        "returns": {
          "_0": "The address of the current pending owner"
        }
      },
      "preMint(uint96)": {
        "params": {
          "_quantity": "Quantity of NFTs to mint"
        }
      },
      "publicSaleMint(uint256)": {
        "params": {
          "_quantity": "Quantity of NFTs to mint"
        }
      },
      "renounceRole(bytes32,address)": {
        "details": "Roles are often managed via {grantRole} and {revokeRole}: this function's purpose is to provide a mechanism for accounts to lose their privileges if they are compromised (such as when a trusted device is misplaced). If the calling account had been revoked `role`, emits a {RoleRevoked} event. Requirements: - the caller must be `account`. - the role renounced can't be `DEFAULT_ADMIN`",
        "params": {
          "account": "The address of the account",
          "role": "The role to renounce"
        }
      },
      "revokeRole(bytes32,address)": {
        "details": "If `account` had been granted `role`, emits a {RoleRevoked} event. Requirements: - the caller must be the `owner` or have ``role``'s admin role. - the role revoked can't be `DEFAULT_ADMIN`",
        "params": {
          "account": "The address of the account",
          "role": "The role to revoke"
        }
      },
      "royaltyInfo(uint256,uint256)": {
        "details": "Returns how much royalty is owed and to whom, based on a sale price that may be denominated in any unit of exchange. The royalty amount is denominated and should be payed in that same unit of exchange."
      },
      "safeTransferFrom(address,address,uint256)": {
        "details": "`safeTransferFrom` wrapper to prevent a non-allowed operator to transfer the NFT",
        "params": {
          "from": "Address to transfer from",
          "to": "Address to transfer to",
          "tokenId": "TokenID to transfer"
        }
      },
      "safeTransferFrom(address,address,uint256,bytes)": {
        "details": "`safeTransferFrom` wrapper to prevent a non-allowed operator to transfer the NFT",
        "params": {
          "data": "Data to send along with a safe transfer check",
          "from": "Address to transfer from",
          "to": "Address to transfer to",
          "tokenId": "TokenID to transfer"
        }
      },
      "seedAllowlist(address[],uint256[])": {
        "params": {
          "_addresses": "List of addresses allowed to mint during the allowlist phase",
          "_numNfts": "List of NFT quantities mintable per address"
        }
      },
      "setAllowlistStartTime(uint256)": {
        "details": "Only callable by owner",
        "params": {
          "_allowlistStartTime": "New allowlist start time"
        }
      },
      "setApprovalForAll(address,bool)": {
        "details": "`setApprovalForAll` wrapper to prevent the sender to approve a non-allowed operator",
        "params": {
          "approved": "Whether the operator is approved or not",
          "operator": "Address being approved"
        }
      },
      "setBaseURI(string)": {
        "details": "This sets the URI for revealed tokens Only callable by project owner",
        "params": {
          "_baseURI": "Base URI to be set"
        }
      },
      "setPreMintStartTime(uint256)": {
        "details": "Only callable by owner",
        "params": {
          "_preMintStartTime": "New pre-mint start time"
        }
      },
      "setPublicSaleEndTime(uint256)": {
        "details": "Only callable by owner",
        "params": {
          "_publicSaleEndTime": "New public sale end time"
        }
      },
      "setPublicSaleStartTime(uint256)": {
        "details": "Only callable by owner",
        "params": {
          "_publicSaleStartTime": "New public sale start time"
        }
      },
      "setRoyaltyInfo(address,uint96)": {
        "params": {
          "_feePercent": "Royalty fee percent in basis point",
          "_receiver": "Royalty fee collector"
        }
      },
      "setUnrevealedURI(string)": {
        "details": "Only callable by project owner",
        "params": {
          "_unrevealedURI": "Unrevealed URI to be set"
        }
      },
      "setWithdrawAVAXStartTime(uint256)": {
        "params": {
          "_withdrawAVAXStartTime": "New public sale end time"
        }
      },
      "supportsInterface(bytes4)": {
        "details": "Returns true if this contract implements the interface defined by `interfaceId`. See the corresponding https://eips.ethereum.org/EIPS/eip-165#how-interfaces-are-identified[EIP section] to learn more about how these IDs are created. This function call must use less than 30 000 gas.",
        "params": {
          "_interfaceId": "InterfaceId to consider. Comes from type(Interface).interfaceId"
        },
        "returns": {
          "_0": "isInterfaceSupported True if the considered interface is supported"
        }
      },
      "symbol()": {
        "details": "See {IERC721Metadata-symbol}."
      },
      "tokenURI(uint256)": {
        "params": {
          "_id": "Token id"
        },
        "returns": {
          "_0": "URI Token URI"
        }
      },
      "totalSupply()": {
        "details": "Burned tokens are calculated here, use _totalMinted() if you want to count just minted tokens."
      },
      "transferFrom(address,address,uint256)": {
        "details": "`transferFrom` wrapper to prevent a non-allowed operator to transfer the NFT",
        "params": {
          "from": "Address to transfer from",
          "to": "Address to transfer to",
          "tokenId": "TokenID to transfer"
        }
      },
      "unpause()": {
        "details": "Sensible part of a contract might be pausable for security reasons. Requirements: - the caller must be the `owner` or have the ``role`` role. - the contrat needs to be unpaused."
      },
      "updateOperatorFilterRegistryAddress(address)": {
        "params": {
          "_newRegistry": "The address of the new OperatorFilterRegistry"
        }
      },
      "userPendingPreMints(address)": {
        "params": {
          "_user": "user address"
        }
      },
      "withdrawAVAX(address)": {
        "params": {
          "_to": "Recipient of the earned AVAX"
        }
      }
    },
    "stateVariables": {
      "allowlistPrice": {
        "details": "allowlistPrice is scaled to 1e18"
      },
      "salePrice": {
        "details": "salePrice is scaled to 1e18"
      }
    },
    "title": "FlatLaunchpeg",
    "version": 1
  },
  "userdoc": {
    "kind": "user",
    "methods": {
      "BASIS_POINT_PRECISION()": {
        "notice": "Percentage base point"
      },
      "PROJECT_OWNER_ROLE()": {
        "notice": "Role granted to project owners"
      },
      "allowlist(address)": {
        "notice": "The amount of NFTs each allowed address can mint during the pre-mint or allowlist mint"
      },
      "allowlistMint(uint256)": {
        "notice": "Mint NFTs during the allowlist mint"
      },
      "allowlistPrice()": {
        "notice": "Price of one NFT for people on the mint list"
      },
      "allowlistStartTime()": {
        "notice": "Start time of the allowlist mint in seconds"
      },
      "amountClaimedDuringPreMint()": {
        "notice": "Tracks the amount of pre-minted NFTs that have been claimed"
      },
      "amountForAllowlist()": {
        "notice": "Amount of NFTs available for the allowlist mint (e.g 1000)"
      },
      "amountForDevs()": {
        "notice": "Amount of NFTs reserved for the project owner (e.g 200)"
      },
      "amountMintedByDevs()": {
        "notice": "Tracks the amount of NFTs minted by `projectOwner`"
      },
      "amountMintedDuringAllowlist()": {
        "notice": "Tracks the amount of NFTs minted on Allowlist phase"
      },
      "amountMintedDuringPreMint()": {
        "notice": "Tracks the amount of NFTs minted in the Pre-Mint phase"
      },
      "amountMintedDuringPublicSale()": {
        "notice": "Tracks the amount of NFTs minted on Public Sale phase"
      },
      "baseURI()": {
        "notice": "Token URI after collection reveal"
      },
      "batchClaimPreMint(uint96)": {
        "notice": "Claim pre-minted NFTs for users"
      },
      "batchReveal()": {
        "notice": "Batch reveal contract"
      },
      "becomeOwner()": {
        "notice": "Transfers the ownership to the new owner (`pendingOwner`). Can only be called by the pending owner"
      },
      "claimPreMint()": {
        "notice": "Claim pre-minted NFTs"
      },
      "collectionSize()": {
        "notice": "The collection size (e.g 10000)"
      },
      "currentPhase()": {
        "notice": "Returns the current phase"
      },
      "devMint(uint256)": {
        "notice": "Mint NFTs to the project owner"
      },
      "getOwnershipData(uint256)": {
        "notice": "Returns the ownership data of a specific token ID"
      },
      "grantRole(bytes32,address)": {
        "notice": "Grants `role` to `account`."
      },
      "hasBatchToReveal()": {
        "notice": "Tells you if a batch can be revealed"
      },
      "initialize((string,string,address,uint256,uint256,uint256,uint256,uint256),(address,address,address,address,uint256))": {
        "notice": "FlatLaunchpeg initialization Can only be called once"
      },
      "initializeBatchReveal(address)": {
        "notice": "Initialize batch reveal. Leave undefined to disable batch reveal for the collection."
      },
      "initializePhases(uint256,uint256,uint256,uint256,uint256,uint256)": {
        "notice": "Initialize the two phases of the sale"
      },
      "joeFeeCollector()": {
        "notice": "The address to which the fees on the sale will be sent"
      },
      "joeFeePercent()": {
        "notice": "The fees collected by Joepegs on the sale benefits"
      },
      "maxPerAddressDuringMint()": {
        "notice": "Max amount of NFTs an address can mint in public phases"
      },
      "numberMinted(address)": {
        "notice": "Returns the number of NFTs minted by a specific address"
      },
      "numberMintedWithPreMint(address)": {
        "notice": "Number minted by user including pre-mints"
      },
      "operatorFilterRegistry()": {
        "notice": "Contract filtering allowed operators, preventing unauthorized contract to transfer NFTs By default, Launchpeg contracts are subscribed to OpenSea's Curated Subscription Address at 0x3cc6CddA760b79bAfa08dF41ECFA224f810dCeB6"
      },
      "owner()": {
        "notice": "Returns the address of the current owner"
      },
      "pause()": {
        "notice": "Pauses the contract."
      },
      "pendingOwner()": {
        "notice": "Returns the address of the current pending owner"
      },
      "preMint(uint96)": {
        "notice": "Mint NFTs during the pre-mint"
      },
      "preMintStartTime()": {
        "notice": "Start time of the pre-mint in seconds"
      },
      "publicSaleEndTime()": {
        "notice": "End time of the public sale in seconds"
      },
      "publicSaleMint(uint256)": {
        "notice": "Mint NFTs during the public sale"
      },
      "publicSaleStartTime()": {
        "notice": "Start time of the public sale in seconds"
      },
      "renounceOwnership()": {
        "notice": "Leaves the contract without owner. It will not be possible to call `onlyOwner` functions anymore. Can only be called by the current owner. NOTE: Renouncing ownership will leave the contract without an owner, thereby removing any functionality that is only available to the owner."
      },
      "renounceRole(bytes32,address)": {
        "notice": "Revokes `role` from the calling account."
      },
      "revealNextBatch()": {
        "notice": "Reveals the next batch if the reveal conditions are met"
      },
      "revokePendingOwner()": {
        "notice": "Revoke the pending owner address. This address will not be able to call {becomeOwner} to become the owner anymore. Can only be called by the owner"
      },
      "revokeRole(bytes32,address)": {
        "notice": "Revokes `role` from `account`."
      },
      "salePrice()": {
        "notice": "Price of one NFT during the public sale"
      },
      "seedAllowlist(address[],uint256[])": {
        "notice": "Set amount of NFTs mintable per address during the allowlist phase"
      },
      "setAllowlistStartTime(uint256)": {
        "notice": "Set the allowlist start time. Can only be set after phases have been initialized."
      },
      "setBaseURI(string)": {
        "notice": "Set the base URI"
      },
      "setPendingOwner(address)": {
        "notice": "Sets the pending owner address. This address will be able to become the owner of this contract by calling {becomeOwner}"
      },
      "setPreMintStartTime(uint256)": {
        "notice": "Set the pre-mint start time. Can only be set after phases have been initialized."
      },
      "setPublicSaleEndTime(uint256)": {
        "notice": "Set the public sale end time. Can only be set after phases have been initialized."
      },
      "setPublicSaleStartTime(uint256)": {
        "notice": "Set the public sale start time. Can only be set after phases have been initialized."
      },
      "setRoyaltyInfo(address,uint96)": {
        "notice": "Set the royalty fee"
      },
      "setUnrevealedURI(string)": {
        "notice": "Set the unrevealed URI"
      },
      "setWithdrawAVAXStartTime(uint256)": {
        "notice": "Set the withdraw AVAX start time."
      },
      "tokenURI(uint256)": {
        "notice": "Returns the Uniform Resource Identifier (URI) for `tokenId` token."
      },
      "unpause()": {
        "notice": "Unpauses the contract."
      },
      "unrevealedURI()": {
        "notice": "Token URI before the collection reveal"
      },
      "updateOperatorFilterRegistryAddress(address)": {
        "notice": "Update the address that the contract will make OperatorFilter checks against. When set to the zero address, checks will be bypassed. OnlyOwner"
      },
      "userPendingPreMints(address)": {
        "notice": "The remaining no. of pre-minted NFTs for the user address"
      },
      "withdrawAVAX(address)": {
        "notice": "Withdraw AVAX to the given recipient"
      },
      "withdrawAVAXStartTime()": {
        "notice": "Start time when funds can be withdrawn"
      }
    },
    "notice": "Implements a simple minting NFT contract with an allowlist and public sale phase.",
    "version": 1
  },
  "storageLayout": {
    "storage": [
      {
        "astId": 810,
        "contract": "contracts/FlatLaunchpeg.sol:FlatLaunchpeg",
        "label": "_initialized",
        "offset": 0,
        "slot": "0",
        "type": "t_bool"
      },
      {
        "astId": 813,
        "contract": "contracts/FlatLaunchpeg.sol:FlatLaunchpeg",
        "label": "_initializing",
        "offset": 1,
        "slot": "0",
        "type": "t_bool"
      },
      {
        "astId": 1710,
        "contract": "contracts/FlatLaunchpeg.sol:FlatLaunchpeg",
        "label": "__gap",
        "offset": 0,
        "slot": "1",
        "type": "t_array(t_uint256)50_storage"
      },
      {
        "astId": 1957,
        "contract": "contracts/FlatLaunchpeg.sol:FlatLaunchpeg",
        "label": "__gap",
        "offset": 0,
        "slot": "51",
        "type": "t_array(t_uint256)50_storage"
      },
      {
        "astId": 7054,
        "contract": "contracts/FlatLaunchpeg.sol:FlatLaunchpeg",
        "label": "_currentIndex",
        "offset": 0,
        "slot": "101",
        "type": "t_uint256"
      },
      {
        "astId": 7056,
        "contract": "contracts/FlatLaunchpeg.sol:FlatLaunchpeg",
        "label": "_burnCounter",
        "offset": 0,
        "slot": "102",
        "type": "t_uint256"
      },
      {
        "astId": 7058,
        "contract": "contracts/FlatLaunchpeg.sol:FlatLaunchpeg",
        "label": "_name",
        "offset": 0,
        "slot": "103",
        "type": "t_string_storage"
      },
      {
        "astId": 7060,
        "contract": "contracts/FlatLaunchpeg.sol:FlatLaunchpeg",
        "label": "_symbol",
        "offset": 0,
        "slot": "104",
        "type": "t_string_storage"
      },
      {
        "astId": 7065,
        "contract": "contracts/FlatLaunchpeg.sol:FlatLaunchpeg",
        "label": "_ownerships",
        "offset": 0,
        "slot": "105",
        "type": "t_mapping(t_uint256,t_struct(TokenOwnership)7043_storage)"
      },
      {
        "astId": 7070,
        "contract": "contracts/FlatLaunchpeg.sol:FlatLaunchpeg",
        "label": "_addressData",
        "offset": 0,
        "slot": "106",
        "type": "t_mapping(t_address,t_struct(AddressData)7052_storage)"
      },
      {
        "astId": 7074,
        "contract": "contracts/FlatLaunchpeg.sol:FlatLaunchpeg",
        "label": "_tokenApprovals",
        "offset": 0,
        "slot": "107",
        "type": "t_mapping(t_uint256,t_address)"
      },
      {
        "astId": 7080,
        "contract": "contracts/FlatLaunchpeg.sol:FlatLaunchpeg",
        "label": "_operatorApprovals",
        "offset": 0,
        "slot": "108",
        "type": "t_mapping(t_address,t_mapping(t_address,t_bool))"
      },
      {
        "astId": 8328,
        "contract": "contracts/FlatLaunchpeg.sol:FlatLaunchpeg",
        "label": "__gap",
        "offset": 0,
        "slot": "109",
        "type": "t_array(t_uint256)42_storage"
      },
      {
        "astId": 13008,
        "contract": "contracts/FlatLaunchpeg.sol:FlatLaunchpeg",
        "label": "_owner",
        "offset": 0,
        "slot": "151",
        "type": "t_address"
      },
      {
        "astId": 13010,
        "contract": "contracts/FlatLaunchpeg.sol:FlatLaunchpeg",
        "label": "_pendingOwner",
        "offset": 0,
        "slot": "152",
        "type": "t_address"
      },
      {
        "astId": 273,
        "contract": "contracts/FlatLaunchpeg.sol:FlatLaunchpeg",
        "label": "_roles",
        "offset": 0,
        "slot": "153",
        "type": "t_mapping(t_bytes32,t_struct(RoleData)268_storage)"
      },
      {
        "astId": 561,
        "contract": "contracts/FlatLaunchpeg.sol:FlatLaunchpeg",
        "label": "__gap",
        "offset": 0,
        "slot": "154",
        "type": "t_array(t_uint256)49_storage"
      },
      {
        "astId": 122,
        "contract": "contracts/FlatLaunchpeg.sol:FlatLaunchpeg",
        "label": "_roleMembers",
        "offset": 0,
        "slot": "203",
        "type": "t_mapping(t_bytes32,t_struct(AddressSet)2282_storage)"
      },
      {
        "astId": 232,
        "contract": "contracts/FlatLaunchpeg.sol:FlatLaunchpeg",
        "label": "__gap",
        "offset": 0,
        "slot": "204",
        "type": "t_array(t_uint256)49_storage"
      },
      {
        "astId": 898,
        "contract": "contracts/FlatLaunchpeg.sol:FlatLaunchpeg",
        "label": "_paused",
        "offset": 0,
        "slot": "253",
        "type": "t_bool"
      },
      {
        "astId": 987,
        "contract": "contracts/FlatLaunchpeg.sol:FlatLaunchpeg",
        "label": "__gap",
        "offset": 0,
        "slot": "254",
        "type": "t_array(t_uint256)49_storage"
      },
      {
        "astId": 1002,
        "contract": "contracts/FlatLaunchpeg.sol:FlatLaunchpeg",
        "label": "_status",
        "offset": 0,
        "slot": "303",
        "type": "t_uint256"
      },
      {
        "astId": 1046,
        "contract": "contracts/FlatLaunchpeg.sol:FlatLaunchpeg",
        "label": "__gap",
        "offset": 0,
        "slot": "304",
        "type": "t_array(t_uint256)49_storage"
      },
      {
        "astId": 1240,
        "contract": "contracts/FlatLaunchpeg.sol:FlatLaunchpeg",
        "label": "_defaultRoyaltyInfo",
        "offset": 0,
        "slot": "353",
        "type": "t_struct(RoyaltyInfo)1237_storage"
      },
      {
        "astId": 1245,
        "contract": "contracts/FlatLaunchpeg.sol:FlatLaunchpeg",
        "label": "_tokenRoyaltyInfo",
        "offset": 0,
        "slot": "354",
        "type": "t_mapping(t_uint256,t_struct(RoyaltyInfo)1237_storage)"
      },
      {
        "astId": 1425,
        "contract": "contracts/FlatLaunchpeg.sol:FlatLaunchpeg",
        "label": "__gap",
        "offset": 0,
        "slot": "355",
        "type": "t_array(t_uint256)48_storage"
      },
      {
        "astId": 3302,
        "contract": "contracts/FlatLaunchpeg.sol:FlatLaunchpeg",
        "label": "collectionSize",
        "offset": 0,
        "slot": "403",
        "type": "t_uint256"
      },
      {
        "astId": 3306,
        "contract": "contracts/FlatLaunchpeg.sol:FlatLaunchpeg",
        "label": "amountForDevs",
        "offset": 0,
        "slot": "404",
        "type": "t_uint256"
      },
      {
        "astId": 3310,
        "contract": "contracts/FlatLaunchpeg.sol:FlatLaunchpeg",
        "label": "amountForAllowlist",
        "offset": 0,
        "slot": "405",
        "type": "t_uint256"
      },
      {
        "astId": 3314,
        "contract": "contracts/FlatLaunchpeg.sol:FlatLaunchpeg",
        "label": "maxPerAddressDuringMint",
        "offset": 0,
        "slot": "406",
        "type": "t_uint256"
      },
      {
        "astId": 3318,
        "contract": "contracts/FlatLaunchpeg.sol:FlatLaunchpeg",
        "label": "joeFeePercent",
        "offset": 0,
        "slot": "407",
        "type": "t_uint256"
      },
      {
        "astId": 3322,
        "contract": "contracts/FlatLaunchpeg.sol:FlatLaunchpeg",
        "label": "joeFeeCollector",
        "offset": 0,
        "slot": "408",
        "type": "t_address"
      },
      {
        "astId": 3326,
        "contract": "contracts/FlatLaunchpeg.sol:FlatLaunchpeg",
        "label": "batchReveal",
        "offset": 0,
        "slot": "409",
        "type": "t_contract(IBatchReveal)12545"
      },
      {
        "astId": 3330,
        "contract": "contracts/FlatLaunchpeg.sol:FlatLaunchpeg",
        "label": "baseURI",
        "offset": 0,
        "slot": "410",
        "type": "t_string_storage"
      },
      {
        "astId": 3334,
        "contract": "contracts/FlatLaunchpeg.sol:FlatLaunchpeg",
        "label": "unrevealedURI",
        "offset": 0,
        "slot": "411",
        "type": "t_string_storage"
      },
      {
        "astId": 3340,
        "contract": "contracts/FlatLaunchpeg.sol:FlatLaunchpeg",
        "label": "allowlist",
        "offset": 0,
        "slot": "412",
        "type": "t_mapping(t_address,t_uint256)"
      },
      {
        "astId": 3344,
        "contract": "contracts/FlatLaunchpeg.sol:FlatLaunchpeg",
        "label": "amountMintedByDevs",
        "offset": 0,
        "slot": "413",
        "type": "t_uint256"
      },
      {
        "astId": 3348,
        "contract": "contracts/FlatLaunchpeg.sol:FlatLaunchpeg",
        "label": "amountMintedDuringPreMint",
        "offset": 0,
        "slot": "414",
        "type": "t_uint256"
      },
      {
        "astId": 3352,
        "contract": "contracts/FlatLaunchpeg.sol:FlatLaunchpeg",
        "label": "amountClaimedDuringPreMint",
        "offset": 0,
        "slot": "415",
        "type": "t_uint256"
      },
      {
        "astId": 3356,
        "contract": "contracts/FlatLaunchpeg.sol:FlatLaunchpeg",
        "label": "amountMintedDuringAllowlist",
        "offset": 0,
        "slot": "416",
        "type": "t_uint256"
      },
      {
        "astId": 3360,
        "contract": "contracts/FlatLaunchpeg.sol:FlatLaunchpeg",
        "label": "amountMintedDuringPublicSale",
        "offset": 0,
        "slot": "417",
        "type": "t_uint256"
      },
      {
        "astId": 3364,
        "contract": "contracts/FlatLaunchpeg.sol:FlatLaunchpeg",
        "label": "preMintStartTime",
        "offset": 0,
        "slot": "418",
        "type": "t_uint256"
      },
      {
        "astId": 3368,
        "contract": "contracts/FlatLaunchpeg.sol:FlatLaunchpeg",
        "label": "allowlistStartTime",
        "offset": 0,
        "slot": "419",
        "type": "t_uint256"
      },
      {
        "astId": 3372,
        "contract": "contracts/FlatLaunchpeg.sol:FlatLaunchpeg",
        "label": "publicSaleStartTime",
        "offset": 0,
        "slot": "420",
        "type": "t_uint256"
      },
      {
        "astId": 3376,
        "contract": "contracts/FlatLaunchpeg.sol:FlatLaunchpeg",
        "label": "publicSaleEndTime",
        "offset": 0,
        "slot": "421",
        "type": "t_uint256"
      },
      {
        "astId": 3380,
        "contract": "contracts/FlatLaunchpeg.sol:FlatLaunchpeg",
        "label": "withdrawAVAXStartTime",
        "offset": 0,
        "slot": "422",
        "type": "t_uint256"
      },
      {
        "astId": 3384,
        "contract": "contracts/FlatLaunchpeg.sol:FlatLaunchpeg",
        "label": "operatorFilterRegistry",
        "offset": 0,
        "slot": "423",
        "type": "t_contract(IOperatorFilterRegistry)13759"
      },
      {
        "astId": 3388,
        "contract": "contracts/FlatLaunchpeg.sol:FlatLaunchpeg",
        "label": "_pendingPreMints",
        "offset": 0,
        "slot": "424",
        "type": "t_struct(PreMintDataSet)3287_storage"
      },
      {
        "astId": 8342,
        "contract": "contracts/FlatLaunchpeg.sol:FlatLaunchpeg",
        "label": "allowlistPrice",
        "offset": 0,
        "slot": "426",
        "type": "t_uint256"
      },
      {
        "astId": 8346,
        "contract": "contracts/FlatLaunchpeg.sol:FlatLaunchpeg",
        "label": "salePrice",
        "offset": 0,
        "slot": "427",
        "type": "t_uint256"
      }
    ],
    "types": {
      "t_address": {
        "encoding": "inplace",
        "label": "address",
        "numberOfBytes": "20"
      },
      "t_array(t_bytes32)dyn_storage": {
        "base": "t_bytes32",
        "encoding": "dynamic_array",
        "label": "bytes32[]",
        "numberOfBytes": "32"
      },
      "t_array(t_struct(PreMintData)3278_storage)dyn_storage": {
        "base": "t_struct(PreMintData)3278_storage",
        "encoding": "dynamic_array",
        "label": "struct BaseLaunchpeg.PreMintData[]",
        "numberOfBytes": "32"
      },
      "t_array(t_uint256)42_storage": {
        "base": "t_uint256",
        "encoding": "inplace",
        "label": "uint256[42]",
        "numberOfBytes": "1344"
      },
      "t_array(t_uint256)48_storage": {
        "base": "t_uint256",
        "encoding": "inplace",
        "label": "uint256[48]",
        "numberOfBytes": "1536"
      },
      "t_array(t_uint256)49_storage": {
        "base": "t_uint256",
        "encoding": "inplace",
        "label": "uint256[49]",
        "numberOfBytes": "1568"
      },
      "t_array(t_uint256)50_storage": {
        "base": "t_uint256",
        "encoding": "inplace",
        "label": "uint256[50]",
        "numberOfBytes": "1600"
      },
      "t_bool": {
        "encoding": "inplace",
        "label": "bool",
        "numberOfBytes": "1"
      },
      "t_bytes32": {
        "encoding": "inplace",
        "label": "bytes32",
        "numberOfBytes": "32"
      },
      "t_contract(IBatchReveal)12545": {
        "encoding": "inplace",
        "label": "contract IBatchReveal",
        "numberOfBytes": "20"
      },
      "t_contract(IOperatorFilterRegistry)13759": {
        "encoding": "inplace",
        "label": "contract IOperatorFilterRegistry",
        "numberOfBytes": "20"
      },
      "t_mapping(t_address,t_bool)": {
        "encoding": "mapping",
        "key": "t_address",
        "label": "mapping(address => bool)",
        "numberOfBytes": "32",
        "value": "t_bool"
      },
      "t_mapping(t_address,t_mapping(t_address,t_bool))": {
        "encoding": "mapping",
        "key": "t_address",
        "label": "mapping(address => mapping(address => bool))",
        "numberOfBytes": "32",
        "value": "t_mapping(t_address,t_bool)"
      },
      "t_mapping(t_address,t_struct(AddressData)7052_storage)": {
        "encoding": "mapping",
        "key": "t_address",
        "label": "mapping(address => struct ERC721AUpgradeable.AddressData)",
        "numberOfBytes": "32",
        "value": "t_struct(AddressData)7052_storage"
      },
      "t_mapping(t_address,t_uint256)": {
        "encoding": "mapping",
        "key": "t_address",
        "label": "mapping(address => uint256)",
        "numberOfBytes": "32",
        "value": "t_uint256"
      },
      "t_mapping(t_bytes32,t_struct(AddressSet)2282_storage)": {
        "encoding": "mapping",
        "key": "t_bytes32",
        "label": "mapping(bytes32 => struct EnumerableSetUpgradeable.AddressSet)",
        "numberOfBytes": "32",
        "value": "t_struct(AddressSet)2282_storage"
      },
      "t_mapping(t_bytes32,t_struct(RoleData)268_storage)": {
        "encoding": "mapping",
        "key": "t_bytes32",
        "label": "mapping(bytes32 => struct AccessControlUpgradeable.RoleData)",
        "numberOfBytes": "32",
        "value": "t_struct(RoleData)268_storage"
      },
      "t_mapping(t_bytes32,t_uint256)": {
        "encoding": "mapping",
        "key": "t_bytes32",
        "label": "mapping(bytes32 => uint256)",
        "numberOfBytes": "32",
        "value": "t_uint256"
      },
      "t_mapping(t_uint256,t_address)": {
        "encoding": "mapping",
        "key": "t_uint256",
        "label": "mapping(uint256 => address)",
        "numberOfBytes": "32",
        "value": "t_address"
      },
      "t_mapping(t_uint256,t_struct(RoyaltyInfo)1237_storage)": {
        "encoding": "mapping",
        "key": "t_uint256",
        "label": "mapping(uint256 => struct ERC2981Upgradeable.RoyaltyInfo)",
        "numberOfBytes": "32",
        "value": "t_struct(RoyaltyInfo)1237_storage"
      },
      "t_mapping(t_uint256,t_struct(TokenOwnership)7043_storage)": {
        "encoding": "mapping",
        "key": "t_uint256",
        "label": "mapping(uint256 => struct ERC721AUpgradeable.TokenOwnership)",
        "numberOfBytes": "32",
        "value": "t_struct(TokenOwnership)7043_storage"
      },
      "t_string_storage": {
        "encoding": "bytes",
        "label": "string",
        "numberOfBytes": "32"
      },
      "t_struct(AddressData)7052_storage": {
        "encoding": "inplace",
        "label": "struct ERC721AUpgradeable.AddressData",
        "members": [
          {
            "astId": 7045,
            "contract": "contracts/FlatLaunchpeg.sol:FlatLaunchpeg",
            "label": "balance",
            "offset": 0,
            "slot": "0",
            "type": "t_uint64"
          },
          {
            "astId": 7047,
            "contract": "contracts/FlatLaunchpeg.sol:FlatLaunchpeg",
            "label": "numberMinted",
            "offset": 8,
            "slot": "0",
            "type": "t_uint64"
          },
          {
            "astId": 7049,
            "contract": "contracts/FlatLaunchpeg.sol:FlatLaunchpeg",
            "label": "numberBurned",
            "offset": 16,
            "slot": "0",
            "type": "t_uint64"
          },
          {
            "astId": 7051,
            "contract": "contracts/FlatLaunchpeg.sol:FlatLaunchpeg",
            "label": "aux",
            "offset": 24,
            "slot": "0",
            "type": "t_uint64"
          }
        ],
        "numberOfBytes": "32"
      },
      "t_struct(AddressSet)2282_storage": {
        "encoding": "inplace",
        "label": "struct EnumerableSetUpgradeable.AddressSet",
        "members": [
          {
            "astId": 2281,
            "contract": "contracts/FlatLaunchpeg.sol:FlatLaunchpeg",
            "label": "_inner",
            "offset": 0,
            "slot": "0",
            "type": "t_struct(Set)1981_storage"
          }
        ],
        "numberOfBytes": "64"
      },
      "t_struct(PreMintData)3278_storage": {
        "encoding": "inplace",
        "label": "struct BaseLaunchpeg.PreMintData",
        "members": [
          {
            "astId": 3275,
            "contract": "contracts/FlatLaunchpeg.sol:FlatLaunchpeg",
            "label": "sender",
            "offset": 0,
            "slot": "0",
            "type": "t_address"
          },
          {
            "astId": 3277,
            "contract": "contracts/FlatLaunchpeg.sol:FlatLaunchpeg",
            "label": "quantity",
            "offset": 20,
            "slot": "0",
            "type": "t_uint96"
          }
        ],
        "numberOfBytes": "32"
      },
      "t_struct(PreMintDataSet)3287_storage": {
        "encoding": "inplace",
        "label": "struct BaseLaunchpeg.PreMintDataSet",
        "members": [
          {
            "astId": 3282,
            "contract": "contracts/FlatLaunchpeg.sol:FlatLaunchpeg",
            "label": "preMintDataArr",
            "offset": 0,
            "slot": "0",
            "type": "t_array(t_struct(PreMintData)3278_storage)dyn_storage"
          },
          {
            "astId": 3286,
            "contract": "contracts/FlatLaunchpeg.sol:FlatLaunchpeg",
            "label": "indexes",
            "offset": 0,
            "slot": "1",
            "type": "t_mapping(t_address,t_uint256)"
          }
        ],
        "numberOfBytes": "64"
      },
      "t_struct(RoleData)268_storage": {
        "encoding": "inplace",
        "label": "struct AccessControlUpgradeable.RoleData",
        "members": [
          {
            "astId": 265,
            "contract": "contracts/FlatLaunchpeg.sol:FlatLaunchpeg",
            "label": "members",
            "offset": 0,
            "slot": "0",
            "type": "t_mapping(t_address,t_bool)"
          },
          {
            "astId": 267,
            "contract": "contracts/FlatLaunchpeg.sol:FlatLaunchpeg",
            "label": "adminRole",
            "offset": 0,
            "slot": "1",
            "type": "t_bytes32"
          }
        ],
        "numberOfBytes": "64"
      },
      "t_struct(RoyaltyInfo)1237_storage": {
        "encoding": "inplace",
        "label": "struct ERC2981Upgradeable.RoyaltyInfo",
        "members": [
          {
            "astId": 1234,
            "contract": "contracts/FlatLaunchpeg.sol:FlatLaunchpeg",
            "label": "receiver",
            "offset": 0,
            "slot": "0",
            "type": "t_address"
          },
          {
            "astId": 1236,
            "contract": "contracts/FlatLaunchpeg.sol:FlatLaunchpeg",
            "label": "royaltyFraction",
            "offset": 20,
            "slot": "0",
            "type": "t_uint96"
          }
        ],
        "numberOfBytes": "32"
      },
      "t_struct(Set)1981_storage": {
        "encoding": "inplace",
        "label": "struct EnumerableSetUpgradeable.Set",
        "members": [
          {
            "astId": 1976,
            "contract": "contracts/FlatLaunchpeg.sol:FlatLaunchpeg",
            "label": "_values",
            "offset": 0,
            "slot": "0",
            "type": "t_array(t_bytes32)dyn_storage"
          },
          {
            "astId": 1980,
            "contract": "contracts/FlatLaunchpeg.sol:FlatLaunchpeg",
            "label": "_indexes",
            "offset": 0,
            "slot": "1",
            "type": "t_mapping(t_bytes32,t_uint256)"
          }
        ],
        "numberOfBytes": "64"
      },
      "t_struct(TokenOwnership)7043_storage": {
        "encoding": "inplace",
        "label": "struct ERC721AUpgradeable.TokenOwnership",
        "members": [
          {
            "astId": 7038,
            "contract": "contracts/FlatLaunchpeg.sol:FlatLaunchpeg",
            "label": "addr",
            "offset": 0,
            "slot": "0",
            "type": "t_address"
          },
          {
            "astId": 7040,
            "contract": "contracts/FlatLaunchpeg.sol:FlatLaunchpeg",
            "label": "startTimestamp",
            "offset": 20,
            "slot": "0",
            "type": "t_uint64"
          },
          {
            "astId": 7042,
            "contract": "contracts/FlatLaunchpeg.sol:FlatLaunchpeg",
            "label": "burned",
            "offset": 28,
            "slot": "0",
            "type": "t_bool"
          }
        ],
        "numberOfBytes": "32"
      },
      "t_uint256": {
        "encoding": "inplace",
        "label": "uint256",
        "numberOfBytes": "32"
      },
      "t_uint64": {
        "encoding": "inplace",
        "label": "uint64",
        "numberOfBytes": "8"
      },
      "t_uint96": {
        "encoding": "inplace",
        "label": "uint96",
        "numberOfBytes": "12"
      }
    }
  }
}