{
  "address": "0xd47a7Dd4FFf246A73b23C699F3785A2640372368",
  "abi": [
    {
      "inputs": [],
      "name": "ApprovalCallerNotOwnerNorApproved",
      "type": "error"
    },
    {
      "inputs": [],
      "name": "ApprovalQueryForNonexistentToken",
      "type": "error"
    },
    {
      "inputs": [],
      "name": "ApprovalToCurrentOwner",
      "type": "error"
    },
    {
      "inputs": [],
      "name": "ApproveToCaller",
      "type": "error"
    },
    {
      "inputs": [],
      "name": "BalanceQueryForZeroAddress",
      "type": "error"
    },
    {
      "inputs": [],
      "name": "Launchpeg__AllowlistBeforePreMint",
      "type": "error"
    },
    {
      "inputs": [],
      "name": "Launchpeg__BatchRevealAlreadyInitialized",
      "type": "error"
    },
    {
      "inputs": [],
      "name": "Launchpeg__BatchRevealDisabled",
      "type": "error"
    },
    {
      "inputs": [],
      "name": "Launchpeg__CanNotMintThisMany",
      "type": "error"
    },
    {
      "inputs": [],
      "name": "Launchpeg__InvalidAllowlistPrice",
      "type": "error"
    },
    {
      "inputs": [],
      "name": "Launchpeg__InvalidClaim",
      "type": "error"
    },
    {
      "inputs": [],
      "name": "Launchpeg__InvalidJoeFeeCollector",
      "type": "error"
    },
    {
      "inputs": [],
      "name": "Launchpeg__InvalidMaxPerAddressDuringMint",
      "type": "error"
    },
    {
      "inputs": [],
      "name": "Launchpeg__InvalidOwner",
      "type": "error"
    },
    {
      "inputs": [],
      "name": "Launchpeg__InvalidPercent",
      "type": "error"
    },
    {
      "inputs": [],
      "name": "Launchpeg__InvalidProjectOwner",
      "type": "error"
    },
    {
      "inputs": [],
      "name": "Launchpeg__InvalidQuantity",
      "type": "error"
    },
    {
      "inputs": [],
      "name": "Launchpeg__InvalidRoyaltyInfo",
      "type": "error"
    },
    {
      "inputs": [],
      "name": "Launchpeg__InvalidStartTime",
      "type": "error"
    },
    {
      "inputs": [],
      "name": "Launchpeg__LargerCollectionSizeNeeded",
      "type": "error"
    },
    {
      "inputs": [],
      "name": "Launchpeg__MaxSupplyForDevReached",
      "type": "error"
    },
    {
      "inputs": [],
      "name": "Launchpeg__MaxSupplyReached",
      "type": "error"
    },
    {
      "inputs": [],
      "name": "Launchpeg__NotEligibleForAllowlistMint",
      "type": "error"
    },
    {
      "inputs": [
        {
          "internalType": "uint256",
          "name": "avaxSent",
          "type": "uint256"
        }
      ],
      "name": "Launchpeg__NotEnoughAVAX",
      "type": "error"
    },
    {
      "inputs": [],
      "name": "Launchpeg__NotInitialized",
      "type": "error"
    },
    {
      "inputs": [],
      "name": "Launchpeg__PublicSaleBeforeAllowlist",
      "type": "error"
    },
    {
      "inputs": [],
      "name": "Launchpeg__PublicSaleEndBeforePublicSaleStart",
      "type": "error"
    },
    {
      "inputs": [],
      "name": "Launchpeg__RevealNextBatchNotAvailable",
      "type": "error"
    },
    {
      "inputs": [],
      "name": "Launchpeg__TransferFailed",
      "type": "error"
    },
    {
      "inputs": [],
      "name": "Launchpeg__Unauthorized",
      "type": "error"
    },
    {
      "inputs": [],
      "name": "Launchpeg__WithdrawAVAXNotAvailable",
      "type": "error"
    },
    {
      "inputs": [],
      "name": "Launchpeg__WrongAddressesAndNumSlotsLength",
      "type": "error"
    },
    {
      "inputs": [],
      "name": "Launchpeg__WrongPhase",
      "type": "error"
    },
    {
      "inputs": [],
      "name": "MintToZeroAddress",
      "type": "error"
    },
    {
      "inputs": [],
      "name": "MintZeroQuantity",
      "type": "error"
    },
    {
      "inputs": [],
      "name": "OwnerQueryForNonexistentToken",
      "type": "error"
    },
    {
      "inputs": [],
      "name": "PendingOwnableUpgradeable__AddressZero",
      "type": "error"
    },
    {
      "inputs": [],
      "name": "PendingOwnableUpgradeable__NoPendingOwner",
      "type": "error"
    },
    {
      "inputs": [],
      "name": "PendingOwnableUpgradeable__NotOwner",
      "type": "error"
    },
    {
      "inputs": [],
      "name": "PendingOwnableUpgradeable__NotPendingOwner",
      "type": "error"
    },
    {
      "inputs": [],
      "name": "PendingOwnableUpgradeable__PendingOwnerAlreadySet",
      "type": "error"
    },
    {
      "inputs": [],
      "name": "SafeAccessControlEnumerableUpgradeable__RoleIsDefaultAdmin",
      "type": "error"
    },
    {
      "inputs": [
        {
          "internalType": "bytes32",
          "name": "role",
          "type": "bytes32"
        },
        {
          "internalType": "address",
          "name": "sender",
          "type": "address"
        }
      ],
      "name": "SafeAccessControlEnumerableUpgradeable__SenderMissingRoleAndIsNotOwner",
      "type": "error"
    },
    {
      "inputs": [],
      "name": "SafePausableUpgradeable__AlreadyPaused",
      "type": "error"
    },
    {
      "inputs": [],
      "name": "SafePausableUpgradeable__AlreadyUnpaused",
      "type": "error"
    },
    {
      "inputs": [],
      "name": "TransferCallerNotOwnerNorApproved",
      "type": "error"
    },
    {
      "inputs": [],
      "name": "TransferFromIncorrectOwner",
      "type": "error"
    },
    {
      "inputs": [],
      "name": "TransferToNonERC721ReceiverImplementer",
      "type": "error"
    },
    {
      "inputs": [],
      "name": "TransferToZeroAddress",
      "type": "error"
    },
    {
      "anonymous": false,
      "inputs": [],
      "name": "AllowlistSeeded",
      "type": "event"
    },
    {
      "anonymous": false,
      "inputs": [
        {
          "indexed": false,
          "internalType": "uint256",
          "name": "allowlistStartTime",
          "type": "uint256"
        }
      ],
      "name": "AllowlistStartTimeSet",
      "type": "event"
    },
    {
      "anonymous": false,
      "inputs": [
        {
          "indexed": true,
          "internalType": "address",
          "name": "owner",
          "type": "address"
        },
        {
          "indexed": true,
          "internalType": "address",
          "name": "approved",
          "type": "address"
        },
        {
          "indexed": true,
          "internalType": "uint256",
          "name": "tokenId",
          "type": "uint256"
        }
      ],
      "name": "Approval",
      "type": "event"
    },
    {
      "anonymous": false,
      "inputs": [
        {
          "indexed": true,
          "internalType": "address",
          "name": "owner",
          "type": "address"
        },
        {
          "indexed": true,
          "internalType": "address",
          "name": "operator",
          "type": "address"
        },
        {
          "indexed": false,
          "internalType": "bool",
          "name": "approved",
          "type": "bool"
        }
      ],
      "name": "ApprovalForAll",
      "type": "event"
    },
    {
      "anonymous": false,
      "inputs": [
        {
          "indexed": true,
          "internalType": "address",
          "name": "sender",
          "type": "address"
        },
        {
          "indexed": false,
          "internalType": "uint256",
          "name": "amount",
          "type": "uint256"
        },
        {
          "indexed": false,
          "internalType": "uint256",
          "name": "fee",
          "type": "uint256"
        }
      ],
      "name": "AvaxWithdraw",
      "type": "event"
    },
    {
      "anonymous": false,
      "inputs": [
        {
          "indexed": false,
          "internalType": "string",
          "name": "baseURI",
          "type": "string"
        }
      ],
      "name": "BaseURISet",
      "type": "event"
    },
    {
      "anonymous": false,
      "inputs": [
        {
          "indexed": true,
          "internalType": "address",
          "name": "receiver",
          "type": "address"
        },
        {
          "indexed": false,
          "internalType": "uint256",
          "name": "feePercent",
          "type": "uint256"
        }
      ],
      "name": "DefaultRoyaltySet",
      "type": "event"
    },
    {
      "anonymous": false,
      "inputs": [
        {
          "indexed": true,
          "internalType": "address",
          "name": "sender",
          "type": "address"
        },
        {
          "indexed": false,
          "internalType": "uint256",
          "name": "quantity",
          "type": "uint256"
        }
      ],
      "name": "DevMint",
      "type": "event"
    },
    {
      "anonymous": false,
      "inputs": [
        {
          "indexed": false,
          "internalType": "uint256",
          "name": "preMintStartTime",
          "type": "uint256"
        },
        {
          "indexed": false,
          "internalType": "uint256",
          "name": "allowlistStartTime",
          "type": "uint256"
        },
        {
          "indexed": false,
          "internalType": "uint256",
          "name": "publicSaleStartTime",
          "type": "uint256"
        },
        {
          "indexed": false,
          "internalType": "uint256",
          "name": "publicSaleEndTime",
          "type": "uint256"
        },
        {
          "indexed": false,
          "internalType": "uint256",
          "name": "allowlistPrice",
          "type": "uint256"
        },
        {
          "indexed": false,
          "internalType": "uint256",
          "name": "salePrice",
          "type": "uint256"
        }
      ],
      "name": "Initialized",
      "type": "event"
    },
    {
      "anonymous": false,
      "inputs": [
        {
          "indexed": false,
          "internalType": "uint256",
          "name": "feePercent",
          "type": "uint256"
        },
        {
          "indexed": false,
          "internalType": "address",
          "name": "feeCollector",
          "type": "address"
        }
      ],
      "name": "JoeFeeInitialized",
      "type": "event"
    },
    {
      "anonymous": false,
      "inputs": [
        {
          "indexed": true,
          "internalType": "address",
          "name": "sender",
          "type": "address"
        },
        {
          "indexed": false,
          "internalType": "uint256",
          "name": "quantity",
          "type": "uint256"
        },
        {
          "indexed": false,
          "internalType": "uint256",
          "name": "price",
          "type": "uint256"
        },
        {
          "indexed": false,
          "internalType": "uint256",
          "name": "startTokenId",
          "type": "uint256"
        },
        {
          "indexed": false,
          "internalType": "enum IBaseLaunchpeg.Phase",
          "name": "phase",
          "type": "uint8"
        }
      ],
      "name": "Mint",
      "type": "event"
    },
    {
      "anonymous": false,
      "inputs": [
        {
          "indexed": true,
          "internalType": "address",
          "name": "previousOwner",
          "type": "address"
        },
        {
          "indexed": true,
          "internalType": "address",
          "name": "newOwner",
          "type": "address"
        }
      ],
      "name": "OwnershipTransferred",
      "type": "event"
    },
    {
      "anonymous": false,
      "inputs": [
        {
          "indexed": false,
          "internalType": "address",
          "name": "account",
          "type": "address"
        }
      ],
      "name": "Paused",
      "type": "event"
    },
    {
      "anonymous": false,
      "inputs": [
        {
          "indexed": true,
          "internalType": "address",
          "name": "pendingOwner",
          "type": "address"
        }
      ],
      "name": "PendingOwnerSet",
      "type": "event"
    },
    {
      "anonymous": false,
      "inputs": [
        {
          "indexed": true,
          "internalType": "address",
          "name": "sender",
          "type": "address"
        },
        {
          "indexed": false,
          "internalType": "uint256",
          "name": "quantity",
          "type": "uint256"
        },
        {
          "indexed": false,
          "internalType": "uint256",
          "name": "price",
          "type": "uint256"
        }
      ],
      "name": "PreMint",
      "type": "event"
    },
    {
      "anonymous": false,
      "inputs": [
        {
          "indexed": false,
          "internalType": "uint256",
          "name": "preMintStartTime",
          "type": "uint256"
        }
      ],
      "name": "PreMintStartTimeSet",
      "type": "event"
    },
    {
      "anonymous": false,
      "inputs": [
        {
          "indexed": false,
          "internalType": "uint256",
          "name": "publicSaleEndTime",
          "type": "uint256"
        }
      ],
      "name": "PublicSaleEndTimeSet",
      "type": "event"
    },
    {
      "anonymous": false,
      "inputs": [
        {
          "indexed": false,
          "internalType": "uint256",
          "name": "publicSaleStartTime",
          "type": "uint256"
        }
      ],
      "name": "PublicSaleStartTimeSet",
      "type": "event"
    },
    {
      "anonymous": false,
      "inputs": [
        {
          "indexed": true,
          "internalType": "bytes32",
          "name": "role",
          "type": "bytes32"
        },
        {
          "indexed": true,
          "internalType": "bytes32",
          "name": "previousAdminRole",
          "type": "bytes32"
        },
        {
          "indexed": true,
          "internalType": "bytes32",
          "name": "newAdminRole",
          "type": "bytes32"
        }
      ],
      "name": "RoleAdminChanged",
      "type": "event"
    },
    {
      "anonymous": false,
      "inputs": [
        {
          "indexed": true,
          "internalType": "bytes32",
          "name": "role",
          "type": "bytes32"
        },
        {
          "indexed": true,
          "internalType": "address",
          "name": "account",
          "type": "address"
        },
        {
          "indexed": true,
          "internalType": "address",
          "name": "sender",
          "type": "address"
        }
      ],
      "name": "RoleGranted",
      "type": "event"
    },
    {
      "anonymous": false,
      "inputs": [
        {
          "indexed": true,
          "internalType": "bytes32",
          "name": "role",
          "type": "bytes32"
        },
        {
          "indexed": true,
          "internalType": "address",
          "name": "account",
          "type": "address"
        },
        {
          "indexed": true,
          "internalType": "address",
          "name": "sender",
          "type": "address"
        }
      ],
      "name": "RoleRevoked",
      "type": "event"
    },
    {
      "anonymous": false,
      "inputs": [
        {
          "indexed": true,
          "internalType": "address",
          "name": "from",
          "type": "address"
        },
        {
          "indexed": true,
          "internalType": "address",
          "name": "to",
          "type": "address"
        },
        {
          "indexed": true,
          "internalType": "uint256",
          "name": "tokenId",
          "type": "uint256"
        }
      ],
      "name": "Transfer",
      "type": "event"
    },
    {
      "anonymous": false,
      "inputs": [
        {
          "indexed": false,
          "internalType": "address",
          "name": "account",
          "type": "address"
        }
      ],
      "name": "Unpaused",
      "type": "event"
    },
    {
      "anonymous": false,
      "inputs": [
        {
          "indexed": false,
          "internalType": "string",
          "name": "unrevealedURI",
          "type": "string"
        }
      ],
      "name": "UnrevealedURISet",
      "type": "event"
    },
    {
      "anonymous": false,
      "inputs": [
        {
          "indexed": false,
          "internalType": "uint256",
          "name": "withdrawAVAXStartTime",
          "type": "uint256"
        }
      ],
      "name": "WithdrawAVAXStartTimeSet",
      "type": "event"
    },
    {
      "inputs": [],
      "name": "BASIS_POINT_PRECISION",
      "outputs": [
        {
          "internalType": "uint256",
          "name": "",
          "type": "uint256"
        }
      ],
      "stateMutability": "view",
      "type": "function"
    },
    {
      "inputs": [],
      "name": "DEFAULT_ADMIN_ROLE",
      "outputs": [
        {
          "internalType": "bytes32",
          "name": "",
          "type": "bytes32"
        }
      ],
      "stateMutability": "view",
      "type": "function"
    },
    {
      "inputs": [],
      "name": "PAUSER_ADMIN_ROLE",
      "outputs": [
        {
          "internalType": "bytes32",
          "name": "",
          "type": "bytes32"
        }
      ],
      "stateMutability": "view",
      "type": "function"
    },
    {
      "inputs": [],
      "name": "PAUSER_ROLE",
      "outputs": [
        {
          "internalType": "bytes32",
          "name": "",
          "type": "bytes32"
        }
      ],
      "stateMutability": "view",
      "type": "function"
    },
    {
      "inputs": [],
      "name": "PROJECT_OWNER_ROLE",
      "outputs": [
        {
          "internalType": "bytes32",
          "name": "",
          "type": "bytes32"
        }
      ],
      "stateMutability": "view",
      "type": "function"
    },
    {
      "inputs": [],
      "name": "UNPAUSER_ADMIN_ROLE",
      "outputs": [
        {
          "internalType": "bytes32",
          "name": "",
          "type": "bytes32"
        }
      ],
      "stateMutability": "view",
      "type": "function"
    },
    {
      "inputs": [],
      "name": "UNPAUSER_ROLE",
      "outputs": [
        {
          "internalType": "bytes32",
          "name": "",
          "type": "bytes32"
        }
      ],
      "stateMutability": "view",
      "type": "function"
    },
    {
      "inputs": [
        {
          "internalType": "address",
          "name": "",
          "type": "address"
        }
      ],
      "name": "allowlist",
      "outputs": [
        {
          "internalType": "uint256",
          "name": "",
          "type": "uint256"
        }
      ],
      "stateMutability": "view",
      "type": "function"
    },
    {
      "inputs": [
        {
          "internalType": "uint256",
          "name": "_quantity",
          "type": "uint256"
        }
      ],
      "name": "allowlistMint",
      "outputs": [],
      "stateMutability": "payable",
      "type": "function"
    },
    {
      "inputs": [],
      "name": "allowlistPrice",
      "outputs": [
        {
          "internalType": "uint256",
          "name": "",
          "type": "uint256"
        }
      ],
      "stateMutability": "view",
      "type": "function"
    },
    {
      "inputs": [],
      "name": "allowlistStartTime",
      "outputs": [
        {
          "internalType": "uint256",
          "name": "",
          "type": "uint256"
        }
      ],
      "stateMutability": "view",
      "type": "function"
    },
    {
      "inputs": [],
      "name": "amountClaimedDuringPreMint",
      "outputs": [
        {
          "internalType": "uint256",
          "name": "",
          "type": "uint256"
        }
      ],
      "stateMutability": "view",
      "type": "function"
    },
    {
      "inputs": [],
      "name": "amountForAllowlist",
      "outputs": [
        {
          "internalType": "uint256",
          "name": "",
          "type": "uint256"
        }
      ],
      "stateMutability": "view",
      "type": "function"
    },
    {
      "inputs": [],
      "name": "amountForDevs",
      "outputs": [
        {
          "internalType": "uint256",
          "name": "",
          "type": "uint256"
        }
      ],
      "stateMutability": "view",
      "type": "function"
    },
    {
      "inputs": [],
      "name": "amountMintedByDevs",
      "outputs": [
        {
          "internalType": "uint256",
          "name": "",
          "type": "uint256"
        }
      ],
      "stateMutability": "view",
      "type": "function"
    },
    {
      "inputs": [],
      "name": "amountMintedDuringAllowlist",
      "outputs": [
        {
          "internalType": "uint256",
          "name": "",
          "type": "uint256"
        }
      ],
      "stateMutability": "view",
      "type": "function"
    },
    {
      "inputs": [],
      "name": "amountMintedDuringPreMint",
      "outputs": [
        {
          "internalType": "uint256",
          "name": "",
          "type": "uint256"
        }
      ],
      "stateMutability": "view",
      "type": "function"
    },
    {
      "inputs": [],
      "name": "amountMintedDuringPublicSale",
      "outputs": [
        {
          "internalType": "uint256",
          "name": "",
          "type": "uint256"
        }
      ],
      "stateMutability": "view",
      "type": "function"
    },
    {
      "inputs": [
        {
          "internalType": "address",
          "name": "to",
          "type": "address"
        },
        {
          "internalType": "uint256",
          "name": "tokenId",
          "type": "uint256"
        }
      ],
      "name": "approve",
      "outputs": [],
      "stateMutability": "nonpayable",
      "type": "function"
    },
    {
      "inputs": [
        {
          "internalType": "address",
          "name": "owner",
          "type": "address"
        }
      ],
      "name": "balanceOf",
      "outputs": [
        {
          "internalType": "uint256",
          "name": "",
          "type": "uint256"
        }
      ],
      "stateMutability": "view",
      "type": "function"
    },
    {
      "inputs": [],
      "name": "baseURI",
      "outputs": [
        {
          "internalType": "string",
          "name": "",
          "type": "string"
        }
      ],
      "stateMutability": "view",
      "type": "function"
    },
    {
      "inputs": [
        {
          "internalType": "uint96",
          "name": "_maxQuantity",
          "type": "uint96"
        }
      ],
      "name": "batchClaimPreMint",
      "outputs": [],
      "stateMutability": "nonpayable",
      "type": "function"
    },
    {
      "inputs": [],
      "name": "batchReveal",
      "outputs": [
        {
          "internalType": "contract IBatchReveal",
          "name": "",
          "type": "address"
        }
      ],
      "stateMutability": "view",
      "type": "function"
    },
    {
      "inputs": [],
      "name": "becomeOwner",
      "outputs": [],
      "stateMutability": "nonpayable",
      "type": "function"
    },
    {
      "inputs": [],
      "name": "claimPreMint",
      "outputs": [],
      "stateMutability": "nonpayable",
      "type": "function"
    },
    {
      "inputs": [],
      "name": "collectionSize",
      "outputs": [
        {
          "internalType": "uint256",
          "name": "",
          "type": "uint256"
        }
      ],
      "stateMutability": "view",
      "type": "function"
    },
    {
      "inputs": [],
      "name": "currentPhase",
      "outputs": [
        {
          "internalType": "enum IBaseLaunchpeg.Phase",
          "name": "",
          "type": "uint8"
        }
      ],
      "stateMutability": "view",
      "type": "function"
    },
    {
      "inputs": [
        {
          "internalType": "uint256",
          "name": "_quantity",
          "type": "uint256"
        }
      ],
      "name": "devMint",
      "outputs": [],
      "stateMutability": "nonpayable",
      "type": "function"
    },
    {
      "inputs": [
        {
          "internalType": "uint256",
          "name": "tokenId",
          "type": "uint256"
        }
      ],
      "name": "getApproved",
      "outputs": [
        {
          "internalType": "address",
          "name": "",
          "type": "address"
        }
      ],
      "stateMutability": "view",
      "type": "function"
    },
    {
      "inputs": [
        {
          "internalType": "uint256",
          "name": "_tokenId",
          "type": "uint256"
        }
      ],
      "name": "getOwnershipData",
      "outputs": [
        {
          "components": [
            {
              "internalType": "address",
              "name": "addr",
              "type": "address"
            },
            {
              "internalType": "uint64",
              "name": "startTimestamp",
              "type": "uint64"
            },
            {
              "internalType": "bool",
              "name": "burned",
              "type": "bool"
            }
          ],
          "internalType": "struct ERC721AUpgradeable.TokenOwnership",
          "name": "",
          "type": "tuple"
        }
      ],
      "stateMutability": "view",
      "type": "function"
    },
    {
      "inputs": [
        {
          "internalType": "bytes32",
          "name": "role",
          "type": "bytes32"
        }
      ],
      "name": "getRoleAdmin",
      "outputs": [
        {
          "internalType": "bytes32",
          "name": "",
          "type": "bytes32"
        }
      ],
      "stateMutability": "view",
      "type": "function"
    },
    {
      "inputs": [
        {
          "internalType": "bytes32",
          "name": "role",
          "type": "bytes32"
        },
        {
          "internalType": "uint256",
          "name": "index",
          "type": "uint256"
        }
      ],
      "name": "getRoleMember",
      "outputs": [
        {
          "internalType": "address",
          "name": "",
          "type": "address"
        }
      ],
      "stateMutability": "view",
      "type": "function"
    },
    {
      "inputs": [
        {
          "internalType": "bytes32",
          "name": "role",
          "type": "bytes32"
        }
      ],
      "name": "getRoleMemberCount",
      "outputs": [
        {
          "internalType": "uint256",
          "name": "",
          "type": "uint256"
        }
      ],
      "stateMutability": "view",
      "type": "function"
    },
    {
      "inputs": [
        {
          "internalType": "bytes32",
          "name": "role",
          "type": "bytes32"
        },
        {
          "internalType": "address",
          "name": "account",
          "type": "address"
        }
      ],
      "name": "grantRole",
      "outputs": [],
      "stateMutability": "nonpayable",
      "type": "function"
    },
    {
      "inputs": [],
      "name": "hasBatchToReveal",
      "outputs": [
        {
          "internalType": "bool",
          "name": "",
          "type": "bool"
        },
        {
          "internalType": "uint256",
          "name": "",
          "type": "uint256"
        }
      ],
      "stateMutability": "view",
      "type": "function"
    },
    {
      "inputs": [
        {
          "internalType": "bytes32",
          "name": "role",
          "type": "bytes32"
        },
        {
          "internalType": "address",
          "name": "account",
          "type": "address"
        }
      ],
      "name": "hasRole",
      "outputs": [
        {
          "internalType": "bool",
          "name": "",
          "type": "bool"
        }
      ],
      "stateMutability": "view",
      "type": "function"
    },
    {
      "inputs": [
        {
          "components": [
            {
              "internalType": "string",
              "name": "name",
              "type": "string"
            },
            {
              "internalType": "string",
              "name": "symbol",
              "type": "string"
            },
            {
              "internalType": "address",
              "name": "batchReveal",
              "type": "address"
            },
            {
              "internalType": "uint256",
              "name": "maxPerAddressDuringMint",
              "type": "uint256"
            },
            {
              "internalType": "uint256",
              "name": "collectionSize",
              "type": "uint256"
            },
            {
              "internalType": "uint256",
              "name": "amountForDevs",
              "type": "uint256"
            },
            {
              "internalType": "uint256",
              "name": "amountForAuction",
              "type": "uint256"
            },
            {
              "internalType": "uint256",
              "name": "amountForAllowlist",
              "type": "uint256"
            }
          ],
          "internalType": "struct IBaseLaunchpeg.CollectionData",
          "name": "_collectionData",
          "type": "tuple"
        },
        {
          "components": [
            {
              "internalType": "address",
              "name": "owner",
              "type": "address"
            },
            {
              "internalType": "address",
              "name": "projectOwner",
              "type": "address"
            },
            {
              "internalType": "address",
              "name": "royaltyReceiver",
              "type": "address"
            },
            {
              "internalType": "address",
              "name": "joeFeeCollector",
              "type": "address"
            },
            {
              "internalType": "uint256",
              "name": "joeFeePercent",
              "type": "uint256"
            }
          ],
          "internalType": "struct IBaseLaunchpeg.CollectionOwnerData",
          "name": "_ownerData",
          "type": "tuple"
        }
      ],
      "name": "initialize",
      "outputs": [],
      "stateMutability": "nonpayable",
      "type": "function"
    },
    {
      "inputs": [
        {
          "internalType": "address",
          "name": "_batchReveal",
          "type": "address"
        }
      ],
      "name": "initializeBatchReveal",
      "outputs": [],
      "stateMutability": "nonpayable",
      "type": "function"
    },
    {
      "inputs": [
        {
          "internalType": "uint256",
          "name": "_preMintStartTime",
          "type": "uint256"
        },
        {
          "internalType": "uint256",
          "name": "_allowlistStartTime",
          "type": "uint256"
        },
        {
          "internalType": "uint256",
          "name": "_publicSaleStartTime",
          "type": "uint256"
        },
        {
          "internalType": "uint256",
          "name": "_publicSaleEndTime",
          "type": "uint256"
        },
        {
          "internalType": "uint256",
          "name": "_allowlistPrice",
          "type": "uint256"
        },
        {
          "internalType": "uint256",
          "name": "_salePrice",
          "type": "uint256"
        }
      ],
      "name": "initializePhases",
      "outputs": [],
      "stateMutability": "nonpayable",
      "type": "function"
    },
    {
      "inputs": [
        {
          "internalType": "address",
          "name": "owner",
          "type": "address"
        },
        {
          "internalType": "address",
          "name": "operator",
          "type": "address"
        }
      ],
      "name": "isApprovedForAll",
      "outputs": [
        {
          "internalType": "bool",
          "name": "",
          "type": "bool"
        }
      ],
      "stateMutability": "view",
      "type": "function"
    },
    {
      "inputs": [],
      "name": "joeFeeCollector",
      "outputs": [
        {
          "internalType": "address",
          "name": "",
          "type": "address"
        }
      ],
      "stateMutability": "view",
      "type": "function"
    },
    {
      "inputs": [],
      "name": "joeFeePercent",
      "outputs": [
        {
          "internalType": "uint256",
          "name": "",
          "type": "uint256"
        }
      ],
      "stateMutability": "view",
      "type": "function"
    },
    {
      "inputs": [],
      "name": "maxPerAddressDuringMint",
      "outputs": [
        {
          "internalType": "uint256",
          "name": "",
          "type": "uint256"
        }
      ],
      "stateMutability": "view",
      "type": "function"
    },
    {
      "inputs": [],
      "name": "name",
      "outputs": [
        {
          "internalType": "string",
          "name": "",
          "type": "string"
        }
      ],
      "stateMutability": "view",
      "type": "function"
    },
    {
      "inputs": [
        {
          "internalType": "address",
          "name": "_owner",
          "type": "address"
        }
      ],
      "name": "numberMinted",
      "outputs": [
        {
          "internalType": "uint256",
          "name": "",
          "type": "uint256"
        }
      ],
      "stateMutability": "view",
      "type": "function"
    },
    {
      "inputs": [
        {
          "internalType": "address",
          "name": "_owner",
          "type": "address"
        }
      ],
      "name": "numberMintedWithPreMint",
      "outputs": [
        {
          "internalType": "uint256",
          "name": "",
          "type": "uint256"
        }
      ],
      "stateMutability": "view",
      "type": "function"
    },
    {
      "inputs": [],
      "name": "owner",
      "outputs": [
        {
          "internalType": "address",
          "name": "",
          "type": "address"
        }
      ],
      "stateMutability": "view",
      "type": "function"
    },
    {
      "inputs": [
        {
          "internalType": "uint256",
          "name": "tokenId",
          "type": "uint256"
        }
      ],
      "name": "ownerOf",
      "outputs": [
        {
          "internalType": "address",
          "name": "",
          "type": "address"
        }
      ],
      "stateMutability": "view",
      "type": "function"
    },
    {
      "inputs": [],
      "name": "pause",
      "outputs": [],
      "stateMutability": "nonpayable",
      "type": "function"
    },
    {
      "inputs": [],
      "name": "paused",
      "outputs": [
        {
          "internalType": "bool",
          "name": "",
          "type": "bool"
        }
      ],
      "stateMutability": "view",
      "type": "function"
    },
    {
      "inputs": [],
      "name": "pendingOwner",
      "outputs": [
        {
          "internalType": "address",
          "name": "",
          "type": "address"
        }
      ],
      "stateMutability": "view",
      "type": "function"
    },
    {
      "inputs": [
        {
          "internalType": "uint96",
          "name": "_quantity",
          "type": "uint96"
        }
      ],
      "name": "preMint",
      "outputs": [],
      "stateMutability": "payable",
      "type": "function"
    },
    {
      "inputs": [],
      "name": "preMintStartTime",
      "outputs": [
        {
          "internalType": "uint256",
          "name": "",
          "type": "uint256"
        }
      ],
      "stateMutability": "view",
      "type": "function"
    },
    {
      "inputs": [],
      "name": "publicSaleEndTime",
      "outputs": [
        {
          "internalType": "uint256",
          "name": "",
          "type": "uint256"
        }
      ],
      "stateMutability": "view",
      "type": "function"
    },
    {
      "inputs": [
        {
          "internalType": "uint256",
          "name": "_quantity",
          "type": "uint256"
        }
      ],
      "name": "publicSaleMint",
      "outputs": [],
      "stateMutability": "payable",
      "type": "function"
    },
    {
      "inputs": [],
      "name": "publicSaleStartTime",
      "outputs": [
        {
          "internalType": "uint256",
          "name": "",
          "type": "uint256"
        }
      ],
      "stateMutability": "view",
      "type": "function"
    },
    {
      "inputs": [],
      "name": "renounceOwnership",
      "outputs": [],
      "stateMutability": "nonpayable",
      "type": "function"
    },
    {
      "inputs": [
        {
          "internalType": "bytes32",
          "name": "role",
          "type": "bytes32"
        },
        {
          "internalType": "address",
          "name": "account",
          "type": "address"
        }
      ],
      "name": "renounceRole",
      "outputs": [],
      "stateMutability": "nonpayable",
      "type": "function"
    },
    {
      "inputs": [],
      "name": "revealNextBatch",
      "outputs": [],
      "stateMutability": "nonpayable",
      "type": "function"
    },
    {
      "inputs": [],
      "name": "revokePendingOwner",
      "outputs": [],
      "stateMutability": "nonpayable",
      "type": "function"
    },
    {
      "inputs": [
        {
          "internalType": "bytes32",
          "name": "role",
          "type": "bytes32"
        },
        {
          "internalType": "address",
          "name": "account",
          "type": "address"
        }
      ],
      "name": "revokeRole",
      "outputs": [],
      "stateMutability": "nonpayable",
      "type": "function"
    },
    {
      "inputs": [
        {
          "internalType": "uint256",
          "name": "_tokenId",
          "type": "uint256"
        },
        {
          "internalType": "uint256",
          "name": "_salePrice",
          "type": "uint256"
        }
      ],
      "name": "royaltyInfo",
      "outputs": [
        {
          "internalType": "address",
          "name": "",
          "type": "address"
        },
        {
          "internalType": "uint256",
          "name": "",
          "type": "uint256"
        }
      ],
      "stateMutability": "view",
      "type": "function"
    },
    {
      "inputs": [
        {
          "internalType": "address",
          "name": "from",
          "type": "address"
        },
        {
          "internalType": "address",
          "name": "to",
          "type": "address"
        },
        {
          "internalType": "uint256",
          "name": "tokenId",
          "type": "uint256"
        }
      ],
      "name": "safeTransferFrom",
      "outputs": [],
      "stateMutability": "nonpayable",
      "type": "function"
    },
    {
      "inputs": [
        {
          "internalType": "address",
          "name": "from",
          "type": "address"
        },
        {
          "internalType": "address",
          "name": "to",
          "type": "address"
        },
        {
          "internalType": "uint256",
          "name": "tokenId",
          "type": "uint256"
        },
        {
          "internalType": "bytes",
          "name": "_data",
          "type": "bytes"
        }
      ],
      "name": "safeTransferFrom",
      "outputs": [],
      "stateMutability": "nonpayable",
      "type": "function"
    },
    {
      "inputs": [],
      "name": "salePrice",
      "outputs": [
        {
          "internalType": "uint256",
          "name": "",
          "type": "uint256"
        }
      ],
      "stateMutability": "view",
      "type": "function"
    },
    {
      "inputs": [
        {
          "internalType": "address[]",
          "name": "_addresses",
          "type": "address[]"
        },
        {
          "internalType": "uint256[]",
          "name": "_numNfts",
          "type": "uint256[]"
        }
      ],
      "name": "seedAllowlist",
      "outputs": [],
      "stateMutability": "nonpayable",
      "type": "function"
    },
    {
      "inputs": [
        {
          "internalType": "uint256",
          "name": "_allowlistStartTime",
          "type": "uint256"
        }
      ],
      "name": "setAllowlistStartTime",
      "outputs": [],
      "stateMutability": "nonpayable",
      "type": "function"
    },
    {
      "inputs": [
        {
          "internalType": "address",
          "name": "operator",
          "type": "address"
        },
        {
          "internalType": "bool",
          "name": "approved",
          "type": "bool"
        }
      ],
      "name": "setApprovalForAll",
      "outputs": [],
      "stateMutability": "nonpayable",
      "type": "function"
    },
    {
      "inputs": [
        {
          "internalType": "string",
          "name": "_baseURI",
          "type": "string"
        }
      ],
      "name": "setBaseURI",
      "outputs": [],
      "stateMutability": "nonpayable",
      "type": "function"
    },
    {
      "inputs": [
        {
          "internalType": "address",
          "name": "pendingOwner_",
          "type": "address"
        }
      ],
      "name": "setPendingOwner",
      "outputs": [],
      "stateMutability": "nonpayable",
      "type": "function"
    },
    {
      "inputs": [
        {
          "internalType": "uint256",
          "name": "_preMintStartTime",
          "type": "uint256"
        }
      ],
      "name": "setPreMintStartTime",
      "outputs": [],
      "stateMutability": "nonpayable",
      "type": "function"
    },
    {
      "inputs": [
        {
          "internalType": "uint256",
          "name": "_publicSaleEndTime",
          "type": "uint256"
        }
      ],
      "name": "setPublicSaleEndTime",
      "outputs": [],
      "stateMutability": "nonpayable",
      "type": "function"
    },
    {
      "inputs": [
        {
          "internalType": "uint256",
          "name": "_publicSaleStartTime",
          "type": "uint256"
        }
      ],
      "name": "setPublicSaleStartTime",
      "outputs": [],
      "stateMutability": "nonpayable",
      "type": "function"
    },
    {
      "inputs": [
        {
          "internalType": "address",
          "name": "_receiver",
          "type": "address"
        },
        {
          "internalType": "uint96",
          "name": "_feePercent",
          "type": "uint96"
        }
      ],
      "name": "setRoyaltyInfo",
      "outputs": [],
      "stateMutability": "nonpayable",
      "type": "function"
    },
    {
      "inputs": [
        {
          "internalType": "string",
          "name": "_unrevealedURI",
          "type": "string"
        }
      ],
      "name": "setUnrevealedURI",
      "outputs": [],
      "stateMutability": "nonpayable",
      "type": "function"
    },
    {
      "inputs": [
        {
          "internalType": "uint256",
          "name": "_withdrawAVAXStartTime",
          "type": "uint256"
        }
      ],
      "name": "setWithdrawAVAXStartTime",
      "outputs": [],
      "stateMutability": "nonpayable",
      "type": "function"
    },
    {
      "inputs": [
        {
          "internalType": "bytes4",
          "name": "_interfaceId",
          "type": "bytes4"
        }
      ],
      "name": "supportsInterface",
      "outputs": [
        {
          "internalType": "bool",
          "name": "",
          "type": "bool"
        }
      ],
      "stateMutability": "view",
      "type": "function"
    },
    {
      "inputs": [],
      "name": "symbol",
      "outputs": [
        {
          "internalType": "string",
          "name": "",
          "type": "string"
        }
      ],
      "stateMutability": "view",
      "type": "function"
    },
    {
      "inputs": [
        {
          "internalType": "uint256",
          "name": "_id",
          "type": "uint256"
        }
      ],
      "name": "tokenURI",
      "outputs": [
        {
          "internalType": "string",
          "name": "",
          "type": "string"
        }
      ],
      "stateMutability": "view",
      "type": "function"
    },
    {
      "inputs": [],
      "name": "totalSupply",
      "outputs": [
        {
          "internalType": "uint256",
          "name": "",
          "type": "uint256"
        }
      ],
      "stateMutability": "view",
      "type": "function"
    },
    {
      "inputs": [
        {
          "internalType": "address",
          "name": "from",
          "type": "address"
        },
        {
          "internalType": "address",
          "name": "to",
          "type": "address"
        },
        {
          "internalType": "uint256",
          "name": "tokenId",
          "type": "uint256"
        }
      ],
      "name": "transferFrom",
      "outputs": [],
      "stateMutability": "nonpayable",
      "type": "function"
    },
    {
      "inputs": [],
      "name": "unpause",
      "outputs": [],
      "stateMutability": "nonpayable",
      "type": "function"
    },
    {
      "inputs": [],
      "name": "unrevealedURI",
      "outputs": [
        {
          "internalType": "string",
          "name": "",
          "type": "string"
        }
      ],
      "stateMutability": "view",
      "type": "function"
    },
    {
      "inputs": [
        {
          "internalType": "address",
          "name": "_user",
          "type": "address"
        }
      ],
      "name": "userPendingPreMints",
      "outputs": [
        {
          "internalType": "uint256",
          "name": "",
          "type": "uint256"
        }
      ],
      "stateMutability": "view",
      "type": "function"
    },
    {
      "inputs": [
        {
          "internalType": "address",
          "name": "_to",
          "type": "address"
        }
      ],
      "name": "withdrawAVAX",
      "outputs": [],
      "stateMutability": "nonpayable",
      "type": "function"
    },
    {
      "inputs": [],
      "name": "withdrawAVAXStartTime",
      "outputs": [
        {
          "internalType": "uint256",
          "name": "",
          "type": "uint256"
        }
      ],
      "stateMutability": "view",
      "type": "function"
    }
  ],
  "transactionHash": "0xb5e5ec83b1eec72d65813583c662848653f8934dceb76c71e49e08a84aad6ef7",
  "args": [],
  "numDeployments": 1,
  "solcInputHash": "01e2e6342c96f1200dc578ed1e7d4da2",
  "bytecode": "0x608060405234801561001057600080fd5b5061582580620000216000396000f3fe6080604052600436106104b55760003560e01c8063715018a61161026b578063b560ee691161014f578063d9a6f705116100c1578063f35e231c11610085578063f35e231c14610e94578063f51f96dd14610eb4578063f9dca98914610ecb578063fb1bb9de14610ee0578063fbe1aa5114610f14578063fe2c7fee14610f2b57600080fd5b8063d9a6f70514610dd5578063dc33e68114610deb578063e30c397814610e0b578063e63ab1e914610e29578063e985e9c514610e4b57600080fd5b8063c5482fe311610113578063c5482fe314610d30578063c792e16714610d47578063c87b56dd14610d5e578063ca15c87314610d7e578063d547741f14610d9e578063d62b630314610dbe57600080fd5b8063b560ee6914610c9b578063b88d4fde14610cbb578063be62da0e14610cdb578063c180526a14610cfd578063c42069ec14610d1057600080fd5b806395d89b41116101e8578063a22cb465116101ac578063a22cb46514610bda578063a4c98ec414610bfa578063a7cd52cb14610c1a578063aec3922b14610c48578063b05863d514610c68578063b3ab66b014610c8857600080fd5b806395d89b4114610b59578063963331d814610b6e578063984b67d614610b85578063a1ef0e5414610ba5578063a217fddf14610bc557600080fd5b80639010d07c1161022f5780639010d07c14610a8c57806390967a5214610aac57806391d1485414610ac35780639204065314610ae35780639231ab2a14610b0357600080fd5b8063715018a614610a185780638456cb5914610a2d5780638bc35c2f14610a425780638c6011ca14610a595780638da5cb5b14610a6e57600080fd5b8063375a069a1161039d57806362f4fb2d1161030f5780636bb7b1d9116102d35780636bb7b1d9146109635780636c0360eb1461097a5780636d5d40c61461098f5780637035bf18146109af57806370a08231146109c457806370a95250146109e457600080fd5b806362f4fb2d146108e05780636352211e146108f757806366b55a091461091757806367ab8a4e146109375780636b14bd391461094c57600080fd5b806355f804b31161036157806355f804b31461084457806359d7bc4d146108645780635bb213761461087b5780635c7034af1461089c5780635c975abb146108b3578063622f1c47146108cb57600080fd5b8063375a069a146107c15780633cc4cadb146107e15780633f4ba83a146107f857806342842e0e1461080d57806345c0f5331461082d57600080fd5b806318160ddd11610436578063248a9ca3116103fa578063248a9ca3146106c757806325a00473146106f75780632a55205a1461072b5780632e8f1f501461076a5780632f2ff15d1461078157806336568abe146107a157600080fd5b806318160ddd1461062c5780631c0310a51461064f5780631e4d185f1461066f57806321cc16111461068657806323b872dd146106a757600080fd5b806306fdde031161047d57806306fdde031461057f578063081812fc146105a1578063095ea7b3146105d95780630c2c39a3146105f95780630f89952d1461061957600080fd5b806301ffc9a7146104ba57806302fa7c47146104ef57806303851c281461051157806303b674d31461053d578063055ad42e1461055d575b600080fd5b3480156104c657600080fd5b506104da6104d5366004615148565b610f4b565b60405190151581526020015b60405180910390f35b3480156104fb57600080fd5b5061050f61050a36600461500a565b610f76565b005b34801561051d57600080fd5b50610526611023565b6040805192151583526020830191909152016104e6565b34801561054957600080fd5b5061050f6105583660046150ea565b6110e5565b34801561056957600080fd5b506105726111fb565b6040516104e691906153d7565b34801561058b57600080fd5b506105946112bc565b6040516104e691906153e5565b3480156105ad57600080fd5b506105c16105bc3660046150ea565b61134e565b6040516001600160a01b0390911681526020016104e6565b3480156105e557600080fd5b5061050f6105f4366004614fe0565b611392565b34801561060557600080fd5b5061050f6106143660046150ea565b611420565b61050f6106273660046152ae565b6114ab565b34801561063857600080fd5b50606654606554035b6040519081526020016104e6565b34801561065b57600080fd5b5061050f61066a366004614e44565b611683565b34801561067b57600080fd5b506106416101a55481565b34801561069257600080fd5b50610199546105c1906001600160a01b031681565b3480156106b357600080fd5b5061050f6106c2366004614e92565b611913565b3480156106d357600080fd5b506106416106e23660046150ea565b60009081526099602052604090206001015490565b34801561070357600080fd5b506106417fe0e65c783ac33ff1c5ccf4399c9185066773921d6f8d050bf80781603021f09781565b34801561073757600080fd5b5061074b610746366004615126565b61191e565b604080516001600160a01b0390931683526020830191909152016104e6565b34801561077657600080fd5b5061064161019e5481565b34801561078d57600080fd5b5061050f61079c366004615103565b6119ce565b3480156107ad57600080fd5b5061050f6107bc366004615103565b611a52565b3480156107cd57600080fd5b5061050f6107dc3660046150ea565b611a7b565b3480156107ed57600080fd5b506106416101a05481565b34801561080457600080fd5b5061050f611bcc565b34801561081957600080fd5b5061050f610828366004614e92565b611c7c565b34801561083957600080fd5b506106416101935481565b34801561085057600080fd5b5061050f61085f366004615182565b611c97565b34801561087057600080fd5b506106416101a35481565b34801561088757600080fd5b50610198546105c1906001600160a01b031681565b3480156108a857600080fd5b5061064161019d5481565b3480156108bf57600080fd5b5060fd5460ff166104da565b3480156108d757600080fd5b5061050f611d01565b3480156108ec57600080fd5b506106416101a25481565b34801561090357600080fd5b506105c16109123660046150ea565b611e2b565b34801561092357600080fd5b50610641610932366004614e44565b611e3d565b34801561094357600080fd5b5061050f611ea6565b34801561095857600080fd5b5061064161019f5481565b34801561096f57600080fd5b506106416101a45481565b34801561098657600080fd5b50610594611f04565b34801561099b57600080fd5b5061050f6109aa3660046150ea565b611f93565b3480156109bb57600080fd5b506105946120a0565b3480156109d057600080fd5b506106416109df366004614e44565b6120ae565b3480156109f057600080fd5b506106417fe516f7ac9747f401e208331379a0bafe3c9c4dbb6501fd23bcef278f7ebaf4e581565b348015610a2457600080fd5b5061050f6120fc565b348015610a3957600080fd5b5061050f612131565b348015610a4e57600080fd5b506106416101965481565b348015610a6557600080fd5b5061050f6121cd565b348015610a7a57600080fd5b506097546001600160a01b03166105c1565b348015610a9857600080fd5b506105c1610aa7366004615126565b6122ab565b348015610ab857600080fd5b506106416101a95481565b348015610acf57600080fd5b506104da610ade366004615103565b6122ca565b348015610aef57600080fd5b5061050f610afe366004614e44565b6122f5565b348015610b0f57600080fd5b50610b23610b1e3660046150ea565b6123a2565b6040805182516001600160a01b031681526020808401516001600160401b031690820152918101511515908201526060016104e6565b348015610b6557600080fd5b506105946123c8565b348015610b7a57600080fd5b506106416101a15481565b348015610b9157600080fd5b5061050f610ba03660046150ea565b6123d7565b348015610bb157600080fd5b5061050f610bc03660046150ea565b6124c0565b348015610bd157600080fd5b50610641600081565b348015610be657600080fd5b5061050f610bf5366004614fa9565b6125a9565b348015610c0657600080fd5b5061050f610c153660046152ae565b61263f565b348015610c2657600080fd5b50610641610c35366004614e44565b61019c6020526000908152604090205481565b348015610c5457600080fd5b50610641610c63366004614e44565b61284c565b348015610c7457600080fd5b5061050f610c83366004615034565b61288a565b61050f610c963660046150ea565b612983565b348015610ca757600080fd5b5061050f610cb63660046151f3565b612b2f565b348015610cc757600080fd5b5061050f610cd6366004614ece565b612bf3565b348015610ce757600080fd5b5061064160008051602061579083398151915281565b61050f610d0b3660046150ea565b612c3e565b348015610d1c57600080fd5b5061050f610d2b366004614e44565b612da2565b348015610d3c57600080fd5b506106416101975481565b348015610d5357600080fd5b506106416101a65481565b348015610d6a57600080fd5b50610594610d793660046150ea565b612e27565b348015610d8a57600080fd5b50610641610d993660046150ea565b613018565b348015610daa57600080fd5b5061050f610db9366004615103565b61302f565b348015610dca57600080fd5b506106416101955481565b348015610de157600080fd5b5061064161271081565b348015610df757600080fd5b50610641610e06366004614e44565b6130b3565b348015610e1757600080fd5b506098546001600160a01b03166105c1565b348015610e3557600080fd5b506106416000805160206157b083398151915281565b348015610e5757600080fd5b506104da610e66366004614e5f565b6001600160a01b039182166000908152606c6020908152604080832093909416825291909152205460ff1690565b348015610ea057600080fd5b5061050f610eaf36600461526b565b6130e1565b348015610ec057600080fd5b506106416101aa5481565b348015610ed757600080fd5b5061050f61326e565b348015610eec57600080fd5b506106417f427da25fe773164f88948d3e215c94b6554e2ed5e5f203a821c9f2f6131cf75a81565b348015610f2057600080fd5b506106416101945481565b348015610f3757600080fd5b5061050f610f46366004615182565b6132ad565b60006001600160e01b0319821663463ecd7560e01b1480610f705750610f7082613317565b92915050565b6097546001600160a01b03163314610fa157604051630202a8bf60e61b815260040160405180910390fd5b6109c4816001600160601b03161115610fcd576040516306f644f160e31b815260040160405180910390fd5b610fd78282613377565b6040516001600160601b03821681526001600160a01b038316907fd85b7816dca44c313f0fdadd9567f99f3620a2fac7c21a8a7872e1ac4d10fe55906020015b60405180910390a25050565b6101995460009081906001600160a01b03166110425750600091829150565b610199546001600160a01b031663ad9e22af306110626066546065540390565b6040516001600160e01b031960e085901b1681526001600160a01b0390921660048301526024820152604401604080518083038186803b1580156110a557600080fd5b505afa1580156110b9573d6000803e3d6000fd5b505050506040513d601f19601f820116820180604052508101906110dd91906150bc565b915091509091565b6097546001600160a01b0316331461111057604051630202a8bf60e61b815260040160405180910390fd5b6101a35480611132576040516356a4234d60e11b815260040160405180910390fd5b428111611152576040516338df794b60e01b815260040160405180910390fd5b814281101561117457604051639db169d760e01b815260040160405180910390fd5b6101a254831015611198576040516312d3f13560e01b815260040160405180910390fd5b826101a45410156111bc576040516335bcfe2b60e21b815260040160405180910390fd5b6101a38390556040518381527f9bcdfa29202b48178635d9cf5c57896f671198685cf6b8ddb5e20f3eb4bb1e60906020015b60405180910390a1505050565b60006101a2546000148061121057506101a354155b8061121c57506101a454155b8061122857506101a554155b8061123557506101a25442105b156112405750600090565b6101935460665460655403106112565750600590565b6101a254421015801561126b57506101a35442105b156112765750600290565b6101a354421015801561128b57506101a45442105b156112965750600390565b6101a45442101580156112ab57506101a55442105b156112b65750600490565b50600590565b6060606780546112cb9061567d565b80601f01602080910402602001604051908101604052809291908181526020018280546112f79061567d565b80156113445780601f1061131957610100808354040283529160200191611344565b820191906000526020600020905b81548152906001019060200180831161132757829003601f168201915b5050505050905090565b600061135982613475565b611376576040516333d1c03960e21b815260040160405180910390fd5b506000908152606b60205260409020546001600160a01b031690565b600061139d82611e2b565b9050806001600160a01b0316836001600160a01b031614156113d25760405163250fdee360e21b815260040160405180910390fd5b336001600160a01b038216148015906113f257506113f08133610e66565b155b15611410576040516367d9dca160e11b815260040160405180910390fd5b61141b8383836134a1565b505050565b6097546001600160a01b0316331461144b57604051630202a8bf60e61b815260040160405180910390fd5b804281101561146d57604051639db169d760e01b815260040160405180910390fd5b6101a68290556040518281527f90513fea331bb55e4ca73a8d0c053a255347ccb17c621338052705ea997383b3906020015b60405180910390a15050565b60fd5460ff16156114d75760405162461bcd60e51b81526004016114ce9061547d565b60405180910390fd5b6002806114e26111fb565b60058111156114f3576114f3615713565b14611511576040516338df794b60e01b815260040160405180910390fd5b6001600160601b03821661153857604051636e5fd58f60e01b815260040160405180910390fd5b33600090815261019c60205260409020546001600160601b0383161115611572576040516390e50aa560e01b815260040160405180910390fd5b61019554826001600160601b031661019e5461158e919061558e565b11156115ad57604051631eddc6a360e11b815260040160405180910390fd5b33600090815261019c6020526040812080546001600160601b03851692906115d69084906155fb565b92505081905550816001600160601b031661019e60008282546115f9919061558e565b90915550611609905033836134fd565b60006116156101a95490565b9050600061162c6001600160601b038516836155dc565b604080516001600160601b03871681526020810185905291925033917faaa4209473b0e01252afb37fc6a883231b6189d78f5fb75fec9d8345d716d6ba91015b60405180910390a261167d816135fc565b50505050565b6000805160206157908339815191526116a46097546001600160a01b031690565b6001600160a01b0316336001600160a01b0316141580156116cc57506116ca81336122ca565b155b156116f35760405163f9019a8d60e01b8152600481018290523360248201526044016114ce565b600261012f5414156117475760405162461bcd60e51b815260206004820152601f60248201527f5265656e7472616e637947756172643a207265656e7472616e742063616c6c0060448201526064016114ce565b600261012f5560fd5460ff16156117705760405162461bcd60e51b81526004016114ce9061547d565b426101a654118061178257506101a654155b156117a057604051633bd1a57d60e11b815260040160405180910390fd5b6101975447906000908190156118505761271061019754846117c291906155dc565b6117cc91906155c8565b91506117d882846155fb565b610198546040519194506001600160a01b0316908390600081818185875af1925050503d8060008114611827576040519150601f19603f3d011682016040523d82523d6000602084013e61182c565b606091505b5050809150508061185057604051633aa9e60d60e21b815260040160405180910390fd5b6040516001600160a01b038616908490600081818185875af1925050503d8060008114611899576040519150601f19603f3d011682016040523d82523d6000602084013e61189e565b606091505b505080915050806118c257604051633aa9e60d60e21b815260040160405180910390fd5b60408051848152602081018490526001600160a01b038716917f12eb5d7ccd4ce398edc94007dfbaa22fa2ac8775a3633530f36053ad765262f4910160405180910390a25050600161012f55505050565b61141b83838361369b565b6000828152610162602090815260408083208151808301909252546001600160a01b038116808352600160a01b9091046001600160601b0316928201929092528291611995575060408051808201909152610161546001600160a01b0381168252600160a01b90046001600160601b031660208201525b6020810151600090612710906119b4906001600160601b0316876155dc565b6119be91906155c8565b91519350909150505b9250929050565b81806119ed5760405163e466584960e01b815260040160405180910390fd5b6000838152609960205260409020600101546097546001600160a01b03163314801590611a215750611a1f81336122ca565b155b15611a485760405163f9019a8d60e01b8152600481018290523360248201526044016114ce565b61167d8484613886565b8180611a715760405163e466584960e01b815260040160405180910390fd5b61141b83836138a8565b600080516020615790833981519152611a9c6097546001600160a01b031690565b6001600160a01b0316336001600160a01b031614158015611ac45750611ac281336122ca565b155b15611aeb5760405163f9019a8d60e01b8152600481018290523360248201526044016114ce565b60fd5460ff1615611b0e5760405162461bcd60e51b81526004016114ce9061547d565b6101935482611b1b613922565b611b25919061558e565b1115611b4457604051631eddc6a360e11b815260040160405180910390fd5b610194548261019d54611b57919061558e565b1115611b765760405163011310dd60e31b815260040160405180910390fd5b8161019d54611b85919061558e565b61019d81905550611b9a338361019654613952565b60405182815233907f7d8400f0e58ae2e14f85b63f3afb0ca5b29328d8f48046b205fc7f174cf9b5ed90602001611017565b7f427da25fe773164f88948d3e215c94b6554e2ed5e5f203a821c9f2f6131cf75a611bff6097546001600160a01b031690565b6001600160a01b0316336001600160a01b031614158015611c275750611c2581336122ca565b155b15611c4e5760405163f9019a8d60e01b8152600481018290523360248201526044016114ce565b60fd5460ff16611c7157604051637514f14160e11b815260040160405180910390fd5b611c796139c8565b50565b61141b83838360405180602001604052806000815250612bf3565b6097546001600160a01b03163314611cc257604051630202a8bf60e61b815260040160405180910390fd5b611ccf61019a8383614cc5565b507ff9c7803e94e0d3c02900d8a90893a6d5e90dd04d32a4cfe825520f82bf9f32f661019a60405161149f91906153f8565b323314611d2157604051633059e46160e21b815260040160405180910390fd5b60fd5460ff1615611d445760405162461bcd60e51b81526004016114ce9061547d565b610199546001600160a01b0316611d6e5760405163114d098b60e31b815260040160405180910390fd5b610199546001600160a01b031663fbbc872b30611d8e6066546065540390565b6040516001600160e01b031960e085901b1681526001600160a01b0390921660048301526024820152604401602060405180830381600087803b158015611dd457600080fd5b505af1158015611de8573d6000803e3d6000fd5b505050506040513d601f19601f82011682018060405250810190611e0c919061509f565b611e295760405163fc58cf3f60e01b815260040160405180910390fd5b565b6000611e3682613a5b565b5192915050565b6001600160a01b03811660009081526101a8602052604081205480611e655750600092915050565b6101a7611e736001836155fb565b81548110611e8357611e8361573f565b600091825260209091200154600160a01b90046001600160601b03169392505050565b6097546001600160a01b03163314611ed157604051630202a8bf60e61b815260040160405180910390fd5b6098546001600160a01b0316611efa5760405163128be5bf60e31b815260040160405180910390fd5b611e296000613b75565b61019a8054611f129061567d565b80601f0160208091040260200160405190810160405280929190818152602001828054611f3e9061567d565b8015611f8b5780601f10611f6057610100808354040283529160200191611f8b565b820191906000526020600020905b815481529060010190602001808311611f6e57829003601f168201915b505050505081565b6097546001600160a01b03163314611fbe57604051630202a8bf60e61b815260040160405180910390fd5b6101a45480611fe0576040516356a4234d60e11b815260040160405180910390fd5b428111612000576040516338df794b60e01b815260040160405180910390fd5b814281101561202257604051639db169d760e01b815260040160405180910390fd5b6101a354831015612046576040516335bcfe2b60e21b815260040160405180910390fd5b826101a554101561206a57604051631e3804ab60e21b815260040160405180910390fd5b6101a48390556040518381527f4fe26bfd1cf59c4428b13357bea5ab8239f9889b3f94cd575f98b4c6811dcdc5906020016111ee565b61019b8054611f129061567d565b60006001600160a01b0382166120d7576040516323d3ad8160e21b815260040160405180910390fd5b506001600160a01b03166000908152606a60205260409020546001600160401b031690565b6097546001600160a01b0316331461212757604051630202a8bf60e61b815260040160405180910390fd5b611e296000613bbf565b6000805160206157b08339815191526121526097546001600160a01b031690565b6001600160a01b0316336001600160a01b03161415801561217a575061217881336122ca565b155b156121a15760405163f9019a8d60e01b8152600481018290523360248201526044016114ce565b60fd5460ff16156121c5576040516329c0c03160e11b815260040160405180910390fd5b611c79613bfe565b60fd5460ff16156121f05760405162461bcd60e51b81526004016114ce9061547d565b6101a354421015612214576040516338df794b60e01b815260040160405180910390fd5b600061221f33611e3d565b90508061223f576040516377348d3360e01b815260040160405180910390fd5b6122493382613c56565b8061019f600082825461225c919061558e565b90915550506101a954612273338361019654613952565b336000805160206157d083398151915283838161228f60655490565b61229991906155fb565b600260405161101794939291906154f2565b600082815260cb602052604081206122c39083613e5e565b9392505050565b60009182526099602090815260408084206001600160a01b0393909316845291905290205460ff1690565b6097546001600160a01b0316331461232057604051630202a8bf60e61b815260040160405180910390fd5b610199546001600160a01b03161561234b576040516310f038e160e01b815260040160405180910390fd5b60006101a55411801561236157506101a5544210155b1561237f576040516338df794b60e01b815260040160405180910390fd5b61019980546001600160a01b0319166001600160a01b0392909216919091179055565b6040805160608101825260008082526020820181905291810191909152610f7082613a5b565b6060606880546112cb9061567d565b6097546001600160a01b0316331461240257604051630202a8bf60e61b815260040160405180910390fd5b6101a25480612424576040516356a4234d60e11b815260040160405180910390fd5b428111612444576040516338df794b60e01b815260040160405180910390fd5b814281101561246657604051639db169d760e01b815260040160405180910390fd5b826101a354101561248a576040516312d3f13560e01b815260040160405180910390fd5b6101a28390556040518381527f9776e1b1502b2f97161fccc0d9f830da6ad81a796cf67c136801fd59dd0444cd906020016111ee565b6097546001600160a01b031633146124eb57604051630202a8bf60e61b815260040160405180910390fd5b6101a5548061250d576040516356a4234d60e11b815260040160405180910390fd5b42811161252d576040516338df794b60e01b815260040160405180910390fd5b814281101561254f57604051639db169d760e01b815260040160405180910390fd5b6101a45483101561257357604051631e3804ab60e21b815260040160405180910390fd5b6101a58390556040518381527fdb76c49adfe8600a5db82e1d85e7c1f7565676dac577c6a39744e9c95ad68e3c906020016111ee565b6001600160a01b0382163314156125d35760405163b06307db60e01b815260040160405180910390fd5b336000818152606c602090815260408083206001600160a01b03871680855290835292819020805460ff191686151590811790915590519081529192917f17307eab39ab6107e8899845ad3d59bd9653f200f220920489ca2b5937696c31910160405180910390a35050565b60fd5460ff16156126625760405162461bcd60e51b81526004016114ce9061547d565b6101a354421015612686576040516338df794b60e01b815260040160405180910390fd5b6001600160601b0381166126ad57604051636e5fd58f60e01b815260040160405180910390fd5b61019f5461019e5414156126d4576040516377348d3360e01b815260040160405180910390fd5b6101965460006126e46101a95490565b6101a75490915083906000905b60008111801561270a57506000836001600160601b0316115b1561281a5760006101a761271f6001846155fb565b8154811061272f5761272f61573f565b6000918252602091829020604080518082019091529101546001600160a01b03811682526001600160601b03600160a01b90910481169282018390529092508516101561277e57839250612791565b6020810151925061278e82615666565b91505b805161279d9084613c56565b6127a78385615612565b93506127c18160000151846001600160601b031688613952565b80516001600160a01b03166000805160206157d083398151915284876001600160601b0382166127f060655490565b6127fa91906155fb565b600260405161280c949392919061551d565b60405180910390a2506126f1565b506128258286615612565b6001600160601b031661019f6000828254612840919061558e565b90915550505050505050565b600061285782611e3d565b6001600160a01b0383166000908152606a6020526040902054600160401b90046001600160401b0316610f70919061558e565b6097546001600160a01b031633146128b557604051630202a8bf60e61b815260040160405180910390fd5b828181146128d657604051638d62a9d560e01b815260040160405180910390fd5b60005b81811015612952578383828181106128f3576128f361573f565b9050602002013561019c60008888858181106129115761291161573f565b90506020020160208101906129269190614e44565b6001600160a01b031681526020810191909152604001600020558061294a816156b8565b9150506128d9565b506040517f0df27beb8d16f5e61d125286ba69a986a702ac83921bb1864629ca5e662e84d490600090a15050505050565b3233146129a357604051633059e46160e21b815260040160405180910390fd5b60fd5460ff16156129c65760405162461bcd60e51b81526004016114ce9061547d565b6004806129d16111fb565b60058111156129e2576129e2615713565b14612a00576040516338df794b60e01b815260040160405180910390fd5b6101965482612a0e3361284c565b612a18919061558e565b1115612a37576040516335e62b7b60e21b815260040160405180910390fd5b600061019d5461019454612a4b91906155fb565b9050610193548382612a5b613922565b612a65919061558e565b612a6f919061558e565b1115612a8e57604051631eddc6a360e11b815260040160405180910390fd5b6000612a9a6101aa5490565b90506000612aa885836155dc565b9050612ac63386604051806020016040528060008152506000613e6a565b846101a16000828254612ad9919061558e565b909155503390506000805160206157d0833981519152868481612afb60655490565b612b0591906155fb565b6004604051612b1794939291906154f2565b60405180910390a2612b28816135fc565b5050505050565b600054610100900460ff16612b4a5760005460ff1615612b4e565b303b155b612bb15760405162461bcd60e51b815260206004820152602e60248201527f496e697469616c697a61626c653a20636f6e747261637420697320616c72656160448201526d191e481a5b9a5d1a585b1a5e995960921b60648201526084016114ce565b600054610100900460ff16158015612bd3576000805461ffff19166101011790555b612bdd8383614035565b801561141b576000805461ff0019169055505050565b612bfe84848461369b565b6001600160a01b0383163b15158015612c205750612c1e848484846142b5565b155b1561167d576040516368d2bf6b60e11b815260040160405180910390fd5b60fd5460ff1615612c615760405162461bcd60e51b81526004016114ce9061547d565b600380612c6c6111fb565b6005811115612c7d57612c7d615713565b14612c9b576040516338df794b60e01b815260040160405180910390fd5b33600090815261019c6020526040902054821115612ccc576040516390e50aa560e01b815260040160405180910390fd5b61019554826101a05461019e54612ce3919061558e565b612ced919061558e565b1115612d0c57604051631eddc6a360e11b815260040160405180910390fd5b33600090815261019c602052604081208054849290612d2c9084906155fb565b90915550506101a9546000612d4184836155dc565b9050612d51338561019654613952565b836101a06000828254612d64919061558e565b909155503390506000805160206157d0833981519152858481612d8660655490565b612d9091906155fb565b600360405161166c94939291906154f2565b6097546001600160a01b03163314612dcd57604051630202a8bf60e61b815260040160405180910390fd5b6001600160a01b038116612df4576040516386850cc360e01b815260040160405180910390fd5b6098546001600160a01b031615612e1e5760405163033c108960e01b815260040160405180910390fd5b611c7981613b75565b610199546060906001600160a01b0316612e6e5761019a612e47836143ad565b604051602001612e58929190615317565b6040516020818303038152906040529050919050565b61019954604051635e1578db60e11b81523060048201526001600160a01b039091169063bc2af1b69060240160206040518083038186803b158015612eb257600080fd5b505afa158015612ec6573d6000803e3d6000fd5b505050506040513d601f19601f82011682018060405250810190612eea9190615252565b8210612f835761019b8054612efe9061567d565b80601f0160208091040260200160405190810160405280929190818152602001828054612f2a9061567d565b8015612f775780601f10612f4c57610100808354040283529160200191612f77565b820191906000526020600020905b815481529060010190602001808311612f5a57829003601f168201915b50505050509050919050565b61019954604051631f4b3c0160e11b81523060048201526024810184905261019a91612e47916001600160a01b0390911690633e9678029060440160206040518083038186803b158015612fd657600080fd5b505afa158015612fea573d6000803e3d6000fd5b505050506040513d601f19601f8201168201806040525081019061300e9190615252565b6143ad565b919050565b600081815260cb60205260408120610f70906144aa565b818061304e5760405163e466584960e01b815260040160405180910390fd5b6000838152609960205260409020600101546097546001600160a01b03163314801590613082575061308081336122ca565b155b156130a95760405163f9019a8d60e01b8152600481018290523360248201526044016114ce565b61167d84846144b4565b6001600160a01b0381166000908152606a6020526040812054600160401b90046001600160401b0316610f70565b6097546001600160a01b0316331461310c57604051630202a8bf60e61b815260040160405180910390fd5b6000806131176111fb565b600581111561312857613128615713565b14613146576040516338df794b60e01b815260040160405180910390fd5b4287101561316757604051639db169d760e01b815260040160405180910390fd5b86861015613188576040516312d3f13560e01b815260040160405180910390fd5b858510156131a9576040516335bcfe2b60e21b815260040160405180910390fd5b848410156131ca57604051631e3804ab60e21b815260040160405180910390fd5b818311156131eb57604051631da61f9760e11b815260040160405180910390fd5b6101aa8290556101a98390556101a28790556101a38690556101a48590556101a58490556040805188815260208101889052908101869052606081018590526080810184905260a081018390527f880fa85ac6969827fc8f6a2a8b236fc9789ece8c82b41b17d0865b747de1b9139060c00160405180910390a150505050505050565b6098546001600160a01b031633141580613286575033155b156132a45760405163134aa98760e31b815260040160405180910390fd5b611e2933613bbf565b6097546001600160a01b031633146132d857604051630202a8bf60e61b815260040160405180910390fd5b6132e561019b8383614cc5565b507f4012c6d278d4b460acbc560e9fa4425e187c3b40c848b8dfa248139729efee4361019b60405161149f91906153f8565b60006001600160e01b0319821662d767f560e71b148061333b575061333b826144d6565b8061334a575061334a82614516565b8061335957506133598261453b565b80613368575061336882614551565b80610f705750610f7082614516565b6127106001600160601b03821611156133e55760405162461bcd60e51b815260206004820152602a60248201527f455243323938313a20726f79616c7479206665652077696c6c206578636565646044820152692073616c65507269636560b01b60648201526084016114ce565b6001600160a01b03821661343b5760405162461bcd60e51b815260206004820152601960248201527f455243323938313a20696e76616c69642072656365697665720000000000000060448201526064016114ce565b604080518082019091526001600160a01b039092168083526001600160601b039091166020909201829052600160a01b9091021761016155565b600060655482108015610f70575050600090815260696020526040902054600160e01b900460ff161590565b6000828152606b602052604080822080546001600160a01b0319166001600160a01b0387811691821790925591518593918516917f8c5be1e5ebec7d5bd14f71427d1e84f3dd0314c0f7b2291e5b200ac8c7c3b92591a4505050565b6001600160a01b03821660009081526101a860205260409020546101a790801561359257828261352e6001846155fb565b8154811061353e5761353e61573f565b60009182526020909120018054601490613569908490600160a01b90046001600160601b03166155a6565b92506101000a8154816001600160601b0302191690836001600160601b0316021790555061167d565b506040805180820182526001600160a01b039485168082526001600160601b039485166020808401918252855460018082018855600088815283812096519451909916600160a01b0293909916929092179390910192909255835490855294909201909152902055565b8034101561361f57604051639968ec3d60e01b81523460048201526024016114ce565b80341115611c795760003361363483346155fb565b604051600081818185875af1925050503d8060008114613670576040519150601f19603f3d011682016040523d82523d6000602084013e613675565b606091505b505090508061369757604051633aa9e60d60e21b815260040160405180910390fd5b5050565b60006136a682613a5b565b9050836001600160a01b031681600001516001600160a01b0316146136dd5760405162a1148160e81b815260040160405180910390fd5b6000336001600160a01b03861614806136fb57506136fb8533610e66565b8061371657503361370b8461134e565b6001600160a01b0316145b90508061373657604051632ce44b5f60e11b815260040160405180910390fd5b6001600160a01b03841661375d57604051633a954ecd60e21b815260040160405180910390fd5b613769600084876134a1565b6001600160a01b038581166000908152606a60209081526040808320805467ffffffffffffffff198082166001600160401b0392831660001901831617909255898616808652838620805493841693831660019081018416949094179055898652606990945282852080546001600160e01b031916909417600160a01b4290921691909102178355870180845292208054919390911661383d57606554821461383d57805460208601516001600160401b0316600160a01b026001600160e01b03199091166001600160a01b038a16171781555b50505082846001600160a01b0316866001600160a01b03167fddf252ad1be2c89b69c2b068fc378daa952ba7f163c4a11628f55a4df523b3ef60405160405180910390a4612b28565b6138908282614576565b600082815260cb6020526040902061141b90826145fc565b6001600160a01b03811633146139185760405162461bcd60e51b815260206004820152602f60248201527f416363657373436f6e74726f6c3a2063616e206f6e6c792072656e6f756e636560448201526e103937b632b9903337b91039b2b63360891b60648201526084016114ce565b61369782826144b4565b600061019f5461019e546139396066546065540390565b613943919061558e565b61394d91906155fb565b905090565b600061395e82846155c8565b905060005b81811015613997576139878584604051806020016040528060008152506000613e6a565b613990816156b8565b9050613963565b5060006139a483856156d3565b90508015612b2857612b288582604051806020016040528060008152506000613e6a565b60fd5460ff16613a115760405162461bcd60e51b815260206004820152601460248201527314185d5cd8589b194e881b9bdd081c185d5cd95960621b60448201526064016114ce565b60fd805460ff191690557f5db9ee0a495bf2e6ff9c91a7834c1ba4fdd244a5e8aa4e537bd38aeae4b073aa335b6040516001600160a01b03909116815260200160405180910390a1565b604080516060810182526000808252602082018190529181019190915281606554811015613b5c57600081815260696020908152604091829020825160608101845290546001600160a01b0381168252600160a01b81046001600160401b031692820192909252600160e01b90910460ff16151591810182905290613b5a5780516001600160a01b031615613af1579392505050565b5060001901600081815260696020908152604091829020825160608101845290546001600160a01b038116808352600160a01b82046001600160401b031693830193909352600160e01b900460ff1615159281019290925215613b55579392505050565b613af1565b505b604051636f96cda160e11b815260040160405180910390fd5b609880546001600160a01b0319166001600160a01b0383169081179091556040517f68f49b346b94582a8b5f9d10e3fe3365318fe8f191ff8dce7c59c6cad06b02f590600090a250565b613bdb6000613bd66097546001600160a01b031690565b6144b4565b6001600160a01b03811615613bf557613bf5600082613886565b611c7981614611565b60fd5460ff1615613c215760405162461bcd60e51b81526004016114ce9061547d565b60fd805460ff191660011790557f62e78cea01bee320cd4e420270b5ea74000d11b0c9f74754ebdbfc544b05a258613a3e3390565b6001600160a01b03821660009081526101a860205260409020546101a790801561167d57600082613c886001846155fb565b81548110613c9857613c9861573f565b60009182526020822001546001600160601b03600160a01b9091048116925085168211613cc6576000613cd0565b613cd08583615612565b90506001600160601b038116613e07576000613ced6001856155fb565b8554909150600090613d01906001906155fb565b9050808214613dbc576000866000018281548110613d2157613d2161573f565b6000918252602091829020604080518082019091529101546001600160a01b0381168252600160a01b90046001600160601b03169181019190915287549091508190889085908110613d7557613d7561573f565b600091825260208083208451948201516001600160601b0316600160a01b026001600160a01b03958616179201919091559251909116815260018801909152604090208590555b8554869080613dcd57613dcd615729565b6000828152602080822083016000199081018390559092019092556001600160a01b038a168252600188019052604081205550613e569050565b8084613e146001866155fb565b81548110613e2457613e2461573f565b9060005260206000200160000160146101000a8154816001600160601b0302191690836001600160601b031602179055505b505050505050565b60006122c3838361466e565b6065546001600160a01b038516613e9357604051622e076360e81b815260040160405180910390fd5b83613eb15760405163b562e8dd60e01b815260040160405180910390fd5b6001600160a01b0385166000818152606a6020908152604080832080546fffffffffffffffffffffffffffffffff1981166001600160401b038083168c018116918217600160401b67ffffffffffffffff1990941690921783900481168c01811690920217909155858452606990925290912080546001600160e01b031916909217600160a01b429092169190910217905580808501838015613f5d57506001600160a01b0387163b15155b15613fe6575b60405182906001600160a01b038916906000907fddf252ad1be2c89b69c2b068fc378daa952ba7f163c4a11628f55a4df523b3ef908290a4613fae60008884806001019550886142b5565b613fcb576040516368d2bf6b60e11b815260040160405180910390fd5b80821415613f63578260655414613fe157600080fd5b61402c565b5b6040516001830192906001600160a01b038916906000907fddf252ad1be2c89b69c2b068fc378daa952ba7f163c4a11628f55a4df523b3ef908290a480821415613fe7575b50606555612b28565b600054610100900460ff1661405c5760405162461bcd60e51b81526004016114ce906154a7565b614064614698565b61406c6146d7565b614074614706565b6140fd6140818380615548565b8080601f0160208091040260200160405190810160405280939291908181526020018383808284376000920191909152506140c3925050506020850185615548565b8080601f01602080910402602001604051908101604052809392919081815260200183838082843760009201919091525061472d92505050565b600061410c6020830183614e44565b6001600160a01b03161415614134576040516313d8249360e31b815260040160405180910390fd5b60006141466040830160208401614e44565b6001600160a01b0316141561416e576040516331ae7ba360e21b815260040160405180910390fd5b608082013515806141935750608082013561419160e084013560a085013561558e565b115b156141b157604051631a231d4360e21b815260040160405180910390fd5b8160800135826060013511156141da5760405163318e1f1760e01b815260040160405180910390fd5b6141f56141ed6060830160408401614e44565b6101f4613377565b6142116080820180359061420c9060608501614e44565b61475e565b6142216060830160408401614e44565b61019980546001600160a01b0319166001600160a01b039290921691909117905560808201356101935560608201356101965560a08201356101945560e08201356101955561427e6000805160206157b0833981519152336119ce565b6142a060008051602061579083398151915261079c6040840160208501614e44565b6136976142b06020830183614e44565b613bbf565b604051630a85bd0160e11b81526000906001600160a01b0385169063150b7a02906142ea90339089908890889060040161539a565b602060405180830381600087803b15801561430457600080fd5b505af1925050508015614334575060408051601f3d908101601f1916820190925261433191810190615165565b60015b61438f573d808015614362576040519150601f19603f3d011682016040523d82523d6000602084013e614367565b606091505b508051614387576040516368d2bf6b60e11b815260040160405180910390fd5b805181602001fd5b6001600160e01b031916630a85bd0160e11b1490505b949350505050565b6060816143d15750506040805180820190915260018152600360fc1b602082015290565b8160005b81156143fb57806143e5816156b8565b91506143f49050600a836155c8565b91506143d5565b6000816001600160401b0381111561441557614415615755565b6040519080825280601f01601f19166020018201604052801561443f576020820181803683370190505b5090505b84156143a5576144546001836155fb565b9150614461600a866156d3565b61446c90603061558e565b60f81b8183815181106144815761448161573f565b60200101906001600160f81b031916908160001a9053506144a3600a866155c8565b9450614443565b6000610f70825490565b6144be8282614804565b600082815260cb6020526040902061141b908261486b565b60006001600160e01b031982166380ac58cd60e01b148061450757506001600160e01b03198216635b5e139f60e01b145b80610f705750610f708261453b565b60006001600160e01b0319821663152a902d60e11b1480610f705750610f7082614551565b6001600160e01b0319166301ffc9a760e01b1490565b60006001600160e01b0319821663f3353d7760e01b1480610f705750610f7082614880565b61458082826122ca565b6136975760008281526099602090815260408083206001600160a01b03851684529091529020805460ff191660011790556145b83390565b6001600160a01b0316816001600160a01b0316837f2f8788117e7eff1d82e926ec794901d17c78024a50270940304540a733656f0d60405160405180910390a45050565b60006122c3836001600160a01b03841661489a565b609780546001600160a01b038381166001600160a01b03198084168217909455609880549094169093556040519116919082907f8be0079c531659141344cd1fd0a4f28419497f9722a3daafe3b4186f6b6457e090600090a35050565b60008260000182815481106146855761468561573f565b9060005260206000200154905092915050565b600054610100900460ff166146bf5760405162461bcd60e51b81526004016114ce906154a7565b6146c76148e9565b6146cf614928565b611e29614957565b600054610100900460ff166146fe5760405162461bcd60e51b81526004016114ce906154a7565b611e29614a00565b600054610100900460ff16611e295760405162461bcd60e51b81526004016114ce906154a7565b600054610100900460ff166147545760405162461bcd60e51b81526004016114ce906154a7565b6136978282614a2f565b612710821115614781576040516346b7d95d60e11b815260040160405180910390fd5b6001600160a01b0381166147a857604051631a1b629760e21b815260040160405180910390fd5b61019782905561019880546001600160a01b0319166001600160a01b0383169081179091556040805184815260208101929092527fd7d086964f00d2604a80288c460231fe9cfc8e9605e838d49017401111f63adb910161149f565b61480e82826122ca565b156136975760008281526099602090815260408083206001600160a01b0385168085529252808320805460ff1916905551339285917ff6391f5c32d9c69d2a47ea670b442974b53935d1edc7fd64eb21e047a839171b9190a45050565b60006122c3836001600160a01b038416614a87565b600061488b82614b7a565b80610f705750610f7082614b9f565b60008181526001830160205260408120546148e157508154600181810184556000848152602080822090930184905584548482528286019093526040902091909155610f70565b506000610f70565b600054610100900460ff166149105760405162461bcd60e51b81526004016114ce906154a7565b614918614bc4565b614920614706565b611e29614706565b600054610100900460ff1661494f5760405162461bcd60e51b81526004016114ce906154a7565b611e29614bfb565b600054610100900460ff1661497e5760405162461bcd60e51b81526004016114ce906154a7565b6149b66000805160206157b08339815191527fe0e65c783ac33ff1c5ccf4399c9185066773921d6f8d050bf80781603021f097614c2e565b611e297f427da25fe773164f88948d3e215c94b6554e2ed5e5f203a821c9f2f6131cf75a7fe516f7ac9747f401e208331379a0bafe3c9c4dbb6501fd23bcef278f7ebaf4e5614c2e565b600054610100900460ff16614a275760405162461bcd60e51b81526004016114ce906154a7565b600161012f55565b600054610100900460ff16614a565760405162461bcd60e51b81526004016114ce906154a7565b8151614a69906067906020850190614d49565b508051614a7d906068906020840190614d49565b5060006065555050565b60008181526001830160205260408120548015614b70576000614aab6001836155fb565b8554909150600090614abf906001906155fb565b9050818114614b24576000866000018281548110614adf57614adf61573f565b9060005260206000200154905080876000018481548110614b0257614b0261573f565b6000918252602080832090910192909255918252600188019052604090208390555b8554869080614b3557614b35615729565b600190038181906000526020600020016000905590558560010160008681526020019081526020016000206000905560019350505050610f70565b6000915050610f70565b60006001600160e01b031982166322d7505760e11b1480610f705750610f70826144d6565b60006001600160e01b03198216635a05180f60e01b1480610f705750610f7082614c79565b600054610100900460ff16614beb5760405162461bcd60e51b81526004016114ce906154a7565b614bf3614706565b611e29614c9e565b600054610100900460ff16614c225760405162461bcd60e51b81526004016114ce906154a7565b60fd805460ff19169055565b600082815260996020526040808220600101805490849055905190918391839186917fbd79b86ffe0ab8e8776151514217cd7cacd52c909f66475c3af44e129f0b00ff9190a4505050565b60006001600160e01b03198216637965db0b60e01b1480610f705750610f7082614b7a565b600054610100900460ff166132a45760405162461bcd60e51b81526004016114ce906154a7565b828054614cd19061567d565b90600052602060002090601f016020900481019282614cf35760008555614d39565b82601f10614d0c5782800160ff19823516178555614d39565b82800160010185558215614d39579182015b82811115614d39578235825591602001919060010190614d1e565b50614d45929150614dbd565b5090565b828054614d559061567d565b90600052602060002090601f016020900481019282614d775760008555614d39565b82601f10614d9057805160ff1916838001178555614d39565b82800160010185558215614d39579182015b82811115614d39578251825591602001919060010190614da2565b5b80821115614d455760008155600101614dbe565b80356001600160a01b038116811461301357600080fd5b60008083601f840112614dfb57600080fd5b5081356001600160401b03811115614e1257600080fd5b6020830191508360208260051b85010111156119c757600080fd5b80356001600160601b038116811461301357600080fd5b600060208284031215614e5657600080fd5b6122c382614dd2565b60008060408385031215614e7257600080fd5b614e7b83614dd2565b9150614e8960208401614dd2565b90509250929050565b600080600060608486031215614ea757600080fd5b614eb084614dd2565b9250614ebe60208501614dd2565b9150604084013590509250925092565b60008060008060808587031215614ee457600080fd5b614eed85614dd2565b9350614efb60208601614dd2565b92506040850135915060608501356001600160401b0380821115614f1e57600080fd5b818701915087601f830112614f3257600080fd5b813581811115614f4457614f44615755565b604051601f8201601f19908116603f01168101908382118183101715614f6c57614f6c615755565b816040528281528a6020848701011115614f8557600080fd5b82602086016020830137600060208483010152809550505050505092959194509250565b60008060408385031215614fbc57600080fd5b614fc583614dd2565b91506020830135614fd58161576b565b809150509250929050565b60008060408385031215614ff357600080fd5b614ffc83614dd2565b946020939093013593505050565b6000806040838503121561501d57600080fd5b61502683614dd2565b9150614e8960208401614e2d565b6000806000806040858703121561504a57600080fd5b84356001600160401b038082111561506157600080fd5b61506d88838901614de9565b9096509450602087013591508082111561508657600080fd5b5061509387828801614de9565b95989497509550505050565b6000602082840312156150b157600080fd5b81516122c38161576b565b600080604083850312156150cf57600080fd5b82516150da8161576b565b6020939093015192949293505050565b6000602082840312156150fc57600080fd5b5035919050565b6000806040838503121561511657600080fd5b82359150614e8960208401614dd2565b6000806040838503121561513957600080fd5b50508035926020909101359150565b60006020828403121561515a57600080fd5b81356122c381615779565b60006020828403121561517757600080fd5b81516122c381615779565b6000806020838503121561519557600080fd5b82356001600160401b03808211156151ac57600080fd5b818501915085601f8301126151c057600080fd5b8135818111156151cf57600080fd5b8660208285010111156151e157600080fd5b60209290920196919550909350505050565b60008082840360c081121561520757600080fd5b83356001600160401b0381111561521d57600080fd5b8401610100818703121561523057600080fd5b925060a0601f198201121561524457600080fd5b506020830190509250929050565b60006020828403121561526457600080fd5b5051919050565b60008060008060008060c0878903121561528457600080fd5b505084359660208601359650604086013595606081013595506080810135945060a0013592509050565b6000602082840312156152c057600080fd5b6122c382614e2d565b600081518084526152e181602086016020860161563a565b601f01601f19169290920160200192915050565b6006811061531357634e487b7160e01b600052602160045260246000fd5b9052565b60008084546153258161567d565b6001828116801561533d576001811461534e5761537d565b60ff1984168752828701945061537d565b8860005260208060002060005b858110156153745781548a82015290840190820161535b565b50505082870194505b50505050835161539181836020880161563a565b01949350505050565b6001600160a01b03858116825284166020820152604081018390526080606082018190526000906153cd908301846152c9565b9695505050505050565b60208101610f7082846152f5565b6020815260006122c360208301846152c9565b600060208083526000845461540c8161567d565b8084870152604060018084166000811461542d57600181146154415761546f565b60ff1985168984015260608901955061546f565b896000528660002060005b858110156154675781548b820186015290830190880161544c565b8a0184019650505b509398975050505050505050565b60208082526010908201526f14185d5cd8589b194e881c185d5cd95960821b604082015260600190565b6020808252602b908201527f496e697469616c697a61626c653a20636f6e7472616374206973206e6f74206960408201526a6e697469616c697a696e6760a81b606082015260800190565b84815260208101849052604081018390526080810161551460608301846152f5565b95945050505050565b6001600160601b038516815260208101849052604081018390526080810161551460608301846152f5565b6000808335601e1984360301811261555f57600080fd5b8301803591506001600160401b0382111561557957600080fd5b6020019150368190038213156119c757600080fd5b600082198211156155a1576155a16156e7565b500190565b60006001600160601b03808316818516808303821115615391576153916156e7565b6000826155d7576155d76156fd565b500490565b60008160001904831182151516156155f6576155f66156e7565b500290565b60008282101561560d5761560d6156e7565b500390565b60006001600160601b0383811690831681811015615632576156326156e7565b039392505050565b60005b8381101561565557818101518382015260200161563d565b8381111561167d5750506000910152565b600081615675576156756156e7565b506000190190565b600181811c9082168061569157607f821691505b602082108114156156b257634e487b7160e01b600052602260045260246000fd5b50919050565b60006000198214156156cc576156cc6156e7565b5060010190565b6000826156e2576156e26156fd565b500690565b634e487b7160e01b600052601160045260246000fd5b634e487b7160e01b600052601260045260246000fd5b634e487b7160e01b600052602160045260246000fd5b634e487b7160e01b600052603160045260246000fd5b634e487b7160e01b600052603260045260246000fd5b634e487b7160e01b600052604160045260246000fd5b8015158114611c7957600080fd5b6001600160e01b031981168114611c7957600080fdfe770fadb28e0e3026382976ee8b810cb0eb8666922148dd9e10b20cfb9b477ba865d7a28e3265b37a6474929f336521b332c1681b933f6cb9f3376673440d862abb20f716bd7ca9427b818f6de485952ab3a5acec2559fb794e3f9a4d9f70e722a26469706673582212202c50926439136400123de4a85b8d8e7a98ff5111ea631e43d96568e53f53c7f864736f6c63430008060033",
  "devdoc": {
    "author": "Trader Joe",
    "events": {
      "Initialized(uint256,uint256,uint256,uint256,uint256,uint256)": {
        "details": "Emitted on initializePhases()",
        "params": {
          "allowlistPrice": "Price of the allowlist sale in Avax",
          "allowlistStartTime": "Allowlist mint start time in seconds",
          "preMintStartTime": "Pre-mint start time in seconds",
          "publicSaleEndTime": "Public sale end time in seconds",
          "publicSaleStartTime": "Public sale start time in seconds",
          "salePrice": "Price of the public sale in Avax"
        }
      }
    },
    "kind": "dev",
    "methods": {
      "allowlistMint(uint256)": {
        "params": {
          "_quantity": "Quantity of NFTs to mint"
        }
      },
      "approve(address,uint256)": {
        "details": "See {IERC721-approve}."
      },
      "balanceOf(address)": {
        "details": "See {IERC721-balanceOf}."
      },
      "batchClaimPreMint(uint96)": {
        "params": {
          "_maxQuantity": "Max quantity of NFTs to mint"
        }
      },
      "currentPhase()": {
        "returns": {
          "_0": "phase Current phase"
        }
      },
      "devMint(uint256)": {
        "details": "Can only mint up to `amountForDevs`",
        "params": {
          "_quantity": "Quantity of NFTs to mint"
        }
      },
      "getApproved(uint256)": {
        "details": "See {IERC721-getApproved}."
      },
      "getOwnershipData(uint256)": {
        "params": {
          "_tokenId": "Token ID"
        },
        "returns": {
          "_0": "TokenOwnership Ownership struct for a specific token ID"
        }
      },
      "getRoleAdmin(bytes32)": {
        "details": "Returns the admin role that controls `role`. See {grantRole} and {revokeRole}. To change a role's admin, use {_setRoleAdmin}."
      },
      "getRoleMember(bytes32,uint256)": {
        "details": "Returns one of the accounts that have `role`. `index` must be a value between 0 and {getRoleMemberCount}, non-inclusive. Role bearers are not sorted in any particular way, and their ordering may change at any point. WARNING: When using {getRoleMember} and {getRoleMemberCount}, make sure you perform all queries on the same block. See the following https://forum.openzeppelin.com/t/iterating-over-elements-on-enumerableset-in-openzeppelin-contracts/2296[forum post] for more information."
      },
      "getRoleMemberCount(bytes32)": {
        "details": "Returns the number of accounts that have `role`. Can be used together with {getRoleMember} to enumerate all bearers of a role."
      },
      "grantRole(bytes32,address)": {
        "details": "If `account` had not been already granted `role`, emits a {RoleGranted} event. Requirements: - the caller must be the `owner` or have ``role``'s admin role. - the role granted can't be `DEFAULT_ADMIN`",
        "params": {
          "account": "The address of the account",
          "role": "The role to grant"
        }
      },
      "hasBatchToReveal()": {
        "returns": {
          "_0": "bool Whether reveal can be triggered or not",
          "_1": "uint256 The number of the next batch that will be revealed"
        }
      },
      "hasRole(bytes32,address)": {
        "details": "Returns `true` if `account` has been granted `role`."
      },
      "initialize((string,string,address,uint256,uint256,uint256,uint256,uint256),(address,address,address,address,uint256))": {
        "params": {
          "_collectionData": "Launchpeg collection data",
          "_ownerData": "Launchpeg owner data"
        }
      },
      "initializeBatchReveal(address)": {
        "details": "Can only be set once. Cannot be initialized once sale has ended.",
        "params": {
          "_batchReveal": "Batch reveal contract address"
        }
      },
      "initializePhases(uint256,uint256,uint256,uint256,uint256,uint256)": {
        "details": "Can only be called once",
        "params": {
          "_allowlistPrice": "Price of the allowlist sale in Avax",
          "_allowlistStartTime": "Allowlist mint start time in seconds",
          "_preMintStartTime": "Pre-mint start time in seconds",
          "_publicSaleEndTime": "Public sale end time in seconds",
          "_publicSaleStartTime": "Public sale start time in seconds",
          "_salePrice": "Price of the public sale in Avax"
        }
      },
      "isApprovedForAll(address,address)": {
        "details": "See {IERC721-isApprovedForAll}."
      },
      "name()": {
        "details": "See {IERC721Metadata-name}."
      },
      "numberMinted(address)": {
        "params": {
          "_owner": "The owner of the NFTs"
        },
        "returns": {
          "_0": "numberMinted Number of NFTs minted"
        }
      },
      "owner()": {
        "returns": {
          "_0": "The address of the current owner"
        }
      },
      "ownerOf(uint256)": {
        "details": "See {IERC721-ownerOf}."
      },
      "pause()": {
        "details": "Sensible part of a contract might be pausable for security reasons. Requirements: - the caller must be the `owner` or have the ``role`` role. - the contrat needs to be unpaused."
      },
      "paused()": {
        "details": "Returns true if the contract is paused, and false otherwise."
      },
      "pendingOwner()": {
        "returns": {
          "_0": "The address of the current pending owner"
        }
      },
      "preMint(uint96)": {
        "params": {
          "_quantity": "Quantity of NFTs to mint"
        }
      },
      "publicSaleMint(uint256)": {
        "params": {
          "_quantity": "Quantity of NFTs to mint"
        }
      },
      "renounceRole(bytes32,address)": {
        "details": "Roles are often managed via {grantRole} and {revokeRole}: this function's purpose is to provide a mechanism for accounts to lose their privileges if they are compromised (such as when a trusted device is misplaced). If the calling account had been revoked `role`, emits a {RoleRevoked} event. Requirements: - the caller must be `account`. - the role renounced can't be `DEFAULT_ADMIN`",
        "params": {
          "account": "The address of the account",
          "role": "The role to renounce"
        }
      },
      "revokeRole(bytes32,address)": {
        "details": "If `account` had been granted `role`, emits a {RoleRevoked} event. Requirements: - the caller must be the `owner` or have ``role``'s admin role. - the role revoked can't be `DEFAULT_ADMIN`",
        "params": {
          "account": "The address of the account",
          "role": "The role to revoke"
        }
      },
      "royaltyInfo(uint256,uint256)": {
        "details": "Returns how much royalty is owed and to whom, based on a sale price that may be denominated in any unit of exchange. The royalty amount is denominated and should be payed in that same unit of exchange."
      },
      "safeTransferFrom(address,address,uint256)": {
        "details": "See {IERC721-safeTransferFrom}."
      },
      "safeTransferFrom(address,address,uint256,bytes)": {
        "details": "See {IERC721-safeTransferFrom}."
      },
      "seedAllowlist(address[],uint256[])": {
        "params": {
          "_addresses": "List of addresses allowed to mint during the allowlist phase",
          "_numNfts": "List of NFT quantities mintable per address"
        }
      },
      "setAllowlistStartTime(uint256)": {
        "details": "Only callable by owner",
        "params": {
          "_allowlistStartTime": "New allowlist start time"
        }
      },
      "setApprovalForAll(address,bool)": {
        "details": "See {IERC721-setApprovalForAll}."
      },
      "setBaseURI(string)": {
        "details": "This sets the URI for revealed tokens Only callable by project owner",
        "params": {
          "_baseURI": "Base URI to be set"
        }
      },
      "setPreMintStartTime(uint256)": {
        "details": "Only callable by owner",
        "params": {
          "_preMintStartTime": "New pre-mint start time"
        }
      },
      "setPublicSaleEndTime(uint256)": {
        "details": "Only callable by owner",
        "params": {
          "_publicSaleEndTime": "New public sale end time"
        }
      },
      "setPublicSaleStartTime(uint256)": {
        "details": "Only callable by owner",
        "params": {
          "_publicSaleStartTime": "New public sale start time"
        }
      },
      "setRoyaltyInfo(address,uint96)": {
        "params": {
          "_feePercent": "Royalty fee percent in basis point",
          "_receiver": "Royalty fee collector"
        }
      },
      "setUnrevealedURI(string)": {
        "details": "Only callable by project owner",
        "params": {
          "_unrevealedURI": "Unrevealed URI to be set"
        }
      },
      "setWithdrawAVAXStartTime(uint256)": {
        "params": {
          "_withdrawAVAXStartTime": "New public sale end time"
        }
      },
      "supportsInterface(bytes4)": {
        "details": "Returns true if this contract implements the interface defined by `interfaceId`. See the corresponding https://eips.ethereum.org/EIPS/eip-165#how-interfaces-are-identified[EIP section] to learn more about how these IDs are created. This function call must use less than 30 000 gas.",
        "params": {
          "_interfaceId": "InterfaceId to consider. Comes from type(Interface).interfaceId"
        },
        "returns": {
          "_0": "isInterfaceSupported True if the considered interface is supported"
        }
      },
      "symbol()": {
        "details": "See {IERC721Metadata-symbol}."
      },
      "tokenURI(uint256)": {
        "params": {
          "_id": "Token id"
        },
        "returns": {
          "_0": "URI Token URI"
        }
      },
      "totalSupply()": {
        "details": "Burned tokens are calculated here, use _totalMinted() if you want to count just minted tokens."
      },
      "transferFrom(address,address,uint256)": {
        "details": "See {IERC721-transferFrom}."
      },
      "unpause()": {
        "details": "Sensible part of a contract might be pausable for security reasons. Requirements: - the caller must be the `owner` or have the ``role`` role. - the contrat needs to be unpaused."
      },
      "userPendingPreMints(address)": {
        "params": {
          "_user": "user address"
        }
      },
      "withdrawAVAX(address)": {
        "params": {
          "_to": "Recipient of the earned AVAX"
        }
      }
    },
    "stateVariables": {
      "allowlistPrice": {
        "details": "allowlistPrice is scaled to 1e18"
      },
      "salePrice": {
        "details": "salePrice is scaled to 1e18"
      }
    },
    "title": "FlatLaunchpeg",
    "version": 1
  },
  "userdoc": {
    "kind": "user",
    "methods": {
      "BASIS_POINT_PRECISION()": {
        "notice": "Percentage base point"
      },
      "PROJECT_OWNER_ROLE()": {
        "notice": "Role granted to project owners"
      },
      "allowlist(address)": {
        "notice": "The amount of NFTs each allowed address can mint during the pre-mint or allowlist mint"
      },
      "allowlistMint(uint256)": {
        "notice": "Mint NFTs during the allowlist mint"
      },
      "allowlistPrice()": {
        "notice": "Price of one NFT for people on the mint list"
      },
      "allowlistStartTime()": {
        "notice": "Start time of the allowlist mint in seconds"
      },
      "amountClaimedDuringPreMint()": {
        "notice": "Tracks the amount of pre-minted NFTs that have been claimed"
      },
      "amountForAllowlist()": {
        "notice": "Amount of NFTs available for the allowlist mint (e.g 1000)"
      },
      "amountForDevs()": {
        "notice": "Amount of NFTs reserved for the project owner (e.g 200)"
      },
      "amountMintedByDevs()": {
        "notice": "Tracks the amount of NFTs minted by `projectOwner`"
      },
      "amountMintedDuringAllowlist()": {
        "notice": "Tracks the amount of NFTs minted on Allowlist phase"
      },
      "amountMintedDuringPreMint()": {
        "notice": "Tracks the amount of NFTs minted in the Pre-Mint phase"
      },
      "amountMintedDuringPublicSale()": {
        "notice": "Tracks the amount of NFTs minted on Public Sale phase"
      },
      "baseURI()": {
        "notice": "Token URI after collection reveal"
      },
      "batchClaimPreMint(uint96)": {
        "notice": "Claim pre-minted NFTs for users"
      },
      "batchReveal()": {
        "notice": "Batch reveal contract"
      },
      "becomeOwner()": {
        "notice": "Transfers the ownership to the new owner (`pendingOwner`). Can only be called by the pending owner"
      },
      "claimPreMint()": {
        "notice": "Claim pre-minted NFTs"
      },
      "collectionSize()": {
        "notice": "The collection size (e.g 10000)"
      },
      "currentPhase()": {
        "notice": "Returns the current phase"
      },
      "devMint(uint256)": {
        "notice": "Mint NFTs to the project owner"
      },
      "getOwnershipData(uint256)": {
        "notice": "Returns the ownership data of a specific token ID"
      },
      "grantRole(bytes32,address)": {
        "notice": "Grants `role` to `account`."
      },
      "hasBatchToReveal()": {
        "notice": "Tells you if a batch can be revealed"
      },
      "initialize((string,string,address,uint256,uint256,uint256,uint256,uint256),(address,address,address,address,uint256))": {
        "notice": "FlatLaunchpeg initialization Can only be called once"
      },
      "initializeBatchReveal(address)": {
        "notice": "Initialize batch reveal. Leave undefined to disable batch reveal for the collection."
      },
      "initializePhases(uint256,uint256,uint256,uint256,uint256,uint256)": {
        "notice": "Initialize the two phases of the sale"
      },
      "joeFeeCollector()": {
        "notice": "The address to which the fees on the sale will be sent"
      },
      "joeFeePercent()": {
        "notice": "The fees collected by Joepegs on the sale benefits"
      },
      "maxPerAddressDuringMint()": {
        "notice": "Max amount of NFTs an address can mint in public phases"
      },
      "numberMinted(address)": {
        "notice": "Returns the number of NFTs minted by a specific address"
      },
      "numberMintedWithPreMint(address)": {
        "notice": "Number minted by user including pre-mints"
      },
      "owner()": {
        "notice": "Returns the address of the current owner"
      },
      "pause()": {
        "notice": "Pauses the contract."
      },
      "pendingOwner()": {
        "notice": "Returns the address of the current pending owner"
      },
      "preMint(uint96)": {
        "notice": "Mint NFTs during the pre-mint"
      },
      "preMintStartTime()": {
        "notice": "Start time of the pre-mint in seconds"
      },
      "publicSaleEndTime()": {
        "notice": "End time of the public sale in seconds"
      },
      "publicSaleMint(uint256)": {
        "notice": "Mint NFTs during the public sale"
      },
      "publicSaleStartTime()": {
        "notice": "Start time of the public sale in seconds"
      },
      "renounceOwnership()": {
        "notice": "Leaves the contract without owner. It will not be possible to call `onlyOwner` functions anymore. Can only be called by the current owner. NOTE: Renouncing ownership will leave the contract without an owner, thereby removing any functionality that is only available to the owner."
      },
      "renounceRole(bytes32,address)": {
        "notice": "Revokes `role` from the calling account."
      },
      "revealNextBatch()": {
        "notice": "Reveals the next batch if the reveal conditions are met"
      },
      "revokePendingOwner()": {
        "notice": "Revoke the pending owner address. This address will not be able to call {becomeOwner} to become the owner anymore. Can only be called by the owner"
      },
      "revokeRole(bytes32,address)": {
        "notice": "Revokes `role` from `account`."
      },
      "salePrice()": {
        "notice": "Price of one NFT during the public sale"
      },
      "seedAllowlist(address[],uint256[])": {
        "notice": "Set amount of NFTs mintable per address during the allowlist phase"
      },
      "setAllowlistStartTime(uint256)": {
        "notice": "Set the allowlist start time. Can only be set after phases have been initialized."
      },
      "setBaseURI(string)": {
        "notice": "Set the base URI"
      },
      "setPendingOwner(address)": {
        "notice": "Sets the pending owner address. This address will be able to become the owner of this contract by calling {becomeOwner}"
      },
      "setPreMintStartTime(uint256)": {
        "notice": "Set the pre-mint start time. Can only be set after phases have been initialized."
      },
      "setPublicSaleEndTime(uint256)": {
        "notice": "Set the public sale end time. Can only be set after phases have been initialized."
      },
      "setPublicSaleStartTime(uint256)": {
        "notice": "Set the public sale start time. Can only be set after phases have been initialized."
      },
      "setRoyaltyInfo(address,uint96)": {
        "notice": "Set the royalty fee"
      },
      "setUnrevealedURI(string)": {
        "notice": "Set the unrevealed URI"
      },
      "setWithdrawAVAXStartTime(uint256)": {
        "notice": "Set the withdraw AVAX start time."
      },
      "tokenURI(uint256)": {
        "notice": "Returns the Uniform Resource Identifier (URI) for `tokenId` token."
      },
      "unpause()": {
        "notice": "Unpauses the contract."
      },
      "unrevealedURI()": {
        "notice": "Token URI before the collection reveal"
      },
      "userPendingPreMints(address)": {
        "notice": "The remaining no. of pre-minted NFTs for the user address"
      },
      "withdrawAVAX(address)": {
        "notice": "Withdraw AVAX to the given recipient"
      },
      "withdrawAVAXStartTime()": {
        "notice": "Start time when funds can be withdrawn"
      }
    },
    "notice": "Implements a simple minting NFT contract with an allowlist and public sale phase.",
    "version": 1
  },
  "storageLayout": {
    "storage": [
      {
        "astId": 810,
        "contract": "contracts/FlatLaunchpeg.sol:FlatLaunchpeg",
        "label": "_initialized",
        "offset": 0,
        "slot": "0",
        "type": "t_bool"
      },
      {
        "astId": 813,
        "contract": "contracts/FlatLaunchpeg.sol:FlatLaunchpeg",
        "label": "_initializing",
        "offset": 1,
        "slot": "0",
        "type": "t_bool"
      },
      {
        "astId": 1710,
        "contract": "contracts/FlatLaunchpeg.sol:FlatLaunchpeg",
        "label": "__gap",
        "offset": 0,
        "slot": "1",
        "type": "t_array(t_uint256)50_storage"
      },
      {
        "astId": 1957,
        "contract": "contracts/FlatLaunchpeg.sol:FlatLaunchpeg",
        "label": "__gap",
        "offset": 0,
        "slot": "51",
        "type": "t_array(t_uint256)50_storage"
      },
      {
        "astId": 12074,
        "contract": "contracts/FlatLaunchpeg.sol:FlatLaunchpeg",
        "label": "_currentIndex",
        "offset": 0,
        "slot": "101",
        "type": "t_uint256"
      },
      {
        "astId": 12076,
        "contract": "contracts/FlatLaunchpeg.sol:FlatLaunchpeg",
        "label": "_burnCounter",
        "offset": 0,
        "slot": "102",
        "type": "t_uint256"
      },
      {
        "astId": 12078,
        "contract": "contracts/FlatLaunchpeg.sol:FlatLaunchpeg",
        "label": "_name",
        "offset": 0,
        "slot": "103",
        "type": "t_string_storage"
      },
      {
        "astId": 12080,
        "contract": "contracts/FlatLaunchpeg.sol:FlatLaunchpeg",
        "label": "_symbol",
        "offset": 0,
        "slot": "104",
        "type": "t_string_storage"
      },
      {
        "astId": 12085,
        "contract": "contracts/FlatLaunchpeg.sol:FlatLaunchpeg",
        "label": "_ownerships",
        "offset": 0,
        "slot": "105",
        "type": "t_mapping(t_uint256,t_struct(TokenOwnership)12063_storage)"
      },
      {
        "astId": 12090,
        "contract": "contracts/FlatLaunchpeg.sol:FlatLaunchpeg",
        "label": "_addressData",
        "offset": 0,
        "slot": "106",
        "type": "t_mapping(t_address,t_struct(AddressData)12072_storage)"
      },
      {
        "astId": 12094,
        "contract": "contracts/FlatLaunchpeg.sol:FlatLaunchpeg",
        "label": "_tokenApprovals",
        "offset": 0,
        "slot": "107",
        "type": "t_mapping(t_uint256,t_address)"
      },
      {
        "astId": 12100,
        "contract": "contracts/FlatLaunchpeg.sol:FlatLaunchpeg",
        "label": "_operatorApprovals",
        "offset": 0,
        "slot": "108",
        "type": "t_mapping(t_address,t_mapping(t_address,t_bool))"
      },
      {
        "astId": 13348,
        "contract": "contracts/FlatLaunchpeg.sol:FlatLaunchpeg",
        "label": "__gap",
        "offset": 0,
        "slot": "109",
        "type": "t_array(t_uint256)42_storage"
      },
      {
        "astId": 11452,
        "contract": "contracts/FlatLaunchpeg.sol:FlatLaunchpeg",
        "label": "_owner",
        "offset": 0,
        "slot": "151",
        "type": "t_address"
      },
      {
        "astId": 11454,
        "contract": "contracts/FlatLaunchpeg.sol:FlatLaunchpeg",
        "label": "_pendingOwner",
        "offset": 0,
        "slot": "152",
        "type": "t_address"
      },
      {
        "astId": 273,
        "contract": "contracts/FlatLaunchpeg.sol:FlatLaunchpeg",
        "label": "_roles",
        "offset": 0,
        "slot": "153",
        "type": "t_mapping(t_bytes32,t_struct(RoleData)268_storage)"
      },
      {
        "astId": 561,
        "contract": "contracts/FlatLaunchpeg.sol:FlatLaunchpeg",
        "label": "__gap",
        "offset": 0,
        "slot": "154",
        "type": "t_array(t_uint256)49_storage"
      },
      {
        "astId": 122,
        "contract": "contracts/FlatLaunchpeg.sol:FlatLaunchpeg",
        "label": "_roleMembers",
        "offset": 0,
        "slot": "203",
        "type": "t_mapping(t_bytes32,t_struct(AddressSet)2282_storage)"
      },
      {
        "astId": 232,
        "contract": "contracts/FlatLaunchpeg.sol:FlatLaunchpeg",
        "label": "__gap",
        "offset": 0,
        "slot": "204",
        "type": "t_array(t_uint256)49_storage"
      },
      {
        "astId": 898,
        "contract": "contracts/FlatLaunchpeg.sol:FlatLaunchpeg",
        "label": "_paused",
        "offset": 0,
        "slot": "253",
        "type": "t_bool"
      },
      {
        "astId": 987,
        "contract": "contracts/FlatLaunchpeg.sol:FlatLaunchpeg",
        "label": "__gap",
        "offset": 0,
        "slot": "254",
        "type": "t_array(t_uint256)49_storage"
      },
      {
        "astId": 1002,
        "contract": "contracts/FlatLaunchpeg.sol:FlatLaunchpeg",
        "label": "_status",
        "offset": 0,
        "slot": "303",
        "type": "t_uint256"
      },
      {
        "astId": 1046,
        "contract": "contracts/FlatLaunchpeg.sol:FlatLaunchpeg",
        "label": "__gap",
        "offset": 0,
        "slot": "304",
        "type": "t_array(t_uint256)49_storage"
      },
      {
        "astId": 1240,
        "contract": "contracts/FlatLaunchpeg.sol:FlatLaunchpeg",
        "label": "_defaultRoyaltyInfo",
        "offset": 0,
        "slot": "353",
        "type": "t_struct(RoyaltyInfo)1237_storage"
      },
      {
        "astId": 1245,
        "contract": "contracts/FlatLaunchpeg.sol:FlatLaunchpeg",
        "label": "_tokenRoyaltyInfo",
        "offset": 0,
        "slot": "354",
        "type": "t_mapping(t_uint256,t_struct(RoyaltyInfo)1237_storage)"
      },
      {
        "astId": 1425,
        "contract": "contracts/FlatLaunchpeg.sol:FlatLaunchpeg",
        "label": "__gap",
        "offset": 0,
        "slot": "355",
        "type": "t_array(t_uint256)48_storage"
      },
      {
        "astId": 3301,
        "contract": "contracts/FlatLaunchpeg.sol:FlatLaunchpeg",
        "label": "collectionSize",
        "offset": 0,
        "slot": "403",
        "type": "t_uint256"
      },
      {
        "astId": 3305,
        "contract": "contracts/FlatLaunchpeg.sol:FlatLaunchpeg",
        "label": "amountForDevs",
        "offset": 0,
        "slot": "404",
        "type": "t_uint256"
      },
      {
        "astId": 3309,
        "contract": "contracts/FlatLaunchpeg.sol:FlatLaunchpeg",
        "label": "amountForAllowlist",
        "offset": 0,
        "slot": "405",
        "type": "t_uint256"
      },
      {
        "astId": 3313,
        "contract": "contracts/FlatLaunchpeg.sol:FlatLaunchpeg",
        "label": "maxPerAddressDuringMint",
        "offset": 0,
        "slot": "406",
        "type": "t_uint256"
      },
      {
        "astId": 3317,
        "contract": "contracts/FlatLaunchpeg.sol:FlatLaunchpeg",
        "label": "joeFeePercent",
        "offset": 0,
        "slot": "407",
        "type": "t_uint256"
      },
      {
        "astId": 3321,
        "contract": "contracts/FlatLaunchpeg.sol:FlatLaunchpeg",
        "label": "joeFeeCollector",
        "offset": 0,
        "slot": "408",
        "type": "t_address"
      },
      {
        "astId": 3325,
        "contract": "contracts/FlatLaunchpeg.sol:FlatLaunchpeg",
        "label": "batchReveal",
        "offset": 0,
        "slot": "409",
        "type": "t_contract(IBatchReveal)10989"
      },
      {
        "astId": 3329,
        "contract": "contracts/FlatLaunchpeg.sol:FlatLaunchpeg",
        "label": "baseURI",
        "offset": 0,
        "slot": "410",
        "type": "t_string_storage"
      },
      {
        "astId": 3333,
        "contract": "contracts/FlatLaunchpeg.sol:FlatLaunchpeg",
        "label": "unrevealedURI",
        "offset": 0,
        "slot": "411",
        "type": "t_string_storage"
      },
      {
        "astId": 3339,
        "contract": "contracts/FlatLaunchpeg.sol:FlatLaunchpeg",
        "label": "allowlist",
        "offset": 0,
        "slot": "412",
        "type": "t_mapping(t_address,t_uint256)"
      },
      {
        "astId": 3343,
        "contract": "contracts/FlatLaunchpeg.sol:FlatLaunchpeg",
        "label": "amountMintedByDevs",
        "offset": 0,
        "slot": "413",
        "type": "t_uint256"
      },
      {
        "astId": 3347,
        "contract": "contracts/FlatLaunchpeg.sol:FlatLaunchpeg",
        "label": "amountMintedDuringPreMint",
        "offset": 0,
        "slot": "414",
        "type": "t_uint256"
      },
      {
        "astId": 3351,
        "contract": "contracts/FlatLaunchpeg.sol:FlatLaunchpeg",
        "label": "amountClaimedDuringPreMint",
        "offset": 0,
        "slot": "415",
        "type": "t_uint256"
      },
      {
        "astId": 3355,
        "contract": "contracts/FlatLaunchpeg.sol:FlatLaunchpeg",
        "label": "amountMintedDuringAllowlist",
        "offset": 0,
        "slot": "416",
        "type": "t_uint256"
      },
      {
        "astId": 3359,
        "contract": "contracts/FlatLaunchpeg.sol:FlatLaunchpeg",
        "label": "amountMintedDuringPublicSale",
        "offset": 0,
        "slot": "417",
        "type": "t_uint256"
      },
      {
        "astId": 3363,
        "contract": "contracts/FlatLaunchpeg.sol:FlatLaunchpeg",
        "label": "preMintStartTime",
        "offset": 0,
        "slot": "418",
        "type": "t_uint256"
      },
      {
        "astId": 3367,
        "contract": "contracts/FlatLaunchpeg.sol:FlatLaunchpeg",
        "label": "allowlistStartTime",
        "offset": 0,
        "slot": "419",
        "type": "t_uint256"
      },
      {
        "astId": 3371,
        "contract": "contracts/FlatLaunchpeg.sol:FlatLaunchpeg",
        "label": "publicSaleStartTime",
        "offset": 0,
        "slot": "420",
        "type": "t_uint256"
      },
      {
        "astId": 3375,
        "contract": "contracts/FlatLaunchpeg.sol:FlatLaunchpeg",
        "label": "publicSaleEndTime",
        "offset": 0,
        "slot": "421",
        "type": "t_uint256"
      },
      {
        "astId": 3379,
        "contract": "contracts/FlatLaunchpeg.sol:FlatLaunchpeg",
        "label": "withdrawAVAXStartTime",
        "offset": 0,
        "slot": "422",
        "type": "t_uint256"
      },
      {
        "astId": 3383,
        "contract": "contracts/FlatLaunchpeg.sol:FlatLaunchpeg",
        "label": "_pendingPreMints",
        "offset": 0,
        "slot": "423",
        "type": "t_struct(PreMintDataSet)3286_storage"
      },
      {
        "astId": 6744,
        "contract": "contracts/FlatLaunchpeg.sol:FlatLaunchpeg",
        "label": "allowlistPrice",
        "offset": 0,
        "slot": "425",
        "type": "t_uint256"
      },
      {
        "astId": 6748,
        "contract": "contracts/FlatLaunchpeg.sol:FlatLaunchpeg",
        "label": "salePrice",
        "offset": 0,
        "slot": "426",
        "type": "t_uint256"
      }
    ],
    "types": {
      "t_address": {
        "encoding": "inplace",
        "label": "address",
        "numberOfBytes": "20"
      },
      "t_array(t_bytes32)dyn_storage": {
        "base": "t_bytes32",
        "encoding": "dynamic_array",
        "label": "bytes32[]",
        "numberOfBytes": "32"
      },
      "t_array(t_struct(PreMintData)3277_storage)dyn_storage": {
        "base": "t_struct(PreMintData)3277_storage",
        "encoding": "dynamic_array",
        "label": "struct BaseLaunchpeg.PreMintData[]",
        "numberOfBytes": "32"
      },
      "t_array(t_uint256)42_storage": {
        "base": "t_uint256",
        "encoding": "inplace",
        "label": "uint256[42]",
        "numberOfBytes": "1344"
      },
      "t_array(t_uint256)48_storage": {
        "base": "t_uint256",
        "encoding": "inplace",
        "label": "uint256[48]",
        "numberOfBytes": "1536"
      },
      "t_array(t_uint256)49_storage": {
        "base": "t_uint256",
        "encoding": "inplace",
        "label": "uint256[49]",
        "numberOfBytes": "1568"
      },
      "t_array(t_uint256)50_storage": {
        "base": "t_uint256",
        "encoding": "inplace",
        "label": "uint256[50]",
        "numberOfBytes": "1600"
      },
      "t_bool": {
        "encoding": "inplace",
        "label": "bool",
        "numberOfBytes": "1"
      },
      "t_bytes32": {
        "encoding": "inplace",
        "label": "bytes32",
        "numberOfBytes": "32"
      },
      "t_contract(IBatchReveal)10989": {
        "encoding": "inplace",
        "label": "contract IBatchReveal",
        "numberOfBytes": "20"
      },
      "t_mapping(t_address,t_bool)": {
        "encoding": "mapping",
        "key": "t_address",
        "label": "mapping(address => bool)",
        "numberOfBytes": "32",
        "value": "t_bool"
      },
      "t_mapping(t_address,t_mapping(t_address,t_bool))": {
        "encoding": "mapping",
        "key": "t_address",
        "label": "mapping(address => mapping(address => bool))",
        "numberOfBytes": "32",
        "value": "t_mapping(t_address,t_bool)"
      },
      "t_mapping(t_address,t_struct(AddressData)12072_storage)": {
        "encoding": "mapping",
        "key": "t_address",
        "label": "mapping(address => struct ERC721AUpgradeable.AddressData)",
        "numberOfBytes": "32",
        "value": "t_struct(AddressData)12072_storage"
      },
      "t_mapping(t_address,t_uint256)": {
        "encoding": "mapping",
        "key": "t_address",
        "label": "mapping(address => uint256)",
        "numberOfBytes": "32",
        "value": "t_uint256"
      },
      "t_mapping(t_bytes32,t_struct(AddressSet)2282_storage)": {
        "encoding": "mapping",
        "key": "t_bytes32",
        "label": "mapping(bytes32 => struct EnumerableSetUpgradeable.AddressSet)",
        "numberOfBytes": "32",
        "value": "t_struct(AddressSet)2282_storage"
      },
      "t_mapping(t_bytes32,t_struct(RoleData)268_storage)": {
        "encoding": "mapping",
        "key": "t_bytes32",
        "label": "mapping(bytes32 => struct AccessControlUpgradeable.RoleData)",
        "numberOfBytes": "32",
        "value": "t_struct(RoleData)268_storage"
      },
      "t_mapping(t_bytes32,t_uint256)": {
        "encoding": "mapping",
        "key": "t_bytes32",
        "label": "mapping(bytes32 => uint256)",
        "numberOfBytes": "32",
        "value": "t_uint256"
      },
      "t_mapping(t_uint256,t_address)": {
        "encoding": "mapping",
        "key": "t_uint256",
        "label": "mapping(uint256 => address)",
        "numberOfBytes": "32",
        "value": "t_address"
      },
      "t_mapping(t_uint256,t_struct(RoyaltyInfo)1237_storage)": {
        "encoding": "mapping",
        "key": "t_uint256",
        "label": "mapping(uint256 => struct ERC2981Upgradeable.RoyaltyInfo)",
        "numberOfBytes": "32",
        "value": "t_struct(RoyaltyInfo)1237_storage"
      },
      "t_mapping(t_uint256,t_struct(TokenOwnership)12063_storage)": {
        "encoding": "mapping",
        "key": "t_uint256",
        "label": "mapping(uint256 => struct ERC721AUpgradeable.TokenOwnership)",
        "numberOfBytes": "32",
        "value": "t_struct(TokenOwnership)12063_storage"
      },
      "t_string_storage": {
        "encoding": "bytes",
        "label": "string",
        "numberOfBytes": "32"
      },
      "t_struct(AddressData)12072_storage": {
        "encoding": "inplace",
        "label": "struct ERC721AUpgradeable.AddressData",
        "members": [
          {
            "astId": 12065,
            "contract": "contracts/FlatLaunchpeg.sol:FlatLaunchpeg",
            "label": "balance",
            "offset": 0,
            "slot": "0",
            "type": "t_uint64"
          },
          {
            "astId": 12067,
            "contract": "contracts/FlatLaunchpeg.sol:FlatLaunchpeg",
            "label": "numberMinted",
            "offset": 8,
            "slot": "0",
            "type": "t_uint64"
          },
          {
            "astId": 12069,
            "contract": "contracts/FlatLaunchpeg.sol:FlatLaunchpeg",
            "label": "numberBurned",
            "offset": 16,
            "slot": "0",
            "type": "t_uint64"
          },
          {
            "astId": 12071,
            "contract": "contracts/FlatLaunchpeg.sol:FlatLaunchpeg",
            "label": "aux",
            "offset": 24,
            "slot": "0",
            "type": "t_uint64"
          }
        ],
        "numberOfBytes": "32"
      },
      "t_struct(AddressSet)2282_storage": {
        "encoding": "inplace",
        "label": "struct EnumerableSetUpgradeable.AddressSet",
        "members": [
          {
            "astId": 2281,
            "contract": "contracts/FlatLaunchpeg.sol:FlatLaunchpeg",
            "label": "_inner",
            "offset": 0,
            "slot": "0",
            "type": "t_struct(Set)1981_storage"
          }
        ],
        "numberOfBytes": "64"
      },
      "t_struct(PreMintData)3277_storage": {
        "encoding": "inplace",
        "label": "struct BaseLaunchpeg.PreMintData",
        "members": [
          {
            "astId": 3274,
            "contract": "contracts/FlatLaunchpeg.sol:FlatLaunchpeg",
            "label": "sender",
            "offset": 0,
            "slot": "0",
            "type": "t_address"
          },
          {
            "astId": 3276,
            "contract": "contracts/FlatLaunchpeg.sol:FlatLaunchpeg",
            "label": "quantity",
            "offset": 20,
            "slot": "0",
            "type": "t_uint96"
          }
        ],
        "numberOfBytes": "32"
      },
      "t_struct(PreMintDataSet)3286_storage": {
        "encoding": "inplace",
        "label": "struct BaseLaunchpeg.PreMintDataSet",
        "members": [
          {
            "astId": 3281,
            "contract": "contracts/FlatLaunchpeg.sol:FlatLaunchpeg",
            "label": "preMintDataArr",
            "offset": 0,
            "slot": "0",
            "type": "t_array(t_struct(PreMintData)3277_storage)dyn_storage"
          },
          {
            "astId": 3285,
            "contract": "contracts/FlatLaunchpeg.sol:FlatLaunchpeg",
            "label": "indexes",
            "offset": 0,
            "slot": "1",
            "type": "t_mapping(t_address,t_uint256)"
          }
        ],
        "numberOfBytes": "64"
      },
      "t_struct(RoleData)268_storage": {
        "encoding": "inplace",
        "label": "struct AccessControlUpgradeable.RoleData",
        "members": [
          {
            "astId": 265,
            "contract": "contracts/FlatLaunchpeg.sol:FlatLaunchpeg",
            "label": "members",
            "offset": 0,
            "slot": "0",
            "type": "t_mapping(t_address,t_bool)"
          },
          {
            "astId": 267,
            "contract": "contracts/FlatLaunchpeg.sol:FlatLaunchpeg",
            "label": "adminRole",
            "offset": 0,
            "slot": "1",
            "type": "t_bytes32"
          }
        ],
        "numberOfBytes": "64"
      },
      "t_struct(RoyaltyInfo)1237_storage": {
        "encoding": "inplace",
        "label": "struct ERC2981Upgradeable.RoyaltyInfo",
        "members": [
          {
            "astId": 1234,
            "contract": "contracts/FlatLaunchpeg.sol:FlatLaunchpeg",
            "label": "receiver",
            "offset": 0,
            "slot": "0",
            "type": "t_address"
          },
          {
            "astId": 1236,
            "contract": "contracts/FlatLaunchpeg.sol:FlatLaunchpeg",
            "label": "royaltyFraction",
            "offset": 20,
            "slot": "0",
            "type": "t_uint96"
          }
        ],
        "numberOfBytes": "32"
      },
      "t_struct(Set)1981_storage": {
        "encoding": "inplace",
        "label": "struct EnumerableSetUpgradeable.Set",
        "members": [
          {
            "astId": 1976,
            "contract": "contracts/FlatLaunchpeg.sol:FlatLaunchpeg",
            "label": "_values",
            "offset": 0,
            "slot": "0",
            "type": "t_array(t_bytes32)dyn_storage"
          },
          {
            "astId": 1980,
            "contract": "contracts/FlatLaunchpeg.sol:FlatLaunchpeg",
            "label": "_indexes",
            "offset": 0,
            "slot": "1",
            "type": "t_mapping(t_bytes32,t_uint256)"
          }
        ],
        "numberOfBytes": "64"
      },
      "t_struct(TokenOwnership)12063_storage": {
        "encoding": "inplace",
        "label": "struct ERC721AUpgradeable.TokenOwnership",
        "members": [
          {
            "astId": 12058,
            "contract": "contracts/FlatLaunchpeg.sol:FlatLaunchpeg",
            "label": "addr",
            "offset": 0,
            "slot": "0",
            "type": "t_address"
          },
          {
            "astId": 12060,
            "contract": "contracts/FlatLaunchpeg.sol:FlatLaunchpeg",
            "label": "startTimestamp",
            "offset": 20,
            "slot": "0",
            "type": "t_uint64"
          },
          {
            "astId": 12062,
            "contract": "contracts/FlatLaunchpeg.sol:FlatLaunchpeg",
            "label": "burned",
            "offset": 28,
            "slot": "0",
            "type": "t_bool"
          }
        ],
        "numberOfBytes": "32"
      },
      "t_uint256": {
        "encoding": "inplace",
        "label": "uint256",
        "numberOfBytes": "32"
      },
      "t_uint64": {
        "encoding": "inplace",
        "label": "uint64",
        "numberOfBytes": "8"
      },
      "t_uint96": {
        "encoding": "inplace",
        "label": "uint96",
        "numberOfBytes": "12"
      }
    }
  }
}