{
  "address": "0xb6479908D5C8E3B6aCA01935dD4E864d715e70A3",
  "abi": [
    {
      "inputs": [],
      "name": "LaunchpegFactory__InvalidBatchReveal",
      "type": "error"
    },
    {
      "inputs": [],
      "name": "LaunchpegFactory__InvalidImplementation",
      "type": "error"
    },
    {
      "inputs": [],
      "name": "Launchpeg__InvalidJoeFeeCollector",
      "type": "error"
    },
    {
      "inputs": [],
      "name": "Launchpeg__InvalidPercent",
      "type": "error"
    },
    {
      "inputs": [],
      "name": "PendingOwnableUpgradeable__AddressZero",
      "type": "error"
    },
    {
      "inputs": [],
      "name": "PendingOwnableUpgradeable__NoPendingOwner",
      "type": "error"
    },
    {
      "inputs": [],
      "name": "PendingOwnableUpgradeable__NotOwner",
      "type": "error"
    },
    {
      "inputs": [],
      "name": "PendingOwnableUpgradeable__NotPendingOwner",
      "type": "error"
    },
    {
      "inputs": [],
      "name": "PendingOwnableUpgradeable__PendingOwnerAlreadySet",
      "type": "error"
    },
    {
      "inputs": [],
      "name": "SafeAccessControlEnumerableUpgradeable__RoleIsDefaultAdmin",
      "type": "error"
    },
    {
      "inputs": [
        {
          "internalType": "bytes32",
          "name": "role",
          "type": "bytes32"
        },
        {
          "internalType": "address",
          "name": "sender",
          "type": "address"
        }
      ],
      "name": "SafeAccessControlEnumerableUpgradeable__SenderMissingRoleAndIsNotOwner",
      "type": "error"
    },
    {
      "anonymous": false,
      "inputs": [
        {
          "indexed": true,
          "internalType": "address",
          "name": "flatLaunchpeg",
          "type": "address"
        },
        {
          "indexed": false,
          "internalType": "string",
          "name": "name",
          "type": "string"
        },
        {
          "indexed": false,
          "internalType": "string",
          "name": "symbol",
          "type": "string"
        },
        {
          "indexed": true,
          "internalType": "address",
          "name": "projectOwner",
          "type": "address"
        },
        {
          "indexed": true,
          "internalType": "address",
          "name": "royaltyReceiver",
          "type": "address"
        },
        {
          "indexed": false,
          "internalType": "uint256",
          "name": "maxPerAddressDuringMint",
          "type": "uint256"
        },
        {
          "indexed": false,
          "internalType": "uint256",
          "name": "collectionSize",
          "type": "uint256"
        },
        {
          "indexed": false,
          "internalType": "uint256",
          "name": "amountForDevs",
          "type": "uint256"
        },
        {
          "indexed": false,
          "internalType": "uint256",
          "name": "amountForAllowlist",
          "type": "uint256"
        }
      ],
      "name": "FlatLaunchpegCreated",
      "type": "event"
    },
    {
      "anonymous": false,
      "inputs": [
        {
          "indexed": true,
          "internalType": "address",
          "name": "launchpeg",
          "type": "address"
        },
        {
          "indexed": false,
          "internalType": "string",
          "name": "name",
          "type": "string"
        },
        {
          "indexed": false,
          "internalType": "string",
          "name": "symbol",
          "type": "string"
        },
        {
          "indexed": true,
          "internalType": "address",
          "name": "projectOwner",
          "type": "address"
        },
        {
          "indexed": true,
          "internalType": "address",
          "name": "royaltyReceiver",
          "type": "address"
        },
        {
          "indexed": false,
          "internalType": "uint256",
          "name": "maxPerAddressDuringMint",
          "type": "uint256"
        },
        {
          "indexed": false,
          "internalType": "uint256",
          "name": "collectionSize",
          "type": "uint256"
        },
        {
          "indexed": false,
          "internalType": "uint256",
          "name": "amountForAuction",
          "type": "uint256"
        },
        {
          "indexed": false,
          "internalType": "uint256",
          "name": "amountForAllowlist",
          "type": "uint256"
        },
        {
          "indexed": false,
          "internalType": "uint256",
          "name": "amountForDevs",
          "type": "uint256"
        }
      ],
      "name": "LaunchpegCreated",
      "type": "event"
    },
    {
      "anonymous": false,
      "inputs": [
        {
          "indexed": true,
          "internalType": "address",
          "name": "previousOwner",
          "type": "address"
        },
        {
          "indexed": true,
          "internalType": "address",
          "name": "newOwner",
          "type": "address"
        }
      ],
      "name": "OwnershipTransferred",
      "type": "event"
    },
    {
      "anonymous": false,
      "inputs": [
        {
          "indexed": true,
          "internalType": "address",
          "name": "pendingOwner",
          "type": "address"
        }
      ],
      "name": "PendingOwnerSet",
      "type": "event"
    },
    {
      "anonymous": false,
      "inputs": [
        {
          "indexed": true,
          "internalType": "bytes32",
          "name": "role",
          "type": "bytes32"
        },
        {
          "indexed": true,
          "internalType": "bytes32",
          "name": "previousAdminRole",
          "type": "bytes32"
        },
        {
          "indexed": true,
          "internalType": "bytes32",
          "name": "newAdminRole",
          "type": "bytes32"
        }
      ],
      "name": "RoleAdminChanged",
      "type": "event"
    },
    {
      "anonymous": false,
      "inputs": [
        {
          "indexed": true,
          "internalType": "bytes32",
          "name": "role",
          "type": "bytes32"
        },
        {
          "indexed": true,
          "internalType": "address",
          "name": "account",
          "type": "address"
        },
        {
          "indexed": true,
          "internalType": "address",
          "name": "sender",
          "type": "address"
        }
      ],
      "name": "RoleGranted",
      "type": "event"
    },
    {
      "anonymous": false,
      "inputs": [
        {
          "indexed": true,
          "internalType": "bytes32",
          "name": "role",
          "type": "bytes32"
        },
        {
          "indexed": true,
          "internalType": "address",
          "name": "account",
          "type": "address"
        },
        {
          "indexed": true,
          "internalType": "address",
          "name": "sender",
          "type": "address"
        }
      ],
      "name": "RoleRevoked",
      "type": "event"
    },
    {
      "anonymous": false,
      "inputs": [
        {
          "indexed": true,
          "internalType": "address",
          "name": "batchReveal",
          "type": "address"
        }
      ],
      "name": "SetBatchReveal",
      "type": "event"
    },
    {
      "anonymous": false,
      "inputs": [
        {
          "indexed": true,
          "internalType": "address",
          "name": "joeFeeCollector",
          "type": "address"
        }
      ],
      "name": "SetDefaultJoeFeeCollector",
      "type": "event"
    },
    {
      "anonymous": false,
      "inputs": [
        {
          "indexed": false,
          "internalType": "uint256",
          "name": "joeFeePercent",
          "type": "uint256"
        }
      ],
      "name": "SetDefaultJoeFeePercent",
      "type": "event"
    },
    {
      "anonymous": false,
      "inputs": [
        {
          "indexed": true,
          "internalType": "address",
          "name": "flatLaunchpegImplementation",
          "type": "address"
        }
      ],
      "name": "SetFlatLaunchpegImplementation",
      "type": "event"
    },
    {
      "anonymous": false,
      "inputs": [
        {
          "indexed": true,
          "internalType": "address",
          "name": "launchpegImplementation",
          "type": "address"
        }
      ],
      "name": "SetLaunchpegImplementation",
      "type": "event"
    },
    {
      "inputs": [],
      "name": "DEFAULT_ADMIN_ROLE",
      "outputs": [
        {
          "internalType": "bytes32",
          "name": "",
          "type": "bytes32"
        }
      ],
      "stateMutability": "view",
      "type": "function"
    },
    {
      "inputs": [],
      "name": "LAUNCHPEG_PAUSER_ROLE",
      "outputs": [
        {
          "internalType": "bytes32",
          "name": "",
          "type": "bytes32"
        }
      ],
      "stateMutability": "view",
      "type": "function"
    },
    {
      "inputs": [
        {
          "internalType": "address",
          "name": "_pauser",
          "type": "address"
        }
      ],
      "name": "addLaunchpegPauser",
      "outputs": [],
      "stateMutability": "nonpayable",
      "type": "function"
    },
    {
      "inputs": [
        {
          "internalType": "uint256",
          "name": "",
          "type": "uint256"
        },
        {
          "internalType": "uint256",
          "name": "",
          "type": "uint256"
        }
      ],
      "name": "allLaunchpegs",
      "outputs": [
        {
          "internalType": "address",
          "name": "",
          "type": "address"
        }
      ],
      "stateMutability": "view",
      "type": "function"
    },
    {
      "inputs": [],
      "name": "batchReveal",
      "outputs": [
        {
          "internalType": "address",
          "name": "",
          "type": "address"
        }
      ],
      "stateMutability": "view",
      "type": "function"
    },
    {
      "inputs": [],
      "name": "becomeOwner",
      "outputs": [],
      "stateMutability": "nonpayable",
      "type": "function"
    },
    {
      "inputs": [
        {
          "internalType": "string",
          "name": "_name",
          "type": "string"
        },
        {
          "internalType": "string",
          "name": "_symbol",
          "type": "string"
        },
        {
          "internalType": "address",
          "name": "_projectOwner",
          "type": "address"
        },
        {
          "internalType": "address",
          "name": "_royaltyReceiver",
          "type": "address"
        },
        {
          "internalType": "uint256",
          "name": "_maxPerAddressDuringMint",
          "type": "uint256"
        },
        {
          "internalType": "uint256",
          "name": "_collectionSize",
          "type": "uint256"
        },
        {
          "internalType": "uint256",
          "name": "_amountForDevs",
          "type": "uint256"
        },
        {
          "internalType": "uint256",
          "name": "_amountForAllowlist",
          "type": "uint256"
        },
        {
          "internalType": "bool",
          "name": "_enableBatchReveal",
          "type": "bool"
        }
      ],
      "name": "createFlatLaunchpeg",
      "outputs": [
        {
          "internalType": "address",
          "name": "",
          "type": "address"
        }
      ],
      "stateMutability": "nonpayable",
      "type": "function"
    },
    {
      "inputs": [
        {
          "internalType": "string",
          "name": "_name",
          "type": "string"
        },
        {
          "internalType": "string",
          "name": "_symbol",
          "type": "string"
        },
        {
          "internalType": "address",
          "name": "_projectOwner",
          "type": "address"
        },
        {
          "internalType": "address",
          "name": "_royaltyReceiver",
          "type": "address"
        },
        {
          "internalType": "uint256",
          "name": "_maxPerAddressDuringMint",
          "type": "uint256"
        },
        {
          "internalType": "uint256",
          "name": "_collectionSize",
          "type": "uint256"
        },
        {
          "internalType": "uint256",
          "name": "_amountForAuction",
          "type": "uint256"
        },
        {
          "internalType": "uint256",
          "name": "_amountForAllowlist",
          "type": "uint256"
        },
        {
          "internalType": "uint256",
          "name": "_amountForDevs",
          "type": "uint256"
        },
        {
          "internalType": "bool",
          "name": "_enableBatchReveal",
          "type": "bool"
        }
      ],
      "name": "createLaunchpeg",
      "outputs": [
        {
          "internalType": "address",
          "name": "",
          "type": "address"
        }
      ],
      "stateMutability": "nonpayable",
      "type": "function"
    },
    {
      "inputs": [],
      "name": "flatLaunchpegImplementation",
      "outputs": [
        {
          "internalType": "address",
          "name": "",
          "type": "address"
        }
      ],
      "stateMutability": "view",
      "type": "function"
    },
    {
      "inputs": [
        {
          "internalType": "bytes32",
          "name": "role",
          "type": "bytes32"
        }
      ],
      "name": "getRoleAdmin",
      "outputs": [
        {
          "internalType": "bytes32",
          "name": "",
          "type": "bytes32"
        }
      ],
      "stateMutability": "view",
      "type": "function"
    },
    {
      "inputs": [
        {
          "internalType": "bytes32",
          "name": "role",
          "type": "bytes32"
        },
        {
          "internalType": "uint256",
          "name": "index",
          "type": "uint256"
        }
      ],
      "name": "getRoleMember",
      "outputs": [
        {
          "internalType": "address",
          "name": "",
          "type": "address"
        }
      ],
      "stateMutability": "view",
      "type": "function"
    },
    {
      "inputs": [
        {
          "internalType": "bytes32",
          "name": "role",
          "type": "bytes32"
        }
      ],
      "name": "getRoleMemberCount",
      "outputs": [
        {
          "internalType": "uint256",
          "name": "",
          "type": "uint256"
        }
      ],
      "stateMutability": "view",
      "type": "function"
    },
    {
      "inputs": [
        {
          "internalType": "bytes32",
          "name": "role",
          "type": "bytes32"
        },
        {
          "internalType": "address",
          "name": "account",
          "type": "address"
        }
      ],
      "name": "grantRole",
      "outputs": [],
      "stateMutability": "nonpayable",
      "type": "function"
    },
    {
      "inputs": [
        {
          "internalType": "bytes32",
          "name": "role",
          "type": "bytes32"
        },
        {
          "internalType": "address",
          "name": "account",
          "type": "address"
        }
      ],
      "name": "hasRole",
      "outputs": [
        {
          "internalType": "bool",
          "name": "",
          "type": "bool"
        }
      ],
      "stateMutability": "view",
      "type": "function"
    },
    {
      "inputs": [
        {
          "internalType": "address",
          "name": "_launchpegImplementation",
          "type": "address"
        },
        {
          "internalType": "address",
          "name": "_flatLaunchpegImplementation",
          "type": "address"
        },
        {
          "internalType": "address",
          "name": "_batchReveal",
          "type": "address"
        },
        {
          "internalType": "uint256",
          "name": "_joeFeePercent",
          "type": "uint256"
        },
        {
          "internalType": "address",
          "name": "_joeFeeCollector",
          "type": "address"
        }
      ],
      "name": "initialize",
      "outputs": [],
      "stateMutability": "nonpayable",
      "type": "function"
    },
    {
      "inputs": [
        {
          "internalType": "uint256",
          "name": "",
          "type": "uint256"
        },
        {
          "internalType": "address",
          "name": "",
          "type": "address"
        }
      ],
      "name": "isLaunchpeg",
      "outputs": [
        {
          "internalType": "bool",
          "name": "",
          "type": "bool"
        }
      ],
      "stateMutability": "view",
      "type": "function"
    },
    {
      "inputs": [],
      "name": "joeFeeCollector",
      "outputs": [
        {
          "internalType": "address",
          "name": "",
          "type": "address"
        }
      ],
      "stateMutability": "view",
      "type": "function"
    },
    {
      "inputs": [],
      "name": "joeFeePercent",
      "outputs": [
        {
          "internalType": "uint256",
          "name": "",
          "type": "uint256"
        }
      ],
      "stateMutability": "view",
      "type": "function"
    },
    {
      "inputs": [],
      "name": "launchpegImplementation",
      "outputs": [
        {
          "internalType": "address",
          "name": "",
          "type": "address"
        }
      ],
      "stateMutability": "view",
      "type": "function"
    },
    {
      "inputs": [
        {
          "internalType": "uint256",
          "name": "_launchpegType",
          "type": "uint256"
        }
      ],
      "name": "numLaunchpegs",
      "outputs": [
        {
          "internalType": "uint256",
          "name": "",
          "type": "uint256"
        }
      ],
      "stateMutability": "view",
      "type": "function"
    },
    {
      "inputs": [],
      "name": "owner",
      "outputs": [
        {
          "internalType": "address",
          "name": "",
          "type": "address"
        }
      ],
      "stateMutability": "view",
      "type": "function"
    },
    {
      "inputs": [
        {
          "internalType": "address",
          "name": "_launchpeg",
          "type": "address"
        }
      ],
      "name": "pauseLaunchpeg",
      "outputs": [],
      "stateMutability": "nonpayable",
      "type": "function"
    },
    {
      "inputs": [],
      "name": "pendingOwner",
      "outputs": [
        {
          "internalType": "address",
          "name": "",
          "type": "address"
        }
      ],
      "stateMutability": "view",
      "type": "function"
    },
    {
      "inputs": [
        {
          "internalType": "address",
          "name": "_pauser",
          "type": "address"
        }
      ],
      "name": "removeLaunchpegPauser",
      "outputs": [],
      "stateMutability": "nonpayable",
      "type": "function"
    },
    {
      "inputs": [],
      "name": "renounceOwnership",
      "outputs": [],
      "stateMutability": "nonpayable",
      "type": "function"
    },
    {
      "inputs": [
        {
          "internalType": "bytes32",
          "name": "role",
          "type": "bytes32"
        },
        {
          "internalType": "address",
          "name": "account",
          "type": "address"
        }
      ],
      "name": "renounceRole",
      "outputs": [],
      "stateMutability": "nonpayable",
      "type": "function"
    },
    {
      "inputs": [],
      "name": "revokePendingOwner",
      "outputs": [],
      "stateMutability": "nonpayable",
      "type": "function"
    },
    {
      "inputs": [
        {
          "internalType": "bytes32",
          "name": "role",
          "type": "bytes32"
        },
        {
          "internalType": "address",
          "name": "account",
          "type": "address"
        }
      ],
      "name": "revokeRole",
      "outputs": [],
      "stateMutability": "nonpayable",
      "type": "function"
    },
    {
      "inputs": [
        {
          "internalType": "address",
          "name": "_batchReveal",
          "type": "address"
        }
      ],
      "name": "setBatchReveal",
      "outputs": [],
      "stateMutability": "nonpayable",
      "type": "function"
    },
    {
      "inputs": [
        {
          "internalType": "address",
          "name": "_joeFeeCollector",
          "type": "address"
        }
      ],
      "name": "setDefaultJoeFeeCollector",
      "outputs": [],
      "stateMutability": "nonpayable",
      "type": "function"
    },
    {
      "inputs": [
        {
          "internalType": "uint256",
          "name": "_joeFeePercent",
          "type": "uint256"
        }
      ],
      "name": "setDefaultJoeFeePercent",
      "outputs": [],
      "stateMutability": "nonpayable",
      "type": "function"
    },
    {
      "inputs": [
        {
          "internalType": "address",
          "name": "_flatLaunchpegImplementation",
          "type": "address"
        }
      ],
      "name": "setFlatLaunchpegImplementation",
      "outputs": [],
      "stateMutability": "nonpayable",
      "type": "function"
    },
    {
      "inputs": [
        {
          "internalType": "address",
          "name": "_launchpegImplementation",
          "type": "address"
        }
      ],
      "name": "setLaunchpegImplementation",
      "outputs": [],
      "stateMutability": "nonpayable",
      "type": "function"
    },
    {
      "inputs": [
        {
          "internalType": "address",
          "name": "pendingOwner_",
          "type": "address"
        }
      ],
      "name": "setPendingOwner",
      "outputs": [],
      "stateMutability": "nonpayable",
      "type": "function"
    },
    {
      "inputs": [
        {
          "internalType": "bytes4",
          "name": "interfaceId",
          "type": "bytes4"
        }
      ],
      "name": "supportsInterface",
      "outputs": [
        {
          "internalType": "bool",
          "name": "",
          "type": "bool"
        }
      ],
      "stateMutability": "view",
      "type": "function"
    }
  ],
  "transactionHash": "0x0a6c1c9de25194f95d6e3f2355ef99f3c4a92daa02f99ec57e24a733c836b72d",
  "args": [],
  "numDeployments": 1,
  "solcInputHash": "60af1768f903d522223c469d6fc49210",
  "bytecode": "0x608060405234801561001057600080fd5b50611f32806100206000396000f3fe608060405234801561001057600080fd5b50600436106102115760003560e01c80637dd71ca411610125578063b264318c116100ad578063d39d153d1161007c578063d39d153d1461049a578063d547741f146104ad578063e30c3978146104c0578063e4b26d84146104d1578063f9dca989146104e457600080fd5b8063b264318c14610458578063c42069ec1461046b578063c5482fe31461047e578063ca15c8731461048757600080fd5b806391d14854116100f457806391d14854146103e9578063954e75c5146103fc578063a217fddf1461040f578063a56f016014610417578063abcc76171461042a57600080fd5b80637dd71ca41461039f5780638bb4ee24146103b25780638da5cb5b146103c55780639010d07c146103d657600080fd5b806347f0dcef116101a85780635c040443116101775780635c0404431461034957806367ab8a4e1461035c578063715018a614610364578063776f1b1c1461036c5780637cbe8d671461038c57600080fd5b806347f0dcef146102fb578063530b97a41461031057806353edb426146103235780635bb213761461033657600080fd5b80632f2ff15d116101e45780632f2ff15d146102af578063306ec748146102c257806336568abe146102d557806337daf4ca146102e857600080fd5b806301ffc9a71461021657806321cc16111461023e5780632265708a14610269578063248a9ca31461027e575b600080fd5b610229610224366004611abf565b6104ec565b60405190151581526020015b60405180910390f35b60d154610251906001600160a01b031681565b6040516001600160a01b039091168152602001610235565b61027c610277366004611a58565b61050c565b005b6102a161028c366004611a58565b60009081526067602052604090206001015490565b604051908152602001610235565b61027c6102bd366004611a71565b610595565b6102516102d0366004611a9d565b610624565b61027c6102e3366004611a71565b61065c565b60cc54610251906001600160a01b031681565b6102a1600080516020611edd83398151915281565b61027c61031e3660046119fa565b61068a565b61027c6103313660046119df565b61085e565b60ce54610251906001600160a01b031681565b61027c6103573660046119df565b6108fa565b61027c610915565b61027c610975565b6102a161037a366004611a58565b600090815260d0602052604090205490565b61027c61039a3660046119df565b6109aa565b6102516103ad366004611ae9565b610a46565b60cb54610251906001600160a01b031681565b6065546001600160a01b0316610251565b6102516103e4366004611a9d565b610cca565b6102296103f7366004611a71565b610ce9565b61027c61040a3660046119df565b610d14565b6102a1600081565b61027c6104253660046119df565b610db0565b610229610438366004611a71565b60cf60209081526000928352604080842090915290825290205460ff1681565b61027c6104663660046119df565b610e6f565b61027c6104793660046119df565b610e87565b6102a160cd5481565b6102a1610495366004611a58565b610f0c565b6102516104a8366004611ba6565b610f23565b61027c6104bb366004611a71565b6111ab565b6066546001600160a01b0316610251565b61027c6104df3660046119df565b61122f565b61027c6112cb565b60006104f78261130a565b8061050657506105068261133f565b92915050565b6065546001600160a01b0316331461053757604051630202a8bf60e61b815260040160405180910390fd5b61271081111561055a576040516346b7d95d60e11b815260040160405180910390fd5b60cd8190556040518181527f4745ea19c676a0945640ec34419fe0680d70511432fc85a2d605840ab568e6329060200160405180910390a150565b81806105b45760405163e466584960e01b815260040160405180910390fd5b6000838152606760205260409020600101546065546001600160a01b031633148015906105e857506105e68133610ce9565b155b156106145760405163f9019a8d60e01b8152600481018290523360248201526044015b60405180910390fd5b61061e8484611364565b50505050565b60d0602052816000526040600020818154811061064057600080fd5b6000918252602090912001546001600160a01b03169150829050565b818061067b5760405163e466584960e01b815260040160405180910390fd5b6106858383611386565b505050565b600054610100900460ff166106a55760005460ff16156106a9565b303b155b61070c5760405162461bcd60e51b815260206004820152602e60248201527f496e697469616c697a61626c653a20636f6e747261637420697320616c72656160448201526d191e481a5b9a5d1a585b1a5e995960921b606482015260840161060b565b600054610100900460ff1615801561072e576000805461ffff19166101011790555b610736611404565b6001600160a01b03861661075d57604051637c14876160e01b815260040160405180910390fd5b6001600160a01b03851661078457604051637c14876160e01b815260040160405180910390fd5b6001600160a01b0384166107ab5760405163600dd44b60e01b815260040160405180910390fd5b6127108311156107ce576040516346b7d95d60e11b815260040160405180910390fd5b6001600160a01b0382166107f557604051631a1b629760e21b815260040160405180910390fd5b60cb80546001600160a01b038089166001600160a01b03199283161790925560cc805488841690831617905560d1805487841690831617905560cd85905560ce8054928516929091169190911790558015610856576000805461ff00191690555b505050505050565b6065546001600160a01b0316331461088957604051630202a8bf60e61b815260040160405180910390fd5b6001600160a01b0381166108b057604051631a1b629760e21b815260040160405180910390fd5b60ce80546001600160a01b0319166001600160a01b0383169081179091556040517fe641fd1cd94961ec6280816da07b756907548d41a011cad54123b611f984242f90600090a250565b610912600080516020611edd83398151915282610595565b50565b6065546001600160a01b0316331461094057604051630202a8bf60e61b815260040160405180910390fd5b6066546001600160a01b03166109695760405163128be5bf60e31b815260040160405180910390fd5b6109736000611443565b565b6065546001600160a01b031633146109a057604051630202a8bf60e61b815260040160405180910390fd5b610973600061148d565b6065546001600160a01b031633146109d557604051630202a8bf60e61b815260040160405180910390fd5b6001600160a01b0381166109fc57604051637c14876160e01b815260040160405180910390fd5b60cc80546001600160a01b0319166001600160a01b0383169081179091556040517f8549b2b39c65a9c4ca6b1037f64209a139ef0fc440cd914c14088dd2a368287c90600090a250565b6065546000906001600160a01b03163314610a7457604051630202a8bf60e61b815260040160405180910390fd5b60cc54600090610a8c906001600160a01b03166114cc565b6001600160a01b03811660008181527f9bb4860ae4018b7a63008e1d4c4f2ef74d5a095e46377c820dc3f962c67498e860209081526040808320805460ff1916600190811790915560d083527f77f2c0ceb108931ae1752982c6028a6c43603b39c3741036378ca346c95925298054918201815584527f52a14d2d083875cf73dfb5012a2e3cd61365916b4499c82a2ccbea5f587855140180546001600160a01b0319169094179093558251610100810184528f81529081018e90529293509190810185610b5b576000610b68565b60d1546001600160a01b03165b6001600160a01b031681526020018981526020018881526020018781526020016000815260200186815250905060006040518060a00160405280336001600160a01b031681526020018c6001600160a01b031681526020018b6001600160a01b0316815260200160ce60009054906101000a90046001600160a01b03166001600160a01b0316815260200160cd548152509050826001600160a01b031663b560ee6983836040518363ffffffff1660e01b8152600401610c29929190611da1565b600060405180830381600087803b158015610c4357600080fd5b505af1158015610c57573d6000803e3d6000fd5b505050505050876001600160a01b0316896001600160a01b0316826001600160a01b03167ff3ae30c363365bc3afc1d55a8019ee6e85f834f8cf0bc6e0e9b8ec3229d12de88e8e8c8c8c8c604051610cb496959493929190611cbb565b60405180910390a49a9950505050505050505050565b6000828152609960205260408120610ce29083611569565b9392505050565b60009182526067602090815260408084206001600160a01b0393909316845291905290205460ff1690565b6065546001600160a01b03163314610d3f57604051630202a8bf60e61b815260040160405180910390fd5b6001600160a01b038116610d6657604051637c14876160e01b815260040160405180910390fd5b60cb80546001600160a01b0319166001600160a01b0383169081179091556040517f8084d0fd0870539f0703b9cf74b2618239081b020be6da48c74b2a6ab670dcfb90600090a250565b600080516020611edd833981519152610dd16065546001600160a01b031690565b6001600160a01b0316336001600160a01b031614158015610df95750610df78133610ce9565b155b15610e205760405163f9019a8d60e01b81526004810182905233602482015260440161060b565b816001600160a01b0316638456cb596040518163ffffffff1660e01b8152600401600060405180830381600087803b158015610e5b57600080fd5b505af1158015610856573d6000803e3d6000fd5b610912600080516020611edd833981519152826111ab565b6065546001600160a01b03163314610eb257604051630202a8bf60e61b815260040160405180910390fd5b6001600160a01b038116610ed9576040516386850cc360e01b815260040160405180910390fd5b6066546001600160a01b031615610f035760405163033c108960e01b815260040160405180910390fd5b61091281611443565b600081815260996020526040812061050690611575565b6065546000906001600160a01b03163314610f5157604051630202a8bf60e61b815260040160405180910390fd5b60cb54600090610f69906001600160a01b03166114cc565b9050600160cf60008081526020019081526020016000206000836001600160a01b03166001600160a01b0316815260200190815260200160002060006101000a81548160ff02191690831515021790555060d06000808152602001908152602001600020819080600181540180825580915050600190039060005260206000200160009091909190916101000a8154816001600160a01b0302191690836001600160a01b0316021790555060006040518061010001604052808e81526020018d81526020018561103a576000611047565b60d1546001600160a01b03165b6001600160a01b031681526020018a815260200189815260200186815260200188815260200187815250905060006040518060a00160405280336001600160a01b031681526020018d6001600160a01b031681526020018c6001600160a01b0316815260200160ce60009054906101000a90046001600160a01b03166001600160a01b0316815260200160cd548152509050826001600160a01b031663b560ee6983836040518363ffffffff1660e01b8152600401611107929190611da1565b600060405180830381600087803b15801561112157600080fd5b505af1158015611135573d6000803e3d6000fd5b505050505050886001600160a01b03168a6001600160a01b0316826001600160a01b03167f1f9d8b5611391992ec4de203bc1a4f6ac6efcf804eaa81659960d389ecf444b98f8f8d8d8d8d8d6040516111949796959493929190611d06565b60405180910390a49b9a5050505050505050505050565b81806111ca5760405163e466584960e01b815260040160405180910390fd5b6000838152606760205260409020600101546065546001600160a01b031633148015906111fe57506111fc8133610ce9565b155b156112255760405163f9019a8d60e01b81526004810182905233602482015260440161060b565b61061e848461157f565b6065546001600160a01b0316331461125a57604051630202a8bf60e61b815260040160405180910390fd5b6001600160a01b0381166112815760405163600dd44b60e01b815260040160405180910390fd5b60d180546001600160a01b0319166001600160a01b0383169081179091556040517f05f6bad02832e7104453b7aac929b5da9f741aa594ab6e603786c38059af4f7190600090a250565b6066546001600160a01b0316331415806112e3575033155b156113015760405163134aa98760e31b815260040160405180910390fd5b6109733361148d565b60006001600160e01b031982166322d7505760e11b148061050657506301ffc9a760e01b6001600160e01b0319831614610506565b60006001600160e01b03198216635a05180f60e01b14806105065750610506826115a1565b61136e82826115c6565b6000828152609960205260409020610685908261164c565b6001600160a01b03811633146113f65760405162461bcd60e51b815260206004820152602f60248201527f416363657373436f6e74726f6c3a2063616e206f6e6c792072656e6f756e636560448201526e103937b632b9903337b91039b2b63360891b606482015260840161060b565b611400828261157f565b5050565b600054610100900460ff1661142b5760405162461bcd60e51b815260040161060b90611d56565b611433611661565b61143b611698565b610973611698565b606680546001600160a01b0319166001600160a01b0383169081179091556040517f68f49b346b94582a8b5f9d10e3fe3365318fe8f191ff8dce7c59c6cad06b02f590600090a250565b6114a960006114a46065546001600160a01b031690565b61157f565b6001600160a01b038116156114c3576114c3600082611364565b610912816116bf565b6000604051733d602d80600a3d3981f3363d3d373d3d3d363d7360601b81528260601b60148201526e5af43d82803e903d91602b57fd5bf360881b60288201526037816000f09150506001600160a01b0381166115645760405162461bcd60e51b8152602060048201526016602482015275115490cc4c4d8dce8818dc99585d194819985a5b195960521b604482015260640161060b565b919050565b6000610ce2838361171c565b6000610506825490565b6115898282611746565b600082815260996020526040902061068590826117ad565b60006001600160e01b03198216637965db0b60e01b148061050657506105068261130a565b6115d08282610ce9565b6114005760008281526067602090815260408083206001600160a01b03851684529091529020805460ff191660011790556116083390565b6001600160a01b0316816001600160a01b0316837f2f8788117e7eff1d82e926ec794901d17c78024a50270940304540a733656f0d60405160405180910390a45050565b6000610ce2836001600160a01b0384166117c2565b600054610100900460ff166116885760405162461bcd60e51b815260040161060b90611d56565b611690611698565b610973611811565b600054610100900460ff166109735760405162461bcd60e51b815260040161060b90611d56565b606580546001600160a01b038381166001600160a01b03198084168217909455606680549094169093556040519116919082907f8be0079c531659141344cd1fd0a4f28419497f9722a3daafe3b4186f6b6457e090600090a35050565b600082600001828154811061173357611733611eb0565b9060005260206000200154905092915050565b6117508282610ce9565b156114005760008281526067602090815260408083206001600160a01b0385168085529252808320805460ff1916905551339285917ff6391f5c32d9c69d2a47ea670b442974b53935d1edc7fd64eb21e047a839171b9190a45050565b6000610ce2836001600160a01b038416611838565b600081815260018301602052604081205461180957508154600181810184556000848152602080822090930184905584548482528286019093526040902091909155610506565b506000610506565b600054610100900460ff166113015760405162461bcd60e51b815260040161060b90611d56565b6000818152600183016020526040812054801561192157600061185c600183611e75565b855490915060009061187090600190611e75565b90508181146118d557600086600001828154811061189057611890611eb0565b90600052602060002001549050808760000184815481106118b3576118b3611eb0565b6000918252602080832090910192909255918252600188019052604090208390555b85548690806118e6576118e6611e9a565b600190038181906000526020600020016000905590558560010160008681526020019081526020016000206000905560019350505050610506565b6000915050610506565b80356001600160a01b038116811461156457600080fd5b8035801515811461156457600080fd5b600082601f83011261196357600080fd5b813567ffffffffffffffff8082111561197e5761197e611ec6565b604051601f8301601f19908116603f011681019082821181831017156119a6576119a6611ec6565b816040528381528660208588010111156119bf57600080fd5b836020870160208301376000602085830101528094505050505092915050565b6000602082840312156119f157600080fd5b610ce28261192b565b600080600080600060a08688031215611a1257600080fd5b611a1b8661192b565b9450611a296020870161192b565b9350611a376040870161192b565b925060608601359150611a4c6080870161192b565b90509295509295909350565b600060208284031215611a6a57600080fd5b5035919050565b60008060408385031215611a8457600080fd5b82359150611a946020840161192b565b90509250929050565b60008060408385031215611ab057600080fd5b50508035926020909101359150565b600060208284031215611ad157600080fd5b81356001600160e01b031981168114610ce257600080fd5b60008060008060008060008060006101208a8c031215611b0857600080fd5b893567ffffffffffffffff80821115611b2057600080fd5b611b2c8d838e01611952565b9a5060208c0135915080821115611b4257600080fd5b50611b4f8c828d01611952565b985050611b5e60408b0161192b565b9650611b6c60608b0161192b565b955060808a0135945060a08a0135935060c08a0135925060e08a01359150611b976101008b01611942565b90509295985092959850929598565b6000806000806000806000806000806101408b8d031215611bc657600080fd5b8a3567ffffffffffffffff80821115611bde57600080fd5b611bea8e838f01611952565b9b5060208d0135915080821115611c0057600080fd5b50611c0d8d828e01611952565b995050611c1c60408c0161192b565b9750611c2a60608c0161192b565b965060808b0135955060a08b0135945060c08b0135935060e08b013592506101008b01359150611c5d6101208c01611942565b90509295989b9194979a5092959850565b6000815180845260005b81811015611c9457602081850181015186830182015201611c78565b81811115611ca6576000602083870101525b50601f01601f19169290920160200192915050565b60c081526000611cce60c0830189611c6e565b8281036020840152611ce08189611c6e565b9150508560408301528460608301528360808301528260a0830152979650505050505050565b60e081526000611d1960e083018a611c6e565b8281036020840152611d2b818a611c6e565b604084019890985250506060810194909452608084019290925260a083015260c09091015292915050565b6020808252602b908201527f496e697469616c697a61626c653a20636f6e7472616374206973206e6f74206960408201526a6e697469616c697a696e6760a81b606082015260800190565b60c08152600083516101008060c0850152611dc06101c0850183611c6e565b9150602086015160bf198584030160e0860152611ddd8382611c6e565b60408801516001600160a01b031692860192909252506060860151610120850152608086015161014085015260a086015161016085015260c086015161018085015260e08601516101a08501529150610ce29050602083018480516001600160a01b03908116835260208083015182169084015260408083015182169084015260608083015190911690830152608090810151910152565b600082821015611e9557634e487b7160e01b600052601160045260246000fd5b500390565b634e487b7160e01b600052603160045260246000fd5b634e487b7160e01b600052603260045260246000fd5b634e487b7160e01b600052604160045260246000fdfe7dbc69cd9b785cb1ad056f848b1d2b371afd61d9e084183209988bd117c24f90a2646970667358221220c46980e167b42126610397d8d259597f0e14d932642d3bdd38564a1286df609464736f6c63430008060033",
  "devdoc": {
    "author": "Trader Joe",
    "kind": "dev",
    "methods": {
      "addLaunchpegPauser(address)": {
        "params": {
          "_pauser": "Pauser address"
        }
      },
      "createFlatLaunchpeg(string,string,address,address,uint256,uint256,uint256,uint256,bool)": {
        "params": {
          "_amountForAllowlist": "Amount of NFTs available for the allowlist mint (e.g 1000)",
          "_amountForDevs": "Amount of NFTs reserved for `projectOwner` (e.g 200)",
          "_collectionSize": "The collection size (e.g 10000)",
          "_enableBatchReveal": "Flag to enable batch reveal for the collection",
          "_maxPerAddressDuringMint": "Max amount of NFTs an address can mint in public phases",
          "_name": "ERC721 name",
          "_projectOwner": "The project owner",
          "_royaltyReceiver": "Royalty fee collector",
          "_symbol": "ERC721 symbol"
        },
        "returns": {
          "_0": "flatLaunchpeg New FlatLaunchpeg address"
        }
      },
      "createLaunchpeg(string,string,address,address,uint256,uint256,uint256,uint256,uint256,bool)": {
        "params": {
          "_amountForAllowlist": "Amount of NFTs available for the allowlist mint (e.g 1000)",
          "_amountForAuction": "Amount of NFTs available for the auction (e.g 8000)",
          "_amountForDevs": "Amount of NFTs reserved for `projectOwner` (e.g 200)",
          "_collectionSize": "The collection size (e.g 10000)",
          "_enableBatchReveal": "Flag to enable batch reveal for the collection",
          "_maxPerAddressDuringMint": "Max amount of NFTs an address can mint in public phases",
          "_name": "ERC721 name",
          "_projectOwner": "The project owner",
          "_royaltyReceiver": "Royalty fee collector",
          "_symbol": "ERC721 symbol"
        },
        "returns": {
          "_0": "launchpeg New Launchpeg address"
        }
      },
      "getRoleAdmin(bytes32)": {
        "details": "Returns the admin role that controls `role`. See {grantRole} and {revokeRole}. To change a role's admin, use {_setRoleAdmin}."
      },
      "getRoleMember(bytes32,uint256)": {
        "details": "Returns one of the accounts that have `role`. `index` must be a value between 0 and {getRoleMemberCount}, non-inclusive. Role bearers are not sorted in any particular way, and their ordering may change at any point. WARNING: When using {getRoleMember} and {getRoleMemberCount}, make sure you perform all queries on the same block. See the following https://forum.openzeppelin.com/t/iterating-over-elements-on-enumerableset-in-openzeppelin-contracts/2296[forum post] for more information."
      },
      "getRoleMemberCount(bytes32)": {
        "details": "Returns the number of accounts that have `role`. Can be used together with {getRoleMember} to enumerate all bearers of a role."
      },
      "grantRole(bytes32,address)": {
        "details": "If `account` had not been already granted `role`, emits a {RoleGranted} event. Requirements: - the caller must be the `owner` or have ``role``'s admin role. - the role granted can't be `DEFAULT_ADMIN`",
        "params": {
          "account": "The address of the account",
          "role": "The role to grant"
        }
      },
      "hasRole(bytes32,address)": {
        "details": "Returns `true` if `account` has been granted `role`."
      },
      "initialize(address,address,address,uint256,address)": {
        "details": "Uses clone factory pattern to save space",
        "params": {
          "_batchReveal": "Batch reveal address",
          "_flatLaunchpegImplementation": "FlatLaunchpeg contract to be cloned",
          "_joeFeeCollector": "Default fee collector",
          "_joeFeePercent": "Default fee percentage",
          "_launchpegImplementation": "Launchpeg contract to be cloned"
        }
      },
      "numLaunchpegs(uint256)": {
        "params": {
          "_launchpegType": "Type of Launchpeg to consider"
        },
        "returns": {
          "_0": "LaunchpegNumber The number of Launchpegs ever created"
        }
      },
      "owner()": {
        "returns": {
          "_0": "The address of the current owner"
        }
      },
      "pauseLaunchpeg(address)": {
        "params": {
          "_launchpeg": "Launchpeg address"
        }
      },
      "pendingOwner()": {
        "returns": {
          "_0": "The address of the current pending owner"
        }
      },
      "removeLaunchpegPauser(address)": {
        "params": {
          "_pauser": "Pauser address"
        }
      },
      "renounceRole(bytes32,address)": {
        "details": "Roles are often managed via {grantRole} and {revokeRole}: this function's purpose is to provide a mechanism for accounts to lose their privileges if they are compromised (such as when a trusted device is misplaced). If the calling account had been revoked `role`, emits a {RoleRevoked} event. Requirements: - the caller must be `account`. - the role renounced can't be `DEFAULT_ADMIN`",
        "params": {
          "account": "The address of the account",
          "role": "The role to renounce"
        }
      },
      "revokeRole(bytes32,address)": {
        "details": "If `account` had been granted `role`, emits a {RoleRevoked} event. Requirements: - the caller must be the `owner` or have ``role``'s admin role. - the role revoked can't be `DEFAULT_ADMIN`",
        "params": {
          "account": "The address of the account",
          "role": "The role to revoke"
        }
      },
      "setBatchReveal(address)": {
        "params": {
          "_batchReveal": "New batch reveal"
        }
      },
      "setDefaultJoeFeeCollector(address)": {
        "params": {
          "_joeFeeCollector": "New collector address"
        }
      },
      "setDefaultJoeFeePercent(uint256)": {
        "params": {
          "_joeFeePercent": "New joeFeePercent"
        }
      },
      "setFlatLaunchpegImplementation(address)": {
        "params": {
          "_flatLaunchpegImplementation": "New flatLaunchpegImplementation"
        }
      },
      "setLaunchpegImplementation(address)": {
        "params": {
          "_launchpegImplementation": "New launchpegImplementation"
        }
      },
      "supportsInterface(bytes4)": {
        "details": "Returns true if this contract implements the interface defined by `interfaceId`. See the corresponding https://eips.ethereum.org/EIPS/eip-165#how-interfaces-are-identified[EIP section] to learn more about how these ids are created. This function call must use less than 30 000 gas."
      }
    },
    "stateVariables": {
      "joeFeePercent": {
        "details": "In basis points e.g 100 for 1%"
      }
    },
    "title": "Launchpeg Factory",
    "version": 1
  },
  "userdoc": {
    "kind": "user",
    "methods": {
      "addLaunchpegPauser(address)": {
        "notice": "Grants LAUNCHPEG_PAUSER_ROLE to an address. The address will be able to pause any Launchpeg collection"
      },
      "allLaunchpegs(uint256,uint256)": {
        "notice": "Launchpegs address list by type of Launchpeg"
      },
      "batchReveal()": {
        "notice": "Batch reveal address"
      },
      "becomeOwner()": {
        "notice": "Transfers the ownership to the new owner (`pendingOwner`). Can only be called by the pending owner"
      },
      "createFlatLaunchpeg(string,string,address,address,uint256,uint256,uint256,uint256,bool)": {
        "notice": "FlatLaunchpeg creation"
      },
      "createLaunchpeg(string,string,address,address,uint256,uint256,uint256,uint256,uint256,bool)": {
        "notice": "Launchpeg creation"
      },
      "flatLaunchpegImplementation()": {
        "notice": "FlatLaunchpeg contract to be cloned"
      },
      "grantRole(bytes32,address)": {
        "notice": "Grants `role` to `account`."
      },
      "initialize(address,address,address,uint256,address)": {
        "notice": "Initializes the Launchpeg factory"
      },
      "isLaunchpeg(uint256,address)": {
        "notice": "Checks if an address is stored as a Launchpeg, by type of Launchpeg"
      },
      "joeFeeCollector()": {
        "notice": "Default fee collector"
      },
      "joeFeePercent()": {
        "notice": "Default fee percentage"
      },
      "launchpegImplementation()": {
        "notice": "Launchpeg contract to be cloned"
      },
      "numLaunchpegs(uint256)": {
        "notice": "Returns the number of Launchpegs"
      },
      "owner()": {
        "notice": "Returns the address of the current owner"
      },
      "pauseLaunchpeg(address)": {
        "notice": "Pause specified Launchpeg"
      },
      "pendingOwner()": {
        "notice": "Returns the address of the current pending owner"
      },
      "removeLaunchpegPauser(address)": {
        "notice": "Revokes LAUNCHPEG_PAUSER_ROLE from an address. The address will not be able to pause any Launchpeg collection"
      },
      "renounceOwnership()": {
        "notice": "Leaves the contract without owner. It will not be possible to call `onlyOwner` functions anymore. Can only be called by the current owner. NOTE: Renouncing ownership will leave the contract without an owner, thereby removing any functionality that is only available to the owner."
      },
      "renounceRole(bytes32,address)": {
        "notice": "Revokes `role` from the calling account."
      },
      "revokePendingOwner()": {
        "notice": "Revoke the pending owner address. This address will not be able to call {becomeOwner} to become the owner anymore. Can only be called by the owner"
      },
      "revokeRole(bytes32,address)": {
        "notice": "Revokes `role` from `account`."
      },
      "setBatchReveal(address)": {
        "notice": "Set batch reveal address"
      },
      "setDefaultJoeFeeCollector(address)": {
        "notice": "Set default address to collect protocol fees"
      },
      "setDefaultJoeFeePercent(uint256)": {
        "notice": "Set percentage of protocol fees"
      },
      "setFlatLaunchpegImplementation(address)": {
        "notice": "Set address for flatLaunchpegImplementation"
      },
      "setLaunchpegImplementation(address)": {
        "notice": "Set address for launchpegImplementation"
      },
      "setPendingOwner(address)": {
        "notice": "Sets the pending owner address. This address will be able to become the owner of this contract by calling {becomeOwner}"
      }
    },
    "notice": "Factory that creates Launchpeg contracts",
    "version": 1
  },
  "storageLayout": {
    "storage": [
      {
        "astId": 810,
        "contract": "contracts/LaunchpegFactory.sol:LaunchpegFactory",
        "label": "_initialized",
        "offset": 0,
        "slot": "0",
        "type": "t_bool"
      },
      {
        "astId": 813,
        "contract": "contracts/LaunchpegFactory.sol:LaunchpegFactory",
        "label": "_initializing",
        "offset": 1,
        "slot": "0",
        "type": "t_bool"
      },
      {
        "astId": 1710,
        "contract": "contracts/LaunchpegFactory.sol:LaunchpegFactory",
        "label": "__gap",
        "offset": 0,
        "slot": "1",
        "type": "t_array(t_uint256)50_storage"
      },
      {
        "astId": 1957,
        "contract": "contracts/LaunchpegFactory.sol:LaunchpegFactory",
        "label": "__gap",
        "offset": 0,
        "slot": "51",
        "type": "t_array(t_uint256)50_storage"
      },
      {
        "astId": 11452,
        "contract": "contracts/LaunchpegFactory.sol:LaunchpegFactory",
        "label": "_owner",
        "offset": 0,
        "slot": "101",
        "type": "t_address"
      },
      {
        "astId": 11454,
        "contract": "contracts/LaunchpegFactory.sol:LaunchpegFactory",
        "label": "_pendingOwner",
        "offset": 0,
        "slot": "102",
        "type": "t_address"
      },
      {
        "astId": 273,
        "contract": "contracts/LaunchpegFactory.sol:LaunchpegFactory",
        "label": "_roles",
        "offset": 0,
        "slot": "103",
        "type": "t_mapping(t_bytes32,t_struct(RoleData)268_storage)"
      },
      {
        "astId": 561,
        "contract": "contracts/LaunchpegFactory.sol:LaunchpegFactory",
        "label": "__gap",
        "offset": 0,
        "slot": "104",
        "type": "t_array(t_uint256)49_storage"
      },
      {
        "astId": 122,
        "contract": "contracts/LaunchpegFactory.sol:LaunchpegFactory",
        "label": "_roleMembers",
        "offset": 0,
        "slot": "153",
        "type": "t_mapping(t_bytes32,t_struct(AddressSet)2282_storage)"
      },
      {
        "astId": 232,
        "contract": "contracts/LaunchpegFactory.sol:LaunchpegFactory",
        "label": "__gap",
        "offset": 0,
        "slot": "154",
        "type": "t_array(t_uint256)49_storage"
      },
      {
        "astId": 7965,
        "contract": "contracts/LaunchpegFactory.sol:LaunchpegFactory",
        "label": "launchpegImplementation",
        "offset": 0,
        "slot": "203",
        "type": "t_address"
      },
      {
        "astId": 7969,
        "contract": "contracts/LaunchpegFactory.sol:LaunchpegFactory",
        "label": "flatLaunchpegImplementation",
        "offset": 0,
        "slot": "204",
        "type": "t_address"
      },
      {
        "astId": 7973,
        "contract": "contracts/LaunchpegFactory.sol:LaunchpegFactory",
        "label": "joeFeePercent",
        "offset": 0,
        "slot": "205",
        "type": "t_uint256"
      },
      {
        "astId": 7977,
        "contract": "contracts/LaunchpegFactory.sol:LaunchpegFactory",
        "label": "joeFeeCollector",
        "offset": 0,
        "slot": "206",
        "type": "t_address"
      },
      {
        "astId": 7985,
        "contract": "contracts/LaunchpegFactory.sol:LaunchpegFactory",
        "label": "isLaunchpeg",
        "offset": 0,
        "slot": "207",
        "type": "t_mapping(t_uint256,t_mapping(t_address,t_bool))"
      },
      {
        "astId": 7992,
        "contract": "contracts/LaunchpegFactory.sol:LaunchpegFactory",
        "label": "allLaunchpegs",
        "offset": 0,
        "slot": "208",
        "type": "t_mapping(t_uint256,t_array(t_address)dyn_storage)"
      },
      {
        "astId": 7996,
        "contract": "contracts/LaunchpegFactory.sol:LaunchpegFactory",
        "label": "batchReveal",
        "offset": 0,
        "slot": "209",
        "type": "t_address"
      }
    ],
    "types": {
      "t_address": {
        "encoding": "inplace",
        "label": "address",
        "numberOfBytes": "20"
      },
      "t_array(t_address)dyn_storage": {
        "base": "t_address",
        "encoding": "dynamic_array",
        "label": "address[]",
        "numberOfBytes": "32"
      },
      "t_array(t_bytes32)dyn_storage": {
        "base": "t_bytes32",
        "encoding": "dynamic_array",
        "label": "bytes32[]",
        "numberOfBytes": "32"
      },
      "t_array(t_uint256)49_storage": {
        "base": "t_uint256",
        "encoding": "inplace",
        "label": "uint256[49]",
        "numberOfBytes": "1568"
      },
      "t_array(t_uint256)50_storage": {
        "base": "t_uint256",
        "encoding": "inplace",
        "label": "uint256[50]",
        "numberOfBytes": "1600"
      },
      "t_bool": {
        "encoding": "inplace",
        "label": "bool",
        "numberOfBytes": "1"
      },
      "t_bytes32": {
        "encoding": "inplace",
        "label": "bytes32",
        "numberOfBytes": "32"
      },
      "t_mapping(t_address,t_bool)": {
        "encoding": "mapping",
        "key": "t_address",
        "label": "mapping(address => bool)",
        "numberOfBytes": "32",
        "value": "t_bool"
      },
      "t_mapping(t_bytes32,t_struct(AddressSet)2282_storage)": {
        "encoding": "mapping",
        "key": "t_bytes32",
        "label": "mapping(bytes32 => struct EnumerableSetUpgradeable.AddressSet)",
        "numberOfBytes": "32",
        "value": "t_struct(AddressSet)2282_storage"
      },
      "t_mapping(t_bytes32,t_struct(RoleData)268_storage)": {
        "encoding": "mapping",
        "key": "t_bytes32",
        "label": "mapping(bytes32 => struct AccessControlUpgradeable.RoleData)",
        "numberOfBytes": "32",
        "value": "t_struct(RoleData)268_storage"
      },
      "t_mapping(t_bytes32,t_uint256)": {
        "encoding": "mapping",
        "key": "t_bytes32",
        "label": "mapping(bytes32 => uint256)",
        "numberOfBytes": "32",
        "value": "t_uint256"
      },
      "t_mapping(t_uint256,t_array(t_address)dyn_storage)": {
        "encoding": "mapping",
        "key": "t_uint256",
        "label": "mapping(uint256 => address[])",
        "numberOfBytes": "32",
        "value": "t_array(t_address)dyn_storage"
      },
      "t_mapping(t_uint256,t_mapping(t_address,t_bool))": {
        "encoding": "mapping",
        "key": "t_uint256",
        "label": "mapping(uint256 => mapping(address => bool))",
        "numberOfBytes": "32",
        "value": "t_mapping(t_address,t_bool)"
      },
      "t_struct(AddressSet)2282_storage": {
        "encoding": "inplace",
        "label": "struct EnumerableSetUpgradeable.AddressSet",
        "members": [
          {
            "astId": 2281,
            "contract": "contracts/LaunchpegFactory.sol:LaunchpegFactory",
            "label": "_inner",
            "offset": 0,
            "slot": "0",
            "type": "t_struct(Set)1981_storage"
          }
        ],
        "numberOfBytes": "64"
      },
      "t_struct(RoleData)268_storage": {
        "encoding": "inplace",
        "label": "struct AccessControlUpgradeable.RoleData",
        "members": [
          {
            "astId": 265,
            "contract": "contracts/LaunchpegFactory.sol:LaunchpegFactory",
            "label": "members",
            "offset": 0,
            "slot": "0",
            "type": "t_mapping(t_address,t_bool)"
          },
          {
            "astId": 267,
            "contract": "contracts/LaunchpegFactory.sol:LaunchpegFactory",
            "label": "adminRole",
            "offset": 0,
            "slot": "1",
            "type": "t_bytes32"
          }
        ],
        "numberOfBytes": "64"
      },
      "t_struct(Set)1981_storage": {
        "encoding": "inplace",
        "label": "struct EnumerableSetUpgradeable.Set",
        "members": [
          {
            "astId": 1976,
            "contract": "contracts/LaunchpegFactory.sol:LaunchpegFactory",
            "label": "_values",
            "offset": 0,
            "slot": "0",
            "type": "t_array(t_bytes32)dyn_storage"
          },
          {
            "astId": 1980,
            "contract": "contracts/LaunchpegFactory.sol:LaunchpegFactory",
            "label": "_indexes",
            "offset": 0,
            "slot": "1",
            "type": "t_mapping(t_bytes32,t_uint256)"
          }
        ],
        "numberOfBytes": "64"
      },
      "t_uint256": {
        "encoding": "inplace",
        "label": "uint256",
        "numberOfBytes": "32"
      }
    }
  }
}