{
  "address": "0x3A3E6d59E045a67ca103D33eD74E0ad5928A1428",
  "abi": [
    {
      "inputs": [],
      "name": "ApprovalCallerNotOwnerNorApproved",
      "type": "error"
    },
    {
      "inputs": [],
      "name": "ApprovalQueryForNonexistentToken",
      "type": "error"
    },
    {
      "inputs": [],
      "name": "ApprovalToCurrentOwner",
      "type": "error"
    },
    {
      "inputs": [],
      "name": "ApproveToCaller",
      "type": "error"
    },
    {
      "inputs": [],
      "name": "BalanceQueryForZeroAddress",
      "type": "error"
    },
    {
      "inputs": [],
      "name": "Launchpeg__AllowlistBeforePreMint",
      "type": "error"
    },
    {
      "inputs": [],
      "name": "Launchpeg__BatchRevealAlreadyInitialized",
      "type": "error"
    },
    {
      "inputs": [],
      "name": "Launchpeg__BatchRevealDisabled",
      "type": "error"
    },
    {
      "inputs": [],
      "name": "Launchpeg__CanNotMintThisMany",
      "type": "error"
    },
    {
      "inputs": [],
      "name": "Launchpeg__EndPriceGreaterThanStartPrice",
      "type": "error"
    },
    {
      "inputs": [],
      "name": "Launchpeg__InvalidAuctionDropInterval",
      "type": "error"
    },
    {
      "inputs": [],
      "name": "Launchpeg__InvalidClaim",
      "type": "error"
    },
    {
      "inputs": [],
      "name": "Launchpeg__InvalidJoeFeeCollector",
      "type": "error"
    },
    {
      "inputs": [],
      "name": "Launchpeg__InvalidMaxPerAddressDuringMint",
      "type": "error"
    },
    {
      "inputs": [],
      "name": "Launchpeg__InvalidOwner",
      "type": "error"
    },
    {
      "inputs": [],
      "name": "Launchpeg__InvalidPercent",
      "type": "error"
    },
    {
      "inputs": [],
      "name": "Launchpeg__InvalidProjectOwner",
      "type": "error"
    },
    {
      "inputs": [],
      "name": "Launchpeg__InvalidQuantity",
      "type": "error"
    },
    {
      "inputs": [],
      "name": "Launchpeg__InvalidRoyaltyInfo",
      "type": "error"
    },
    {
      "inputs": [],
      "name": "Launchpeg__InvalidStartTime",
      "type": "error"
    },
    {
      "inputs": [],
      "name": "Launchpeg__LargerCollectionSizeNeeded",
      "type": "error"
    },
    {
      "inputs": [],
      "name": "Launchpeg__MaxSupplyForDevReached",
      "type": "error"
    },
    {
      "inputs": [],
      "name": "Launchpeg__MaxSupplyReached",
      "type": "error"
    },
    {
      "inputs": [],
      "name": "Launchpeg__NotEligibleForAllowlistMint",
      "type": "error"
    },
    {
      "inputs": [
        {
          "internalType": "uint256",
          "name": "avaxSent",
          "type": "uint256"
        }
      ],
      "name": "Launchpeg__NotEnoughAVAX",
      "type": "error"
    },
    {
      "inputs": [],
      "name": "Launchpeg__NotInitialized",
      "type": "error"
    },
    {
      "inputs": [],
      "name": "Launchpeg__PreMintBeforeAuction",
      "type": "error"
    },
    {
      "inputs": [],
      "name": "Launchpeg__PublicSaleBeforeAllowlist",
      "type": "error"
    },
    {
      "inputs": [],
      "name": "Launchpeg__PublicSaleEndBeforePublicSaleStart",
      "type": "error"
    },
    {
      "inputs": [],
      "name": "Launchpeg__RevealNextBatchNotAvailable",
      "type": "error"
    },
    {
      "inputs": [],
      "name": "Launchpeg__TransferFailed",
      "type": "error"
    },
    {
      "inputs": [],
      "name": "Launchpeg__Unauthorized",
      "type": "error"
    },
    {
      "inputs": [],
      "name": "Launchpeg__WithdrawAVAXNotAvailable",
      "type": "error"
    },
    {
      "inputs": [],
      "name": "Launchpeg__WrongAddressesAndNumSlotsLength",
      "type": "error"
    },
    {
      "inputs": [],
      "name": "Launchpeg__WrongPhase",
      "type": "error"
    },
    {
      "inputs": [],
      "name": "MintToZeroAddress",
      "type": "error"
    },
    {
      "inputs": [],
      "name": "MintZeroQuantity",
      "type": "error"
    },
    {
      "inputs": [],
      "name": "OwnerQueryForNonexistentToken",
      "type": "error"
    },
    {
      "inputs": [],
      "name": "PendingOwnableUpgradeable__AddressZero",
      "type": "error"
    },
    {
      "inputs": [],
      "name": "PendingOwnableUpgradeable__NoPendingOwner",
      "type": "error"
    },
    {
      "inputs": [],
      "name": "PendingOwnableUpgradeable__NotOwner",
      "type": "error"
    },
    {
      "inputs": [],
      "name": "PendingOwnableUpgradeable__NotPendingOwner",
      "type": "error"
    },
    {
      "inputs": [],
      "name": "PendingOwnableUpgradeable__PendingOwnerAlreadySet",
      "type": "error"
    },
    {
      "inputs": [],
      "name": "SafeAccessControlEnumerableUpgradeable__RoleIsDefaultAdmin",
      "type": "error"
    },
    {
      "inputs": [
        {
          "internalType": "bytes32",
          "name": "role",
          "type": "bytes32"
        },
        {
          "internalType": "address",
          "name": "sender",
          "type": "address"
        }
      ],
      "name": "SafeAccessControlEnumerableUpgradeable__SenderMissingRoleAndIsNotOwner",
      "type": "error"
    },
    {
      "inputs": [],
      "name": "SafePausableUpgradeable__AlreadyPaused",
      "type": "error"
    },
    {
      "inputs": [],
      "name": "SafePausableUpgradeable__AlreadyUnpaused",
      "type": "error"
    },
    {
      "inputs": [],
      "name": "TransferCallerNotOwnerNorApproved",
      "type": "error"
    },
    {
      "inputs": [],
      "name": "TransferFromIncorrectOwner",
      "type": "error"
    },
    {
      "inputs": [],
      "name": "TransferToNonERC721ReceiverImplementer",
      "type": "error"
    },
    {
      "inputs": [],
      "name": "TransferToZeroAddress",
      "type": "error"
    },
    {
      "anonymous": false,
      "inputs": [],
      "name": "AllowlistSeeded",
      "type": "event"
    },
    {
      "anonymous": false,
      "inputs": [
        {
          "indexed": false,
          "internalType": "uint256",
          "name": "allowlistStartTime",
          "type": "uint256"
        }
      ],
      "name": "AllowlistStartTimeSet",
      "type": "event"
    },
    {
      "anonymous": false,
      "inputs": [
        {
          "indexed": true,
          "internalType": "address",
          "name": "owner",
          "type": "address"
        },
        {
          "indexed": true,
          "internalType": "address",
          "name": "approved",
          "type": "address"
        },
        {
          "indexed": true,
          "internalType": "uint256",
          "name": "tokenId",
          "type": "uint256"
        }
      ],
      "name": "Approval",
      "type": "event"
    },
    {
      "anonymous": false,
      "inputs": [
        {
          "indexed": true,
          "internalType": "address",
          "name": "owner",
          "type": "address"
        },
        {
          "indexed": true,
          "internalType": "address",
          "name": "operator",
          "type": "address"
        },
        {
          "indexed": false,
          "internalType": "bool",
          "name": "approved",
          "type": "bool"
        }
      ],
      "name": "ApprovalForAll",
      "type": "event"
    },
    {
      "anonymous": false,
      "inputs": [
        {
          "indexed": false,
          "internalType": "uint256",
          "name": "auctionSaleStartTime",
          "type": "uint256"
        }
      ],
      "name": "AuctionSaleStartTimeSet",
      "type": "event"
    },
    {
      "anonymous": false,
      "inputs": [
        {
          "indexed": true,
          "internalType": "address",
          "name": "sender",
          "type": "address"
        },
        {
          "indexed": false,
          "internalType": "uint256",
          "name": "amount",
          "type": "uint256"
        },
        {
          "indexed": false,
          "internalType": "uint256",
          "name": "fee",
          "type": "uint256"
        }
      ],
      "name": "AvaxWithdraw",
      "type": "event"
    },
    {
      "anonymous": false,
      "inputs": [
        {
          "indexed": false,
          "internalType": "string",
          "name": "baseURI",
          "type": "string"
        }
      ],
      "name": "BaseURISet",
      "type": "event"
    },
    {
      "anonymous": false,
      "inputs": [
        {
          "indexed": true,
          "internalType": "address",
          "name": "receiver",
          "type": "address"
        },
        {
          "indexed": false,
          "internalType": "uint256",
          "name": "feePercent",
          "type": "uint256"
        }
      ],
      "name": "DefaultRoyaltySet",
      "type": "event"
    },
    {
      "anonymous": false,
      "inputs": [
        {
          "indexed": true,
          "internalType": "address",
          "name": "sender",
          "type": "address"
        },
        {
          "indexed": false,
          "internalType": "uint256",
          "name": "quantity",
          "type": "uint256"
        }
      ],
      "name": "DevMint",
      "type": "event"
    },
    {
      "anonymous": false,
      "inputs": [
        {
          "indexed": false,
          "internalType": "uint256",
          "name": "auctionSaleStartTime",
          "type": "uint256"
        },
        {
          "indexed": false,
          "internalType": "uint256",
          "name": "auctionStartPrice",
          "type": "uint256"
        },
        {
          "indexed": false,
          "internalType": "uint256",
          "name": "auctionEndPrice",
          "type": "uint256"
        },
        {
          "indexed": false,
          "internalType": "uint256",
          "name": "auctionDropInterval",
          "type": "uint256"
        },
        {
          "indexed": false,
          "internalType": "uint256",
          "name": "preMintStartTime",
          "type": "uint256"
        },
        {
          "indexed": false,
          "internalType": "uint256",
          "name": "allowlistStartTime",
          "type": "uint256"
        },
        {
          "indexed": false,
          "internalType": "uint256",
          "name": "allowlistDiscountPercent",
          "type": "uint256"
        },
        {
          "indexed": false,
          "internalType": "uint256",
          "name": "publicSaleStartTime",
          "type": "uint256"
        },
        {
          "indexed": false,
          "internalType": "uint256",
          "name": "publicSaleEndTime",
          "type": "uint256"
        },
        {
          "indexed": false,
          "internalType": "uint256",
          "name": "publicSaleDiscountPercent",
          "type": "uint256"
        }
      ],
      "name": "Initialized",
      "type": "event"
    },
    {
      "anonymous": false,
      "inputs": [
        {
          "indexed": false,
          "internalType": "uint256",
          "name": "feePercent",
          "type": "uint256"
        },
        {
          "indexed": false,
          "internalType": "address",
          "name": "feeCollector",
          "type": "address"
        }
      ],
      "name": "JoeFeeInitialized",
      "type": "event"
    },
    {
      "anonymous": false,
      "inputs": [
        {
          "indexed": true,
          "internalType": "address",
          "name": "sender",
          "type": "address"
        },
        {
          "indexed": false,
          "internalType": "uint256",
          "name": "quantity",
          "type": "uint256"
        },
        {
          "indexed": false,
          "internalType": "uint256",
          "name": "price",
          "type": "uint256"
        },
        {
          "indexed": false,
          "internalType": "uint256",
          "name": "startTokenId",
          "type": "uint256"
        },
        {
          "indexed": false,
          "internalType": "enum IBaseLaunchpeg.Phase",
          "name": "phase",
          "type": "uint8"
        }
      ],
      "name": "Mint",
      "type": "event"
    },
    {
      "anonymous": false,
      "inputs": [
        {
          "indexed": true,
          "internalType": "address",
          "name": "previousOwner",
          "type": "address"
        },
        {
          "indexed": true,
          "internalType": "address",
          "name": "newOwner",
          "type": "address"
        }
      ],
      "name": "OwnershipTransferred",
      "type": "event"
    },
    {
      "anonymous": false,
      "inputs": [
        {
          "indexed": false,
          "internalType": "address",
          "name": "account",
          "type": "address"
        }
      ],
      "name": "Paused",
      "type": "event"
    },
    {
      "anonymous": false,
      "inputs": [
        {
          "indexed": true,
          "internalType": "address",
          "name": "pendingOwner",
          "type": "address"
        }
      ],
      "name": "PendingOwnerSet",
      "type": "event"
    },
    {
      "anonymous": false,
      "inputs": [
        {
          "indexed": true,
          "internalType": "address",
          "name": "sender",
          "type": "address"
        },
        {
          "indexed": false,
          "internalType": "uint256",
          "name": "quantity",
          "type": "uint256"
        },
        {
          "indexed": false,
          "internalType": "uint256",
          "name": "price",
          "type": "uint256"
        }
      ],
      "name": "PreMint",
      "type": "event"
    },
    {
      "anonymous": false,
      "inputs": [
        {
          "indexed": false,
          "internalType": "uint256",
          "name": "preMintStartTime",
          "type": "uint256"
        }
      ],
      "name": "PreMintStartTimeSet",
      "type": "event"
    },
    {
      "anonymous": false,
      "inputs": [
        {
          "indexed": false,
          "internalType": "uint256",
          "name": "publicSaleEndTime",
          "type": "uint256"
        }
      ],
      "name": "PublicSaleEndTimeSet",
      "type": "event"
    },
    {
      "anonymous": false,
      "inputs": [
        {
          "indexed": false,
          "internalType": "uint256",
          "name": "publicSaleStartTime",
          "type": "uint256"
        }
      ],
      "name": "PublicSaleStartTimeSet",
      "type": "event"
    },
    {
      "anonymous": false,
      "inputs": [
        {
          "indexed": true,
          "internalType": "bytes32",
          "name": "role",
          "type": "bytes32"
        },
        {
          "indexed": true,
          "internalType": "bytes32",
          "name": "previousAdminRole",
          "type": "bytes32"
        },
        {
          "indexed": true,
          "internalType": "bytes32",
          "name": "newAdminRole",
          "type": "bytes32"
        }
      ],
      "name": "RoleAdminChanged",
      "type": "event"
    },
    {
      "anonymous": false,
      "inputs": [
        {
          "indexed": true,
          "internalType": "bytes32",
          "name": "role",
          "type": "bytes32"
        },
        {
          "indexed": true,
          "internalType": "address",
          "name": "account",
          "type": "address"
        },
        {
          "indexed": true,
          "internalType": "address",
          "name": "sender",
          "type": "address"
        }
      ],
      "name": "RoleGranted",
      "type": "event"
    },
    {
      "anonymous": false,
      "inputs": [
        {
          "indexed": true,
          "internalType": "bytes32",
          "name": "role",
          "type": "bytes32"
        },
        {
          "indexed": true,
          "internalType": "address",
          "name": "account",
          "type": "address"
        },
        {
          "indexed": true,
          "internalType": "address",
          "name": "sender",
          "type": "address"
        }
      ],
      "name": "RoleRevoked",
      "type": "event"
    },
    {
      "anonymous": false,
      "inputs": [
        {
          "indexed": true,
          "internalType": "address",
          "name": "from",
          "type": "address"
        },
        {
          "indexed": true,
          "internalType": "address",
          "name": "to",
          "type": "address"
        },
        {
          "indexed": true,
          "internalType": "uint256",
          "name": "tokenId",
          "type": "uint256"
        }
      ],
      "name": "Transfer",
      "type": "event"
    },
    {
      "anonymous": false,
      "inputs": [
        {
          "indexed": false,
          "internalType": "address",
          "name": "account",
          "type": "address"
        }
      ],
      "name": "Unpaused",
      "type": "event"
    },
    {
      "anonymous": false,
      "inputs": [
        {
          "indexed": false,
          "internalType": "string",
          "name": "unrevealedURI",
          "type": "string"
        }
      ],
      "name": "UnrevealedURISet",
      "type": "event"
    },
    {
      "anonymous": false,
      "inputs": [
        {
          "indexed": false,
          "internalType": "uint256",
          "name": "withdrawAVAXStartTime",
          "type": "uint256"
        }
      ],
      "name": "WithdrawAVAXStartTimeSet",
      "type": "event"
    },
    {
      "inputs": [],
      "name": "BASIS_POINT_PRECISION",
      "outputs": [
        {
          "internalType": "uint256",
          "name": "",
          "type": "uint256"
        }
      ],
      "stateMutability": "view",
      "type": "function"
    },
    {
      "inputs": [],
      "name": "DEFAULT_ADMIN_ROLE",
      "outputs": [
        {
          "internalType": "bytes32",
          "name": "",
          "type": "bytes32"
        }
      ],
      "stateMutability": "view",
      "type": "function"
    },
    {
      "inputs": [],
      "name": "PAUSER_ADMIN_ROLE",
      "outputs": [
        {
          "internalType": "bytes32",
          "name": "",
          "type": "bytes32"
        }
      ],
      "stateMutability": "view",
      "type": "function"
    },
    {
      "inputs": [],
      "name": "PAUSER_ROLE",
      "outputs": [
        {
          "internalType": "bytes32",
          "name": "",
          "type": "bytes32"
        }
      ],
      "stateMutability": "view",
      "type": "function"
    },
    {
      "inputs": [],
      "name": "PROJECT_OWNER_ROLE",
      "outputs": [
        {
          "internalType": "bytes32",
          "name": "",
          "type": "bytes32"
        }
      ],
      "stateMutability": "view",
      "type": "function"
    },
    {
      "inputs": [],
      "name": "UNPAUSER_ADMIN_ROLE",
      "outputs": [
        {
          "internalType": "bytes32",
          "name": "",
          "type": "bytes32"
        }
      ],
      "stateMutability": "view",
      "type": "function"
    },
    {
      "inputs": [],
      "name": "UNPAUSER_ROLE",
      "outputs": [
        {
          "internalType": "bytes32",
          "name": "",
          "type": "bytes32"
        }
      ],
      "stateMutability": "view",
      "type": "function"
    },
    {
      "inputs": [
        {
          "internalType": "address",
          "name": "",
          "type": "address"
        }
      ],
      "name": "allowlist",
      "outputs": [
        {
          "internalType": "uint256",
          "name": "",
          "type": "uint256"
        }
      ],
      "stateMutability": "view",
      "type": "function"
    },
    {
      "inputs": [],
      "name": "allowlistDiscountPercent",
      "outputs": [
        {
          "internalType": "uint256",
          "name": "",
          "type": "uint256"
        }
      ],
      "stateMutability": "view",
      "type": "function"
    },
    {
      "inputs": [
        {
          "internalType": "uint256",
          "name": "_quantity",
          "type": "uint256"
        }
      ],
      "name": "allowlistMint",
      "outputs": [],
      "stateMutability": "payable",
      "type": "function"
    },
    {
      "inputs": [],
      "name": "allowlistPrice",
      "outputs": [
        {
          "internalType": "uint256",
          "name": "",
          "type": "uint256"
        }
      ],
      "stateMutability": "view",
      "type": "function"
    },
    {
      "inputs": [],
      "name": "allowlistStartTime",
      "outputs": [
        {
          "internalType": "uint256",
          "name": "",
          "type": "uint256"
        }
      ],
      "stateMutability": "view",
      "type": "function"
    },
    {
      "inputs": [],
      "name": "amountClaimedDuringPreMint",
      "outputs": [
        {
          "internalType": "uint256",
          "name": "",
          "type": "uint256"
        }
      ],
      "stateMutability": "view",
      "type": "function"
    },
    {
      "inputs": [],
      "name": "amountForAllowlist",
      "outputs": [
        {
          "internalType": "uint256",
          "name": "",
          "type": "uint256"
        }
      ],
      "stateMutability": "view",
      "type": "function"
    },
    {
      "inputs": [],
      "name": "amountForAuction",
      "outputs": [
        {
          "internalType": "uint256",
          "name": "",
          "type": "uint256"
        }
      ],
      "stateMutability": "view",
      "type": "function"
    },
    {
      "inputs": [],
      "name": "amountForDevs",
      "outputs": [
        {
          "internalType": "uint256",
          "name": "",
          "type": "uint256"
        }
      ],
      "stateMutability": "view",
      "type": "function"
    },
    {
      "inputs": [],
      "name": "amountMintedByDevs",
      "outputs": [
        {
          "internalType": "uint256",
          "name": "",
          "type": "uint256"
        }
      ],
      "stateMutability": "view",
      "type": "function"
    },
    {
      "inputs": [],
      "name": "amountMintedDuringAllowlist",
      "outputs": [
        {
          "internalType": "uint256",
          "name": "",
          "type": "uint256"
        }
      ],
      "stateMutability": "view",
      "type": "function"
    },
    {
      "inputs": [],
      "name": "amountMintedDuringAuction",
      "outputs": [
        {
          "internalType": "uint256",
          "name": "",
          "type": "uint256"
        }
      ],
      "stateMutability": "view",
      "type": "function"
    },
    {
      "inputs": [],
      "name": "amountMintedDuringPreMint",
      "outputs": [
        {
          "internalType": "uint256",
          "name": "",
          "type": "uint256"
        }
      ],
      "stateMutability": "view",
      "type": "function"
    },
    {
      "inputs": [],
      "name": "amountMintedDuringPublicSale",
      "outputs": [
        {
          "internalType": "uint256",
          "name": "",
          "type": "uint256"
        }
      ],
      "stateMutability": "view",
      "type": "function"
    },
    {
      "inputs": [
        {
          "internalType": "address",
          "name": "to",
          "type": "address"
        },
        {
          "internalType": "uint256",
          "name": "tokenId",
          "type": "uint256"
        }
      ],
      "name": "approve",
      "outputs": [],
      "stateMutability": "nonpayable",
      "type": "function"
    },
    {
      "inputs": [],
      "name": "auctionDropInterval",
      "outputs": [
        {
          "internalType": "uint256",
          "name": "",
          "type": "uint256"
        }
      ],
      "stateMutability": "view",
      "type": "function"
    },
    {
      "inputs": [],
      "name": "auctionDropPerStep",
      "outputs": [
        {
          "internalType": "uint256",
          "name": "",
          "type": "uint256"
        }
      ],
      "stateMutability": "view",
      "type": "function"
    },
    {
      "inputs": [],
      "name": "auctionEndPrice",
      "outputs": [
        {
          "internalType": "uint256",
          "name": "",
          "type": "uint256"
        }
      ],
      "stateMutability": "view",
      "type": "function"
    },
    {
      "inputs": [
        {
          "internalType": "uint256",
          "name": "_quantity",
          "type": "uint256"
        }
      ],
      "name": "auctionMint",
      "outputs": [],
      "stateMutability": "payable",
      "type": "function"
    },
    {
      "inputs": [],
      "name": "auctionSaleDuration",
      "outputs": [
        {
          "internalType": "uint256",
          "name": "",
          "type": "uint256"
        }
      ],
      "stateMutability": "view",
      "type": "function"
    },
    {
      "inputs": [],
      "name": "auctionSaleStartTime",
      "outputs": [
        {
          "internalType": "uint256",
          "name": "",
          "type": "uint256"
        }
      ],
      "stateMutability": "view",
      "type": "function"
    },
    {
      "inputs": [],
      "name": "auctionStartPrice",
      "outputs": [
        {
          "internalType": "uint256",
          "name": "",
          "type": "uint256"
        }
      ],
      "stateMutability": "view",
      "type": "function"
    },
    {
      "inputs": [
        {
          "internalType": "address",
          "name": "owner",
          "type": "address"
        }
      ],
      "name": "balanceOf",
      "outputs": [
        {
          "internalType": "uint256",
          "name": "",
          "type": "uint256"
        }
      ],
      "stateMutability": "view",
      "type": "function"
    },
    {
      "inputs": [],
      "name": "baseURI",
      "outputs": [
        {
          "internalType": "string",
          "name": "",
          "type": "string"
        }
      ],
      "stateMutability": "view",
      "type": "function"
    },
    {
      "inputs": [
        {
          "internalType": "uint96",
          "name": "_maxQuantity",
          "type": "uint96"
        }
      ],
      "name": "batchClaimPreMint",
      "outputs": [],
      "stateMutability": "nonpayable",
      "type": "function"
    },
    {
      "inputs": [],
      "name": "batchReveal",
      "outputs": [
        {
          "internalType": "contract IBatchReveal",
          "name": "",
          "type": "address"
        }
      ],
      "stateMutability": "view",
      "type": "function"
    },
    {
      "inputs": [],
      "name": "becomeOwner",
      "outputs": [],
      "stateMutability": "nonpayable",
      "type": "function"
    },
    {
      "inputs": [],
      "name": "claimPreMint",
      "outputs": [],
      "stateMutability": "nonpayable",
      "type": "function"
    },
    {
      "inputs": [],
      "name": "collectionSize",
      "outputs": [
        {
          "internalType": "uint256",
          "name": "",
          "type": "uint256"
        }
      ],
      "stateMutability": "view",
      "type": "function"
    },
    {
      "inputs": [],
      "name": "currentPhase",
      "outputs": [
        {
          "internalType": "enum IBaseLaunchpeg.Phase",
          "name": "",
          "type": "uint8"
        }
      ],
      "stateMutability": "view",
      "type": "function"
    },
    {
      "inputs": [
        {
          "internalType": "uint256",
          "name": "_quantity",
          "type": "uint256"
        }
      ],
      "name": "devMint",
      "outputs": [],
      "stateMutability": "nonpayable",
      "type": "function"
    },
    {
      "inputs": [
        {
          "internalType": "uint256",
          "name": "tokenId",
          "type": "uint256"
        }
      ],
      "name": "getApproved",
      "outputs": [
        {
          "internalType": "address",
          "name": "",
          "type": "address"
        }
      ],
      "stateMutability": "view",
      "type": "function"
    },
    {
      "inputs": [
        {
          "internalType": "uint256",
          "name": "_saleStartTime",
          "type": "uint256"
        }
      ],
      "name": "getAuctionPrice",
      "outputs": [
        {
          "internalType": "uint256",
          "name": "",
          "type": "uint256"
        }
      ],
      "stateMutability": "view",
      "type": "function"
    },
    {
      "inputs": [
        {
          "internalType": "uint256",
          "name": "_tokenId",
          "type": "uint256"
        }
      ],
      "name": "getOwnershipData",
      "outputs": [
        {
          "components": [
            {
              "internalType": "address",
              "name": "addr",
              "type": "address"
            },
            {
              "internalType": "uint64",
              "name": "startTimestamp",
              "type": "uint64"
            },
            {
              "internalType": "bool",
              "name": "burned",
              "type": "bool"
            }
          ],
          "internalType": "struct ERC721AUpgradeable.TokenOwnership",
          "name": "",
          "type": "tuple"
        }
      ],
      "stateMutability": "view",
      "type": "function"
    },
    {
      "inputs": [
        {
          "internalType": "bytes32",
          "name": "role",
          "type": "bytes32"
        }
      ],
      "name": "getRoleAdmin",
      "outputs": [
        {
          "internalType": "bytes32",
          "name": "",
          "type": "bytes32"
        }
      ],
      "stateMutability": "view",
      "type": "function"
    },
    {
      "inputs": [
        {
          "internalType": "bytes32",
          "name": "role",
          "type": "bytes32"
        },
        {
          "internalType": "uint256",
          "name": "index",
          "type": "uint256"
        }
      ],
      "name": "getRoleMember",
      "outputs": [
        {
          "internalType": "address",
          "name": "",
          "type": "address"
        }
      ],
      "stateMutability": "view",
      "type": "function"
    },
    {
      "inputs": [
        {
          "internalType": "bytes32",
          "name": "role",
          "type": "bytes32"
        }
      ],
      "name": "getRoleMemberCount",
      "outputs": [
        {
          "internalType": "uint256",
          "name": "",
          "type": "uint256"
        }
      ],
      "stateMutability": "view",
      "type": "function"
    },
    {
      "inputs": [
        {
          "internalType": "bytes32",
          "name": "role",
          "type": "bytes32"
        },
        {
          "internalType": "address",
          "name": "account",
          "type": "address"
        }
      ],
      "name": "grantRole",
      "outputs": [],
      "stateMutability": "nonpayable",
      "type": "function"
    },
    {
      "inputs": [],
      "name": "hasBatchToReveal",
      "outputs": [
        {
          "internalType": "bool",
          "name": "",
          "type": "bool"
        },
        {
          "internalType": "uint256",
          "name": "",
          "type": "uint256"
        }
      ],
      "stateMutability": "view",
      "type": "function"
    },
    {
      "inputs": [
        {
          "internalType": "bytes32",
          "name": "role",
          "type": "bytes32"
        },
        {
          "internalType": "address",
          "name": "account",
          "type": "address"
        }
      ],
      "name": "hasRole",
      "outputs": [
        {
          "internalType": "bool",
          "name": "",
          "type": "bool"
        }
      ],
      "stateMutability": "view",
      "type": "function"
    },
    {
      "inputs": [
        {
          "components": [
            {
              "internalType": "string",
              "name": "name",
              "type": "string"
            },
            {
              "internalType": "string",
              "name": "symbol",
              "type": "string"
            },
            {
              "internalType": "address",
              "name": "batchReveal",
              "type": "address"
            },
            {
              "internalType": "uint256",
              "name": "maxPerAddressDuringMint",
              "type": "uint256"
            },
            {
              "internalType": "uint256",
              "name": "collectionSize",
              "type": "uint256"
            },
            {
              "internalType": "uint256",
              "name": "amountForDevs",
              "type": "uint256"
            },
            {
              "internalType": "uint256",
              "name": "amountForAuction",
              "type": "uint256"
            },
            {
              "internalType": "uint256",
              "name": "amountForAllowlist",
              "type": "uint256"
            }
          ],
          "internalType": "struct IBaseLaunchpeg.CollectionData",
          "name": "_collectionData",
          "type": "tuple"
        },
        {
          "components": [
            {
              "internalType": "address",
              "name": "owner",
              "type": "address"
            },
            {
              "internalType": "address",
              "name": "projectOwner",
              "type": "address"
            },
            {
              "internalType": "address",
              "name": "royaltyReceiver",
              "type": "address"
            },
            {
              "internalType": "address",
              "name": "joeFeeCollector",
              "type": "address"
            },
            {
              "internalType": "uint256",
              "name": "joeFeePercent",
              "type": "uint256"
            }
          ],
          "internalType": "struct IBaseLaunchpeg.CollectionOwnerData",
          "name": "_ownerData",
          "type": "tuple"
        }
      ],
      "name": "initialize",
      "outputs": [],
      "stateMutability": "nonpayable",
      "type": "function"
    },
    {
      "inputs": [
        {
          "internalType": "address",
          "name": "_batchReveal",
          "type": "address"
        }
      ],
      "name": "initializeBatchReveal",
      "outputs": [],
      "stateMutability": "nonpayable",
      "type": "function"
    },
    {
      "inputs": [
        {
          "internalType": "uint256",
          "name": "_auctionSaleStartTime",
          "type": "uint256"
        },
        {
          "internalType": "uint256",
          "name": "_auctionStartPrice",
          "type": "uint256"
        },
        {
          "internalType": "uint256",
          "name": "_auctionEndPrice",
          "type": "uint256"
        },
        {
          "internalType": "uint256",
          "name": "_auctionDropInterval",
          "type": "uint256"
        },
        {
          "internalType": "uint256",
          "name": "_preMintStartTime",
          "type": "uint256"
        },
        {
          "internalType": "uint256",
          "name": "_allowlistStartTime",
          "type": "uint256"
        },
        {
          "internalType": "uint256",
          "name": "_allowlistDiscountPercent",
          "type": "uint256"
        },
        {
          "internalType": "uint256",
          "name": "_publicSaleStartTime",
          "type": "uint256"
        },
        {
          "internalType": "uint256",
          "name": "_publicSaleEndTime",
          "type": "uint256"
        },
        {
          "internalType": "uint256",
          "name": "_publicSaleDiscountPercent",
          "type": "uint256"
        }
      ],
      "name": "initializePhases",
      "outputs": [],
      "stateMutability": "nonpayable",
      "type": "function"
    },
    {
      "inputs": [
        {
          "internalType": "address",
          "name": "owner",
          "type": "address"
        },
        {
          "internalType": "address",
          "name": "operator",
          "type": "address"
        }
      ],
      "name": "isApprovedForAll",
      "outputs": [
        {
          "internalType": "bool",
          "name": "",
          "type": "bool"
        }
      ],
      "stateMutability": "view",
      "type": "function"
    },
    {
      "inputs": [],
      "name": "joeFeeCollector",
      "outputs": [
        {
          "internalType": "address",
          "name": "",
          "type": "address"
        }
      ],
      "stateMutability": "view",
      "type": "function"
    },
    {
      "inputs": [],
      "name": "joeFeePercent",
      "outputs": [
        {
          "internalType": "uint256",
          "name": "",
          "type": "uint256"
        }
      ],
      "stateMutability": "view",
      "type": "function"
    },
    {
      "inputs": [],
      "name": "lastAuctionPrice",
      "outputs": [
        {
          "internalType": "uint256",
          "name": "",
          "type": "uint256"
        }
      ],
      "stateMutability": "view",
      "type": "function"
    },
    {
      "inputs": [],
      "name": "maxPerAddressDuringMint",
      "outputs": [
        {
          "internalType": "uint256",
          "name": "",
          "type": "uint256"
        }
      ],
      "stateMutability": "view",
      "type": "function"
    },
    {
      "inputs": [],
      "name": "name",
      "outputs": [
        {
          "internalType": "string",
          "name": "",
          "type": "string"
        }
      ],
      "stateMutability": "view",
      "type": "function"
    },
    {
      "inputs": [
        {
          "internalType": "address",
          "name": "_owner",
          "type": "address"
        }
      ],
      "name": "numberMinted",
      "outputs": [
        {
          "internalType": "uint256",
          "name": "",
          "type": "uint256"
        }
      ],
      "stateMutability": "view",
      "type": "function"
    },
    {
      "inputs": [
        {
          "internalType": "address",
          "name": "_owner",
          "type": "address"
        }
      ],
      "name": "numberMintedWithPreMint",
      "outputs": [
        {
          "internalType": "uint256",
          "name": "",
          "type": "uint256"
        }
      ],
      "stateMutability": "view",
      "type": "function"
    },
    {
      "inputs": [],
      "name": "owner",
      "outputs": [
        {
          "internalType": "address",
          "name": "",
          "type": "address"
        }
      ],
      "stateMutability": "view",
      "type": "function"
    },
    {
      "inputs": [
        {
          "internalType": "uint256",
          "name": "tokenId",
          "type": "uint256"
        }
      ],
      "name": "ownerOf",
      "outputs": [
        {
          "internalType": "address",
          "name": "",
          "type": "address"
        }
      ],
      "stateMutability": "view",
      "type": "function"
    },
    {
      "inputs": [],
      "name": "pause",
      "outputs": [],
      "stateMutability": "nonpayable",
      "type": "function"
    },
    {
      "inputs": [],
      "name": "paused",
      "outputs": [
        {
          "internalType": "bool",
          "name": "",
          "type": "bool"
        }
      ],
      "stateMutability": "view",
      "type": "function"
    },
    {
      "inputs": [],
      "name": "pendingOwner",
      "outputs": [
        {
          "internalType": "address",
          "name": "",
          "type": "address"
        }
      ],
      "stateMutability": "view",
      "type": "function"
    },
    {
      "inputs": [
        {
          "internalType": "uint96",
          "name": "_quantity",
          "type": "uint96"
        }
      ],
      "name": "preMint",
      "outputs": [],
      "stateMutability": "payable",
      "type": "function"
    },
    {
      "inputs": [],
      "name": "preMintStartTime",
      "outputs": [
        {
          "internalType": "uint256",
          "name": "",
          "type": "uint256"
        }
      ],
      "stateMutability": "view",
      "type": "function"
    },
    {
      "inputs": [],
      "name": "publicSaleDiscountPercent",
      "outputs": [
        {
          "internalType": "uint256",
          "name": "",
          "type": "uint256"
        }
      ],
      "stateMutability": "view",
      "type": "function"
    },
    {
      "inputs": [],
      "name": "publicSaleEndTime",
      "outputs": [
        {
          "internalType": "uint256",
          "name": "",
          "type": "uint256"
        }
      ],
      "stateMutability": "view",
      "type": "function"
    },
    {
      "inputs": [
        {
          "internalType": "uint256",
          "name": "_quantity",
          "type": "uint256"
        }
      ],
      "name": "publicSaleMint",
      "outputs": [],
      "stateMutability": "payable",
      "type": "function"
    },
    {
      "inputs": [],
      "name": "publicSaleStartTime",
      "outputs": [
        {
          "internalType": "uint256",
          "name": "",
          "type": "uint256"
        }
      ],
      "stateMutability": "view",
      "type": "function"
    },
    {
      "inputs": [],
      "name": "renounceOwnership",
      "outputs": [],
      "stateMutability": "nonpayable",
      "type": "function"
    },
    {
      "inputs": [
        {
          "internalType": "bytes32",
          "name": "role",
          "type": "bytes32"
        },
        {
          "internalType": "address",
          "name": "account",
          "type": "address"
        }
      ],
      "name": "renounceRole",
      "outputs": [],
      "stateMutability": "nonpayable",
      "type": "function"
    },
    {
      "inputs": [],
      "name": "revealNextBatch",
      "outputs": [],
      "stateMutability": "nonpayable",
      "type": "function"
    },
    {
      "inputs": [],
      "name": "revokePendingOwner",
      "outputs": [],
      "stateMutability": "nonpayable",
      "type": "function"
    },
    {
      "inputs": [
        {
          "internalType": "bytes32",
          "name": "role",
          "type": "bytes32"
        },
        {
          "internalType": "address",
          "name": "account",
          "type": "address"
        }
      ],
      "name": "revokeRole",
      "outputs": [],
      "stateMutability": "nonpayable",
      "type": "function"
    },
    {
      "inputs": [
        {
          "internalType": "uint256",
          "name": "_tokenId",
          "type": "uint256"
        },
        {
          "internalType": "uint256",
          "name": "_salePrice",
          "type": "uint256"
        }
      ],
      "name": "royaltyInfo",
      "outputs": [
        {
          "internalType": "address",
          "name": "",
          "type": "address"
        },
        {
          "internalType": "uint256",
          "name": "",
          "type": "uint256"
        }
      ],
      "stateMutability": "view",
      "type": "function"
    },
    {
      "inputs": [
        {
          "internalType": "address",
          "name": "from",
          "type": "address"
        },
        {
          "internalType": "address",
          "name": "to",
          "type": "address"
        },
        {
          "internalType": "uint256",
          "name": "tokenId",
          "type": "uint256"
        }
      ],
      "name": "safeTransferFrom",
      "outputs": [],
      "stateMutability": "nonpayable",
      "type": "function"
    },
    {
      "inputs": [
        {
          "internalType": "address",
          "name": "from",
          "type": "address"
        },
        {
          "internalType": "address",
          "name": "to",
          "type": "address"
        },
        {
          "internalType": "uint256",
          "name": "tokenId",
          "type": "uint256"
        },
        {
          "internalType": "bytes",
          "name": "_data",
          "type": "bytes"
        }
      ],
      "name": "safeTransferFrom",
      "outputs": [],
      "stateMutability": "nonpayable",
      "type": "function"
    },
    {
      "inputs": [],
      "name": "salePrice",
      "outputs": [
        {
          "internalType": "uint256",
          "name": "",
          "type": "uint256"
        }
      ],
      "stateMutability": "view",
      "type": "function"
    },
    {
      "inputs": [
        {
          "internalType": "address[]",
          "name": "_addresses",
          "type": "address[]"
        },
        {
          "internalType": "uint256[]",
          "name": "_numNfts",
          "type": "uint256[]"
        }
      ],
      "name": "seedAllowlist",
      "outputs": [],
      "stateMutability": "nonpayable",
      "type": "function"
    },
    {
      "inputs": [
        {
          "internalType": "uint256",
          "name": "_allowlistStartTime",
          "type": "uint256"
        }
      ],
      "name": "setAllowlistStartTime",
      "outputs": [],
      "stateMutability": "nonpayable",
      "type": "function"
    },
    {
      "inputs": [
        {
          "internalType": "address",
          "name": "operator",
          "type": "address"
        },
        {
          "internalType": "bool",
          "name": "approved",
          "type": "bool"
        }
      ],
      "name": "setApprovalForAll",
      "outputs": [],
      "stateMutability": "nonpayable",
      "type": "function"
    },
    {
      "inputs": [
        {
          "internalType": "uint256",
          "name": "_auctionSaleStartTime",
          "type": "uint256"
        }
      ],
      "name": "setAuctionSaleStartTime",
      "outputs": [],
      "stateMutability": "nonpayable",
      "type": "function"
    },
    {
      "inputs": [
        {
          "internalType": "string",
          "name": "_baseURI",
          "type": "string"
        }
      ],
      "name": "setBaseURI",
      "outputs": [],
      "stateMutability": "nonpayable",
      "type": "function"
    },
    {
      "inputs": [
        {
          "internalType": "address",
          "name": "pendingOwner_",
          "type": "address"
        }
      ],
      "name": "setPendingOwner",
      "outputs": [],
      "stateMutability": "nonpayable",
      "type": "function"
    },
    {
      "inputs": [
        {
          "internalType": "uint256",
          "name": "_preMintStartTime",
          "type": "uint256"
        }
      ],
      "name": "setPreMintStartTime",
      "outputs": [],
      "stateMutability": "nonpayable",
      "type": "function"
    },
    {
      "inputs": [
        {
          "internalType": "uint256",
          "name": "_publicSaleEndTime",
          "type": "uint256"
        }
      ],
      "name": "setPublicSaleEndTime",
      "outputs": [],
      "stateMutability": "nonpayable",
      "type": "function"
    },
    {
      "inputs": [
        {
          "internalType": "uint256",
          "name": "_publicSaleStartTime",
          "type": "uint256"
        }
      ],
      "name": "setPublicSaleStartTime",
      "outputs": [],
      "stateMutability": "nonpayable",
      "type": "function"
    },
    {
      "inputs": [
        {
          "internalType": "address",
          "name": "_receiver",
          "type": "address"
        },
        {
          "internalType": "uint96",
          "name": "_feePercent",
          "type": "uint96"
        }
      ],
      "name": "setRoyaltyInfo",
      "outputs": [],
      "stateMutability": "nonpayable",
      "type": "function"
    },
    {
      "inputs": [
        {
          "internalType": "string",
          "name": "_unrevealedURI",
          "type": "string"
        }
      ],
      "name": "setUnrevealedURI",
      "outputs": [],
      "stateMutability": "nonpayable",
      "type": "function"
    },
    {
      "inputs": [
        {
          "internalType": "uint256",
          "name": "_withdrawAVAXStartTime",
          "type": "uint256"
        }
      ],
      "name": "setWithdrawAVAXStartTime",
      "outputs": [],
      "stateMutability": "nonpayable",
      "type": "function"
    },
    {
      "inputs": [
        {
          "internalType": "bytes4",
          "name": "_interfaceId",
          "type": "bytes4"
        }
      ],
      "name": "supportsInterface",
      "outputs": [
        {
          "internalType": "bool",
          "name": "",
          "type": "bool"
        }
      ],
      "stateMutability": "view",
      "type": "function"
    },
    {
      "inputs": [],
      "name": "symbol",
      "outputs": [
        {
          "internalType": "string",
          "name": "",
          "type": "string"
        }
      ],
      "stateMutability": "view",
      "type": "function"
    },
    {
      "inputs": [
        {
          "internalType": "uint256",
          "name": "_id",
          "type": "uint256"
        }
      ],
      "name": "tokenURI",
      "outputs": [
        {
          "internalType": "string",
          "name": "",
          "type": "string"
        }
      ],
      "stateMutability": "view",
      "type": "function"
    },
    {
      "inputs": [],
      "name": "totalSupply",
      "outputs": [
        {
          "internalType": "uint256",
          "name": "",
          "type": "uint256"
        }
      ],
      "stateMutability": "view",
      "type": "function"
    },
    {
      "inputs": [
        {
          "internalType": "address",
          "name": "from",
          "type": "address"
        },
        {
          "internalType": "address",
          "name": "to",
          "type": "address"
        },
        {
          "internalType": "uint256",
          "name": "tokenId",
          "type": "uint256"
        }
      ],
      "name": "transferFrom",
      "outputs": [],
      "stateMutability": "nonpayable",
      "type": "function"
    },
    {
      "inputs": [],
      "name": "unpause",
      "outputs": [],
      "stateMutability": "nonpayable",
      "type": "function"
    },
    {
      "inputs": [],
      "name": "unrevealedURI",
      "outputs": [
        {
          "internalType": "string",
          "name": "",
          "type": "string"
        }
      ],
      "stateMutability": "view",
      "type": "function"
    },
    {
      "inputs": [
        {
          "internalType": "address",
          "name": "_user",
          "type": "address"
        }
      ],
      "name": "userPendingPreMints",
      "outputs": [
        {
          "internalType": "uint256",
          "name": "",
          "type": "uint256"
        }
      ],
      "stateMutability": "view",
      "type": "function"
    },
    {
      "inputs": [
        {
          "internalType": "address",
          "name": "_to",
          "type": "address"
        }
      ],
      "name": "withdrawAVAX",
      "outputs": [],
      "stateMutability": "nonpayable",
      "type": "function"
    },
    {
      "inputs": [],
      "name": "withdrawAVAXStartTime",
      "outputs": [
        {
          "internalType": "uint256",
          "name": "",
          "type": "uint256"
        }
      ],
      "stateMutability": "view",
      "type": "function"
    }
  ],
  "transactionHash": "0x2e6a930332189509ea7b5673dc23cb90402c6724a5d5ab5cfabd1c6725ea13db",
  "args": [],
  "numDeployments": 1,
  "solcInputHash": "60af1768f903d522223c469d6fc49210",
  "bytecode": "0x608060405234801561001057600080fd5b50615f4180620000216000396000f3fe60806040526004361061058f5760003560e01c80638456cb59116102d8578063be62da0e11610180578063dc33e681116100e7578063f51f96dd116100a0578063fab2bf581161007a578063fab2bf58146110f3578063fb1bb9de1461110a578063fbe1aa511461113e578063fe2c7fee1461115557600080fd5b8063f51f96dd146110b2578063f7df4c5a146110c7578063f9dca989146110de57600080fd5b8063dc33e68114610fdb578063e30c397814610ffb578063e63ab1e914611019578063e6fe34b31461103b578063e985e9c514611052578063f243669b1461109b57600080fd5b8063c87b56dd11610139578063c87b56dd14610f37578063ca15c87314610f57578063d547741f14610f77578063d62b630314610f97578063d756985b14610fae578063d9a6f70514610fc557600080fd5b8063be62da0e14610e94578063c180526a14610eb6578063c42069ec14610ec9578063c4d374cf14610ee9578063c5482fe314610f09578063c792e16714610f2057600080fd5b8063984b67d61161023f578063a54cd7dc116101f8578063b05863d5116101d2578063b05863d514610e21578063b3ab66b014610e41578063b560ee6914610e54578063b88d4fde14610e7457600080fd5b8063a54cd7dc14610dbc578063a7cd52cb14610dd3578063aec3922b14610e0157600080fd5b8063984b67d614610d10578063a04a6ac814610d30578063a1ef0e5414610d47578063a217fddf14610d67578063a22cb46514610d7c578063a4c98ec414610d9c57600080fd5b8063917d009e11610291578063917d009e14610c2e57806391d1485414610c4e5780639204065314610c6e5780639231ab2a14610c8e57806395d89b4114610ce4578063963331d814610cf957600080fd5b80638456cb5914610b9a5780638bc35c2f14610baf5780638c6011ca14610bc65780638da5cb5b14610bdb5780639010d07c14610bf957806390967a5214610c1957600080fd5b8063387b62c71161043b57806362f4fb2d116103a25780636c0360eb1161035b57806370a082311161033557806370a0823114610b1a57806370a9525014610b3a578063715018a614610b6e5780637a18c1fe14610b8357600080fd5b80636c0360eb14610ad05780636d5d40c614610ae55780637035bf1814610b0557600080fd5b806362f4fb2d14610a365780636352211e14610a4d57806366b55a0914610a6d57806367ab8a4e14610a8d5780636b14bd3914610aa25780636bb7b1d914610ab957600080fd5b806355f804b3116103f457806355f804b31461099a57806359d7bc4d146109ba5780635bb21376146109d15780635c7034af146109f25780635c975abb14610a09578063622f1c4714610a2157600080fd5b8063387b62c7146109045780633cc4cadb146109245780633f4ba83a1461093b57806342842e0e1461095057806345c0f533146109705780634d3554c31461098757600080fd5b806315489510116104fa578063248a9ca3116104b35780632e8f1f501161048d5780632e8f1f501461088d5780632f2ff15d146108a457806336568abe146108c4578063375a069a146108e457600080fd5b8063248a9ca3146107ea57806325a004731461081a5780632a55205a1461084e57600080fd5b8063154895101461074257806318160ddd146107595780631c0310a5146107725780631e4d185f1461079257806321cc1611146107a957806323b872dd146107ca57600080fd5b8063081812fc1161054c578063081812fc1461067b57806308a3fb4e146106b3578063095ea7b3146106d85780630a212ee2146106f85780630c2c39a31461070f5780630f89952d1461072f57600080fd5b806301ffc9a71461059457806302fa7c47146105c957806303851c28146105eb57806303b674d314610617578063055ad42e1461063757806306fdde0314610659575b600080fd5b3480156105a057600080fd5b506105b46105af36600461583f565b611175565b60405190151581526020015b60405180910390f35b3480156105d557600080fd5b506105e96105e4366004615701565b6111a0565b005b3480156105f757600080fd5b5061060061124d565b6040805192151583526020830191909152016105c0565b34801561062357600080fd5b506105e96106323660046157e1565b61130f565b34801561064357600080fd5b5061064c611425565b6040516105c09190615af3565b34801561066557600080fd5b5061066e611512565b6040516105c09190615b01565b34801561068757600080fd5b5061069b6106963660046157e1565b6115a4565b6040516001600160a01b0390911681526020016105c0565b3480156106bf57600080fd5b506106ca6101b15481565b6040519081526020016105c0565b3480156106e457600080fd5b506105e96106f33660046156d7565b6115e8565b34801561070457600080fd5b506106ca6101ad5481565b34801561071b57600080fd5b506105e961072a3660046157e1565b611676565b6105e961073d3660046159ca565b611701565b34801561074e57600080fd5b506106ca6101b05481565b34801561076557600080fd5b50606654606554036106ca565b34801561077e57600080fd5b506105e961078d36600461553b565b6118d7565b34801561079e57600080fd5b506106ca6101a55481565b3480156107b557600080fd5b506101995461069b906001600160a01b031681565b3480156107d657600080fd5b506105e96107e5366004615589565b611b67565b3480156107f657600080fd5b506106ca6108053660046157e1565b60009081526099602052604090206001015490565b34801561082657600080fd5b506106ca7fe0e65c783ac33ff1c5ccf4399c9185066773921d6f8d050bf80781603021f09781565b34801561085a57600080fd5b5061086e61086936600461581d565b611b72565b604080516001600160a01b0390931683526020830191909152016105c0565b34801561089957600080fd5b506106ca61019e5481565b3480156108b057600080fd5b506105e96108bf3660046157fa565b611c22565b3480156108d057600080fd5b506105e96108df3660046157fa565b611ca6565b3480156108f057600080fd5b506105e96108ff3660046157e1565b611ccf565b34801561091057600080fd5b506105e961091f3660046157e1565b611e20565b34801561093057600080fd5b506106ca6101a05481565b34801561094757600080fd5b506105e9611f08565b34801561095c57600080fd5b506105e961096b366004615589565b611fb8565b34801561097c57600080fd5b506106ca6101935481565b6105e96109953660046157e1565b611fd3565b3480156109a657600080fd5b506105e96109b5366004615879565b612142565b3480156109c657600080fd5b506106ca6101a35481565b3480156109dd57600080fd5b506101985461069b906001600160a01b031681565b3480156109fe57600080fd5b506106ca61019d5481565b348015610a1557600080fd5b5060fd5460ff166105b4565b348015610a2d57600080fd5b506105e96121ac565b348015610a4257600080fd5b506106ca6101a25481565b348015610a5957600080fd5b5061069b610a683660046157e1565b6122d6565b348015610a7957600080fd5b506106ca610a8836600461553b565b6122e8565b348015610a9957600080fd5b506105e9612351565b348015610aae57600080fd5b506106ca61019f5481565b348015610ac557600080fd5b506106ca6101a45481565b348015610adc57600080fd5b5061066e6123af565b348015610af157600080fd5b506105e9610b003660046157e1565b61243e565b348015610b1157600080fd5b5061066e61254b565b348015610b2657600080fd5b506106ca610b3536600461553b565b612559565b348015610b4657600080fd5b506106ca7fe516f7ac9747f401e208331379a0bafe3c9c4dbb6501fd23bcef278f7ebaf4e581565b348015610b7a57600080fd5b506105e96125a7565b348015610b8f57600080fd5b506106ca6101b35481565b348015610ba657600080fd5b506105e96125dc565b348015610bbb57600080fd5b506106ca6101965481565b348015610bd257600080fd5b506105e9612678565b348015610be757600080fd5b506097546001600160a01b031661069b565b348015610c0557600080fd5b5061069b610c1436600461581d565b61275f565b348015610c2557600080fd5b506106ca61277e565b348015610c3a57600080fd5b506106ca610c493660046157e1565b61278d565b348015610c5a57600080fd5b506105b4610c693660046157fa565b6127fb565b348015610c7a57600080fd5b506105e9610c8936600461553b565b612826565b348015610c9a57600080fd5b50610cae610ca93660046157e1565b6128d3565b6040805182516001600160a01b031681526020808401516001600160401b031690820152918101511515908201526060016105c0565b348015610cf057600080fd5b5061066e6128f9565b348015610d0557600080fd5b506106ca6101a15481565b348015610d1c57600080fd5b506105e9610d2b3660046157e1565b612908565b348015610d3c57600080fd5b506106ca6101ac5481565b348015610d5357600080fd5b506105e9610d623660046157e1565b612a14565b348015610d7357600080fd5b506106ca600081565b348015610d8857600080fd5b506105e9610d973660046156a0565b612afd565b348015610da857600080fd5b506105e9610db73660046159ca565b612b93565b348015610dc857600080fd5b506106ca6101b25481565b348015610ddf57600080fd5b506106ca610dee36600461553b565b61019c6020526000908152604090205481565b348015610e0d57600080fd5b506106ca610e1c36600461553b565b612d9e565b348015610e2d57600080fd5b506105e9610e3c36600461572b565b612ddc565b6105e9610e4f3660046157e1565b612ed5565b348015610e6057600080fd5b506105e9610e6f3660046158ea565b61307f565b348015610e8057600080fd5b506105e9610e8f3660046155c5565b613191565b348015610ea057600080fd5b506106ca600080516020615eac83398151915281565b6105e9610ec43660046157e1565b6131dc565b348015610ed557600080fd5b506105e9610ee436600461553b565b613349565b348015610ef557600080fd5b506105e9610f04366004615962565b6133ce565b348015610f1557600080fd5b506106ca6101975481565b348015610f2c57600080fd5b506106ca6101a65481565b348015610f4357600080fd5b5061066e610f523660046157e1565b613665565b348015610f6357600080fd5b506106ca610f723660046157e1565b613851565b348015610f8357600080fd5b506105e9610f923660046157fa565b613868565b348015610fa357600080fd5b506106ca6101955481565b348015610fba57600080fd5b506106ca6101ab5481565b348015610fd157600080fd5b506106ca61271081565b348015610fe757600080fd5b506106ca610ff636600461553b565b6138ec565b34801561100757600080fd5b506098546001600160a01b031661069b565b34801561102557600080fd5b506106ca600080516020615ecc83398151915281565b34801561104757600080fd5b506106ca6101af5481565b34801561105e57600080fd5b506105b461106d366004615556565b6001600160a01b039182166000908152606c6020908152604080832093909416825291909152205460ff1690565b3480156110a757600080fd5b506106ca6101ae5481565b3480156110be57600080fd5b506106ca61391a565b3480156110d357600080fd5b506106ca6101a95481565b3480156110ea57600080fd5b506105e9613924565b3480156110ff57600080fd5b506106ca6101aa5481565b34801561111657600080fd5b506106ca7f427da25fe773164f88948d3e215c94b6554e2ed5e5f203a821c9f2f6131cf75a81565b34801561114a57600080fd5b506106ca6101945481565b34801561116157600080fd5b506105e9611170366004615879565b613963565b60006001600160e01b031982166333d2a91b60e01b148061119a575061119a826139cd565b92915050565b6097546001600160a01b031633146111cb57604051630202a8bf60e61b815260040160405180910390fd5b6109c4816001600160601b031611156111f7576040516306f644f160e31b815260040160405180910390fd5b6112018282613a2d565b6040516001600160601b03821681526001600160a01b038316907fd85b7816dca44c313f0fdadd9567f99f3620a2fac7c21a8a7872e1ac4d10fe55906020015b60405180910390a25050565b6101995460009081906001600160a01b031661126c5750600091829150565b610199546001600160a01b031663ad9e22af3061128c6066546065540390565b6040516001600160e01b031960e085901b1681526001600160a01b0390921660048301526024820152604401604080518083038186803b1580156112cf57600080fd5b505afa1580156112e3573d6000803e3d6000fd5b505050506040513d601f19601f8201168201806040525081019061130791906157b3565b915091509091565b6097546001600160a01b0316331461133a57604051630202a8bf60e61b815260040160405180910390fd5b6101a3548061135c576040516356a4234d60e11b815260040160405180910390fd5b42811161137c576040516338df794b60e01b815260040160405180910390fd5b814281101561139e57604051639db169d760e01b815260040160405180910390fd5b6101a2548310156113c2576040516312d3f13560e01b815260040160405180910390fd5b826101a45410156113e6576040516335bcfe2b60e21b815260040160405180910390fd5b6101a38390556040518381527f9bcdfa29202b48178635d9cf5c57896f671198685cf6b8ddb5e20f3eb4bb1e60906020015b60405180910390a1505050565b60006101aa546000148061143a57506101a254155b8061144657506101a354155b8061145257506101a454155b8061145e57506101a554155b8061146b57506101aa5442105b156114765750600090565b61019354606654606554031061148c5750600590565b6101aa5442101580156114a157506101a25442105b156114ac5750600190565b6101a25442101580156114c157506101a35442105b156114cc5750600290565b6101a35442101580156114e157506101a45442105b156114ec5750600390565b6101a454421015801561150157506101a55442105b1561150c5750600490565b50600590565b60606067805461152190615d99565b80601f016020809104026020016040519081016040528092919081815260200182805461154d90615d99565b801561159a5780601f1061156f5761010080835404028352916020019161159a565b820191906000526020600020905b81548152906001019060200180831161157d57829003601f168201915b5050505050905090565b60006115af82613b2b565b6115cc576040516333d1c03960e21b815260040160405180910390fd5b506000908152606b60205260409020546001600160a01b031690565b60006115f3826122d6565b9050806001600160a01b0316836001600160a01b031614156116285760405163250fdee360e21b815260040160405180910390fd5b336001600160a01b038216148015906116485750611646813361106d565b155b15611666576040516367d9dca160e11b815260040160405180910390fd5b611671838383613b57565b505050565b6097546001600160a01b031633146116a157604051630202a8bf60e61b815260040160405180910390fd5b80428110156116c357604051639db169d760e01b815260040160405180910390fd5b6101a68290556040518281527f90513fea331bb55e4ca73a8d0c053a255347ccb17c621338052705ea997383b3906020015b60405180910390a15050565b60fd5460ff161561172d5760405162461bcd60e51b815260040161172490615b99565b60405180910390fd5b600280611738611425565b600581111561174957611749615e2f565b14611767576040516338df794b60e01b815260040160405180910390fd5b6001600160601b03821661178e57604051636e5fd58f60e01b815260040160405180910390fd5b33600090815261019c60205260409020546001600160601b03831611156117c8576040516390e50aa560e01b815260040160405180910390fd5b61019554826001600160601b031661019e546117e49190615caa565b111561180357604051631eddc6a360e11b815260040160405180910390fd5b33600090815261019c6020526040812080546001600160601b038516929061182c908490615d17565b92505081905550816001600160601b031661019e600082825461184f9190615caa565b9091555061185f90503383613bb3565b600061186961277e565b905060006118806001600160601b03851683615cf8565b604080516001600160601b03871681526020810185905291925033917faaa4209473b0e01252afb37fc6a883231b6189d78f5fb75fec9d8345d716d6ba91015b60405180910390a26118d181613cb2565b50505050565b600080516020615eac8339815191526118f86097546001600160a01b031690565b6001600160a01b0316336001600160a01b031614158015611920575061191e81336127fb565b155b156119475760405163f9019a8d60e01b815260048101829052336024820152604401611724565b600261012f54141561199b5760405162461bcd60e51b815260206004820152601f60248201527f5265656e7472616e637947756172643a207265656e7472616e742063616c6c006044820152606401611724565b600261012f5560fd5460ff16156119c45760405162461bcd60e51b815260040161172490615b99565b426101a65411806119d657506101a654155b156119f457604051633bd1a57d60e11b815260040160405180910390fd5b610197544790600090819015611aa4576127106101975484611a169190615cf8565b611a209190615ce4565b9150611a2c8284615d17565b610198546040519194506001600160a01b0316908390600081818185875af1925050503d8060008114611a7b576040519150601f19603f3d011682016040523d82523d6000602084013e611a80565b606091505b50508091505080611aa457604051633aa9e60d60e21b815260040160405180910390fd5b6040516001600160a01b038616908490600081818185875af1925050503d8060008114611aed576040519150601f19603f3d011682016040523d82523d6000602084013e611af2565b606091505b50508091505080611b1657604051633aa9e60d60e21b815260040160405180910390fd5b60408051848152602081018490526001600160a01b038716917f12eb5d7ccd4ce398edc94007dfbaa22fa2ac8775a3633530f36053ad765262f4910160405180910390a25050600161012f55505050565b611671838383613d51565b6000828152610162602090815260408083208151808301909252546001600160a01b038116808352600160a01b9091046001600160601b0316928201929092528291611be9575060408051808201909152610161546001600160a01b0381168252600160a01b90046001600160601b031660208201525b602081015160009061271090611c08906001600160601b031687615cf8565b611c129190615ce4565b91519350909150505b9250929050565b8180611c415760405163e466584960e01b815260040160405180910390fd5b6000838152609960205260409020600101546097546001600160a01b03163314801590611c755750611c7381336127fb565b155b15611c9c5760405163f9019a8d60e01b815260048101829052336024820152604401611724565b6118d18484613f3c565b8180611cc55760405163e466584960e01b815260040160405180910390fd5b6116718383613f5e565b600080516020615eac833981519152611cf06097546001600160a01b031690565b6001600160a01b0316336001600160a01b031614158015611d185750611d1681336127fb565b155b15611d3f5760405163f9019a8d60e01b815260048101829052336024820152604401611724565b60fd5460ff1615611d625760405162461bcd60e51b815260040161172490615b99565b6101935482611d6f613fd8565b611d799190615caa565b1115611d9857604051631eddc6a360e11b815260040160405180910390fd5b610194548261019d54611dab9190615caa565b1115611dca5760405163011310dd60e31b815260040160405180910390fd5b8161019d54611dd99190615caa565b61019d81905550611dee338361019654614003565b60405182815233907f7d8400f0e58ae2e14f85b63f3afb0ca5b29328d8f48046b205fc7f174cf9b5ed90602001611241565b6097546001600160a01b03163314611e4b57604051630202a8bf60e61b815260040160405180910390fd5b6101aa5480611e6d576040516356a4234d60e11b815260040160405180910390fd5b428111611e8d576040516338df794b60e01b815260040160405180910390fd5b8142811015611eaf57604051639db169d760e01b815260040160405180910390fd5b826101a25411611ed2576040516316c9078560e01b815260040160405180910390fd5b6101aa8390556040518381527ffb00110a4e6c0bc2323c3dd4f66784c4293e0bd3dfbf6ea9446e9efe673647c790602001611418565b7f427da25fe773164f88948d3e215c94b6554e2ed5e5f203a821c9f2f6131cf75a611f3b6097546001600160a01b031690565b6001600160a01b0316336001600160a01b031614158015611f635750611f6181336127fb565b155b15611f8a5760405163f9019a8d60e01b815260048101829052336024820152604401611724565b60fd5460ff16611fad57604051637514f14160e11b815260040160405180910390fd5b611fb5614079565b50565b61167183838360405180602001604052806000815250613191565b60fd5460ff1615611ff65760405162461bcd60e51b815260040161172490615b99565b600180612001611425565b600581111561201257612012615e2f565b14612030576040516338df794b60e01b815260040160405180910390fd5b610196548261203e336138ec565b6120489190615caa565b1115612067576040516335e62b7b60e21b815260040160405180910390fd5b6101a954826101b25461207a9190615caa565b111561209957604051631eddc6a360e11b815260040160405180910390fd5b6120a56101aa5461278d565b6101b38190556000906120b9908490615cf8565b9050826101b2546120ca9190615caa565b6101b2819055506120ed338460405180602001604052806000815250600061410c565b336001600160a01b0316600080516020615eec833981519152846101b3548661211560655490565b61211f9190615d17565b60016040516121319493929190615c0e565b60405180910390a261167181613cb2565b6097546001600160a01b0316331461216d57604051630202a8bf60e61b815260040160405180910390fd5b61217a61019a83836153bc565b507ff9c7803e94e0d3c02900d8a90893a6d5e90dd04d32a4cfe825520f82bf9f32f661019a6040516116f59190615b14565b3233146121cc57604051633059e46160e21b815260040160405180910390fd5b60fd5460ff16156121ef5760405162461bcd60e51b815260040161172490615b99565b610199546001600160a01b03166122195760405163114d098b60e31b815260040160405180910390fd5b610199546001600160a01b031663fbbc872b306122396066546065540390565b6040516001600160e01b031960e085901b1681526001600160a01b0390921660048301526024820152604401602060405180830381600087803b15801561227f57600080fd5b505af1158015612293573d6000803e3d6000fd5b505050506040513d601f19601f820116820180604052508101906122b79190615796565b6122d45760405163fc58cf3f60e01b815260040160405180910390fd5b565b60006122e1826142d7565b5192915050565b6001600160a01b03811660009081526101a86020526040812054806123105750600092915050565b6101a761231e600183615d17565b8154811061232e5761232e615e5b565b600091825260209091200154600160a01b90046001600160601b03169392505050565b6097546001600160a01b0316331461237c57604051630202a8bf60e61b815260040160405180910390fd5b6098546001600160a01b03166123a55760405163128be5bf60e31b815260040160405180910390fd5b6122d460006143f1565b61019a80546123bd90615d99565b80601f01602080910402602001604051908101604052809291908181526020018280546123e990615d99565b80156124365780601f1061240b57610100808354040283529160200191612436565b820191906000526020600020905b81548152906001019060200180831161241957829003601f168201915b505050505081565b6097546001600160a01b0316331461246957604051630202a8bf60e61b815260040160405180910390fd5b6101a4548061248b576040516356a4234d60e11b815260040160405180910390fd5b4281116124ab576040516338df794b60e01b815260040160405180910390fd5b81428110156124cd57604051639db169d760e01b815260040160405180910390fd5b6101a3548310156124f1576040516335bcfe2b60e21b815260040160405180910390fd5b826101a554101561251557604051631e3804ab60e21b815260040160405180910390fd5b6101a48390556040518381527f4fe26bfd1cf59c4428b13357bea5ab8239f9889b3f94cd575f98b4c6811dcdc590602001611418565b61019b80546123bd90615d99565b60006001600160a01b038216612582576040516323d3ad8160e21b815260040160405180910390fd5b506001600160a01b03166000908152606a60205260409020546001600160401b031690565b6097546001600160a01b031633146125d257604051630202a8bf60e61b815260040160405180910390fd5b6122d4600061443b565b600080516020615ecc8339815191526125fd6097546001600160a01b031690565b6001600160a01b0316336001600160a01b031614158015612625575061262381336127fb565b155b1561264c5760405163f9019a8d60e01b815260048101829052336024820152604401611724565b60fd5460ff1615612670576040516329c0c03160e11b815260040160405180910390fd5b611fb561447a565b60fd5460ff161561269b5760405162461bcd60e51b815260040161172490615b99565b6101a3544210156126bf576040516338df794b60e01b815260040160405180910390fd5b60006126ca336122e8565b9050806126ea576040516377348d3360e01b815260040160405180910390fd5b6126f433826144d2565b8061019f60008282546127079190615caa565b909155506000905061271761277e565b9050612727338361019654614003565b33600080516020615eec83398151915283838161274360655490565b61274d9190615d17565b60026040516112419493929190615c0e565b600082815260cb6020526040812061277790836146da565b9392505050565b60006127886146e6565b905090565b6000814210156127a05750506101ab5490565b6101ad546127ae8342615d17565b106127bc5750506101ac5490565b6101ae546000906127cd8442615d17565b6127d79190615ce4565b90506101af54816127e89190615cf8565b6101ab546127779190615d17565b919050565b60009182526099602090815260408084206001600160a01b0393909316845291905290205460ff1690565b6097546001600160a01b0316331461285157604051630202a8bf60e61b815260040160405180910390fd5b610199546001600160a01b03161561287c576040516310f038e160e01b815260040160405180910390fd5b60006101a55411801561289257506101a5544210155b156128b0576040516338df794b60e01b815260040160405180910390fd5b61019980546001600160a01b0319166001600160a01b0392909216919091179055565b604080516060810182526000808252602082018190529181019190915261119a826142d7565b60606068805461152190615d99565b6097546001600160a01b0316331461293357604051630202a8bf60e61b815260040160405180910390fd5b6101a25480612955576040516356a4234d60e11b815260040160405180910390fd5b428111612975576040516338df794b60e01b815260040160405180910390fd5b814281101561299757604051639db169d760e01b815260040160405180910390fd5b6101aa5483116129ba576040516316c9078560e01b815260040160405180910390fd5b826101a35410156129de576040516312d3f13560e01b815260040160405180910390fd5b6101a28390556040518381527f9776e1b1502b2f97161fccc0d9f830da6ad81a796cf67c136801fd59dd0444cd90602001611418565b6097546001600160a01b03163314612a3f57604051630202a8bf60e61b815260040160405180910390fd5b6101a55480612a61576040516356a4234d60e11b815260040160405180910390fd5b428111612a81576040516338df794b60e01b815260040160405180910390fd5b8142811015612aa357604051639db169d760e01b815260040160405180910390fd5b6101a454831015612ac757604051631e3804ab60e21b815260040160405180910390fd5b6101a58390556040518381527fdb76c49adfe8600a5db82e1d85e7c1f7565676dac577c6a39744e9c95ad68e3c90602001611418565b6001600160a01b038216331415612b275760405163b06307db60e01b815260040160405180910390fd5b336000818152606c602090815260408083206001600160a01b03871680855290835292819020805460ff191686151590811790915590519081529192917f17307eab39ab6107e8899845ad3d59bd9653f200f220920489ca2b5937696c31910160405180910390a35050565b60fd5460ff1615612bb65760405162461bcd60e51b815260040161172490615b99565b6101a354421015612bda576040516338df794b60e01b815260040160405180910390fd5b6001600160601b038116612c0157604051636e5fd58f60e01b815260040160405180910390fd5b61019f5461019e541415612c28576040516377348d3360e01b815260040160405180910390fd5b610196546000612c3661277e565b6101a75490915083906000905b600081118015612c5c57506000836001600160601b0316115b15612d6c5760006101a7612c71600184615d17565b81548110612c8157612c81615e5b565b6000918252602091829020604080518082019091529101546001600160a01b03811682526001600160601b03600160a01b909104811692820183905290925085161015612cd057839250612ce3565b60208101519250612ce082615d82565b91505b8051612cef90846144d2565b612cf98385615d2e565b9350612d138160000151846001600160601b031688614003565b80516001600160a01b0316600080516020615eec83398151915284876001600160601b038216612d4260655490565b612d4c9190615d17565b6002604051612d5e9493929190615c39565b60405180910390a250612c43565b50612d778286615d2e565b6001600160601b031661019f6000828254612d929190615caa565b90915550505050505050565b6000612da9826122e8565b6001600160a01b0383166000908152606a6020526040902054600160401b90046001600160401b031661119a9190615caa565b6097546001600160a01b03163314612e0757604051630202a8bf60e61b815260040160405180910390fd5b82818114612e2857604051638d62a9d560e01b815260040160405180910390fd5b60005b81811015612ea457838382818110612e4557612e45615e5b565b9050602002013561019c6000888885818110612e6357612e63615e5b565b9050602002016020810190612e78919061553b565b6001600160a01b0316815260208101919091526040016000205580612e9c81615dd4565b915050612e2b565b506040517f0df27beb8d16f5e61d125286ba69a986a702ac83921bb1864629ca5e662e84d490600090a15050505050565b323314612ef557604051633059e46160e21b815260040160405180910390fd5b60fd5460ff1615612f185760405162461bcd60e51b815260040161172490615b99565b600480612f23611425565b6005811115612f3457612f34615e2f565b14612f52576040516338df794b60e01b815260040160405180910390fd5b6101965482612f6033612d9e565b612f6a9190615caa565b1115612f89576040516335e62b7b60e21b815260040160405180910390fd5b600061019d5461019454612f9d9190615d17565b9050610193548382612fad613fd8565b612fb79190615caa565b612fc19190615caa565b1115612fe057604051631eddc6a360e11b815260040160405180910390fd5b6000612fea614715565b90506000612ff88583615cf8565b9050613016338660405180602001604052806000815250600061410c565b846101a160008282546130299190615caa565b90915550339050600080516020615eec83398151915286848161304b60655490565b6130559190615d17565b60046040516130679493929190615c0e565b60405180910390a261307881613cb2565b5050505050565b600054610100900460ff1661309a5760005460ff161561309e565b303b155b6131015760405162461bcd60e51b815260206004820152602e60248201527f496e697469616c697a61626c653a20636f6e747261637420697320616c72656160448201526d191e481a5b9a5d1a585b1a5e995960921b6064820152608401611724565b600054610100900460ff16158015613123576000805461ffff19166101011790555b61312d838361472c565b608083013560a084013561314960e086013560c0870135615caa565b6131539190615caa565b111561317257604051631a231d4360e21b815260040160405180910390fd5b60c08301356101a9558015611671576000805461ff0019169055505050565b61319c848484613d51565b6001600160a01b0383163b151580156131be57506131bc848484846149ac565b155b156118d1576040516368d2bf6b60e11b815260040160405180910390fd5b60fd5460ff16156131ff5760405162461bcd60e51b815260040161172490615b99565b60038061320a611425565b600581111561321b5761321b615e2f565b14613239576040516338df794b60e01b815260040160405180910390fd5b33600090815261019c602052604090205482111561326a576040516390e50aa560e01b815260040160405180910390fd5b61019554826101a05461019e546132819190615caa565b61328b9190615caa565b11156132aa57604051631eddc6a360e11b815260040160405180910390fd5b33600090815261019c6020526040812080548492906132ca908490615d17565b90915550600090506132da6146e6565b905060006132e88483615cf8565b90506132f8338561019654614003565b836101a0600082825461330b9190615caa565b90915550339050600080516020615eec83398151915285848161332d60655490565b6133379190615d17565b60036040516118c09493929190615c0e565b6097546001600160a01b0316331461337457604051630202a8bf60e61b815260040160405180910390fd5b6001600160a01b03811661339b576040516386850cc360e01b815260040160405180910390fd5b6098546001600160a01b0316156133c55760405163033c108960e01b815260040160405180910390fd5b611fb5816143f1565b6097546001600160a01b031633146133f957604051630202a8bf60e61b815260040160405180910390fd5b600080613404611425565b600581111561341557613415615e2f565b14613433576040516338df794b60e01b815260040160405180910390fd5b428b101561345457604051639db169d760e01b815260040160405180910390fd5b888a11613474576040516302f092d160e41b815260040160405180910390fd5b8a8711613494576040516316c9078560e01b815260040160405180910390fd5b868610156134b5576040516312d3f13560e01b815260040160405180910390fd5b858410156134d6576040516335bcfe2b60e21b815260040160405180910390fd5b838310156134f757604051631e3804ab60e21b815260040160405180910390fd5b612710851180613508575061271082115b15613526576040516346b7d95d60e11b815260040160405180910390fd5b6135308b88615d17565b6101ad5587158061354f575060046101ad5461354c9190615ce4565b88115b1561356d5760405163352a16bd60e11b815260040160405180910390fd5b6101aa8b90556101ab8a90556101b38a90556101ac8990556101ae8890556101ad5461359a908990615ce4565b6135a48a8c615d17565b6135ae9190615ce4565b6101af556101a28790556101a38690556101b08590556101a48490556101a58390556101b18290556101aa546101ab546101ac546101ae546040805194855260208501939093529183015260608201526080810188905260a0810187905260c0810186905260e08101859052610100810184905261012081018390527f9bd019469ebfcf9900769492374b29fc8f19b71a9cea1e964c34778235a02ebf906101400160405180910390a15050505050505050505050565b610199546060906001600160a01b03166136ac5761019a61368583614aa4565b604051602001613696929190615a33565b6040516020818303038152906040529050919050565b61019954604051635e1578db60e11b81523060048201526001600160a01b039091169063bc2af1b69060240160206040518083038186803b1580156136f057600080fd5b505afa158015613704573d6000803e3d6000fd5b505050506040513d601f19601f820116820180604052508101906137289190615949565b82106137c15761019b805461373c90615d99565b80601f016020809104026020016040519081016040528092919081815260200182805461376890615d99565b80156137b55780601f1061378a576101008083540402835291602001916137b5565b820191906000526020600020905b81548152906001019060200180831161379857829003601f168201915b50505050509050919050565b61019954604051631f4b3c0160e11b81523060048201526024810184905261019a91613685916001600160a01b0390911690633e9678029060440160206040518083038186803b15801561381457600080fd5b505afa158015613828573d6000803e3d6000fd5b505050506040513d601f19601f8201168201806040525081019061384c9190615949565b614aa4565b600081815260cb6020526040812061119a90614ba1565b81806138875760405163e466584960e01b815260040160405180910390fd5b6000838152609960205260409020600101546097546001600160a01b031633148015906138bb57506138b981336127fb565b155b156138e25760405163f9019a8d60e01b815260048101829052336024820152604401611724565b6118d18484614bab565b6001600160a01b0381166000908152606a6020526040812054600160401b90046001600160401b031661119a565b6000612788614715565b6098546001600160a01b03163314158061393c575033155b1561395a5760405163134aa98760e31b815260040160405180910390fd5b6122d43361443b565b6097546001600160a01b0316331461398e57604051630202a8bf60e61b815260040160405180910390fd5b61399b61019b83836153bc565b507f4012c6d278d4b460acbc560e9fa4425e187c3b40c848b8dfa248139729efee4361019b6040516116f59190615b14565b60006001600160e01b0319821662d767f560e71b14806139f157506139f182614bcd565b80613a005750613a0082614c0d565b80613a0f5750613a0f82614c32565b80613a1e5750613a1e82614c48565b8061119a575061119a82614c0d565b6127106001600160601b0382161115613a9b5760405162461bcd60e51b815260206004820152602a60248201527f455243323938313a20726f79616c7479206665652077696c6c206578636565646044820152692073616c65507269636560b01b6064820152608401611724565b6001600160a01b038216613af15760405162461bcd60e51b815260206004820152601960248201527f455243323938313a20696e76616c6964207265636569766572000000000000006044820152606401611724565b604080518082019091526001600160a01b039092168083526001600160601b039091166020909201829052600160a01b9091021761016155565b60006065548210801561119a575050600090815260696020526040902054600160e01b900460ff161590565b6000828152606b602052604080822080546001600160a01b0319166001600160a01b0387811691821790925591518593918516917f8c5be1e5ebec7d5bd14f71427d1e84f3dd0314c0f7b2291e5b200ac8c7c3b92591a4505050565b6001600160a01b03821660009081526101a860205260409020546101a7908015613c48578282613be4600184615d17565b81548110613bf457613bf4615e5b565b60009182526020909120018054601490613c1f908490600160a01b90046001600160601b0316615cc2565b92506101000a8154816001600160601b0302191690836001600160601b031602179055506118d1565b506040805180820182526001600160a01b039485168082526001600160601b039485166020808401918252855460018082018855600088815283812096519451909916600160a01b0293909916929092179390910192909255835490855294909201909152902055565b80341015613cd557604051639968ec3d60e01b8152346004820152602401611724565b80341115611fb557600033613cea8334615d17565b604051600081818185875af1925050503d8060008114613d26576040519150601f19603f3d011682016040523d82523d6000602084013e613d2b565b606091505b5050905080613d4d57604051633aa9e60d60e21b815260040160405180910390fd5b5050565b6000613d5c826142d7565b9050836001600160a01b031681600001516001600160a01b031614613d935760405162a1148160e81b815260040160405180910390fd5b6000336001600160a01b0386161480613db15750613db1853361106d565b80613dcc575033613dc1846115a4565b6001600160a01b0316145b905080613dec57604051632ce44b5f60e11b815260040160405180910390fd5b6001600160a01b038416613e1357604051633a954ecd60e21b815260040160405180910390fd5b613e1f60008487613b57565b6001600160a01b038581166000908152606a60209081526040808320805467ffffffffffffffff198082166001600160401b0392831660001901831617909255898616808652838620805493841693831660019081018416949094179055898652606990945282852080546001600160e01b031916909417600160a01b42909216919091021783558701808452922080549193909116613ef3576065548214613ef357805460208601516001600160401b0316600160a01b026001600160e01b03199091166001600160a01b038a16171781555b50505082846001600160a01b0316866001600160a01b03167fddf252ad1be2c89b69c2b068fc378daa952ba7f163c4a11628f55a4df523b3ef60405160405180910390a4613078565b613f468282614c6d565b600082815260cb602052604090206116719082614cf3565b6001600160a01b0381163314613fce5760405162461bcd60e51b815260206004820152602f60248201527f416363657373436f6e74726f6c3a2063616e206f6e6c792072656e6f756e636560448201526e103937b632b9903337b91039b2b63360891b6064820152608401611724565b613d4d8282614bab565b600061019f5461019e54613fef6066546065540390565b613ff99190615caa565b6127889190615d17565b600061400f8284615ce4565b905060005b8181101561404857614038858460405180602001604052806000815250600061410c565b61404181615dd4565b9050614014565b5060006140558385615def565b9050801561307857613078858260405180602001604052806000815250600061410c565b60fd5460ff166140c25760405162461bcd60e51b815260206004820152601460248201527314185d5cd8589b194e881b9bdd081c185d5cd95960621b6044820152606401611724565b60fd805460ff191690557f5db9ee0a495bf2e6ff9c91a7834c1ba4fdd244a5e8aa4e537bd38aeae4b073aa335b6040516001600160a01b03909116815260200160405180910390a1565b6065546001600160a01b03851661413557604051622e076360e81b815260040160405180910390fd5b836141535760405163b562e8dd60e01b815260040160405180910390fd5b6001600160a01b0385166000818152606a6020908152604080832080546fffffffffffffffffffffffffffffffff1981166001600160401b038083168c018116918217600160401b67ffffffffffffffff1990941690921783900481168c01811690920217909155858452606990925290912080546001600160e01b031916909217600160a01b4290921691909102179055808085018380156141ff57506001600160a01b0387163b15155b15614288575b60405182906001600160a01b038916906000907fddf252ad1be2c89b69c2b068fc378daa952ba7f163c4a11628f55a4df523b3ef908290a461425060008884806001019550886149ac565b61426d576040516368d2bf6b60e11b815260040160405180910390fd5b8082141561420557826065541461428357600080fd5b6142ce565b5b6040516001830192906001600160a01b038916906000907fddf252ad1be2c89b69c2b068fc378daa952ba7f163c4a11628f55a4df523b3ef908290a480821415614289575b50606555613078565b6040805160608101825260008082526020820181905291810191909152816065548110156143d857600081815260696020908152604091829020825160608101845290546001600160a01b0381168252600160a01b81046001600160401b031692820192909252600160e01b90910460ff161515918101829052906143d65780516001600160a01b03161561436d579392505050565b5060001901600081815260696020908152604091829020825160608101845290546001600160a01b038116808352600160a01b82046001600160401b031693830193909352600160e01b900460ff16151592810192909252156143d1579392505050565b61436d565b505b604051636f96cda160e11b815260040160405180910390fd5b609880546001600160a01b0319166001600160a01b0383169081179091556040517f68f49b346b94582a8b5f9d10e3fe3365318fe8f191ff8dce7c59c6cad06b02f590600090a250565b61445760006144526097546001600160a01b031690565b614bab565b6001600160a01b0381161561447157614471600082613f3c565b611fb581614d08565b60fd5460ff161561449d5760405162461bcd60e51b815260040161172490615b99565b60fd805460ff191660011790557f62e78cea01bee320cd4e420270b5ea74000d11b0c9f74754ebdbfc544b05a2586140ef3390565b6001600160a01b03821660009081526101a860205260409020546101a79080156118d157600082614504600184615d17565b8154811061451457614514615e5b565b60009182526020822001546001600160601b03600160a01b909104811692508516821161454257600061454c565b61454c8583615d2e565b90506001600160601b038116614683576000614569600185615d17565b855490915060009061457d90600190615d17565b905080821461463857600086600001828154811061459d5761459d615e5b565b6000918252602091829020604080518082019091529101546001600160a01b0381168252600160a01b90046001600160601b031691810191909152875490915081908890859081106145f1576145f1615e5b565b600091825260208083208451948201516001600160601b0316600160a01b026001600160a01b03958616179201919091559251909116815260018801909152604090208590555b855486908061464957614649615e45565b6000828152602080822083016000199081018390559092019092556001600160a01b038a1682526001880190526040812055506146d29050565b8084614690600186615d17565b815481106146a0576146a0615e5b565b9060005260206000200160000160146101000a8154816001600160601b0302191690836001600160601b031602179055505b505050505050565b60006127778383614d65565b60006127106101b0546101b3546146fd9190615cf8565b6147079190615ce4565b6101b3546127889190615d17565b60006127106101b1546101b3546146fd9190615cf8565b600054610100900460ff166147535760405162461bcd60e51b815260040161172490615bc3565b61475b614d8f565b614763614dce565b61476b614dfd565b6147f46147788380615c64565b8080601f0160208091040260200160405190810160405280939291908181526020018383808284376000920191909152506147ba925050506020850185615c64565b8080601f016020809104026020016040519081016040528093929190818152602001838380828437600092019190915250614e2492505050565b6000614803602083018361553b565b6001600160a01b0316141561482b576040516313d8249360e31b815260040160405180910390fd5b600061483d604083016020840161553b565b6001600160a01b03161415614865576040516331ae7ba360e21b815260040160405180910390fd5b6080820135158061488a5750608082013561488860e084013560a0850135615caa565b115b156148a857604051631a231d4360e21b815260040160405180910390fd5b8160800135826060013511156148d15760405163318e1f1760e01b815260040160405180910390fd5b6148ec6148e4606083016040840161553b565b6101f4613a2d565b61490860808201803590614903906060850161553b565b614e55565b614918606083016040840161553b565b61019980546001600160a01b0319166001600160a01b039290921691909117905560808201356101935560608201356101965560a08201356101945560e082013561019555614975600080516020615ecc83398151915233611c22565b614997600080516020615eac8339815191526108bf604084016020850161553b565b613d4d6149a7602083018361553b565b61443b565b604051630a85bd0160e11b81526000906001600160a01b0385169063150b7a02906149e1903390899088908890600401615ab6565b602060405180830381600087803b1580156149fb57600080fd5b505af1925050508015614a2b575060408051601f3d908101601f19168201909252614a289181019061585c565b60015b614a86573d808015614a59576040519150601f19603f3d011682016040523d82523d6000602084013e614a5e565b606091505b508051614a7e576040516368d2bf6b60e11b815260040160405180910390fd5b805181602001fd5b6001600160e01b031916630a85bd0160e11b1490505b949350505050565b606081614ac85750506040805180820190915260018152600360fc1b602082015290565b8160005b8115614af25780614adc81615dd4565b9150614aeb9050600a83615ce4565b9150614acc565b6000816001600160401b03811115614b0c57614b0c615e71565b6040519080825280601f01601f191660200182016040528015614b36576020820181803683370190505b5090505b8415614a9c57614b4b600183615d17565b9150614b58600a86615def565b614b63906030615caa565b60f81b818381518110614b7857614b78615e5b565b60200101906001600160f81b031916908160001a905350614b9a600a86615ce4565b9450614b3a565b600061119a825490565b614bb58282614efb565b600082815260cb602052604090206116719082614f62565b60006001600160e01b031982166380ac58cd60e01b1480614bfe57506001600160e01b03198216635b5e139f60e01b145b8061119a575061119a82614c32565b60006001600160e01b0319821663152a902d60e11b148061119a575061119a82614c48565b6001600160e01b0319166301ffc9a760e01b1490565b60006001600160e01b0319821663f3353d7760e01b148061119a575061119a82614f77565b614c7782826127fb565b613d4d5760008281526099602090815260408083206001600160a01b03851684529091529020805460ff19166001179055614caf3390565b6001600160a01b0316816001600160a01b0316837f2f8788117e7eff1d82e926ec794901d17c78024a50270940304540a733656f0d60405160405180910390a45050565b6000612777836001600160a01b038416614f91565b609780546001600160a01b038381166001600160a01b03198084168217909455609880549094169093556040519116919082907f8be0079c531659141344cd1fd0a4f28419497f9722a3daafe3b4186f6b6457e090600090a35050565b6000826000018281548110614d7c57614d7c615e5b565b9060005260206000200154905092915050565b600054610100900460ff16614db65760405162461bcd60e51b815260040161172490615bc3565b614dbe614fe0565b614dc661501f565b6122d461504e565b600054610100900460ff16614df55760405162461bcd60e51b815260040161172490615bc3565b6122d46150f7565b600054610100900460ff166122d45760405162461bcd60e51b815260040161172490615bc3565b600054610100900460ff16614e4b5760405162461bcd60e51b815260040161172490615bc3565b613d4d8282615126565b612710821115614e78576040516346b7d95d60e11b815260040160405180910390fd5b6001600160a01b038116614e9f57604051631a1b629760e21b815260040160405180910390fd5b61019782905561019880546001600160a01b0319166001600160a01b0383169081179091556040805184815260208101929092527fd7d086964f00d2604a80288c460231fe9cfc8e9605e838d49017401111f63adb91016116f5565b614f0582826127fb565b15613d4d5760008281526099602090815260408083206001600160a01b0385168085529252808320805460ff1916905551339285917ff6391f5c32d9c69d2a47ea670b442974b53935d1edc7fd64eb21e047a839171b9190a45050565b6000612777836001600160a01b03841661517e565b6000614f8282615271565b8061119a575061119a82615296565b6000818152600183016020526040812054614fd85750815460018181018455600084815260208082209093018490558454848252828601909352604090209190915561119a565b50600061119a565b600054610100900460ff166150075760405162461bcd60e51b815260040161172490615bc3565b61500f6152bb565b615017614dfd565b6122d4614dfd565b600054610100900460ff166150465760405162461bcd60e51b815260040161172490615bc3565b6122d46152f2565b600054610100900460ff166150755760405162461bcd60e51b815260040161172490615bc3565b6150ad600080516020615ecc8339815191527fe0e65c783ac33ff1c5ccf4399c9185066773921d6f8d050bf80781603021f097615325565b6122d47f427da25fe773164f88948d3e215c94b6554e2ed5e5f203a821c9f2f6131cf75a7fe516f7ac9747f401e208331379a0bafe3c9c4dbb6501fd23bcef278f7ebaf4e5615325565b600054610100900460ff1661511e5760405162461bcd60e51b815260040161172490615bc3565b600161012f55565b600054610100900460ff1661514d5760405162461bcd60e51b815260040161172490615bc3565b8151615160906067906020850190615440565b508051615174906068906020840190615440565b5060006065555050565b600081815260018301602052604081205480156152675760006151a2600183615d17565b85549091506000906151b690600190615d17565b905081811461521b5760008660000182815481106151d6576151d6615e5b565b90600052602060002001549050808760000184815481106151f9576151f9615e5b565b6000918252602080832090910192909255918252600188019052604090208390555b855486908061522c5761522c615e45565b60019003818190600052602060002001600090559055856001016000868152602001908152602001600020600090556001935050505061119a565b600091505061119a565b60006001600160e01b031982166322d7505760e11b148061119a575061119a82614bcd565b60006001600160e01b03198216635a05180f60e01b148061119a575061119a82615370565b600054610100900460ff166152e25760405162461bcd60e51b815260040161172490615bc3565b6152ea614dfd565b6122d4615395565b600054610100900460ff166153195760405162461bcd60e51b815260040161172490615bc3565b60fd805460ff19169055565b600082815260996020526040808220600101805490849055905190918391839186917fbd79b86ffe0ab8e8776151514217cd7cacd52c909f66475c3af44e129f0b00ff9190a4505050565b60006001600160e01b03198216637965db0b60e01b148061119a575061119a82615271565b600054610100900460ff1661395a5760405162461bcd60e51b815260040161172490615bc3565b8280546153c890615d99565b90600052602060002090601f0160209004810192826153ea5760008555615430565b82601f106154035782800160ff19823516178555615430565b82800160010185558215615430579182015b82811115615430578235825591602001919060010190615415565b5061543c9291506154b4565b5090565b82805461544c90615d99565b90600052602060002090601f01602090048101928261546e5760008555615430565b82601f1061548757805160ff1916838001178555615430565b82800160010185558215615430579182015b82811115615430578251825591602001919060010190615499565b5b8082111561543c57600081556001016154b5565b80356001600160a01b03811681146127f657600080fd5b60008083601f8401126154f257600080fd5b5081356001600160401b0381111561550957600080fd5b6020830191508360208260051b8501011115611c1b57600080fd5b80356001600160601b03811681146127f657600080fd5b60006020828403121561554d57600080fd5b612777826154c9565b6000806040838503121561556957600080fd5b615572836154c9565b9150615580602084016154c9565b90509250929050565b60008060006060848603121561559e57600080fd5b6155a7846154c9565b92506155b5602085016154c9565b9150604084013590509250925092565b600080600080608085870312156155db57600080fd5b6155e4856154c9565b93506155f2602086016154c9565b92506040850135915060608501356001600160401b038082111561561557600080fd5b818701915087601f83011261562957600080fd5b81358181111561563b5761563b615e71565b604051601f8201601f19908116603f0116810190838211818310171561566357615663615e71565b816040528281528a602084870101111561567c57600080fd5b82602086016020830137600060208483010152809550505050505092959194509250565b600080604083850312156156b357600080fd5b6156bc836154c9565b915060208301356156cc81615e87565b809150509250929050565b600080604083850312156156ea57600080fd5b6156f3836154c9565b946020939093013593505050565b6000806040838503121561571457600080fd5b61571d836154c9565b915061558060208401615524565b6000806000806040858703121561574157600080fd5b84356001600160401b038082111561575857600080fd5b615764888389016154e0565b9096509450602087013591508082111561577d57600080fd5b5061578a878288016154e0565b95989497509550505050565b6000602082840312156157a857600080fd5b815161277781615e87565b600080604083850312156157c657600080fd5b82516157d181615e87565b6020939093015192949293505050565b6000602082840312156157f357600080fd5b5035919050565b6000806040838503121561580d57600080fd5b82359150615580602084016154c9565b6000806040838503121561583057600080fd5b50508035926020909101359150565b60006020828403121561585157600080fd5b813561277781615e95565b60006020828403121561586e57600080fd5b815161277781615e95565b6000806020838503121561588c57600080fd5b82356001600160401b03808211156158a357600080fd5b818501915085601f8301126158b757600080fd5b8135818111156158c657600080fd5b8660208285010111156158d857600080fd5b60209290920196919550909350505050565b60008082840360c08112156158fe57600080fd5b83356001600160401b0381111561591457600080fd5b8401610100818703121561592757600080fd5b925060a0601f198201121561593b57600080fd5b506020830190509250929050565b60006020828403121561595b57600080fd5b5051919050565b6000806000806000806000806000806101408b8d03121561598257600080fd5b505088359a60208a01359a5060408a013599606081013599506080810135985060a0810135975060c0810135965060e081013595506101008101359450610120013592509050565b6000602082840312156159dc57600080fd5b61277782615524565b600081518084526159fd816020860160208601615d56565b601f01601f19169290920160200192915050565b60068110615a2f57634e487b7160e01b600052602160045260246000fd5b9052565b6000808454615a4181615d99565b60018281168015615a595760018114615a6a57615a99565b60ff19841687528287019450615a99565b8860005260208060002060005b85811015615a905781548a820152908401908201615a77565b50505082870194505b505050508351615aad818360208801615d56565b01949350505050565b6001600160a01b0385811682528416602082015260408101839052608060608201819052600090615ae9908301846159e5565b9695505050505050565b6020810161119a8284615a11565b60208152600061277760208301846159e5565b6000602080835260008454615b2881615d99565b80848701526040600180841660008114615b495760018114615b5d57615b8b565b60ff19851689840152606089019550615b8b565b896000528660002060005b85811015615b835781548b8201860152908301908801615b68565b8a0184019650505b509398975050505050505050565b60208082526010908201526f14185d5cd8589b194e881c185d5cd95960821b604082015260600190565b6020808252602b908201527f496e697469616c697a61626c653a20636f6e7472616374206973206e6f74206960408201526a6e697469616c697a696e6760a81b606082015260800190565b848152602081018490526040810183905260808101615c306060830184615a11565b95945050505050565b6001600160601b0385168152602081018490526040810183905260808101615c306060830184615a11565b6000808335601e19843603018112615c7b57600080fd5b8301803591506001600160401b03821115615c9557600080fd5b602001915036819003821315611c1b57600080fd5b60008219821115615cbd57615cbd615e03565b500190565b60006001600160601b03808316818516808303821115615aad57615aad615e03565b600082615cf357615cf3615e19565b500490565b6000816000190483118215151615615d1257615d12615e03565b500290565b600082821015615d2957615d29615e03565b500390565b60006001600160601b0383811690831681811015615d4e57615d4e615e03565b039392505050565b60005b83811015615d71578181015183820152602001615d59565b838111156118d15750506000910152565b600081615d9157615d91615e03565b506000190190565b600181811c90821680615dad57607f821691505b60208210811415615dce57634e487b7160e01b600052602260045260246000fd5b50919050565b6000600019821415615de857615de8615e03565b5060010190565b600082615dfe57615dfe615e19565b500690565b634e487b7160e01b600052601160045260246000fd5b634e487b7160e01b600052601260045260246000fd5b634e487b7160e01b600052602160045260246000fd5b634e487b7160e01b600052603160045260246000fd5b634e487b7160e01b600052603260045260246000fd5b634e487b7160e01b600052604160045260246000fd5b8015158114611fb557600080fd5b6001600160e01b031981168114611fb557600080fdfe770fadb28e0e3026382976ee8b810cb0eb8666922148dd9e10b20cfb9b477ba865d7a28e3265b37a6474929f336521b332c1681b933f6cb9f3376673440d862abb20f716bd7ca9427b818f6de485952ab3a5acec2559fb794e3f9a4d9f70e722a26469706673582212205df002fa06c701295ca03d58004b0a8fa0619354dbf0f9595003e12d2647befa64736f6c63430008060033",
  "devdoc": {
    "author": "Trader Joe",
    "events": {
      "AuctionSaleStartTimeSet(uint256)": {
        "details": "Emitted on setAuctionSaleStartTime()",
        "params": {
          "auctionSaleStartTime": "New auction sale start time"
        }
      },
      "Initialized(uint256,uint256,uint256,uint256,uint256,uint256,uint256,uint256,uint256,uint256)": {
        "details": "Emitted on initializePhases()",
        "params": {
          "allowlistDiscountPercent": "Discount applied to the last auction price during the allowlist mint",
          "allowlistStartTime": "allowlist mint start time in seconds",
          "auctionDropInterval": "Time elapsed between each drop in price in seconds",
          "auctionEndPrice": "Auction floor price in AVAX",
          "auctionSaleStartTime": "Auction start time in seconds",
          "auctionStartPrice": "Auction start price in AVAX",
          "preMintStartTime": "Pre-mint start time in seconds",
          "publicSaleDiscountPercent": "Discount applied to the last auction price during the public sale",
          "publicSaleEndTime": "Public sale end time in seconds",
          "publicSaleStartTime": "Public sale start time in seconds"
        }
      }
    },
    "kind": "dev",
    "methods": {
      "allowlistMint(uint256)": {
        "params": {
          "_quantity": "Quantity of NFTs to mint"
        }
      },
      "allowlistPrice()": {
        "returns": {
          "_0": "allowlistSalePrice Mint List sale price"
        }
      },
      "approve(address,uint256)": {
        "details": "See {IERC721-approve}."
      },
      "auctionMint(uint256)": {
        "details": "The price decreases every `auctionDropInterval` by `auctionDropPerStep`",
        "params": {
          "_quantity": "Quantity of NFTs to buy"
        }
      },
      "balanceOf(address)": {
        "details": "See {IERC721-balanceOf}."
      },
      "batchClaimPreMint(uint96)": {
        "params": {
          "_maxQuantity": "Max quantity of NFTs to mint"
        }
      },
      "currentPhase()": {
        "returns": {
          "_0": "phase Current phase"
        }
      },
      "devMint(uint256)": {
        "details": "Can only mint up to `amountForDevs`",
        "params": {
          "_quantity": "Quantity of NFTs to mint"
        }
      },
      "getApproved(uint256)": {
        "details": "See {IERC721-getApproved}."
      },
      "getAuctionPrice(uint256)": {
        "params": {
          "_saleStartTime": "Auction sale start time"
        },
        "returns": {
          "_0": "auctionSalePrice Auction sale price"
        }
      },
      "getOwnershipData(uint256)": {
        "params": {
          "_tokenId": "Token ID"
        },
        "returns": {
          "_0": "TokenOwnership Ownership struct for a specific token ID"
        }
      },
      "getRoleAdmin(bytes32)": {
        "details": "Returns the admin role that controls `role`. See {grantRole} and {revokeRole}. To change a role's admin, use {_setRoleAdmin}."
      },
      "getRoleMember(bytes32,uint256)": {
        "details": "Returns one of the accounts that have `role`. `index` must be a value between 0 and {getRoleMemberCount}, non-inclusive. Role bearers are not sorted in any particular way, and their ordering may change at any point. WARNING: When using {getRoleMember} and {getRoleMemberCount}, make sure you perform all queries on the same block. See the following https://forum.openzeppelin.com/t/iterating-over-elements-on-enumerableset-in-openzeppelin-contracts/2296[forum post] for more information."
      },
      "getRoleMemberCount(bytes32)": {
        "details": "Returns the number of accounts that have `role`. Can be used together with {getRoleMember} to enumerate all bearers of a role."
      },
      "grantRole(bytes32,address)": {
        "details": "If `account` had not been already granted `role`, emits a {RoleGranted} event. Requirements: - the caller must be the `owner` or have ``role``'s admin role. - the role granted can't be `DEFAULT_ADMIN`",
        "params": {
          "account": "The address of the account",
          "role": "The role to grant"
        }
      },
      "hasBatchToReveal()": {
        "returns": {
          "_0": "bool Whether reveal can be triggered or not",
          "_1": "uint256 The number of the next batch that will be revealed"
        }
      },
      "hasRole(bytes32,address)": {
        "details": "Returns `true` if `account` has been granted `role`."
      },
      "initialize((string,string,address,uint256,uint256,uint256,uint256,uint256),(address,address,address,address,uint256))": {
        "params": {
          "_collectionData": "Launchpeg collection data",
          "_ownerData": "Launchpeg owner data"
        }
      },
      "initializeBatchReveal(address)": {
        "details": "Can only be set once. Cannot be initialized once sale has ended.",
        "params": {
          "_batchReveal": "Batch reveal contract address"
        }
      },
      "initializePhases(uint256,uint256,uint256,uint256,uint256,uint256,uint256,uint256,uint256,uint256)": {
        "details": "Can only be called once",
        "params": {
          "_allowlistDiscountPercent": "Discount applied to the last auction price during the allowlist mint",
          "_allowlistStartTime": "Allowlist mint start time in seconds",
          "_auctionDropInterval": "Time elapsed between each drop in price in seconds",
          "_auctionEndPrice": "Auction floor price in AVAX",
          "_auctionSaleStartTime": "Auction start time in seconds",
          "_auctionStartPrice": "Auction start price in AVAX",
          "_preMintStartTime": "Pre-mint start time in seconds",
          "_publicSaleDiscountPercent": "Discount applied to the last auction price during the public sale",
          "_publicSaleEndTime": "Public sale end time in seconds",
          "_publicSaleStartTime": "Public sale start time in seconds"
        }
      },
      "isApprovedForAll(address,address)": {
        "details": "See {IERC721-isApprovedForAll}."
      },
      "name()": {
        "details": "See {IERC721Metadata-name}."
      },
      "numberMinted(address)": {
        "params": {
          "_owner": "The owner of the NFTs"
        },
        "returns": {
          "_0": "numberMinted Number of NFTs minted"
        }
      },
      "owner()": {
        "returns": {
          "_0": "The address of the current owner"
        }
      },
      "ownerOf(uint256)": {
        "details": "See {IERC721-ownerOf}."
      },
      "pause()": {
        "details": "Sensible part of a contract might be pausable for security reasons. Requirements: - the caller must be the `owner` or have the ``role`` role. - the contrat needs to be unpaused."
      },
      "paused()": {
        "details": "Returns true if the contract is paused, and false otherwise."
      },
      "pendingOwner()": {
        "returns": {
          "_0": "The address of the current pending owner"
        }
      },
      "preMint(uint96)": {
        "params": {
          "_quantity": "Quantity of NFTs to mint"
        }
      },
      "publicSaleMint(uint256)": {
        "params": {
          "_quantity": "Quantity of NFTs to mint"
        }
      },
      "renounceRole(bytes32,address)": {
        "details": "Roles are often managed via {grantRole} and {revokeRole}: this function's purpose is to provide a mechanism for accounts to lose their privileges if they are compromised (such as when a trusted device is misplaced). If the calling account had been revoked `role`, emits a {RoleRevoked} event. Requirements: - the caller must be `account`. - the role renounced can't be `DEFAULT_ADMIN`",
        "params": {
          "account": "The address of the account",
          "role": "The role to renounce"
        }
      },
      "revokeRole(bytes32,address)": {
        "details": "If `account` had been granted `role`, emits a {RoleRevoked} event. Requirements: - the caller must be the `owner` or have ``role``'s admin role. - the role revoked can't be `DEFAULT_ADMIN`",
        "params": {
          "account": "The address of the account",
          "role": "The role to revoke"
        }
      },
      "royaltyInfo(uint256,uint256)": {
        "details": "Returns how much royalty is owed and to whom, based on a sale price that may be denominated in any unit of exchange. The royalty amount is denominated and should be payed in that same unit of exchange."
      },
      "safeTransferFrom(address,address,uint256)": {
        "details": "See {IERC721-safeTransferFrom}."
      },
      "safeTransferFrom(address,address,uint256,bytes)": {
        "details": "See {IERC721-safeTransferFrom}."
      },
      "salePrice()": {
        "returns": {
          "_0": "publicSalePrice Public sale price"
        }
      },
      "seedAllowlist(address[],uint256[])": {
        "params": {
          "_addresses": "List of addresses allowed to mint during the allowlist phase",
          "_numNfts": "List of NFT quantities mintable per address"
        }
      },
      "setAllowlistStartTime(uint256)": {
        "details": "Only callable by owner",
        "params": {
          "_allowlistStartTime": "New allowlist start time"
        }
      },
      "setApprovalForAll(address,bool)": {
        "details": "See {IERC721-setApprovalForAll}."
      },
      "setAuctionSaleStartTime(uint256)": {
        "details": "Only callable by owner",
        "params": {
          "_auctionSaleStartTime": "New auction sale start time"
        }
      },
      "setBaseURI(string)": {
        "details": "This sets the URI for revealed tokens Only callable by project owner",
        "params": {
          "_baseURI": "Base URI to be set"
        }
      },
      "setPreMintStartTime(uint256)": {
        "details": "Only callable by owner",
        "params": {
          "_preMintStartTime": "New pre-mint start time"
        }
      },
      "setPublicSaleEndTime(uint256)": {
        "details": "Only callable by owner",
        "params": {
          "_publicSaleEndTime": "New public sale end time"
        }
      },
      "setPublicSaleStartTime(uint256)": {
        "details": "Only callable by owner",
        "params": {
          "_publicSaleStartTime": "New public sale start time"
        }
      },
      "setRoyaltyInfo(address,uint96)": {
        "params": {
          "_feePercent": "Royalty fee percent in basis point",
          "_receiver": "Royalty fee collector"
        }
      },
      "setUnrevealedURI(string)": {
        "details": "Only callable by project owner",
        "params": {
          "_unrevealedURI": "Unrevealed URI to be set"
        }
      },
      "setWithdrawAVAXStartTime(uint256)": {
        "params": {
          "_withdrawAVAXStartTime": "New public sale end time"
        }
      },
      "supportsInterface(bytes4)": {
        "details": "Returns true if this contract implements the interface defined by `interfaceId`. See the corresponding https://eips.ethereum.org/EIPS/eip-165#how-interfaces-are-identified[EIP section] to learn more about how these IDs are created. This function call must use less than 30 000 gas.",
        "params": {
          "_interfaceId": "InterfaceId to consider. Comes from type(InterfaceContract).interfaceId"
        },
        "returns": {
          "_0": "isInterfaceSupported True if the considered interface is supported"
        }
      },
      "symbol()": {
        "details": "See {IERC721Metadata-symbol}."
      },
      "tokenURI(uint256)": {
        "params": {
          "_id": "Token id"
        },
        "returns": {
          "_0": "URI Token URI"
        }
      },
      "totalSupply()": {
        "details": "Burned tokens are calculated here, use _totalMinted() if you want to count just minted tokens."
      },
      "transferFrom(address,address,uint256)": {
        "details": "See {IERC721-transferFrom}."
      },
      "unpause()": {
        "details": "Sensible part of a contract might be pausable for security reasons. Requirements: - the caller must be the `owner` or have the ``role`` role. - the contrat needs to be unpaused."
      },
      "userPendingPreMints(address)": {
        "params": {
          "_user": "user address"
        }
      },
      "withdrawAVAX(address)": {
        "params": {
          "_to": "Recipient of the earned AVAX"
        }
      }
    },
    "stateVariables": {
      "allowlistDiscountPercent": {
        "details": "In basis points e.g 500 for 5%"
      },
      "auctionDropInterval": {
        "details": "In seconds"
      },
      "auctionEndPrice": {
        "details": "auctionEndPrice is scaled to 1e18"
      },
      "auctionSaleDuration": {
        "details": "allowlistStartTime - auctionSaleStartTime"
      },
      "auctionSaleStartTime": {
        "details": "Timestamp"
      },
      "auctionStartPrice": {
        "details": "auctionStartPrice is scaled to 1e18"
      },
      "lastAuctionPrice": {
        "details": "lastAuctionPrice is scaled to 1e18"
      },
      "publicSaleDiscountPercent": {
        "details": "In basis points e.g 2500 for 25%"
      }
    },
    "title": "Launchpeg",
    "version": 1
  },
  "userdoc": {
    "kind": "user",
    "methods": {
      "BASIS_POINT_PRECISION()": {
        "notice": "Percentage base point"
      },
      "PROJECT_OWNER_ROLE()": {
        "notice": "Role granted to project owners"
      },
      "allowlist(address)": {
        "notice": "The amount of NFTs each allowed address can mint during the pre-mint or allowlist mint"
      },
      "allowlistDiscountPercent()": {
        "notice": "The discount applied to the last auction price during the allowlist mint"
      },
      "allowlistMint(uint256)": {
        "notice": "Mint NFTs during the allowlist mint"
      },
      "allowlistPrice()": {
        "notice": "Returns the price of the allowlist mint"
      },
      "allowlistStartTime()": {
        "notice": "Start time of the allowlist mint in seconds"
      },
      "amountClaimedDuringPreMint()": {
        "notice": "Tracks the amount of pre-minted NFTs that have been claimed"
      },
      "amountForAllowlist()": {
        "notice": "Amount of NFTs available for the allowlist mint (e.g 1000)"
      },
      "amountForAuction()": {
        "notice": "Amount of NFTs available for the auction (e.g 8000) Unsold items are put up for sale during the public sale."
      },
      "amountForDevs()": {
        "notice": "Amount of NFTs reserved for the project owner (e.g 200)"
      },
      "amountMintedByDevs()": {
        "notice": "Tracks the amount of NFTs minted by `projectOwner`"
      },
      "amountMintedDuringAllowlist()": {
        "notice": "Tracks the amount of NFTs minted on Allowlist phase"
      },
      "amountMintedDuringAuction()": {
        "notice": "Tracks the amount of NFTs minted during the dutch auction"
      },
      "amountMintedDuringPreMint()": {
        "notice": "Tracks the amount of NFTs minted in the Pre-Mint phase"
      },
      "amountMintedDuringPublicSale()": {
        "notice": "Tracks the amount of NFTs minted on Public Sale phase"
      },
      "auctionDropInterval()": {
        "notice": "Time elapsed between each drop in price"
      },
      "auctionDropPerStep()": {
        "notice": "Amount in AVAX deducted at each interval"
      },
      "auctionEndPrice()": {
        "notice": "Auction floor price in AVAX"
      },
      "auctionMint(uint256)": {
        "notice": "Mint NFTs during the dutch auction"
      },
      "auctionSaleDuration()": {
        "notice": "Duration of the auction in seconds"
      },
      "auctionSaleStartTime()": {
        "notice": "Start time of the dutch auction in seconds"
      },
      "auctionStartPrice()": {
        "notice": "Auction start price in AVAX"
      },
      "baseURI()": {
        "notice": "Token URI after collection reveal"
      },
      "batchClaimPreMint(uint96)": {
        "notice": "Claim pre-minted NFTs for users"
      },
      "batchReveal()": {
        "notice": "Batch reveal contract"
      },
      "becomeOwner()": {
        "notice": "Transfers the ownership to the new owner (`pendingOwner`). Can only be called by the pending owner"
      },
      "claimPreMint()": {
        "notice": "Claim pre-minted NFTs"
      },
      "collectionSize()": {
        "notice": "The collection size (e.g 10000)"
      },
      "currentPhase()": {
        "notice": "Returns the current phase"
      },
      "devMint(uint256)": {
        "notice": "Mint NFTs to the project owner"
      },
      "getAuctionPrice(uint256)": {
        "notice": "Returns the current price of the dutch auction"
      },
      "getOwnershipData(uint256)": {
        "notice": "Returns the ownership data of a specific token ID"
      },
      "grantRole(bytes32,address)": {
        "notice": "Grants `role` to `account`."
      },
      "hasBatchToReveal()": {
        "notice": "Tells you if a batch can be revealed"
      },
      "initialize((string,string,address,uint256,uint256,uint256,uint256,uint256),(address,address,address,address,uint256))": {
        "notice": "Launchpeg initialization Can only be called once"
      },
      "initializeBatchReveal(address)": {
        "notice": "Initialize batch reveal. Leave undefined to disable batch reveal for the collection."
      },
      "initializePhases(uint256,uint256,uint256,uint256,uint256,uint256,uint256,uint256,uint256,uint256)": {
        "notice": "Initialize the three phases of the sale"
      },
      "joeFeeCollector()": {
        "notice": "The address to which the fees on the sale will be sent"
      },
      "joeFeePercent()": {
        "notice": "The fees collected by Joepegs on the sale benefits"
      },
      "lastAuctionPrice()": {
        "notice": "The price of the last NFT sold during the auction"
      },
      "maxPerAddressDuringMint()": {
        "notice": "Max amount of NFTs an address can mint in public phases"
      },
      "numberMinted(address)": {
        "notice": "Returns the number of NFTs minted by a specific address"
      },
      "numberMintedWithPreMint(address)": {
        "notice": "Number minted by user including pre-mints"
      },
      "owner()": {
        "notice": "Returns the address of the current owner"
      },
      "pause()": {
        "notice": "Pauses the contract."
      },
      "pendingOwner()": {
        "notice": "Returns the address of the current pending owner"
      },
      "preMint(uint96)": {
        "notice": "Mint NFTs during the pre-mint"
      },
      "preMintStartTime()": {
        "notice": "Start time of the pre-mint in seconds"
      },
      "publicSaleDiscountPercent()": {
        "notice": "The discount applied to the last auction price during the public sale"
      },
      "publicSaleEndTime()": {
        "notice": "End time of the public sale in seconds"
      },
      "publicSaleMint(uint256)": {
        "notice": "Mint NFTs during the public sale"
      },
      "publicSaleStartTime()": {
        "notice": "Start time of the public sale in seconds"
      },
      "renounceOwnership()": {
        "notice": "Leaves the contract without owner. It will not be possible to call `onlyOwner` functions anymore. Can only be called by the current owner. NOTE: Renouncing ownership will leave the contract without an owner, thereby removing any functionality that is only available to the owner."
      },
      "renounceRole(bytes32,address)": {
        "notice": "Revokes `role` from the calling account."
      },
      "revealNextBatch()": {
        "notice": "Reveals the next batch if the reveal conditions are met"
      },
      "revokePendingOwner()": {
        "notice": "Revoke the pending owner address. This address will not be able to call {becomeOwner} to become the owner anymore. Can only be called by the owner"
      },
      "revokeRole(bytes32,address)": {
        "notice": "Revokes `role` from `account`."
      },
      "salePrice()": {
        "notice": "Returns the price of the public sale"
      },
      "seedAllowlist(address[],uint256[])": {
        "notice": "Set amount of NFTs mintable per address during the allowlist phase"
      },
      "setAllowlistStartTime(uint256)": {
        "notice": "Set the allowlist start time. Can only be set after phases have been initialized."
      },
      "setAuctionSaleStartTime(uint256)": {
        "notice": "Set the auction sale start time. Can only be set after phases have been initialized."
      },
      "setBaseURI(string)": {
        "notice": "Set the base URI"
      },
      "setPendingOwner(address)": {
        "notice": "Sets the pending owner address. This address will be able to become the owner of this contract by calling {becomeOwner}"
      },
      "setPreMintStartTime(uint256)": {
        "notice": "Set the pre-mint start time. Can only be set after phases have been initialized."
      },
      "setPublicSaleEndTime(uint256)": {
        "notice": "Set the public sale end time. Can only be set after phases have been initialized."
      },
      "setPublicSaleStartTime(uint256)": {
        "notice": "Set the public sale start time. Can only be set after phases have been initialized."
      },
      "setRoyaltyInfo(address,uint96)": {
        "notice": "Set the royalty fee"
      },
      "setUnrevealedURI(string)": {
        "notice": "Set the unrevealed URI"
      },
      "setWithdrawAVAXStartTime(uint256)": {
        "notice": "Set the withdraw AVAX start time."
      },
      "tokenURI(uint256)": {
        "notice": "Returns the Uniform Resource Identifier (URI) for `tokenId` token."
      },
      "unpause()": {
        "notice": "Unpauses the contract."
      },
      "unrevealedURI()": {
        "notice": "Token URI before the collection reveal"
      },
      "userPendingPreMints(address)": {
        "notice": "The remaining no. of pre-minted NFTs for the user address"
      },
      "withdrawAVAX(address)": {
        "notice": "Withdraw AVAX to the given recipient"
      },
      "withdrawAVAXStartTime()": {
        "notice": "Start time when funds can be withdrawn"
      }
    },
    "notice": "Implements a fair and gas efficient NFT launch mechanism. The sale takes place in 3 phases: dutch auction, allowlist mint, public sale.",
    "version": 1
  },
  "storageLayout": {
    "storage": [
      {
        "astId": 810,
        "contract": "contracts/Launchpeg.sol:Launchpeg",
        "label": "_initialized",
        "offset": 0,
        "slot": "0",
        "type": "t_bool"
      },
      {
        "astId": 813,
        "contract": "contracts/Launchpeg.sol:Launchpeg",
        "label": "_initializing",
        "offset": 1,
        "slot": "0",
        "type": "t_bool"
      },
      {
        "astId": 1710,
        "contract": "contracts/Launchpeg.sol:Launchpeg",
        "label": "__gap",
        "offset": 0,
        "slot": "1",
        "type": "t_array(t_uint256)50_storage"
      },
      {
        "astId": 1957,
        "contract": "contracts/Launchpeg.sol:Launchpeg",
        "label": "__gap",
        "offset": 0,
        "slot": "51",
        "type": "t_array(t_uint256)50_storage"
      },
      {
        "astId": 12074,
        "contract": "contracts/Launchpeg.sol:Launchpeg",
        "label": "_currentIndex",
        "offset": 0,
        "slot": "101",
        "type": "t_uint256"
      },
      {
        "astId": 12076,
        "contract": "contracts/Launchpeg.sol:Launchpeg",
        "label": "_burnCounter",
        "offset": 0,
        "slot": "102",
        "type": "t_uint256"
      },
      {
        "astId": 12078,
        "contract": "contracts/Launchpeg.sol:Launchpeg",
        "label": "_name",
        "offset": 0,
        "slot": "103",
        "type": "t_string_storage"
      },
      {
        "astId": 12080,
        "contract": "contracts/Launchpeg.sol:Launchpeg",
        "label": "_symbol",
        "offset": 0,
        "slot": "104",
        "type": "t_string_storage"
      },
      {
        "astId": 12085,
        "contract": "contracts/Launchpeg.sol:Launchpeg",
        "label": "_ownerships",
        "offset": 0,
        "slot": "105",
        "type": "t_mapping(t_uint256,t_struct(TokenOwnership)12063_storage)"
      },
      {
        "astId": 12090,
        "contract": "contracts/Launchpeg.sol:Launchpeg",
        "label": "_addressData",
        "offset": 0,
        "slot": "106",
        "type": "t_mapping(t_address,t_struct(AddressData)12072_storage)"
      },
      {
        "astId": 12094,
        "contract": "contracts/Launchpeg.sol:Launchpeg",
        "label": "_tokenApprovals",
        "offset": 0,
        "slot": "107",
        "type": "t_mapping(t_uint256,t_address)"
      },
      {
        "astId": 12100,
        "contract": "contracts/Launchpeg.sol:Launchpeg",
        "label": "_operatorApprovals",
        "offset": 0,
        "slot": "108",
        "type": "t_mapping(t_address,t_mapping(t_address,t_bool))"
      },
      {
        "astId": 13348,
        "contract": "contracts/Launchpeg.sol:Launchpeg",
        "label": "__gap",
        "offset": 0,
        "slot": "109",
        "type": "t_array(t_uint256)42_storage"
      },
      {
        "astId": 11452,
        "contract": "contracts/Launchpeg.sol:Launchpeg",
        "label": "_owner",
        "offset": 0,
        "slot": "151",
        "type": "t_address"
      },
      {
        "astId": 11454,
        "contract": "contracts/Launchpeg.sol:Launchpeg",
        "label": "_pendingOwner",
        "offset": 0,
        "slot": "152",
        "type": "t_address"
      },
      {
        "astId": 273,
        "contract": "contracts/Launchpeg.sol:Launchpeg",
        "label": "_roles",
        "offset": 0,
        "slot": "153",
        "type": "t_mapping(t_bytes32,t_struct(RoleData)268_storage)"
      },
      {
        "astId": 561,
        "contract": "contracts/Launchpeg.sol:Launchpeg",
        "label": "__gap",
        "offset": 0,
        "slot": "154",
        "type": "t_array(t_uint256)49_storage"
      },
      {
        "astId": 122,
        "contract": "contracts/Launchpeg.sol:Launchpeg",
        "label": "_roleMembers",
        "offset": 0,
        "slot": "203",
        "type": "t_mapping(t_bytes32,t_struct(AddressSet)2282_storage)"
      },
      {
        "astId": 232,
        "contract": "contracts/Launchpeg.sol:Launchpeg",
        "label": "__gap",
        "offset": 0,
        "slot": "204",
        "type": "t_array(t_uint256)49_storage"
      },
      {
        "astId": 898,
        "contract": "contracts/Launchpeg.sol:Launchpeg",
        "label": "_paused",
        "offset": 0,
        "slot": "253",
        "type": "t_bool"
      },
      {
        "astId": 987,
        "contract": "contracts/Launchpeg.sol:Launchpeg",
        "label": "__gap",
        "offset": 0,
        "slot": "254",
        "type": "t_array(t_uint256)49_storage"
      },
      {
        "astId": 1002,
        "contract": "contracts/Launchpeg.sol:Launchpeg",
        "label": "_status",
        "offset": 0,
        "slot": "303",
        "type": "t_uint256"
      },
      {
        "astId": 1046,
        "contract": "contracts/Launchpeg.sol:Launchpeg",
        "label": "__gap",
        "offset": 0,
        "slot": "304",
        "type": "t_array(t_uint256)49_storage"
      },
      {
        "astId": 1240,
        "contract": "contracts/Launchpeg.sol:Launchpeg",
        "label": "_defaultRoyaltyInfo",
        "offset": 0,
        "slot": "353",
        "type": "t_struct(RoyaltyInfo)1237_storage"
      },
      {
        "astId": 1245,
        "contract": "contracts/Launchpeg.sol:Launchpeg",
        "label": "_tokenRoyaltyInfo",
        "offset": 0,
        "slot": "354",
        "type": "t_mapping(t_uint256,t_struct(RoyaltyInfo)1237_storage)"
      },
      {
        "astId": 1425,
        "contract": "contracts/Launchpeg.sol:Launchpeg",
        "label": "__gap",
        "offset": 0,
        "slot": "355",
        "type": "t_array(t_uint256)48_storage"
      },
      {
        "astId": 3301,
        "contract": "contracts/Launchpeg.sol:Launchpeg",
        "label": "collectionSize",
        "offset": 0,
        "slot": "403",
        "type": "t_uint256"
      },
      {
        "astId": 3305,
        "contract": "contracts/Launchpeg.sol:Launchpeg",
        "label": "amountForDevs",
        "offset": 0,
        "slot": "404",
        "type": "t_uint256"
      },
      {
        "astId": 3309,
        "contract": "contracts/Launchpeg.sol:Launchpeg",
        "label": "amountForAllowlist",
        "offset": 0,
        "slot": "405",
        "type": "t_uint256"
      },
      {
        "astId": 3313,
        "contract": "contracts/Launchpeg.sol:Launchpeg",
        "label": "maxPerAddressDuringMint",
        "offset": 0,
        "slot": "406",
        "type": "t_uint256"
      },
      {
        "astId": 3317,
        "contract": "contracts/Launchpeg.sol:Launchpeg",
        "label": "joeFeePercent",
        "offset": 0,
        "slot": "407",
        "type": "t_uint256"
      },
      {
        "astId": 3321,
        "contract": "contracts/Launchpeg.sol:Launchpeg",
        "label": "joeFeeCollector",
        "offset": 0,
        "slot": "408",
        "type": "t_address"
      },
      {
        "astId": 3325,
        "contract": "contracts/Launchpeg.sol:Launchpeg",
        "label": "batchReveal",
        "offset": 0,
        "slot": "409",
        "type": "t_contract(IBatchReveal)10989"
      },
      {
        "astId": 3329,
        "contract": "contracts/Launchpeg.sol:Launchpeg",
        "label": "baseURI",
        "offset": 0,
        "slot": "410",
        "type": "t_string_storage"
      },
      {
        "astId": 3333,
        "contract": "contracts/Launchpeg.sol:Launchpeg",
        "label": "unrevealedURI",
        "offset": 0,
        "slot": "411",
        "type": "t_string_storage"
      },
      {
        "astId": 3339,
        "contract": "contracts/Launchpeg.sol:Launchpeg",
        "label": "allowlist",
        "offset": 0,
        "slot": "412",
        "type": "t_mapping(t_address,t_uint256)"
      },
      {
        "astId": 3343,
        "contract": "contracts/Launchpeg.sol:Launchpeg",
        "label": "amountMintedByDevs",
        "offset": 0,
        "slot": "413",
        "type": "t_uint256"
      },
      {
        "astId": 3347,
        "contract": "contracts/Launchpeg.sol:Launchpeg",
        "label": "amountMintedDuringPreMint",
        "offset": 0,
        "slot": "414",
        "type": "t_uint256"
      },
      {
        "astId": 3351,
        "contract": "contracts/Launchpeg.sol:Launchpeg",
        "label": "amountClaimedDuringPreMint",
        "offset": 0,
        "slot": "415",
        "type": "t_uint256"
      },
      {
        "astId": 3355,
        "contract": "contracts/Launchpeg.sol:Launchpeg",
        "label": "amountMintedDuringAllowlist",
        "offset": 0,
        "slot": "416",
        "type": "t_uint256"
      },
      {
        "astId": 3359,
        "contract": "contracts/Launchpeg.sol:Launchpeg",
        "label": "amountMintedDuringPublicSale",
        "offset": 0,
        "slot": "417",
        "type": "t_uint256"
      },
      {
        "astId": 3363,
        "contract": "contracts/Launchpeg.sol:Launchpeg",
        "label": "preMintStartTime",
        "offset": 0,
        "slot": "418",
        "type": "t_uint256"
      },
      {
        "astId": 3367,
        "contract": "contracts/Launchpeg.sol:Launchpeg",
        "label": "allowlistStartTime",
        "offset": 0,
        "slot": "419",
        "type": "t_uint256"
      },
      {
        "astId": 3371,
        "contract": "contracts/Launchpeg.sol:Launchpeg",
        "label": "publicSaleStartTime",
        "offset": 0,
        "slot": "420",
        "type": "t_uint256"
      },
      {
        "astId": 3375,
        "contract": "contracts/Launchpeg.sol:Launchpeg",
        "label": "publicSaleEndTime",
        "offset": 0,
        "slot": "421",
        "type": "t_uint256"
      },
      {
        "astId": 3379,
        "contract": "contracts/Launchpeg.sol:Launchpeg",
        "label": "withdrawAVAXStartTime",
        "offset": 0,
        "slot": "422",
        "type": "t_uint256"
      },
      {
        "astId": 3383,
        "contract": "contracts/Launchpeg.sol:Launchpeg",
        "label": "_pendingPreMints",
        "offset": 0,
        "slot": "423",
        "type": "t_struct(PreMintDataSet)3286_storage"
      },
      {
        "astId": 7071,
        "contract": "contracts/Launchpeg.sol:Launchpeg",
        "label": "amountForAuction",
        "offset": 0,
        "slot": "425",
        "type": "t_uint256"
      },
      {
        "astId": 7075,
        "contract": "contracts/Launchpeg.sol:Launchpeg",
        "label": "auctionSaleStartTime",
        "offset": 0,
        "slot": "426",
        "type": "t_uint256"
      },
      {
        "astId": 7079,
        "contract": "contracts/Launchpeg.sol:Launchpeg",
        "label": "auctionStartPrice",
        "offset": 0,
        "slot": "427",
        "type": "t_uint256"
      },
      {
        "astId": 7083,
        "contract": "contracts/Launchpeg.sol:Launchpeg",
        "label": "auctionEndPrice",
        "offset": 0,
        "slot": "428",
        "type": "t_uint256"
      },
      {
        "astId": 7087,
        "contract": "contracts/Launchpeg.sol:Launchpeg",
        "label": "auctionSaleDuration",
        "offset": 0,
        "slot": "429",
        "type": "t_uint256"
      },
      {
        "astId": 7091,
        "contract": "contracts/Launchpeg.sol:Launchpeg",
        "label": "auctionDropInterval",
        "offset": 0,
        "slot": "430",
        "type": "t_uint256"
      },
      {
        "astId": 7095,
        "contract": "contracts/Launchpeg.sol:Launchpeg",
        "label": "auctionDropPerStep",
        "offset": 0,
        "slot": "431",
        "type": "t_uint256"
      },
      {
        "astId": 7099,
        "contract": "contracts/Launchpeg.sol:Launchpeg",
        "label": "allowlistDiscountPercent",
        "offset": 0,
        "slot": "432",
        "type": "t_uint256"
      },
      {
        "astId": 7103,
        "contract": "contracts/Launchpeg.sol:Launchpeg",
        "label": "publicSaleDiscountPercent",
        "offset": 0,
        "slot": "433",
        "type": "t_uint256"
      },
      {
        "astId": 7107,
        "contract": "contracts/Launchpeg.sol:Launchpeg",
        "label": "amountMintedDuringAuction",
        "offset": 0,
        "slot": "434",
        "type": "t_uint256"
      },
      {
        "astId": 7111,
        "contract": "contracts/Launchpeg.sol:Launchpeg",
        "label": "lastAuctionPrice",
        "offset": 0,
        "slot": "435",
        "type": "t_uint256"
      }
    ],
    "types": {
      "t_address": {
        "encoding": "inplace",
        "label": "address",
        "numberOfBytes": "20"
      },
      "t_array(t_bytes32)dyn_storage": {
        "base": "t_bytes32",
        "encoding": "dynamic_array",
        "label": "bytes32[]",
        "numberOfBytes": "32"
      },
      "t_array(t_struct(PreMintData)3277_storage)dyn_storage": {
        "base": "t_struct(PreMintData)3277_storage",
        "encoding": "dynamic_array",
        "label": "struct BaseLaunchpeg.PreMintData[]",
        "numberOfBytes": "32"
      },
      "t_array(t_uint256)42_storage": {
        "base": "t_uint256",
        "encoding": "inplace",
        "label": "uint256[42]",
        "numberOfBytes": "1344"
      },
      "t_array(t_uint256)48_storage": {
        "base": "t_uint256",
        "encoding": "inplace",
        "label": "uint256[48]",
        "numberOfBytes": "1536"
      },
      "t_array(t_uint256)49_storage": {
        "base": "t_uint256",
        "encoding": "inplace",
        "label": "uint256[49]",
        "numberOfBytes": "1568"
      },
      "t_array(t_uint256)50_storage": {
        "base": "t_uint256",
        "encoding": "inplace",
        "label": "uint256[50]",
        "numberOfBytes": "1600"
      },
      "t_bool": {
        "encoding": "inplace",
        "label": "bool",
        "numberOfBytes": "1"
      },
      "t_bytes32": {
        "encoding": "inplace",
        "label": "bytes32",
        "numberOfBytes": "32"
      },
      "t_contract(IBatchReveal)10989": {
        "encoding": "inplace",
        "label": "contract IBatchReveal",
        "numberOfBytes": "20"
      },
      "t_mapping(t_address,t_bool)": {
        "encoding": "mapping",
        "key": "t_address",
        "label": "mapping(address => bool)",
        "numberOfBytes": "32",
        "value": "t_bool"
      },
      "t_mapping(t_address,t_mapping(t_address,t_bool))": {
        "encoding": "mapping",
        "key": "t_address",
        "label": "mapping(address => mapping(address => bool))",
        "numberOfBytes": "32",
        "value": "t_mapping(t_address,t_bool)"
      },
      "t_mapping(t_address,t_struct(AddressData)12072_storage)": {
        "encoding": "mapping",
        "key": "t_address",
        "label": "mapping(address => struct ERC721AUpgradeable.AddressData)",
        "numberOfBytes": "32",
        "value": "t_struct(AddressData)12072_storage"
      },
      "t_mapping(t_address,t_uint256)": {
        "encoding": "mapping",
        "key": "t_address",
        "label": "mapping(address => uint256)",
        "numberOfBytes": "32",
        "value": "t_uint256"
      },
      "t_mapping(t_bytes32,t_struct(AddressSet)2282_storage)": {
        "encoding": "mapping",
        "key": "t_bytes32",
        "label": "mapping(bytes32 => struct EnumerableSetUpgradeable.AddressSet)",
        "numberOfBytes": "32",
        "value": "t_struct(AddressSet)2282_storage"
      },
      "t_mapping(t_bytes32,t_struct(RoleData)268_storage)": {
        "encoding": "mapping",
        "key": "t_bytes32",
        "label": "mapping(bytes32 => struct AccessControlUpgradeable.RoleData)",
        "numberOfBytes": "32",
        "value": "t_struct(RoleData)268_storage"
      },
      "t_mapping(t_bytes32,t_uint256)": {
        "encoding": "mapping",
        "key": "t_bytes32",
        "label": "mapping(bytes32 => uint256)",
        "numberOfBytes": "32",
        "value": "t_uint256"
      },
      "t_mapping(t_uint256,t_address)": {
        "encoding": "mapping",
        "key": "t_uint256",
        "label": "mapping(uint256 => address)",
        "numberOfBytes": "32",
        "value": "t_address"
      },
      "t_mapping(t_uint256,t_struct(RoyaltyInfo)1237_storage)": {
        "encoding": "mapping",
        "key": "t_uint256",
        "label": "mapping(uint256 => struct ERC2981Upgradeable.RoyaltyInfo)",
        "numberOfBytes": "32",
        "value": "t_struct(RoyaltyInfo)1237_storage"
      },
      "t_mapping(t_uint256,t_struct(TokenOwnership)12063_storage)": {
        "encoding": "mapping",
        "key": "t_uint256",
        "label": "mapping(uint256 => struct ERC721AUpgradeable.TokenOwnership)",
        "numberOfBytes": "32",
        "value": "t_struct(TokenOwnership)12063_storage"
      },
      "t_string_storage": {
        "encoding": "bytes",
        "label": "string",
        "numberOfBytes": "32"
      },
      "t_struct(AddressData)12072_storage": {
        "encoding": "inplace",
        "label": "struct ERC721AUpgradeable.AddressData",
        "members": [
          {
            "astId": 12065,
            "contract": "contracts/Launchpeg.sol:Launchpeg",
            "label": "balance",
            "offset": 0,
            "slot": "0",
            "type": "t_uint64"
          },
          {
            "astId": 12067,
            "contract": "contracts/Launchpeg.sol:Launchpeg",
            "label": "numberMinted",
            "offset": 8,
            "slot": "0",
            "type": "t_uint64"
          },
          {
            "astId": 12069,
            "contract": "contracts/Launchpeg.sol:Launchpeg",
            "label": "numberBurned",
            "offset": 16,
            "slot": "0",
            "type": "t_uint64"
          },
          {
            "astId": 12071,
            "contract": "contracts/Launchpeg.sol:Launchpeg",
            "label": "aux",
            "offset": 24,
            "slot": "0",
            "type": "t_uint64"
          }
        ],
        "numberOfBytes": "32"
      },
      "t_struct(AddressSet)2282_storage": {
        "encoding": "inplace",
        "label": "struct EnumerableSetUpgradeable.AddressSet",
        "members": [
          {
            "astId": 2281,
            "contract": "contracts/Launchpeg.sol:Launchpeg",
            "label": "_inner",
            "offset": 0,
            "slot": "0",
            "type": "t_struct(Set)1981_storage"
          }
        ],
        "numberOfBytes": "64"
      },
      "t_struct(PreMintData)3277_storage": {
        "encoding": "inplace",
        "label": "struct BaseLaunchpeg.PreMintData",
        "members": [
          {
            "astId": 3274,
            "contract": "contracts/Launchpeg.sol:Launchpeg",
            "label": "sender",
            "offset": 0,
            "slot": "0",
            "type": "t_address"
          },
          {
            "astId": 3276,
            "contract": "contracts/Launchpeg.sol:Launchpeg",
            "label": "quantity",
            "offset": 20,
            "slot": "0",
            "type": "t_uint96"
          }
        ],
        "numberOfBytes": "32"
      },
      "t_struct(PreMintDataSet)3286_storage": {
        "encoding": "inplace",
        "label": "struct BaseLaunchpeg.PreMintDataSet",
        "members": [
          {
            "astId": 3281,
            "contract": "contracts/Launchpeg.sol:Launchpeg",
            "label": "preMintDataArr",
            "offset": 0,
            "slot": "0",
            "type": "t_array(t_struct(PreMintData)3277_storage)dyn_storage"
          },
          {
            "astId": 3285,
            "contract": "contracts/Launchpeg.sol:Launchpeg",
            "label": "indexes",
            "offset": 0,
            "slot": "1",
            "type": "t_mapping(t_address,t_uint256)"
          }
        ],
        "numberOfBytes": "64"
      },
      "t_struct(RoleData)268_storage": {
        "encoding": "inplace",
        "label": "struct AccessControlUpgradeable.RoleData",
        "members": [
          {
            "astId": 265,
            "contract": "contracts/Launchpeg.sol:Launchpeg",
            "label": "members",
            "offset": 0,
            "slot": "0",
            "type": "t_mapping(t_address,t_bool)"
          },
          {
            "astId": 267,
            "contract": "contracts/Launchpeg.sol:Launchpeg",
            "label": "adminRole",
            "offset": 0,
            "slot": "1",
            "type": "t_bytes32"
          }
        ],
        "numberOfBytes": "64"
      },
      "t_struct(RoyaltyInfo)1237_storage": {
        "encoding": "inplace",
        "label": "struct ERC2981Upgradeable.RoyaltyInfo",
        "members": [
          {
            "astId": 1234,
            "contract": "contracts/Launchpeg.sol:Launchpeg",
            "label": "receiver",
            "offset": 0,
            "slot": "0",
            "type": "t_address"
          },
          {
            "astId": 1236,
            "contract": "contracts/Launchpeg.sol:Launchpeg",
            "label": "royaltyFraction",
            "offset": 20,
            "slot": "0",
            "type": "t_uint96"
          }
        ],
        "numberOfBytes": "32"
      },
      "t_struct(Set)1981_storage": {
        "encoding": "inplace",
        "label": "struct EnumerableSetUpgradeable.Set",
        "members": [
          {
            "astId": 1976,
            "contract": "contracts/Launchpeg.sol:Launchpeg",
            "label": "_values",
            "offset": 0,
            "slot": "0",
            "type": "t_array(t_bytes32)dyn_storage"
          },
          {
            "astId": 1980,
            "contract": "contracts/Launchpeg.sol:Launchpeg",
            "label": "_indexes",
            "offset": 0,
            "slot": "1",
            "type": "t_mapping(t_bytes32,t_uint256)"
          }
        ],
        "numberOfBytes": "64"
      },
      "t_struct(TokenOwnership)12063_storage": {
        "encoding": "inplace",
        "label": "struct ERC721AUpgradeable.TokenOwnership",
        "members": [
          {
            "astId": 12058,
            "contract": "contracts/Launchpeg.sol:Launchpeg",
            "label": "addr",
            "offset": 0,
            "slot": "0",
            "type": "t_address"
          },
          {
            "astId": 12060,
            "contract": "contracts/Launchpeg.sol:Launchpeg",
            "label": "startTimestamp",
            "offset": 20,
            "slot": "0",
            "type": "t_uint64"
          },
          {
            "astId": 12062,
            "contract": "contracts/Launchpeg.sol:Launchpeg",
            "label": "burned",
            "offset": 28,
            "slot": "0",
            "type": "t_bool"
          }
        ],
        "numberOfBytes": "32"
      },
      "t_uint256": {
        "encoding": "inplace",
        "label": "uint256",
        "numberOfBytes": "32"
      },
      "t_uint64": {
        "encoding": "inplace",
        "label": "uint64",
        "numberOfBytes": "8"
      },
      "t_uint96": {
        "encoding": "inplace",
        "label": "uint96",
        "numberOfBytes": "12"
      }
    }
  }
}