{
  "address": "0x1117b20cCB6E9B2b309e3E3c73540fFD0A7d587e",
  "abi": [
    {
      "inputs": [],
      "name": "ApprovalCallerNotOwnerNorApproved",
      "type": "error"
    },
    {
      "inputs": [],
      "name": "ApprovalQueryForNonexistentToken",
      "type": "error"
    },
    {
      "inputs": [],
      "name": "ApprovalToCurrentOwner",
      "type": "error"
    },
    {
      "inputs": [],
      "name": "ApproveToCaller",
      "type": "error"
    },
    {
      "inputs": [],
      "name": "BalanceQueryForZeroAddress",
      "type": "error"
    },
    {
      "inputs": [],
      "name": "Launchpeg__BatchRevealAlreadyInitialized",
      "type": "error"
    },
    {
      "inputs": [],
      "name": "Launchpeg__BatchRevealDisabled",
      "type": "error"
    },
    {
      "inputs": [],
      "name": "Launchpeg__CanNotMintThisMany",
      "type": "error"
    },
    {
      "inputs": [],
      "name": "Launchpeg__InvalidAllowlistPrice",
      "type": "error"
    },
    {
      "inputs": [],
      "name": "Launchpeg__InvalidClaim",
      "type": "error"
    },
    {
      "inputs": [],
      "name": "Launchpeg__InvalidJoeFeeCollector",
      "type": "error"
    },
    {
      "inputs": [],
      "name": "Launchpeg__InvalidMaxPerAddressDuringMint",
      "type": "error"
    },
    {
      "inputs": [],
      "name": "Launchpeg__InvalidOwner",
      "type": "error"
    },
    {
      "inputs": [],
      "name": "Launchpeg__InvalidPercent",
      "type": "error"
    },
    {
      "inputs": [],
      "name": "Launchpeg__InvalidPhases",
      "type": "error"
    },
    {
      "inputs": [],
      "name": "Launchpeg__InvalidProjectOwner",
      "type": "error"
    },
    {
      "inputs": [],
      "name": "Launchpeg__InvalidQuantity",
      "type": "error"
    },
    {
      "inputs": [],
      "name": "Launchpeg__InvalidRoyaltyInfo",
      "type": "error"
    },
    {
      "inputs": [],
      "name": "Launchpeg__LargerCollectionSizeNeeded",
      "type": "error"
    },
    {
      "inputs": [],
      "name": "Launchpeg__MaxSupplyForDevReached",
      "type": "error"
    },
    {
      "inputs": [],
      "name": "Launchpeg__MaxSupplyReached",
      "type": "error"
    },
    {
      "inputs": [],
      "name": "Launchpeg__NotEligibleForAllowlistMint",
      "type": "error"
    },
    {
      "inputs": [
        {
          "internalType": "uint256",
          "name": "avaxSent",
          "type": "uint256"
        }
      ],
      "name": "Launchpeg__NotEnoughAVAX",
      "type": "error"
    },
    {
      "inputs": [],
      "name": "Launchpeg__NotInitialized",
      "type": "error"
    },
    {
      "inputs": [],
      "name": "Launchpeg__RevealNextBatchNotAvailable",
      "type": "error"
    },
    {
      "inputs": [],
      "name": "Launchpeg__TransferFailed",
      "type": "error"
    },
    {
      "inputs": [],
      "name": "Launchpeg__Unauthorized",
      "type": "error"
    },
    {
      "inputs": [],
      "name": "Launchpeg__WithdrawAVAXNotAvailable",
      "type": "error"
    },
    {
      "inputs": [],
      "name": "Launchpeg__WrongAddressesAndNumSlotsLength",
      "type": "error"
    },
    {
      "inputs": [],
      "name": "Launchpeg__WrongPhase",
      "type": "error"
    },
    {
      "inputs": [],
      "name": "MintToZeroAddress",
      "type": "error"
    },
    {
      "inputs": [],
      "name": "MintZeroQuantity",
      "type": "error"
    },
    {
      "inputs": [
        {
          "internalType": "address",
          "name": "operator",
          "type": "address"
        }
      ],
      "name": "OperatorNotAllowed",
      "type": "error"
    },
    {
      "inputs": [],
      "name": "OwnerQueryForNonexistentToken",
      "type": "error"
    },
    {
      "inputs": [],
      "name": "PendingOwnableUpgradeable__AddressZero",
      "type": "error"
    },
    {
      "inputs": [],
      "name": "PendingOwnableUpgradeable__NoPendingOwner",
      "type": "error"
    },
    {
      "inputs": [],
      "name": "PendingOwnableUpgradeable__NotOwner",
      "type": "error"
    },
    {
      "inputs": [],
      "name": "PendingOwnableUpgradeable__NotPendingOwner",
      "type": "error"
    },
    {
      "inputs": [],
      "name": "PendingOwnableUpgradeable__PendingOwnerAlreadySet",
      "type": "error"
    },
    {
      "inputs": [],
      "name": "SafeAccessControlEnumerableUpgradeable__RoleIsDefaultAdmin",
      "type": "error"
    },
    {
      "inputs": [
        {
          "internalType": "bytes32",
          "name": "role",
          "type": "bytes32"
        },
        {
          "internalType": "address",
          "name": "sender",
          "type": "address"
        }
      ],
      "name": "SafeAccessControlEnumerableUpgradeable__SenderMissingRoleAndIsNotOwner",
      "type": "error"
    },
    {
      "inputs": [],
      "name": "SafePausableUpgradeable__AlreadyPaused",
      "type": "error"
    },
    {
      "inputs": [],
      "name": "SafePausableUpgradeable__AlreadyUnpaused",
      "type": "error"
    },
    {
      "inputs": [],
      "name": "TransferCallerNotOwnerNorApproved",
      "type": "error"
    },
    {
      "inputs": [],
      "name": "TransferFromIncorrectOwner",
      "type": "error"
    },
    {
      "inputs": [],
      "name": "TransferToNonERC721ReceiverImplementer",
      "type": "error"
    },
    {
      "inputs": [],
      "name": "TransferToZeroAddress",
      "type": "error"
    },
    {
      "anonymous": false,
      "inputs": [],
      "name": "AllowlistSeeded",
      "type": "event"
    },
    {
      "anonymous": false,
      "inputs": [
        {
          "indexed": false,
          "internalType": "uint256",
          "name": "allowlistStartTime",
          "type": "uint256"
        }
      ],
      "name": "AllowlistStartTimeSet",
      "type": "event"
    },
    {
      "anonymous": false,
      "inputs": [
        {
          "indexed": true,
          "internalType": "address",
          "name": "owner",
          "type": "address"
        },
        {
          "indexed": true,
          "internalType": "address",
          "name": "approved",
          "type": "address"
        },
        {
          "indexed": true,
          "internalType": "uint256",
          "name": "tokenId",
          "type": "uint256"
        }
      ],
      "name": "Approval",
      "type": "event"
    },
    {
      "anonymous": false,
      "inputs": [
        {
          "indexed": true,
          "internalType": "address",
          "name": "owner",
          "type": "address"
        },
        {
          "indexed": true,
          "internalType": "address",
          "name": "operator",
          "type": "address"
        },
        {
          "indexed": false,
          "internalType": "bool",
          "name": "approved",
          "type": "bool"
        }
      ],
      "name": "ApprovalForAll",
      "type": "event"
    },
    {
      "anonymous": false,
      "inputs": [
        {
          "indexed": true,
          "internalType": "address",
          "name": "sender",
          "type": "address"
        },
        {
          "indexed": false,
          "internalType": "uint256",
          "name": "amount",
          "type": "uint256"
        },
        {
          "indexed": false,
          "internalType": "uint256",
          "name": "fee",
          "type": "uint256"
        }
      ],
      "name": "AvaxWithdraw",
      "type": "event"
    },
    {
      "anonymous": false,
      "inputs": [
        {
          "indexed": false,
          "internalType": "string",
          "name": "baseURI",
          "type": "string"
        }
      ],
      "name": "BaseURISet",
      "type": "event"
    },
    {
      "anonymous": false,
      "inputs": [
        {
          "indexed": true,
          "internalType": "address",
          "name": "receiver",
          "type": "address"
        },
        {
          "indexed": false,
          "internalType": "uint256",
          "name": "feePercent",
          "type": "uint256"
        }
      ],
      "name": "DefaultRoyaltySet",
      "type": "event"
    },
    {
      "anonymous": false,
      "inputs": [
        {
          "indexed": true,
          "internalType": "address",
          "name": "sender",
          "type": "address"
        },
        {
          "indexed": false,
          "internalType": "uint256",
          "name": "quantity",
          "type": "uint256"
        }
      ],
      "name": "DevMint",
      "type": "event"
    },
    {
      "anonymous": false,
      "inputs": [
        {
          "indexed": false,
          "internalType": "uint8",
          "name": "version",
          "type": "uint8"
        }
      ],
      "name": "Initialized",
      "type": "event"
    },
    {
      "anonymous": false,
      "inputs": [
        {
          "indexed": false,
          "internalType": "uint256",
          "name": "feePercent",
          "type": "uint256"
        },
        {
          "indexed": false,
          "internalType": "address",
          "name": "feeCollector",
          "type": "address"
        }
      ],
      "name": "JoeFeeInitialized",
      "type": "event"
    },
    {
      "anonymous": false,
      "inputs": [
        {
          "indexed": true,
          "internalType": "address",
          "name": "sender",
          "type": "address"
        },
        {
          "indexed": false,
          "internalType": "uint256",
          "name": "quantity",
          "type": "uint256"
        },
        {
          "indexed": false,
          "internalType": "uint256",
          "name": "price",
          "type": "uint256"
        },
        {
          "indexed": false,
          "internalType": "uint256",
          "name": "startTokenId",
          "type": "uint256"
        },
        {
          "indexed": false,
          "internalType": "enum IBaseLaunchpeg.Phase",
          "name": "phase",
          "type": "uint8"
        }
      ],
      "name": "Mint",
      "type": "event"
    },
    {
      "anonymous": false,
      "inputs": [
        {
          "indexed": true,
          "internalType": "contract IOperatorFilterRegistry",
          "name": "operatorFilterRegistry",
          "type": "address"
        }
      ],
      "name": "OperatorFilterRegistryUpdated",
      "type": "event"
    },
    {
      "anonymous": false,
      "inputs": [
        {
          "indexed": true,
          "internalType": "address",
          "name": "previousOwner",
          "type": "address"
        },
        {
          "indexed": true,
          "internalType": "address",
          "name": "newOwner",
          "type": "address"
        }
      ],
      "name": "OwnershipTransferred",
      "type": "event"
    },
    {
      "anonymous": false,
      "inputs": [
        {
          "indexed": false,
          "internalType": "address",
          "name": "account",
          "type": "address"
        }
      ],
      "name": "Paused",
      "type": "event"
    },
    {
      "anonymous": false,
      "inputs": [
        {
          "indexed": true,
          "internalType": "address",
          "name": "pendingOwner",
          "type": "address"
        }
      ],
      "name": "PendingOwnerSet",
      "type": "event"
    },
    {
      "anonymous": false,
      "inputs": [
        {
          "indexed": false,
          "internalType": "uint256",
          "name": "preMintStartTime",
          "type": "uint256"
        },
        {
          "indexed": false,
          "internalType": "uint256",
          "name": "allowlistStartTime",
          "type": "uint256"
        },
        {
          "indexed": false,
          "internalType": "uint256",
          "name": "publicSaleStartTime",
          "type": "uint256"
        },
        {
          "indexed": false,
          "internalType": "uint256",
          "name": "publicSaleEndTime",
          "type": "uint256"
        },
        {
          "indexed": false,
          "internalType": "uint256",
          "name": "allowlistPrice",
          "type": "uint256"
        },
        {
          "indexed": false,
          "internalType": "uint256",
          "name": "salePrice",
          "type": "uint256"
        }
      ],
      "name": "PhaseInitialized",
      "type": "event"
    },
    {
      "anonymous": false,
      "inputs": [
        {
          "indexed": true,
          "internalType": "address",
          "name": "sender",
          "type": "address"
        },
        {
          "indexed": false,
          "internalType": "uint256",
          "name": "quantity",
          "type": "uint256"
        },
        {
          "indexed": false,
          "internalType": "uint256",
          "name": "price",
          "type": "uint256"
        }
      ],
      "name": "PreMint",
      "type": "event"
    },
    {
      "anonymous": false,
      "inputs": [
        {
          "indexed": false,
          "internalType": "uint256",
          "name": "preMintStartTime",
          "type": "uint256"
        }
      ],
      "name": "PreMintStartTimeSet",
      "type": "event"
    },
    {
      "anonymous": false,
      "inputs": [
        {
          "indexed": false,
          "internalType": "uint256",
          "name": "publicSaleEndTime",
          "type": "uint256"
        }
      ],
      "name": "PublicSaleEndTimeSet",
      "type": "event"
    },
    {
      "anonymous": false,
      "inputs": [
        {
          "indexed": false,
          "internalType": "uint256",
          "name": "publicSaleStartTime",
          "type": "uint256"
        }
      ],
      "name": "PublicSaleStartTimeSet",
      "type": "event"
    },
    {
      "anonymous": false,
      "inputs": [
        {
          "indexed": true,
          "internalType": "bytes32",
          "name": "role",
          "type": "bytes32"
        },
        {
          "indexed": true,
          "internalType": "bytes32",
          "name": "previousAdminRole",
          "type": "bytes32"
        },
        {
          "indexed": true,
          "internalType": "bytes32",
          "name": "newAdminRole",
          "type": "bytes32"
        }
      ],
      "name": "RoleAdminChanged",
      "type": "event"
    },
    {
      "anonymous": false,
      "inputs": [
        {
          "indexed": true,
          "internalType": "bytes32",
          "name": "role",
          "type": "bytes32"
        },
        {
          "indexed": true,
          "internalType": "address",
          "name": "account",
          "type": "address"
        },
        {
          "indexed": true,
          "internalType": "address",
          "name": "sender",
          "type": "address"
        }
      ],
      "name": "RoleGranted",
      "type": "event"
    },
    {
      "anonymous": false,
      "inputs": [
        {
          "indexed": true,
          "internalType": "bytes32",
          "name": "role",
          "type": "bytes32"
        },
        {
          "indexed": true,
          "internalType": "address",
          "name": "account",
          "type": "address"
        },
        {
          "indexed": true,
          "internalType": "address",
          "name": "sender",
          "type": "address"
        }
      ],
      "name": "RoleRevoked",
      "type": "event"
    },
    {
      "anonymous": false,
      "inputs": [
        {
          "indexed": true,
          "internalType": "address",
          "name": "from",
          "type": "address"
        },
        {
          "indexed": true,
          "internalType": "address",
          "name": "to",
          "type": "address"
        },
        {
          "indexed": true,
          "internalType": "uint256",
          "name": "tokenId",
          "type": "uint256"
        }
      ],
      "name": "Transfer",
      "type": "event"
    },
    {
      "anonymous": false,
      "inputs": [
        {
          "indexed": false,
          "internalType": "address",
          "name": "account",
          "type": "address"
        }
      ],
      "name": "Unpaused",
      "type": "event"
    },
    {
      "anonymous": false,
      "inputs": [
        {
          "indexed": false,
          "internalType": "string",
          "name": "unrevealedURI",
          "type": "string"
        }
      ],
      "name": "UnrevealedURISet",
      "type": "event"
    },
    {
      "anonymous": false,
      "inputs": [
        {
          "indexed": false,
          "internalType": "uint256",
          "name": "withdrawAVAXStartTime",
          "type": "uint256"
        }
      ],
      "name": "WithdrawAVAXStartTimeSet",
      "type": "event"
    },
    {
      "inputs": [],
      "name": "BASIS_POINT_PRECISION",
      "outputs": [
        {
          "internalType": "uint256",
          "name": "",
          "type": "uint256"
        }
      ],
      "stateMutability": "view",
      "type": "function"
    },
    {
      "inputs": [],
      "name": "DEFAULT_ADMIN_ROLE",
      "outputs": [
        {
          "internalType": "bytes32",
          "name": "",
          "type": "bytes32"
        }
      ],
      "stateMutability": "view",
      "type": "function"
    },
    {
      "inputs": [],
      "name": "PAUSER_ADMIN_ROLE",
      "outputs": [
        {
          "internalType": "bytes32",
          "name": "",
          "type": "bytes32"
        }
      ],
      "stateMutability": "view",
      "type": "function"
    },
    {
      "inputs": [],
      "name": "PAUSER_ROLE",
      "outputs": [
        {
          "internalType": "bytes32",
          "name": "",
          "type": "bytes32"
        }
      ],
      "stateMutability": "view",
      "type": "function"
    },
    {
      "inputs": [],
      "name": "PROJECT_OWNER_ROLE",
      "outputs": [
        {
          "internalType": "bytes32",
          "name": "",
          "type": "bytes32"
        }
      ],
      "stateMutability": "view",
      "type": "function"
    },
    {
      "inputs": [],
      "name": "UNPAUSER_ADMIN_ROLE",
      "outputs": [
        {
          "internalType": "bytes32",
          "name": "",
          "type": "bytes32"
        }
      ],
      "stateMutability": "view",
      "type": "function"
    },
    {
      "inputs": [],
      "name": "UNPAUSER_ROLE",
      "outputs": [
        {
          "internalType": "bytes32",
          "name": "",
          "type": "bytes32"
        }
      ],
      "stateMutability": "view",
      "type": "function"
    },
    {
      "inputs": [
        {
          "internalType": "address",
          "name": "",
          "type": "address"
        }
      ],
      "name": "allowlist",
      "outputs": [
        {
          "internalType": "uint256",
          "name": "",
          "type": "uint256"
        }
      ],
      "stateMutability": "view",
      "type": "function"
    },
    {
      "inputs": [
        {
          "internalType": "uint256",
          "name": "_quantity",
          "type": "uint256"
        }
      ],
      "name": "allowlistMint",
      "outputs": [],
      "stateMutability": "payable",
      "type": "function"
    },
    {
      "inputs": [],
      "name": "allowlistPrice",
      "outputs": [
        {
          "internalType": "uint256",
          "name": "",
          "type": "uint256"
        }
      ],
      "stateMutability": "view",
      "type": "function"
    },
    {
      "inputs": [],
      "name": "allowlistStartTime",
      "outputs": [
        {
          "internalType": "uint256",
          "name": "",
          "type": "uint256"
        }
      ],
      "stateMutability": "view",
      "type": "function"
    },
    {
      "inputs": [],
      "name": "amountClaimedDuringPreMint",
      "outputs": [
        {
          "internalType": "uint256",
          "name": "",
          "type": "uint256"
        }
      ],
      "stateMutability": "view",
      "type": "function"
    },
    {
      "inputs": [],
      "name": "amountForAllowlist",
      "outputs": [
        {
          "internalType": "uint256",
          "name": "",
          "type": "uint256"
        }
      ],
      "stateMutability": "view",
      "type": "function"
    },
    {
      "inputs": [],
      "name": "amountForDevs",
      "outputs": [
        {
          "internalType": "uint256",
          "name": "",
          "type": "uint256"
        }
      ],
      "stateMutability": "view",
      "type": "function"
    },
    {
      "inputs": [],
      "name": "amountMintedByDevs",
      "outputs": [
        {
          "internalType": "uint256",
          "name": "",
          "type": "uint256"
        }
      ],
      "stateMutability": "view",
      "type": "function"
    },
    {
      "inputs": [],
      "name": "amountMintedDuringAllowlist",
      "outputs": [
        {
          "internalType": "uint256",
          "name": "",
          "type": "uint256"
        }
      ],
      "stateMutability": "view",
      "type": "function"
    },
    {
      "inputs": [],
      "name": "amountMintedDuringPreMint",
      "outputs": [
        {
          "internalType": "uint256",
          "name": "",
          "type": "uint256"
        }
      ],
      "stateMutability": "view",
      "type": "function"
    },
    {
      "inputs": [],
      "name": "amountMintedDuringPublicSale",
      "outputs": [
        {
          "internalType": "uint256",
          "name": "",
          "type": "uint256"
        }
      ],
      "stateMutability": "view",
      "type": "function"
    },
    {
      "inputs": [
        {
          "internalType": "address",
          "name": "operator",
          "type": "address"
        },
        {
          "internalType": "uint256",
          "name": "tokenId",
          "type": "uint256"
        }
      ],
      "name": "approve",
      "outputs": [],
      "stateMutability": "nonpayable",
      "type": "function"
    },
    {
      "inputs": [
        {
          "internalType": "address",
          "name": "owner",
          "type": "address"
        }
      ],
      "name": "balanceOf",
      "outputs": [
        {
          "internalType": "uint256",
          "name": "",
          "type": "uint256"
        }
      ],
      "stateMutability": "view",
      "type": "function"
    },
    {
      "inputs": [],
      "name": "baseURI",
      "outputs": [
        {
          "internalType": "string",
          "name": "",
          "type": "string"
        }
      ],
      "stateMutability": "view",
      "type": "function"
    },
    {
      "inputs": [
        {
          "internalType": "uint96",
          "name": "_maxQuantity",
          "type": "uint96"
        }
      ],
      "name": "batchClaimPreMint",
      "outputs": [],
      "stateMutability": "nonpayable",
      "type": "function"
    },
    {
      "inputs": [],
      "name": "batchReveal",
      "outputs": [
        {
          "internalType": "contract IBatchReveal",
          "name": "",
          "type": "address"
        }
      ],
      "stateMutability": "view",
      "type": "function"
    },
    {
      "inputs": [],
      "name": "becomeOwner",
      "outputs": [],
      "stateMutability": "nonpayable",
      "type": "function"
    },
    {
      "inputs": [],
      "name": "claimPreMint",
      "outputs": [],
      "stateMutability": "nonpayable",
      "type": "function"
    },
    {
      "inputs": [],
      "name": "collectionSize",
      "outputs": [
        {
          "internalType": "uint256",
          "name": "",
          "type": "uint256"
        }
      ],
      "stateMutability": "view",
      "type": "function"
    },
    {
      "inputs": [],
      "name": "currentPhase",
      "outputs": [
        {
          "internalType": "enum IBaseLaunchpeg.Phase",
          "name": "",
          "type": "uint8"
        }
      ],
      "stateMutability": "view",
      "type": "function"
    },
    {
      "inputs": [
        {
          "internalType": "uint256",
          "name": "_quantity",
          "type": "uint256"
        }
      ],
      "name": "devMint",
      "outputs": [],
      "stateMutability": "nonpayable",
      "type": "function"
    },
    {
      "inputs": [
        {
          "internalType": "uint256",
          "name": "tokenId",
          "type": "uint256"
        }
      ],
      "name": "getApproved",
      "outputs": [
        {
          "internalType": "address",
          "name": "",
          "type": "address"
        }
      ],
      "stateMutability": "view",
      "type": "function"
    },
    {
      "inputs": [
        {
          "internalType": "uint256",
          "name": "_tokenId",
          "type": "uint256"
        }
      ],
      "name": "getOwnershipData",
      "outputs": [
        {
          "components": [
            {
              "internalType": "address",
              "name": "addr",
              "type": "address"
            },
            {
              "internalType": "uint64",
              "name": "startTimestamp",
              "type": "uint64"
            },
            {
              "internalType": "bool",
              "name": "burned",
              "type": "bool"
            }
          ],
          "internalType": "struct ERC721AUpgradeable.TokenOwnership",
          "name": "",
          "type": "tuple"
        }
      ],
      "stateMutability": "view",
      "type": "function"
    },
    {
      "inputs": [
        {
          "internalType": "bytes32",
          "name": "role",
          "type": "bytes32"
        }
      ],
      "name": "getRoleAdmin",
      "outputs": [
        {
          "internalType": "bytes32",
          "name": "",
          "type": "bytes32"
        }
      ],
      "stateMutability": "view",
      "type": "function"
    },
    {
      "inputs": [
        {
          "internalType": "bytes32",
          "name": "role",
          "type": "bytes32"
        },
        {
          "internalType": "uint256",
          "name": "index",
          "type": "uint256"
        }
      ],
      "name": "getRoleMember",
      "outputs": [
        {
          "internalType": "address",
          "name": "",
          "type": "address"
        }
      ],
      "stateMutability": "view",
      "type": "function"
    },
    {
      "inputs": [
        {
          "internalType": "bytes32",
          "name": "role",
          "type": "bytes32"
        }
      ],
      "name": "getRoleMemberCount",
      "outputs": [
        {
          "internalType": "uint256",
          "name": "",
          "type": "uint256"
        }
      ],
      "stateMutability": "view",
      "type": "function"
    },
    {
      "inputs": [
        {
          "internalType": "bytes32",
          "name": "role",
          "type": "bytes32"
        },
        {
          "internalType": "address",
          "name": "account",
          "type": "address"
        }
      ],
      "name": "grantRole",
      "outputs": [],
      "stateMutability": "nonpayable",
      "type": "function"
    },
    {
      "inputs": [],
      "name": "hasBatchToReveal",
      "outputs": [
        {
          "internalType": "bool",
          "name": "",
          "type": "bool"
        },
        {
          "internalType": "uint256",
          "name": "",
          "type": "uint256"
        }
      ],
      "stateMutability": "view",
      "type": "function"
    },
    {
      "inputs": [
        {
          "internalType": "bytes32",
          "name": "role",
          "type": "bytes32"
        },
        {
          "internalType": "address",
          "name": "account",
          "type": "address"
        }
      ],
      "name": "hasRole",
      "outputs": [
        {
          "internalType": "bool",
          "name": "",
          "type": "bool"
        }
      ],
      "stateMutability": "view",
      "type": "function"
    },
    {
      "inputs": [
        {
          "components": [
            {
              "internalType": "string",
              "name": "name",
              "type": "string"
            },
            {
              "internalType": "string",
              "name": "symbol",
              "type": "string"
            },
            {
              "internalType": "address",
              "name": "batchReveal",
              "type": "address"
            },
            {
              "internalType": "uint256",
              "name": "maxPerAddressDuringMint",
              "type": "uint256"
            },
            {
              "internalType": "uint256",
              "name": "collectionSize",
              "type": "uint256"
            },
            {
              "internalType": "uint256",
              "name": "amountForDevs",
              "type": "uint256"
            },
            {
              "internalType": "uint256",
              "name": "amountForAuction",
              "type": "uint256"
            },
            {
              "internalType": "uint256",
              "name": "amountForAllowlist",
              "type": "uint256"
            }
          ],
          "internalType": "struct IBaseLaunchpeg.CollectionData",
          "name": "_collectionData",
          "type": "tuple"
        },
        {
          "components": [
            {
              "internalType": "address",
              "name": "owner",
              "type": "address"
            },
            {
              "internalType": "address",
              "name": "projectOwner",
              "type": "address"
            },
            {
              "internalType": "address",
              "name": "royaltyReceiver",
              "type": "address"
            },
            {
              "internalType": "address",
              "name": "joeFeeCollector",
              "type": "address"
            },
            {
              "internalType": "uint256",
              "name": "joeFeePercent",
              "type": "uint256"
            }
          ],
          "internalType": "struct IBaseLaunchpeg.CollectionOwnerData",
          "name": "_ownerData",
          "type": "tuple"
        }
      ],
      "name": "initialize",
      "outputs": [],
      "stateMutability": "nonpayable",
      "type": "function"
    },
    {
      "inputs": [
        {
          "internalType": "address",
          "name": "_batchReveal",
          "type": "address"
        }
      ],
      "name": "initializeBatchReveal",
      "outputs": [],
      "stateMutability": "nonpayable",
      "type": "function"
    },
    {
      "inputs": [
        {
          "internalType": "uint256",
          "name": "_preMintStartTime",
          "type": "uint256"
        },
        {
          "internalType": "uint256",
          "name": "_allowlistStartTime",
          "type": "uint256"
        },
        {
          "internalType": "uint256",
          "name": "_publicSaleStartTime",
          "type": "uint256"
        },
        {
          "internalType": "uint256",
          "name": "_publicSaleEndTime",
          "type": "uint256"
        },
        {
          "internalType": "uint256",
          "name": "_allowlistPrice",
          "type": "uint256"
        },
        {
          "internalType": "uint256",
          "name": "_salePrice",
          "type": "uint256"
        }
      ],
      "name": "initializePhases",
      "outputs": [],
      "stateMutability": "nonpayable",
      "type": "function"
    },
    {
      "inputs": [
        {
          "internalType": "address",
          "name": "owner",
          "type": "address"
        },
        {
          "internalType": "address",
          "name": "operator",
          "type": "address"
        }
      ],
      "name": "isApprovedForAll",
      "outputs": [
        {
          "internalType": "bool",
          "name": "",
          "type": "bool"
        }
      ],
      "stateMutability": "view",
      "type": "function"
    },
    {
      "inputs": [],
      "name": "joeFeeCollector",
      "outputs": [
        {
          "internalType": "address",
          "name": "",
          "type": "address"
        }
      ],
      "stateMutability": "view",
      "type": "function"
    },
    {
      "inputs": [],
      "name": "joeFeePercent",
      "outputs": [
        {
          "internalType": "uint256",
          "name": "",
          "type": "uint256"
        }
      ],
      "stateMutability": "view",
      "type": "function"
    },
    {
      "inputs": [],
      "name": "maxPerAddressDuringMint",
      "outputs": [
        {
          "internalType": "uint256",
          "name": "",
          "type": "uint256"
        }
      ],
      "stateMutability": "view",
      "type": "function"
    },
    {
      "inputs": [],
      "name": "name",
      "outputs": [
        {
          "internalType": "string",
          "name": "",
          "type": "string"
        }
      ],
      "stateMutability": "view",
      "type": "function"
    },
    {
      "inputs": [
        {
          "internalType": "address",
          "name": "_owner",
          "type": "address"
        }
      ],
      "name": "numberMinted",
      "outputs": [
        {
          "internalType": "uint256",
          "name": "",
          "type": "uint256"
        }
      ],
      "stateMutability": "view",
      "type": "function"
    },
    {
      "inputs": [
        {
          "internalType": "address",
          "name": "_owner",
          "type": "address"
        }
      ],
      "name": "numberMintedWithPreMint",
      "outputs": [
        {
          "internalType": "uint256",
          "name": "",
          "type": "uint256"
        }
      ],
      "stateMutability": "view",
      "type": "function"
    },
    {
      "inputs": [],
      "name": "operatorFilterRegistry",
      "outputs": [
        {
          "internalType": "contract IOperatorFilterRegistry",
          "name": "",
          "type": "address"
        }
      ],
      "stateMutability": "view",
      "type": "function"
    },
    {
      "inputs": [],
      "name": "owner",
      "outputs": [
        {
          "internalType": "address",
          "name": "",
          "type": "address"
        }
      ],
      "stateMutability": "view",
      "type": "function"
    },
    {
      "inputs": [
        {
          "internalType": "uint256",
          "name": "tokenId",
          "type": "uint256"
        }
      ],
      "name": "ownerOf",
      "outputs": [
        {
          "internalType": "address",
          "name": "",
          "type": "address"
        }
      ],
      "stateMutability": "view",
      "type": "function"
    },
    {
      "inputs": [],
      "name": "pause",
      "outputs": [],
      "stateMutability": "nonpayable",
      "type": "function"
    },
    {
      "inputs": [],
      "name": "paused",
      "outputs": [
        {
          "internalType": "bool",
          "name": "",
          "type": "bool"
        }
      ],
      "stateMutability": "view",
      "type": "function"
    },
    {
      "inputs": [],
      "name": "pendingOwner",
      "outputs": [
        {
          "internalType": "address",
          "name": "",
          "type": "address"
        }
      ],
      "stateMutability": "view",
      "type": "function"
    },
    {
      "inputs": [
        {
          "internalType": "uint96",
          "name": "_quantity",
          "type": "uint96"
        }
      ],
      "name": "preMint",
      "outputs": [],
      "stateMutability": "payable",
      "type": "function"
    },
    {
      "inputs": [],
      "name": "preMintStartTime",
      "outputs": [
        {
          "internalType": "uint256",
          "name": "",
          "type": "uint256"
        }
      ],
      "stateMutability": "view",
      "type": "function"
    },
    {
      "inputs": [],
      "name": "publicSaleEndTime",
      "outputs": [
        {
          "internalType": "uint256",
          "name": "",
          "type": "uint256"
        }
      ],
      "stateMutability": "view",
      "type": "function"
    },
    {
      "inputs": [
        {
          "internalType": "uint256",
          "name": "_quantity",
          "type": "uint256"
        }
      ],
      "name": "publicSaleMint",
      "outputs": [],
      "stateMutability": "payable",
      "type": "function"
    },
    {
      "inputs": [],
      "name": "publicSaleStartTime",
      "outputs": [
        {
          "internalType": "uint256",
          "name": "",
          "type": "uint256"
        }
      ],
      "stateMutability": "view",
      "type": "function"
    },
    {
      "inputs": [],
      "name": "renounceOwnership",
      "outputs": [],
      "stateMutability": "nonpayable",
      "type": "function"
    },
    {
      "inputs": [
        {
          "internalType": "bytes32",
          "name": "role",
          "type": "bytes32"
        },
        {
          "internalType": "address",
          "name": "account",
          "type": "address"
        }
      ],
      "name": "renounceRole",
      "outputs": [],
      "stateMutability": "nonpayable",
      "type": "function"
    },
    {
      "inputs": [],
      "name": "revealNextBatch",
      "outputs": [],
      "stateMutability": "nonpayable",
      "type": "function"
    },
    {
      "inputs": [],
      "name": "revokePendingOwner",
      "outputs": [],
      "stateMutability": "nonpayable",
      "type": "function"
    },
    {
      "inputs": [
        {
          "internalType": "bytes32",
          "name": "role",
          "type": "bytes32"
        },
        {
          "internalType": "address",
          "name": "account",
          "type": "address"
        }
      ],
      "name": "revokeRole",
      "outputs": [],
      "stateMutability": "nonpayable",
      "type": "function"
    },
    {
      "inputs": [
        {
          "internalType": "uint256",
          "name": "_tokenId",
          "type": "uint256"
        },
        {
          "internalType": "uint256",
          "name": "_salePrice",
          "type": "uint256"
        }
      ],
      "name": "royaltyInfo",
      "outputs": [
        {
          "internalType": "address",
          "name": "",
          "type": "address"
        },
        {
          "internalType": "uint256",
          "name": "",
          "type": "uint256"
        }
      ],
      "stateMutability": "view",
      "type": "function"
    },
    {
      "inputs": [
        {
          "internalType": "address",
          "name": "from",
          "type": "address"
        },
        {
          "internalType": "address",
          "name": "to",
          "type": "address"
        },
        {
          "internalType": "uint256",
          "name": "tokenId",
          "type": "uint256"
        }
      ],
      "name": "safeTransferFrom",
      "outputs": [],
      "stateMutability": "nonpayable",
      "type": "function"
    },
    {
      "inputs": [
        {
          "internalType": "address",
          "name": "from",
          "type": "address"
        },
        {
          "internalType": "address",
          "name": "to",
          "type": "address"
        },
        {
          "internalType": "uint256",
          "name": "tokenId",
          "type": "uint256"
        },
        {
          "internalType": "bytes",
          "name": "data",
          "type": "bytes"
        }
      ],
      "name": "safeTransferFrom",
      "outputs": [],
      "stateMutability": "nonpayable",
      "type": "function"
    },
    {
      "inputs": [],
      "name": "salePrice",
      "outputs": [
        {
          "internalType": "uint256",
          "name": "",
          "type": "uint256"
        }
      ],
      "stateMutability": "view",
      "type": "function"
    },
    {
      "inputs": [
        {
          "internalType": "address[]",
          "name": "_addresses",
          "type": "address[]"
        },
        {
          "internalType": "uint256[]",
          "name": "_numNfts",
          "type": "uint256[]"
        }
      ],
      "name": "seedAllowlist",
      "outputs": [],
      "stateMutability": "nonpayable",
      "type": "function"
    },
    {
      "inputs": [
        {
          "internalType": "uint256",
          "name": "_allowlistStartTime",
          "type": "uint256"
        }
      ],
      "name": "setAllowlistStartTime",
      "outputs": [],
      "stateMutability": "nonpayable",
      "type": "function"
    },
    {
      "inputs": [
        {
          "internalType": "address",
          "name": "operator",
          "type": "address"
        },
        {
          "internalType": "bool",
          "name": "approved",
          "type": "bool"
        }
      ],
      "name": "setApprovalForAll",
      "outputs": [],
      "stateMutability": "nonpayable",
      "type": "function"
    },
    {
      "inputs": [
        {
          "internalType": "string",
          "name": "_baseURI",
          "type": "string"
        }
      ],
      "name": "setBaseURI",
      "outputs": [],
      "stateMutability": "nonpayable",
      "type": "function"
    },
    {
      "inputs": [
        {
          "internalType": "address",
          "name": "pendingOwner_",
          "type": "address"
        }
      ],
      "name": "setPendingOwner",
      "outputs": [],
      "stateMutability": "nonpayable",
      "type": "function"
    },
    {
      "inputs": [
        {
          "internalType": "uint256",
          "name": "_preMintStartTime",
          "type": "uint256"
        }
      ],
      "name": "setPreMintStartTime",
      "outputs": [],
      "stateMutability": "nonpayable",
      "type": "function"
    },
    {
      "inputs": [
        {
          "internalType": "uint256",
          "name": "_publicSaleEndTime",
          "type": "uint256"
        }
      ],
      "name": "setPublicSaleEndTime",
      "outputs": [],
      "stateMutability": "nonpayable",
      "type": "function"
    },
    {
      "inputs": [
        {
          "internalType": "uint256",
          "name": "_publicSaleStartTime",
          "type": "uint256"
        }
      ],
      "name": "setPublicSaleStartTime",
      "outputs": [],
      "stateMutability": "nonpayable",
      "type": "function"
    },
    {
      "inputs": [
        {
          "internalType": "address",
          "name": "_receiver",
          "type": "address"
        },
        {
          "internalType": "uint96",
          "name": "_feePercent",
          "type": "uint96"
        }
      ],
      "name": "setRoyaltyInfo",
      "outputs": [],
      "stateMutability": "nonpayable",
      "type": "function"
    },
    {
      "inputs": [
        {
          "internalType": "string",
          "name": "_unrevealedURI",
          "type": "string"
        }
      ],
      "name": "setUnrevealedURI",
      "outputs": [],
      "stateMutability": "nonpayable",
      "type": "function"
    },
    {
      "inputs": [
        {
          "internalType": "uint256",
          "name": "_withdrawAVAXStartTime",
          "type": "uint256"
        }
      ],
      "name": "setWithdrawAVAXStartTime",
      "outputs": [],
      "stateMutability": "nonpayable",
      "type": "function"
    },
    {
      "inputs": [
        {
          "internalType": "bytes4",
          "name": "_interfaceId",
          "type": "bytes4"
        }
      ],
      "name": "supportsInterface",
      "outputs": [
        {
          "internalType": "bool",
          "name": "",
          "type": "bool"
        }
      ],
      "stateMutability": "view",
      "type": "function"
    },
    {
      "inputs": [],
      "name": "symbol",
      "outputs": [
        {
          "internalType": "string",
          "name": "",
          "type": "string"
        }
      ],
      "stateMutability": "view",
      "type": "function"
    },
    {
      "inputs": [
        {
          "internalType": "uint256",
          "name": "_id",
          "type": "uint256"
        }
      ],
      "name": "tokenURI",
      "outputs": [
        {
          "internalType": "string",
          "name": "",
          "type": "string"
        }
      ],
      "stateMutability": "view",
      "type": "function"
    },
    {
      "inputs": [],
      "name": "totalSupply",
      "outputs": [
        {
          "internalType": "uint256",
          "name": "",
          "type": "uint256"
        }
      ],
      "stateMutability": "view",
      "type": "function"
    },
    {
      "inputs": [
        {
          "internalType": "address",
          "name": "from",
          "type": "address"
        },
        {
          "internalType": "address",
          "name": "to",
          "type": "address"
        },
        {
          "internalType": "uint256",
          "name": "tokenId",
          "type": "uint256"
        }
      ],
      "name": "transferFrom",
      "outputs": [],
      "stateMutability": "nonpayable",
      "type": "function"
    },
    {
      "inputs": [],
      "name": "unpause",
      "outputs": [],
      "stateMutability": "nonpayable",
      "type": "function"
    },
    {
      "inputs": [],
      "name": "unrevealedURI",
      "outputs": [
        {
          "internalType": "string",
          "name": "",
          "type": "string"
        }
      ],
      "stateMutability": "view",
      "type": "function"
    },
    {
      "inputs": [
        {
          "internalType": "contract IOperatorFilterRegistry",
          "name": "_newRegistry",
          "type": "address"
        }
      ],
      "name": "updateOperatorFilterRegistryAddress",
      "outputs": [],
      "stateMutability": "nonpayable",
      "type": "function"
    },
    {
      "inputs": [
        {
          "internalType": "address",
          "name": "_user",
          "type": "address"
        }
      ],
      "name": "userPendingPreMints",
      "outputs": [
        {
          "internalType": "uint256",
          "name": "",
          "type": "uint256"
        }
      ],
      "stateMutability": "view",
      "type": "function"
    },
    {
      "inputs": [
        {
          "internalType": "address",
          "name": "_to",
          "type": "address"
        }
      ],
      "name": "withdrawAVAX",
      "outputs": [],
      "stateMutability": "nonpayable",
      "type": "function"
    },
    {
      "inputs": [],
      "name": "withdrawAVAXStartTime",
      "outputs": [
        {
          "internalType": "uint256",
          "name": "",
          "type": "uint256"
        }
      ],
      "stateMutability": "view",
      "type": "function"
    }
  ],
  "transactionHash": "0x54ad0677b8b7e4d3983f04fa9c85b75813f29ec655b12a0f057c92789d096f25",
  "args": [],
  "numDeployments": 7,
  "solcInputHash": "80ae5ee4b81a99d715994b36d1971b84",
  "bytecode": "0x608060405234801561001057600080fd5b5061595e80620000216000396000f3fe60806040526004361061044b5760003560e01c80638456cb5911610236578063b88d4fde1161012f578063d9a6f705116100b1578063d9a6f70514610d87578063dc33e68114610d9d578063e30c397814610dbd578063e63ab1e914610ddb578063e985e9c514610dfd578063f35e231c14610e46578063f51f96dd14610e66578063f9dca98914610e7d578063fb1bb9de14610e92578063fbe1aa5114610eb4578063fe2c7fee14610ecb57600080fd5b8063b88d4fde14610c4d578063b8d1e53214610c6d578063be62da0e14610c8d578063c180526a14610caf578063c42069ec14610cc2578063c5482fe314610ce2578063c792e16714610cf9578063c87b56dd14610d10578063ca15c87314610d30578063d547741f14610d50578063d62b630314610d7057600080fd5b8063984b67d6116101b8578063984b67d614610af6578063a1ef0e5414610b16578063a217fddf14610b36578063a22cb46514610b4b578063a4c98ec414610b6b578063a7cd52cb14610b8b578063aec3922b14610bb9578063b05863d514610bd9578063b0ccc31e14610bf9578063b3ab66b014610c1a578063b560ee6914610c2d57600080fd5b80638456cb59146109a75780638bc35c2f146109bc5780638c6011ca146109d35780638da5cb5b146109e85780639010d07c146109fd57806390967a5214610a1d57806391d1485414610a345780639204065314610a545780639231ab2a14610a7457806395d89b4114610aca578063963331d814610adf57600080fd5b80633cc4cadb116103485780636352211e116102ca5780636352211e1461087157806366b55a091461089157806367ab8a4e146108b15780636b14bd39146108c65780636bb7b1d9146108dd5780636c0360eb146108f45780636d5d40c6146109095780637035bf181461092957806370a082311461093e57806370a952501461095e578063715018a61461099257600080fd5b80633cc4cadb1461075b5780633f4ba83a1461077257806342842e0e1461078757806345c0f533146107a757806355f804b3146107be57806359d7bc4d146107de5780635bb21376146107f55780635c7034af146108165780635c975abb1461082d578063622f1c471461084557806362f4fb2d1461085a57600080fd5b80631c0310a5116103d15780631c0310a5146105da5780631e4d185f146105fa57806321cc16111461061157806323b872dd14610632578063248a9ca31461065257806325a00473146106825780632a55205a146106b65780632e8f1f50146106e45780632f2ff15d146106fb57806336568abe1461071b578063375a069a1461073b57600080fd5b806301ffc9a71461045057806302fa7c471461048557806303851c28146104a757806303b674d3146104d3578063055ad42e146104f357806306fdde0314610515578063081812fc14610537578063095ea7b3146105645780630c2c39a3146105845780630f89952d146105a457806318160ddd146105b7575b600080fd5b34801561045c57600080fd5b5061047061046b366004614e9b565b610eeb565b60405190151581526020015b60405180910390f35b34801561049157600080fd5b506104a56104a0366004614ee4565b610f16565b005b3480156104b357600080fd5b506104bc610fc3565b60408051921515835260208301919091520161047c565b3480156104df57600080fd5b506104a56104ee366004614f19565b611067565b3480156104ff57600080fd5b50610508611169565b60405161047c9190614f6a565b34801561052157600080fd5b5061052a61122a565b60405161047c9190614fd0565b34801561054357600080fd5b50610557610552366004614f19565b6112bc565b60405161047c9190614fe3565b34801561057057600080fd5b506104a561057f366004614ff7565b611300565b34801561059057600080fd5b506104a561059f366004614f19565b611319565b6104a56105b2366004615023565b6113a4565b3480156105c357600080fd5b50606654606554035b60405190815260200161047c565b3480156105e657600080fd5b506104a56105f536600461503e565b61155b565b34801561060657600080fd5b506105cc6101a55481565b34801561061d57600080fd5b5061019954610557906001600160a01b031681565b34801561063e57600080fd5b506104a561064d36600461505b565b61177d565b34801561065e57600080fd5b506105cc61066d366004614f19565b60009081526099602052604090206001015490565b34801561068e57600080fd5b506105cc7fe0e65c783ac33ff1c5ccf4399c9185066773921d6f8d050bf80781603021f09781565b3480156106c257600080fd5b506106d66106d136600461509c565b6117a2565b60405161047c9291906150be565b3480156106f057600080fd5b506105cc61019e5481565b34801561070757600080fd5b506104a56107163660046150d7565b611852565b34801561072757600080fd5b506104a56107363660046150d7565b6118df565b34801561074757600080fd5b506104a5610756366004614f19565b611908565b34801561076757600080fd5b506105cc6101a05481565b34801561077e57600080fd5b506104a5611a2f565b34801561079357600080fd5b506104a56107a236600461505b565b611abe565b3480156107b357600080fd5b506105cc6101935481565b3480156107ca57600080fd5b506104a56107d9366004615107565b611ae3565b3480156107ea57600080fd5b506105cc6101a35481565b34801561080157600080fd5b5061019854610557906001600160a01b031681565b34801561082257600080fd5b506105cc61019d5481565b34801561083957600080fd5b5060fd5460ff16610470565b34801561085157600080fd5b506104a5611b4d565b34801561086657600080fd5b506105cc6101a25481565b34801561087d57600080fd5b5061055761088c366004614f19565b611c3e565b34801561089d57600080fd5b506105cc6108ac36600461503e565b611c50565b3480156108bd57600080fd5b506104a5611cbb565b3480156108d257600080fd5b506105cc61019f5481565b3480156108e957600080fd5b506105cc6101a45481565b34801561090057600080fd5b5061052a611d19565b34801561091557600080fd5b506104a5610924366004614f19565b611da8565b34801561093557600080fd5b5061052a611ea1565b34801561094a57600080fd5b506105cc61095936600461503e565b611eaf565b34801561096a57600080fd5b506105cc7fe516f7ac9747f401e208331379a0bafe3c9c4dbb6501fd23bcef278f7ebaf4e581565b34801561099e57600080fd5b506104a5611efd565b3480156109b357600080fd5b506104a5611f32565b3480156109c857600080fd5b506105cc6101965481565b3480156109df57600080fd5b506104a5611fbf565b3480156109f457600080fd5b50610557612085565b348015610a0957600080fd5b50610557610a1836600461509c565b612094565b348015610a2957600080fd5b506105cc6101aa5481565b348015610a4057600080fd5b50610470610a4f3660046150d7565b6120b3565b348015610a6057600080fd5b506104a5610a6f36600461503e565b6120de565b348015610a8057600080fd5b50610a94610a8f366004614f19565b61218b565b6040805182516001600160a01b031681526020808401516001600160401b0316908201529181015115159082015260600161047c565b348015610ad657600080fd5b5061052a6121b1565b348015610aeb57600080fd5b506105cc6101a15481565b348015610b0257600080fd5b506104a5610b11366004614f19565b6121c0565b348015610b2257600080fd5b506104a5610b31366004614f19565b6122ac565b348015610b4257600080fd5b506105cc600081565b348015610b5757600080fd5b506104a5610b66366004615186565b612398565b348015610b7757600080fd5b506104a5610b86366004615023565b6123ac565b348015610b9757600080fd5b506105cc610ba636600461503e565b61019c6020526000908152604090205481565b348015610bc557600080fd5b506105cc610bd436600461503e565b6125a0565b348015610be557600080fd5b506104a5610bf43660046151f8565b6125be565b348015610c0557600080fd5b506101a754610557906001600160a01b031681565b6104a5610c28366004614f19565b6126b7565b348015610c3957600080fd5b506104a5610c48366004615263565b612848565b348015610c5957600080fd5b506104a5610c683660046152d8565b61295b565b348015610c7957600080fd5b506104a5610c8836600461503e565b612981565b348015610c9957600080fd5b506105cc60008051602061588983398151915281565b6104a5610cbd366004614f19565b6129b5565b348015610cce57600080fd5b506104a5610cdd36600461503e565b612afe565b348015610cee57600080fd5b506105cc6101975481565b348015610d0557600080fd5b506105cc6101a65481565b348015610d1c57600080fd5b5061052a610d2b366004614f19565b612b83565b348015610d3c57600080fd5b506105cc610d4b366004614f19565b612d5b565b348015610d5c57600080fd5b506104a5610d6b3660046150d7565b612d72565b348015610d7c57600080fd5b506105cc6101955481565b348015610d9357600080fd5b506105cc61271081565b348015610da957600080fd5b506105cc610db836600461503e565b612dff565b348015610dc957600080fd5b506098546001600160a01b0316610557565b348015610de757600080fd5b506105cc6000805160206158c983398151915281565b348015610e0957600080fd5b50610470610e183660046153b7565b6001600160a01b039182166000908152606c6020908152604080832093909416825291909152205460ff1690565b348015610e5257600080fd5b506104a5610e613660046153e5565b612e0a565b348015610e7257600080fd5b506105cc6101ab5481565b348015610e8957600080fd5b506104a5612f52565b348015610e9e57600080fd5b506105cc6000805160206158a983398151915281565b348015610ec057600080fd5b506105cc6101945481565b348015610ed757600080fd5b506104a5610ee6366004615107565b612f91565b60006001600160e01b0319821663463ecd7560e01b1480610f105750610f1082612ffb565b92915050565b6097546001600160a01b03163314610f4157604051630202a8bf60e61b815260040160405180910390fd5b6109c4816001600160601b03161115610f6d576040516306f644f160e31b815260040160405180910390fd5b610f77828261305b565b6040516001600160601b03821681526001600160a01b038316907fd85b7816dca44c313f0fdadd9567f99f3620a2fac7c21a8a7872e1ac4d10fe55906020015b60405180910390a25050565b6101995460009081906001600160a01b0316610fe25750600091829150565b610199546001600160a01b031663ad9e22af306110026066546065540390565b6040518363ffffffff1660e01b815260040161101f9291906150be565b6040805180830381865afa15801561103b573d6000803e3d6000fd5b505050506040513d601f19601f8201168201806040525081019061105f9190615428565b915091509091565b6097546001600160a01b0316331461109257604051630202a8bf60e61b815260040160405180910390fd5b6101a354806000036110b7576040516356a4234d60e11b815260040160405180910390fd5b4281116110d7576040516338df794b60e01b815260040160405180910390fd5b81428110156110f95760405163800877ff60e01b815260040160405180910390fd5b6101a25483108061110c5750826101a454105b1561112a5760405163800877ff60e01b815260040160405180910390fd5b6101a38390556040518381527f9bcdfa29202b48178635d9cf5c57896f671198685cf6b8ddb5e20f3eb4bb1e60906020015b60405180910390a1505050565b60006101a2546000148061117e57506101a354155b8061118a57506101a454155b8061119657506101a554155b806111a357506101a25442105b156111ae5750600090565b6101935460665460655403106111c45750600590565b6101a25442101580156111d957506101a35442105b156111e45750600290565b6101a35442101580156111f957506101a45442105b156112045750600390565b6101a454421015801561121957506101a55442105b156112245750600490565b50600590565b60606067805461123990615456565b80601f016020809104026020016040519081016040528092919081815260200182805461126590615456565b80156112b25780601f10611287576101008083540402835291602001916112b2565b820191906000526020600020905b81548152906001019060200180831161129557829003601f168201915b5050505050905090565b60006112c782613155565b6112e4576040516333d1c03960e21b815260040160405180910390fd5b506000908152606b60205260409020546001600160a01b031690565b8161130a81613181565b6113148383613223565b505050565b6097546001600160a01b0316331461134457604051630202a8bf60e61b815260040160405180910390fd5b80428110156113665760405163800877ff60e01b815260040160405180910390fd5b6101a68290556040518281527f90513fea331bb55e4ca73a8d0c053a255347ccb17c621338052705ea997383b3906020015b60405180910390a15050565b6113ac6132ab565b6002806113b7611169565b60058111156113c8576113c8614f32565b146113e6576040516338df794b60e01b815260040160405180910390fd5b816001600160601b031660000361141057604051636e5fd58f60e01b815260040160405180910390fd5b33600090815261019c60205260409020546001600160601b038316111561144a576040516390e50aa560e01b815260040160405180910390fd5b61019554826001600160601b031661019e5461146691906154a6565b111561148557604051631eddc6a360e11b815260040160405180910390fd5b33600090815261019c6020526040812080546001600160601b03851692906114ae9084906154be565b92505081905550816001600160601b031661019e60008282546114d191906154a6565b909155506114e1905033836132f1565b60006114ed6101aa5490565b905060006115046001600160601b038516836154d5565b604080516001600160601b03871681526020810185905291925033917faaa4209473b0e01252afb37fc6a883231b6189d78f5fb75fec9d8345d716d6ba91015b60405180910390a2611555816133f0565b50505050565b600080516020615889833981519152611572612085565b6001600160a01b0316336001600160a01b03161415801561159a575061159881336120b3565b155b156115c557803360405163f9019a8d60e01b81526004016115bc9291906154f4565b60405180910390fd5b6115cd61348b565b6115d56132ab565b426101a65411806115e757506101a654155b1561160557604051633bd1a57d60e11b815260040160405180910390fd5b6101975447906000908190156116b557612710610197548461162791906154d5565b6116319190615521565b915061163d82846154be565b610198546040519194506001600160a01b0316908390600081818185875af1925050503d806000811461168c576040519150601f19603f3d011682016040523d82523d6000602084013e611691565b606091505b505080915050806116b557604051633aa9e60d60e21b815260040160405180910390fd5b6040516001600160a01b038616908490600081818185875af1925050503d80600081146116fe576040519150601f19603f3d011682016040523d82523d6000602084013e611703565b606091505b5050809150508061172757604051633aa9e60d60e21b815260040160405180910390fd5b60408051848152602081018490526001600160a01b038716917f12eb5d7ccd4ce398edc94007dfbaa22fa2ac8775a3633530f36053ad765262f4910160405180910390a2505050611779600161012f55565b5050565b826001600160a01b03811633146117975761179733613181565b6115558484846134ee565b6000828152610162602090815260408083208151808301909252546001600160a01b038116808352600160a01b9091046001600160601b0316928201929092528291611819575060408051808201909152610161546001600160a01b0381168252600160a01b90046001600160601b031660208201525b602081015160009061271090611838906001600160601b0316876154d5565b6118429190615521565b91519350909150505b9250929050565b81806118715760405163e466584960e01b815260040160405180910390fd5b60008381526099602052604090206001015461188b612085565b6001600160a01b0316336001600160a01b0316141580156118b357506118b181336120b3565b155b156118d557803360405163f9019a8d60e01b81526004016115bc9291906154f4565b61155584846134f9565b81806118fe5760405163e466584960e01b815260040160405180910390fd5b611314838361351b565b60008051602061588983398151915261191f612085565b6001600160a01b0316336001600160a01b031614158015611947575061194581336120b3565b155b1561196957803360405163f9019a8d60e01b81526004016115bc9291906154f4565b6119716132ab565b610193548261197e613595565b61198891906154a6565b11156119a757604051631eddc6a360e11b815260040160405180910390fd5b610194548261019d546119ba91906154a6565b11156119d95760405163011310dd60e31b815260040160405180910390fd5b8161019d546119e891906154a6565b61019d819055506119fd3383610196546135c5565b60405182815233907f7d8400f0e58ae2e14f85b63f3afb0ca5b29328d8f48046b205fc7f174cf9b5ed90602001610fb7565b6000805160206158a9833981519152611a46612085565b6001600160a01b0316336001600160a01b031614158015611a6e5750611a6c81336120b3565b155b15611a9057803360405163f9019a8d60e01b81526004016115bc9291906154f4565b60fd5460ff16611ab357604051637514f14160e11b815260040160405180910390fd5b611abb61363b565b50565b826001600160a01b0381163314611ad857611ad833613181565b611555848484613687565b6097546001600160a01b03163314611b0e57604051630202a8bf60e61b815260040160405180910390fd5b611b1b61019a8383614d78565b507ff9c7803e94e0d3c02900d8a90893a6d5e90dd04d32a4cfe825520f82bf9f32f661019a6040516113989190615535565b323314611b6d57604051633059e46160e21b815260040160405180910390fd5b611b756132ab565b610199546001600160a01b0316611b9f5760405163114d098b60e31b815260040160405180910390fd5b610199546001600160a01b031663fbbc872b30611bbf6066546065540390565b6040518363ffffffff1660e01b8152600401611bdc9291906150be565b6020604051808303816000875af1158015611bfb573d6000803e3d6000fd5b505050506040513d601f19601f82011682018060405250810190611c1f91906155ba565b611c3c5760405163fc58cf3f60e01b815260040160405180910390fd5b565b6000611c49826136a2565b5192915050565b6001600160a01b03811660009081526101a96020526040812054808203611c7a5750600092915050565b6101a8611c886001836154be565b81548110611c9857611c986155d7565b600091825260209091200154600160a01b90046001600160601b03169392505050565b6097546001600160a01b03163314611ce657604051630202a8bf60e61b815260040160405180910390fd5b6098546001600160a01b0316611d0f5760405163128be5bf60e31b815260040160405180910390fd5b611c3c60006137bc565b61019a8054611d2790615456565b80601f0160208091040260200160405190810160405280929190818152602001828054611d5390615456565b8015611da05780601f10611d7557610100808354040283529160200191611da0565b820191906000526020600020905b815481529060010190602001808311611d8357829003601f168201915b505050505081565b6097546001600160a01b03163314611dd357604051630202a8bf60e61b815260040160405180910390fd5b6101a45480600003611df8576040516356a4234d60e11b815260040160405180910390fd5b428111611e18576040516338df794b60e01b815260040160405180910390fd5b8142811015611e3a5760405163800877ff60e01b815260040160405180910390fd5b6101a354831080611e4d5750826101a554105b15611e6b5760405163800877ff60e01b815260040160405180910390fd5b6101a48390556040518381527f4fe26bfd1cf59c4428b13357bea5ab8239f9889b3f94cd575f98b4c6811dcdc59060200161115c565b61019b8054611d2790615456565b60006001600160a01b038216611ed8576040516323d3ad8160e21b815260040160405180910390fd5b506001600160a01b03166000908152606a60205260409020546001600160401b031690565b6097546001600160a01b03163314611f2857604051630202a8bf60e61b815260040160405180910390fd5b611c3c6000613806565b6000805160206158c9833981519152611f49612085565b6001600160a01b0316336001600160a01b031614158015611f715750611f6f81336120b3565b155b15611f9357803360405163f9019a8d60e01b81526004016115bc9291906154f4565b60fd5460ff1615611fb7576040516329c0c03160e11b815260040160405180910390fd5b611abb61383b565b611fc76132ab565b6101a354421015611feb576040516338df794b60e01b815260040160405180910390fd5b6000611ff633611c50565b905080600003612019576040516377348d3360e01b815260040160405180910390fd5b6120233382613878565b8061019f600082825461203691906154a6565b90915550506101aa5461204d3383610196546135c5565b3360008051602061590983398151915283838161206960655490565b61207391906154be565b6002604051610fb794939291906155ed565b6097546001600160a01b031690565b600082815260cb602052604081206120ac9083613a83565b9392505050565b60009182526099602090815260408084206001600160a01b0393909316845291905290205460ff1690565b6097546001600160a01b0316331461210957604051630202a8bf60e61b815260040160405180910390fd5b610199546001600160a01b031615612134576040516310f038e160e01b815260040160405180910390fd5b60006101a55411801561214a57506101a5544210155b15612168576040516338df794b60e01b815260040160405180910390fd5b61019980546001600160a01b0319166001600160a01b0392909216919091179055565b6040805160608101825260008082526020820181905291810191909152610f10826136a2565b60606068805461123990615456565b6097546001600160a01b031633146121eb57604051630202a8bf60e61b815260040160405180910390fd5b6101a25480600003612210576040516356a4234d60e11b815260040160405180910390fd5b428111612230576040516338df794b60e01b815260040160405180910390fd5b81428110156122525760405163800877ff60e01b815260040160405180910390fd5b826101a35410156122765760405163800877ff60e01b815260040160405180910390fd5b6101a28390556040518381527f9776e1b1502b2f97161fccc0d9f830da6ad81a796cf67c136801fd59dd0444cd9060200161115c565b6097546001600160a01b031633146122d757604051630202a8bf60e61b815260040160405180910390fd5b6101a554806000036122fc576040516356a4234d60e11b815260040160405180910390fd5b42811161231c576040516338df794b60e01b815260040160405180910390fd5b814281101561233e5760405163800877ff60e01b815260040160405180910390fd5b6101a4548310156123625760405163800877ff60e01b815260040160405180910390fd5b6101a58390556040518381527fdb76c49adfe8600a5db82e1d85e7c1f7565676dac577c6a39744e9c95ad68e3c9060200161115c565b816123a281613181565b6113148383613a8f565b6123b46132ab565b6101a3544210156123d8576040516338df794b60e01b815260040160405180910390fd5b806001600160601b031660000361240257604051636e5fd58f60e01b815260040160405180910390fd5b61019f5461019e5403612428576040516377348d3360e01b815260040160405180910390fd5b6101965460006124386101aa5490565b6101a85490915083906000905b60008111801561245e57506000836001600160601b0316115b1561256e5760006101a86124736001846154be565b81548110612483576124836155d7565b6000918252602091829020604080518082019091529101546001600160a01b03811682526001600160601b03600160a01b9091048116928201839052909250851610156124d2578392506124e5565b602081015192506124e282615618565b91505b80516124f19084613878565b6124fb838561562f565b93506125158160000151846001600160601b0316886135c5565b80516001600160a01b031660008051602061590983398151915284876001600160601b03821661254460655490565b61254e91906154be565b60026040516125609493929190615657565b60405180910390a250612445565b50612579828661562f565b6001600160601b031661019f600082825461259491906154a6565b90915550505050505050565b60006125ab82611c50565b6125b483613b24565b610f1091906154a6565b6097546001600160a01b031633146125e957604051630202a8bf60e61b815260040160405180910390fd5b8281811461260a57604051638d62a9d560e01b815260040160405180910390fd5b60005b8181101561268657838382818110612627576126276155d7565b9050602002013561019c6000888885818110612645576126456155d7565b905060200201602081019061265a919061503e565b6001600160a01b031681526020810191909152604001600020558061267e81615682565b91505061260d565b506040517f0df27beb8d16f5e61d125286ba69a986a702ac83921bb1864629ca5e662e84d490600090a15050505050565b3233146126d757604051633059e46160e21b815260040160405180910390fd5b6126df6132ab565b6004806126ea611169565b60058111156126fb576126fb614f32565b14612719576040516338df794b60e01b815260040160405180910390fd5b6101965482612727336125a0565b61273191906154a6565b1115612750576040516335e62b7b60e21b815260040160405180910390fd5b600061019d546101945461276491906154be565b9050610193548382612774613595565b61277e91906154a6565b61278891906154a6565b11156127a757604051631eddc6a360e11b815260040160405180910390fd5b60006127b36101ab5490565b905060006127c185836154d5565b90506127df3386604051806020016040528060008152506000613b4f565b846101a160008282546127f291906154a6565b9091555033905060008051602061590983398151915286848161281460655490565b61281e91906154be565b600460405161283094939291906155ed565b60405180910390a2612841816133f0565b5050505050565b600054610100900460ff16158080156128685750600054600160ff909116105b80612889575061287730613cf2565b158015612889575060005460ff166001145b6128ec5760405162461bcd60e51b815260206004820152602e60248201527f496e697469616c697a61626c653a20636f6e747261637420697320616c72656160448201526d191e481a5b9a5d1a585b1a5e995960921b60648201526084016115bc565b6000805460ff19166001179055801561290f576000805461ff0019166101001790555b6129198383613d01565b8015611314576000805461ff0019169055604051600181527f7f26b83ff96e1f2b6a682f133852f6798a09c465da95921460cefb38474024989060200161115c565b836001600160a01b03811633146129755761297533613181565b61284185858585614013565b6097546001600160a01b031633146129ac57604051630202a8bf60e61b815260040160405180910390fd5b611abb81614063565b6129bd6132ab565b6003806129c8611169565b60058111156129d9576129d9614f32565b146129f7576040516338df794b60e01b815260040160405180910390fd5b33600090815261019c6020526040902054821115612a28576040516390e50aa560e01b815260040160405180910390fd5b61019554826101a05461019e54612a3f91906154a6565b612a4991906154a6565b1115612a6857604051631eddc6a360e11b815260040160405180910390fd5b33600090815261019c602052604081208054849290612a889084906154be565b90915550506101aa546000612a9d84836154d5565b9050612aad3385610196546135c5565b836101a06000828254612ac091906154a6565b90915550339050600080516020615909833981519152858481612ae260655490565b612aec91906154be565b600360405161154494939291906155ed565b6097546001600160a01b03163314612b2957604051630202a8bf60e61b815260040160405180910390fd5b6001600160a01b038116612b50576040516386850cc360e01b815260040160405180910390fd5b6098546001600160a01b031615612b7a5760405163033c108960e01b815260040160405180910390fd5b611abb816137bc565b610199546060906001600160a01b0316612bca5761019a612ba3836140ae565b604051602001612bb492919061569b565b6040516020818303038152906040529050919050565b61019954604051635e1578db60e11b81526001600160a01b039091169063bc2af1b690612bfb903090600401614fe3565b602060405180830381865afa158015612c18573d6000803e3d6000fd5b505050506040513d601f19601f82011682018060405250810190612c3c919061571e565b8210612cd55761019b8054612c5090615456565b80601f0160208091040260200160405190810160405280929190818152602001828054612c7c90615456565b8015612cc95780601f10612c9e57610100808354040283529160200191612cc9565b820191906000526020600020905b815481529060010190602001808311612cac57829003601f168201915b50505050509050919050565b61019954604051631f4b3c0160e11b815261019a91612ba3916001600160a01b0390911690633e96780290612d1090309088906004016150be565b602060405180830381865afa158015612d2d573d6000803e3d6000fd5b505050506040513d601f19601f82011682018060405250810190612d51919061571e565b6140ae565b919050565b600081815260cb60205260408120610f1090614140565b8180612d915760405163e466584960e01b815260040160405180910390fd5b600083815260996020526040902060010154612dab612085565b6001600160a01b0316336001600160a01b031614158015612dd35750612dd181336120b3565b155b15612df557803360405163f9019a8d60e01b81526004016115bc9291906154f4565b611555848461414a565b6000610f1082613b24565b6097546001600160a01b03163314612e3557604051630202a8bf60e61b815260040160405180910390fd5b600080612e40611169565b6005811115612e5157612e51614f32565b14612e6f576040516338df794b60e01b815260040160405180910390fd5b42871080612e7c57508686105b80612e8657508585105b80612e9057508484105b15612eae5760405163800877ff60e01b815260040160405180910390fd5b81831115612ecf57604051631da61f9760e11b815260040160405180910390fd5b6101ab8290556101aa8390556101a28790556101a38690556101a48590556101a58490556040805188815260208101889052908101869052606081018590526080810184905260a081018390527fd3d19e188efd3ebe21a0ff17d95928e8cbcaea239e66474ceb7410a57d9130f49060c00160405180910390a150505050505050565b6098546001600160a01b031633141580612f6a575033155b15612f885760405163134aa98760e31b815260040160405180910390fd5b611c3c33613806565b6097546001600160a01b03163314612fbc57604051630202a8bf60e61b815260040160405180910390fd5b612fc961019b8383614d78565b507f4012c6d278d4b460acbc560e9fa4425e187c3b40c848b8dfa248139729efee4361019b6040516113989190615535565b60006001600160e01b0319821662d767f560e71b148061301f575061301f8261416c565b8061302e575061302e826141ac565b8061303d575061303d826141d1565b8061304c575061304c826141e7565b80610f105750610f10826141ac565b6127106001600160601b03821611156130c95760405162461bcd60e51b815260206004820152602a60248201527f455243323938313a20726f79616c7479206665652077696c6c206578636565646044820152692073616c65507269636560b01b60648201526084016115bc565b6001600160a01b03821661311b5760405162461bcd60e51b815260206004820152601960248201527822a921991c9c189d1034b73b30b634b2103932b1b2b4bb32b960391b60448201526064016115bc565b604080518082019091526001600160a01b039092168083526001600160601b039091166020909201829052600160a01b9091021761016155565b600060655482108015610f10575050600090815260696020526040902054600160e01b900460ff161590565b6101a7546001600160a01b0316803b1561177957604051633185c44d60e21b81526001600160a01b0382169063c6171134906131c39030908690600401615737565b602060405180830381865afa1580156131e0573d6000803e3d6000fd5b505050506040513d601f19601f8201168201806040525081019061320491906155ba565b6117795781604051633b79c77360e21b81526004016115bc9190614fe3565b600061322e82611c3e565b9050806001600160a01b0316836001600160a01b0316036132625760405163250fdee360e21b815260040160405180910390fd5b336001600160a01b0382161480159061328257506132808133610e18565b155b156132a0576040516367d9dca160e11b815260040160405180910390fd5b61131483838361420c565b60fd5460ff1615611c3c5760405162461bcd60e51b815260206004820152601060248201526f14185d5cd8589b194e881c185d5cd95960821b60448201526064016115bc565b6001600160a01b03821660009081526101a960205260409020546101a89080156133865782826133226001846154be565b81548110613332576133326155d7565b6000918252602090912001805460149061335d908490600160a01b90046001600160601b0316615751565b92506101000a8154816001600160601b0302191690836001600160601b03160217905550611555565b506040805180820182526001600160a01b039485168082526001600160601b039485166020808401918252855460018082018855600088815283812096519451909916600160a01b0293909916929092179390910192909255835490855294909201909152902055565b8034101561341357604051639968ec3d60e01b81523460048201526024016115bc565b80341115611abb5760003361342883346154be565b604051600081818185875af1925050503d8060008114613464576040519150601f19603f3d011682016040523d82523d6000602084013e613469565b606091505b505090508061177957604051633aa9e60d60e21b815260040160405180910390fd5b600261012f54036134de5760405162461bcd60e51b815260206004820152601f60248201527f5265656e7472616e637947756172643a207265656e7472616e742063616c6c0060448201526064016115bc565b600261012f55565b600161012f55565b611314838383614268565b6135038282614441565b600082815260cb6020526040902061131490826144c7565b6001600160a01b038116331461358b5760405162461bcd60e51b815260206004820152602f60248201527f416363657373436f6e74726f6c3a2063616e206f6e6c792072656e6f756e636560448201526e103937b632b9903337b91039b2b63360891b60648201526084016115bc565b611779828261414a565b600061019f5461019e546135ac6066546065540390565b6135b691906154a6565b6135c091906154be565b905090565b60006135d18284615521565b905060005b8181101561360a576135fa8584604051806020016040528060008152506000613b4f565b61360381615682565b90506135d6565b5060006136178385615773565b90508015612841576128418582604051806020016040528060008152506000613b4f565b6136436144dc565b60fd805460ff191690557f5db9ee0a495bf2e6ff9c91a7834c1ba4fdd244a5e8aa4e537bd38aeae4b073aa335b60405161367d9190614fe3565b60405180910390a1565b6113148383836040518060200160405280600081525061295b565b6040805160608101825260008082526020820181905291810191909152816065548110156137a357600081815260696020908152604091829020825160608101845290546001600160a01b0381168252600160a01b81046001600160401b031692820192909252600160e01b90910460ff161515918101829052906137a15780516001600160a01b031615613738579392505050565b5060001901600081815260696020908152604091829020825160608101845290546001600160a01b038116808352600160a01b82046001600160401b031693830193909352600160e01b900460ff161515928101929092521561379c579392505050565b613738565b505b604051636f96cda160e11b815260040160405180910390fd5b609880546001600160a01b0319166001600160a01b0383169081179091556040517f68f49b346b94582a8b5f9d10e3fe3365318fe8f191ff8dce7c59c6cad06b02f590600090a250565b6138186000613813612085565b61414a565b6001600160a01b03811615613832576138326000826134f9565b611abb81614525565b6138436132ab565b60fd805460ff191660011790557f62e78cea01bee320cd4e420270b5ea74000d11b0c9f74754ebdbfc544b05a2586136703390565b6001600160a01b03821660009081526101a960205260409020546101a8908015611555576000826138aa6001846154be565b815481106138ba576138ba6155d7565b60009182526020822001546001600160601b03600160a01b90910481169250851682116138e85760006138f2565b6138f2858361562f565b9050806001600160601b0316600003613a2c5760006139126001856154be565b8554909150600090613926906001906154be565b90508082146139e1576000866000018281548110613946576139466155d7565b6000918252602091829020604080518082019091529101546001600160a01b0381168252600160a01b90046001600160601b0316918101919091528754909150819088908590811061399a5761399a6155d7565b600091825260208083208451948201516001600160601b0316600160a01b026001600160a01b03958616179201919091559251909116815260018801909152604090208590555b85548690806139f2576139f2615787565b6000828152602080822083016000199081018390559092019092556001600160a01b038a168252600188019052604081205550613a7b9050565b8084613a396001866154be565b81548110613a4957613a496155d7565b9060005260206000200160000160146101000a8154816001600160601b0302191690836001600160601b031602179055505b505050505050565b60006120ac8383614582565b336001600160a01b03831603613ab85760405163b06307db60e01b815260040160405180910390fd5b336000818152606c602090815260408083206001600160a01b03871680855290835292819020805460ff191686151590811790915590519081529192917f17307eab39ab6107e8899845ad3d59bd9653f200f220920489ca2b5937696c31910160405180910390a35050565b6001600160a01b03166000908152606a6020526040902054600160401b90046001600160401b031690565b6065546001600160a01b038516613b7857604051622e076360e81b815260040160405180910390fd5b83600003613b995760405163b562e8dd60e01b815260040160405180910390fd5b6001600160a01b0385166000818152606a6020908152604080832080546001600160801b031981166001600160401b038083168c018116918217600160401b67ffffffffffffffff1990941690921783900481168c01811690920217909155858452606990925290912080546001600160e01b031916909217600160a01b429092169190910217905580808501838015613c405750613c40876001600160a01b0316613cf2565b15613cb6575b60405182906001600160a01b038916906000906000805160206158e9833981519152908290a4613c7f60008884806001019550886145ac565b613c9c576040516368d2bf6b60e11b815260040160405180910390fd5b808203613c46578260655414613cb157600080fd5b613ce9565b5b6040516001830192906001600160a01b038916906000906000805160206158e9833981519152908290a4808203613cb7575b50606555612841565b6001600160a01b03163b151590565b600054610100900460ff16613d285760405162461bcd60e51b81526004016115bc9061579d565b613d30614697565b613d386146d6565b613d40614705565b613dc9613d4d83806157e8565b8080601f016020809104026020016040519081016040528093929190818152602001838380828437600092019190915250613d8f9250505060208501856157e8565b8080601f01602080910402602001604051908101604052809392919081815260200183838082843760009201919091525061472c92505050565b6000613dd8602083018361503e565b6001600160a01b031603613dff576040516313d8249360e31b815260040160405180910390fd5b6000613e11604083016020840161503e565b6001600160a01b031603613e38576040516331ae7ba360e21b815260040160405180910390fd5b60808201351580613e5d57506080820135613e5b60e084013560a08501356154a6565b115b15613e7b57604051631a231d4360e21b815260040160405180910390fd5b816080013582606001351115613ea45760405163318e1f1760e01b815260040160405180910390fd5b6daaeb6d7670e522a718067333cd4e803b15613f2f57604051633e9f1edf60e11b81526001600160a01b03821690637d3e3dbe90613efc903090733cc6cdda760b79bafa08df41ecfa224f810dceb690600401615737565b600060405180830381600087803b158015613f1657600080fd5b505af1158015613f2a573d6000803e3d6000fd5b505050505b613f3881614063565b613f53613f4b606084016040850161503e565b6101f461305b565b613f6f60808301803590613f6a906060860161503e565b61475d565b613f7f606084016040850161503e565b61019980546001600160a01b0319166001600160a01b039290921691909117905560808301356101935560608301356101965560a08301356101945560e083013561019555613fdc6000805160206158c983398151915233611852565b613ffe600080516020615889833981519152610716604085016020860161503e565b61131461400e602084018461503e565b613806565b61401e848484614268565b614030836001600160a01b0316613cf2565b80156140455750614043848484846145ac565b155b15611555576040516368d2bf6b60e11b815260040160405180910390fd5b6101a780546001600160a01b0319166001600160a01b0383169081179091556040517f1ca1e68a4815cd27afc5aea9e7250e85f275603fbb7912647d3ee68e635b649590600090a250565b606060006140bb836147fb565b60010190506000816001600160401b038111156140da576140da6152c2565b6040519080825280601f01601f191660200182016040528015614104576020820181803683370190505b5090508181016020015b600019016f181899199a1a9b1b9c1cb0b131b232b360811b600a86061a8153600a850494508461410e57509392505050565b6000610f10825490565b61415482826148d1565b600082815260cb602052604090206113149082614938565b60006001600160e01b031982166380ac58cd60e01b148061419d57506001600160e01b03198216635b5e139f60e01b145b80610f105750610f10826141d1565b60006001600160e01b0319821663152a902d60e11b1480610f105750610f10826141e7565b6001600160e01b0319166301ffc9a760e01b1490565b60006001600160e01b0319821663f3353d7760e01b1480610f105750610f108261494d565b6000828152606b602052604080822080546001600160a01b0319166001600160a01b0387811691821790925591518593918516917f8c5be1e5ebec7d5bd14f71427d1e84f3dd0314c0f7b2291e5b200ac8c7c3b92591a4505050565b6000614273826136a2565b9050836001600160a01b031681600001516001600160a01b0316146142aa5760405162a1148160e81b815260040160405180910390fd5b6000336001600160a01b03861614806142c857506142c88533610e18565b806142e35750336142d8846112bc565b6001600160a01b0316145b90508061430357604051632ce44b5f60e11b815260040160405180910390fd5b6001600160a01b03841661432a57604051633a954ecd60e21b815260040160405180910390fd5b6143366000848761420c565b6001600160a01b038581166000908152606a60209081526040808320805467ffffffffffffffff198082166001600160401b0392831660001901831617909255898616808652838620805493841693831660019081018416949094179055898652606990945282852080546001600160e01b031916909417600160a01b4290921691909102178355870180845292208054919390911661440a57606554821461440a57805460208601516001600160401b0316600160a01b026001600160e01b03199091166001600160a01b038a16171781555b50505082846001600160a01b0316866001600160a01b03166000805160206158e983398151915260405160405180910390a4612841565b61444b82826120b3565b6117795760008281526099602090815260408083206001600160a01b03851684529091529020805460ff191660011790556144833390565b6001600160a01b0316816001600160a01b0316837f2f8788117e7eff1d82e926ec794901d17c78024a50270940304540a733656f0d60405160405180910390a45050565b60006120ac836001600160a01b038416614967565b60fd5460ff16611c3c5760405162461bcd60e51b815260206004820152601460248201527314185d5cd8589b194e881b9bdd081c185d5cd95960621b60448201526064016115bc565b609780546001600160a01b038381166001600160a01b03198084168217909455609880549094169093556040519116919082907f8be0079c531659141344cd1fd0a4f28419497f9722a3daafe3b4186f6b6457e090600090a35050565b6000826000018281548110614599576145996155d7565b9060005260206000200154905092915050565b604051630a85bd0160e11b81526000906001600160a01b0385169063150b7a02906145e190339089908890889060040161582e565b6020604051808303816000875af192505050801561461c575060408051601f3d908101601f191682019092526146199181019061586b565b60015b61467a573d80801561464a576040519150601f19603f3d011682016040523d82523d6000602084013e61464f565b606091505b508051600003614672576040516368d2bf6b60e11b815260040160405180910390fd5b805181602001fd5b6001600160e01b031916630a85bd0160e11b149050949350505050565b600054610100900460ff166146be5760405162461bcd60e51b81526004016115bc9061579d565b6146c66149b6565b6146ce6149f5565b611c3c614a24565b600054610100900460ff166146fd5760405162461bcd60e51b81526004016115bc9061579d565b611c3c614abb565b600054610100900460ff16611c3c5760405162461bcd60e51b81526004016115bc9061579d565b600054610100900460ff166147535760405162461bcd60e51b81526004016115bc9061579d565b6117798282614ae2565b612710821115614780576040516346b7d95d60e11b815260040160405180910390fd5b6001600160a01b0381166147a757604051631a1b629760e21b815260040160405180910390fd5b61019782905561019880546001600160a01b0319166001600160a01b0383161790556040517fd7d086964f00d2604a80288c460231fe9cfc8e9605e838d49017401111f63adb9061139890849084906154f4565b60008072184f03e93ff9f4daa797ed6e38ed64bf6a1f0160401b831061483a5772184f03e93ff9f4daa797ed6e38ed64bf6a1f0160401b830492506040015b6904ee2d6d415b85acef8160201b8310614864576904ee2d6d415b85acef8160201b830492506020015b662386f26fc10000831061488257662386f26fc10000830492506010015b6305f5e100831061489a576305f5e100830492506008015b61271083106148ae57612710830492506004015b606483106148c0576064830492506002015b600a8310610f105760010192915050565b6148db82826120b3565b156117795760008281526099602090815260408083206001600160a01b0385168085529252808320805460ff1916905551339285917ff6391f5c32d9c69d2a47ea670b442974b53935d1edc7fd64eb21e047a839171b9190a45050565b60006120ac836001600160a01b038416614b3a565b600061495882614c2d565b80610f105750610f1082614c52565b60008181526001830160205260408120546149ae57508154600181810184556000848152602080822090930184905584548482528286019093526040902091909155610f10565b506000610f10565b600054610100900460ff166149dd5760405162461bcd60e51b81526004016115bc9061579d565b6149e5614c77565b6149ed614705565b611c3c614705565b600054610100900460ff16614a1c5760405162461bcd60e51b81526004016115bc9061579d565b611c3c614cae565b600054610100900460ff16614a4b5760405162461bcd60e51b81526004016115bc9061579d565b614a836000805160206158c98339815191527fe0e65c783ac33ff1c5ccf4399c9185066773921d6f8d050bf80781603021f097614ce1565b611c3c6000805160206158a98339815191527fe516f7ac9747f401e208331379a0bafe3c9c4dbb6501fd23bcef278f7ebaf4e5614ce1565b600054610100900460ff166134e65760405162461bcd60e51b81526004016115bc9061579d565b600054610100900460ff16614b095760405162461bcd60e51b81526004016115bc9061579d565b8151614b1c906067906020850190614dfc565b508051614b30906068906020840190614dfc565b5060006065555050565b60008181526001830160205260408120548015614c23576000614b5e6001836154be565b8554909150600090614b72906001906154be565b9050818114614bd7576000866000018281548110614b9257614b926155d7565b9060005260206000200154905080876000018481548110614bb557614bb56155d7565b6000918252602080832090910192909255918252600188019052604090208390555b8554869080614be857614be8615787565b600190038181906000526020600020016000905590558560010160008681526020019081526020016000206000905560019350505050610f10565b6000915050610f10565b60006001600160e01b031982166322d7505760e11b1480610f105750610f108261416c565b60006001600160e01b03198216635a05180f60e01b1480610f105750610f1082614d2c565b600054610100900460ff16614c9e5760405162461bcd60e51b81526004016115bc9061579d565b614ca6614705565b611c3c614d51565b600054610100900460ff16614cd55760405162461bcd60e51b81526004016115bc9061579d565b60fd805460ff19169055565b600082815260996020526040808220600101805490849055905190918391839186917fbd79b86ffe0ab8e8776151514217cd7cacd52c909f66475c3af44e129f0b00ff9190a4505050565b60006001600160e01b03198216637965db0b60e01b1480610f105750610f1082614c2d565b600054610100900460ff16612f885760405162461bcd60e51b81526004016115bc9061579d565b828054614d8490615456565b90600052602060002090601f016020900481019282614da65760008555614dec565b82601f10614dbf5782800160ff19823516178555614dec565b82800160010185558215614dec579182015b82811115614dec578235825591602001919060010190614dd1565b50614df8929150614e70565b5090565b828054614e0890615456565b90600052602060002090601f016020900481019282614e2a5760008555614dec565b82601f10614e4357805160ff1916838001178555614dec565b82800160010185558215614dec579182015b82811115614dec578251825591602001919060010190614e55565b5b80821115614df85760008155600101614e71565b6001600160e01b031981168114611abb57600080fd5b600060208284031215614ead57600080fd5b81356120ac81614e85565b6001600160a01b0381168114611abb57600080fd5b80356001600160601b0381168114612d5657600080fd5b60008060408385031215614ef757600080fd5b8235614f0281614eb8565b9150614f1060208401614ecd565b90509250929050565b600060208284031215614f2b57600080fd5b5035919050565b634e487b7160e01b600052602160045260246000fd5b60068110614f6657634e487b7160e01b600052602160045260246000fd5b9052565b60208101610f108284614f48565b60005b83811015614f93578181015183820152602001614f7b565b838111156115555750506000910152565b60008151808452614fbc816020860160208601614f78565b601f01601f19169290920160200192915050565b6020815260006120ac6020830184614fa4565b6001600160a01b0391909116815260200190565b6000806040838503121561500a57600080fd5b823561501581614eb8565b946020939093013593505050565b60006020828403121561503557600080fd5b6120ac82614ecd565b60006020828403121561505057600080fd5b81356120ac81614eb8565b60008060006060848603121561507057600080fd5b833561507b81614eb8565b9250602084013561508b81614eb8565b929592945050506040919091013590565b600080604083850312156150af57600080fd5b50508035926020909101359150565b6001600160a01b03929092168252602082015260400190565b600080604083850312156150ea57600080fd5b8235915060208301356150fc81614eb8565b809150509250929050565b6000806020838503121561511a57600080fd5b82356001600160401b038082111561513157600080fd5b818501915085601f83011261514557600080fd5b81358181111561515457600080fd5b86602082850101111561516657600080fd5b60209290920196919550909350505050565b8015158114611abb57600080fd5b6000806040838503121561519957600080fd5b82356151a481614eb8565b915060208301356150fc81615178565b60008083601f8401126151c657600080fd5b5081356001600160401b038111156151dd57600080fd5b6020830191508360208260051b850101111561184b57600080fd5b6000806000806040858703121561520e57600080fd5b84356001600160401b038082111561522557600080fd5b615231888389016151b4565b9096509450602087013591508082111561524a57600080fd5b50615257878288016151b4565b95989497509550505050565b60008082840360c081121561527757600080fd5b83356001600160401b0381111561528d57600080fd5b840161010081870312156152a057600080fd5b925060a0601f19820112156152b457600080fd5b506020830190509250929050565b634e487b7160e01b600052604160045260246000fd5b600080600080608085870312156152ee57600080fd5b84356152f981614eb8565b9350602085013561530981614eb8565b92506040850135915060608501356001600160401b038082111561532c57600080fd5b818701915087601f83011261534057600080fd5b813581811115615352576153526152c2565b604051601f8201601f19908116603f0116810190838211818310171561537a5761537a6152c2565b816040528281528a602084870101111561539357600080fd5b82602086016020830137600060208483010152809550505050505092959194509250565b600080604083850312156153ca57600080fd5b82356153d581614eb8565b915060208301356150fc81614eb8565b60008060008060008060c087890312156153fe57600080fd5b505084359660208601359650604086013595606081013595506080810135945060a0013592509050565b6000806040838503121561543b57600080fd5b825161544681615178565b6020939093015192949293505050565b600181811c9082168061546a57607f821691505b60208210810361548a57634e487b7160e01b600052602260045260246000fd5b50919050565b634e487b7160e01b600052601160045260246000fd5b600082198211156154b9576154b9615490565b500190565b6000828210156154d0576154d0615490565b500390565b60008160001904831182151516156154ef576154ef615490565b500290565b9182526001600160a01b0316602082015260400190565b634e487b7160e01b600052601260045260246000fd5b6000826155305761553061550b565b500490565b600060208083526000845461554981615456565b8084870152604060018084166000811461556a576001811461557e576155ac565b60ff198516898401526060890195506155ac565b896000528660002060005b858110156155a45781548b8201860152908301908801615589565b8a0184019650505b509398975050505050505050565b6000602082840312156155cc57600080fd5b81516120ac81615178565b634e487b7160e01b600052603260045260246000fd5b84815260208101849052604081018390526080810161560f6060830184614f48565b95945050505050565b60008161562757615627615490565b506000190190565b60006001600160601b038381169083168181101561564f5761564f615490565b039392505050565b6001600160601b038516815260208101849052604081018390526080810161560f6060830184614f48565b60006001820161569457615694615490565b5060010190565b60008084546156a981615456565b600182811680156156c157600181146156d257615701565b60ff19841687528287019450615701565b8860005260208060002060005b858110156156f85781548a8201529084019082016156df565b50505082870194505b505050508351615715818360208801614f78565b01949350505050565b60006020828403121561573057600080fd5b5051919050565b6001600160a01b0392831681529116602082015260400190565b60006001600160601b0382811684821680830382111561571557615715615490565b6000826157825761578261550b565b500690565b634e487b7160e01b600052603160045260246000fd5b6020808252602b908201527f496e697469616c697a61626c653a20636f6e7472616374206973206e6f74206960408201526a6e697469616c697a696e6760a81b606082015260800190565b6000808335601e198436030181126157ff57600080fd5b8301803591506001600160401b0382111561581957600080fd5b60200191503681900382131561184b57600080fd5b6001600160a01b038581168252841660208201526040810183905260806060820181905260009061586190830184614fa4565b9695505050505050565b60006020828403121561587d57600080fd5b81516120ac81614e8556fe770fadb28e0e3026382976ee8b810cb0eb8666922148dd9e10b20cfb9b477ba8427da25fe773164f88948d3e215c94b6554e2ed5e5f203a821c9f2f6131cf75a65d7a28e3265b37a6474929f336521b332c1681b933f6cb9f3376673440d862addf252ad1be2c89b69c2b068fc378daa952ba7f163c4a11628f55a4df523b3efbb20f716bd7ca9427b818f6de485952ab3a5acec2559fb794e3f9a4d9f70e722a2646970667358221220e7dec2fc5fac45034c97daabd368bcf921efacbb9c47353d36a550cd89b3f46d64736f6c634300080d0033",
  "devdoc": {
    "author": "Trader Joe",
    "events": {
      "PhaseInitialized(uint256,uint256,uint256,uint256,uint256,uint256)": {
        "details": "Emitted on initializePhases()",
        "params": {
          "allowlistPrice": "Price of the allowlist sale in Avax",
          "allowlistStartTime": "Allowlist mint start time in seconds",
          "preMintStartTime": "Pre-mint start time in seconds",
          "publicSaleEndTime": "Public sale end time in seconds",
          "publicSaleStartTime": "Public sale start time in seconds",
          "salePrice": "Price of the public sale in Avax"
        }
      }
    },
    "kind": "dev",
    "methods": {
      "allowlistMint(uint256)": {
        "params": {
          "_quantity": "Quantity of NFTs to mint"
        }
      },
      "approve(address,uint256)": {
        "details": "`aprove` wrapper to prevent the sender to approve a non-allowed operator",
        "params": {
          "operator": "Address being approved",
          "tokenId": "TokenID approved"
        }
      },
      "balanceOf(address)": {
        "details": "See {IERC721-balanceOf}."
      },
      "batchClaimPreMint(uint96)": {
        "params": {
          "_maxQuantity": "Max quantity of NFTs to mint"
        }
      },
      "currentPhase()": {
        "returns": {
          "_0": "phase Current phase"
        }
      },
      "devMint(uint256)": {
        "details": "Can only mint up to `amountForDevs`",
        "params": {
          "_quantity": "Quantity of NFTs to mint"
        }
      },
      "getApproved(uint256)": {
        "details": "See {IERC721-getApproved}."
      },
      "getOwnershipData(uint256)": {
        "params": {
          "_tokenId": "Token ID"
        },
        "returns": {
          "_0": "TokenOwnership Ownership struct for a specific token ID"
        }
      },
      "getRoleAdmin(bytes32)": {
        "details": "Returns the admin role that controls `role`. See {grantRole} and {revokeRole}. To change a role's admin, use {_setRoleAdmin}."
      },
      "getRoleMember(bytes32,uint256)": {
        "details": "Returns one of the accounts that have `role`. `index` must be a value between 0 and {getRoleMemberCount}, non-inclusive. Role bearers are not sorted in any particular way, and their ordering may change at any point. WARNING: When using {getRoleMember} and {getRoleMemberCount}, make sure you perform all queries on the same block. See the following https://forum.openzeppelin.com/t/iterating-over-elements-on-enumerableset-in-openzeppelin-contracts/2296[forum post] for more information."
      },
      "getRoleMemberCount(bytes32)": {
        "details": "Returns the number of accounts that have `role`. Can be used together with {getRoleMember} to enumerate all bearers of a role."
      },
      "grantRole(bytes32,address)": {
        "details": "If `account` had not been already granted `role`, emits a {RoleGranted} event. Requirements: - the caller must be the `owner` or have ``role``'s admin role. - the role granted can't be `DEFAULT_ADMIN`",
        "params": {
          "account": "The address of the account",
          "role": "The role to grant"
        }
      },
      "hasBatchToReveal()": {
        "returns": {
          "_0": "bool Whether reveal can be triggered or not",
          "_1": "uint256 The number of the next batch that will be revealed"
        }
      },
      "hasRole(bytes32,address)": {
        "details": "Returns `true` if `account` has been granted `role`."
      },
      "initialize((string,string,address,uint256,uint256,uint256,uint256,uint256),(address,address,address,address,uint256))": {
        "params": {
          "_collectionData": "Launchpeg collection data",
          "_ownerData": "Launchpeg owner data"
        }
      },
      "initializeBatchReveal(address)": {
        "details": "Can only be set once. Cannot be initialized once sale has ended.",
        "params": {
          "_batchReveal": "Batch reveal contract address"
        }
      },
      "initializePhases(uint256,uint256,uint256,uint256,uint256,uint256)": {
        "details": "Can only be called once",
        "params": {
          "_allowlistPrice": "Price of the allowlist sale in Avax",
          "_allowlistStartTime": "Allowlist mint start time in seconds",
          "_preMintStartTime": "Pre-mint start time in seconds",
          "_publicSaleEndTime": "Public sale end time in seconds",
          "_publicSaleStartTime": "Public sale start time in seconds",
          "_salePrice": "Price of the public sale in Avax"
        }
      },
      "isApprovedForAll(address,address)": {
        "details": "See {IERC721-isApprovedForAll}."
      },
      "name()": {
        "details": "See {IERC721Metadata-name}."
      },
      "numberMinted(address)": {
        "params": {
          "_owner": "The owner of the NFTs"
        },
        "returns": {
          "_0": "numberMinted Number of NFTs minted"
        }
      },
      "owner()": {
        "returns": {
          "_0": "The address of the current owner"
        }
      },
      "ownerOf(uint256)": {
        "details": "See {IERC721-ownerOf}."
      },
      "pause()": {
        "details": "Sensible part of a contract might be pausable for security reasons. Requirements: - the caller must be the `owner` or have the ``role`` role. - the contrat needs to be unpaused."
      },
      "paused()": {
        "details": "Returns true if the contract is paused, and false otherwise."
      },
      "pendingOwner()": {
        "returns": {
          "_0": "The address of the current pending owner"
        }
      },
      "preMint(uint96)": {
        "params": {
          "_quantity": "Quantity of NFTs to mint"
        }
      },
      "publicSaleMint(uint256)": {
        "params": {
          "_quantity": "Quantity of NFTs to mint"
        }
      },
      "renounceRole(bytes32,address)": {
        "details": "Roles are often managed via {grantRole} and {revokeRole}: this function's purpose is to provide a mechanism for accounts to lose their privileges if they are compromised (such as when a trusted device is misplaced). If the calling account had been revoked `role`, emits a {RoleRevoked} event. Requirements: - the caller must be `account`. - the role renounced can't be `DEFAULT_ADMIN`",
        "params": {
          "account": "The address of the account",
          "role": "The role to renounce"
        }
      },
      "revokeRole(bytes32,address)": {
        "details": "If `account` had been granted `role`, emits a {RoleRevoked} event. Requirements: - the caller must be the `owner` or have ``role``'s admin role. - the role revoked can't be `DEFAULT_ADMIN`",
        "params": {
          "account": "The address of the account",
          "role": "The role to revoke"
        }
      },
      "royaltyInfo(uint256,uint256)": {
        "details": "Returns how much royalty is owed and to whom, based on a sale price that may be denominated in any unit of exchange. The royalty amount is denominated and should be paid in that same unit of exchange."
      },
      "safeTransferFrom(address,address,uint256)": {
        "details": "`safeTransferFrom` wrapper to prevent a non-allowed operator to transfer the NFT",
        "params": {
          "from": "Address to transfer from",
          "to": "Address to transfer to",
          "tokenId": "TokenID to transfer"
        }
      },
      "safeTransferFrom(address,address,uint256,bytes)": {
        "details": "`safeTransferFrom` wrapper to prevent a non-allowed operator to transfer the NFT",
        "params": {
          "data": "Data to send along with a safe transfer check",
          "from": "Address to transfer from",
          "to": "Address to transfer to",
          "tokenId": "TokenID to transfer"
        }
      },
      "seedAllowlist(address[],uint256[])": {
        "params": {
          "_addresses": "List of addresses allowed to mint during the allowlist phase",
          "_numNfts": "List of NFT quantities mintable per address"
        }
      },
      "setAllowlistStartTime(uint256)": {
        "details": "Only callable by owner",
        "params": {
          "_allowlistStartTime": "New allowlist start time"
        }
      },
      "setApprovalForAll(address,bool)": {
        "details": "`setApprovalForAll` wrapper to prevent the sender to approve a non-allowed operator",
        "params": {
          "approved": "Whether the operator is approved or not",
          "operator": "Address being approved"
        }
      },
      "setBaseURI(string)": {
        "details": "This sets the URI for revealed tokens Only callable by project owner",
        "params": {
          "_baseURI": "Base URI to be set"
        }
      },
      "setPreMintStartTime(uint256)": {
        "details": "Only callable by owner",
        "params": {
          "_preMintStartTime": "New pre-mint start time"
        }
      },
      "setPublicSaleEndTime(uint256)": {
        "details": "Only callable by owner",
        "params": {
          "_publicSaleEndTime": "New public sale end time"
        }
      },
      "setPublicSaleStartTime(uint256)": {
        "details": "Only callable by owner",
        "params": {
          "_publicSaleStartTime": "New public sale start time"
        }
      },
      "setRoyaltyInfo(address,uint96)": {
        "params": {
          "_feePercent": "Royalty fee percent in basis point",
          "_receiver": "Royalty fee collector"
        }
      },
      "setUnrevealedURI(string)": {
        "details": "Only callable by project owner",
        "params": {
          "_unrevealedURI": "Unrevealed URI to be set"
        }
      },
      "setWithdrawAVAXStartTime(uint256)": {
        "params": {
          "_withdrawAVAXStartTime": "New public sale end time"
        }
      },
      "supportsInterface(bytes4)": {
        "details": "Returns true if this contract implements the interface defined by `interfaceId`. See the corresponding https://eips.ethereum.org/EIPS/eip-165#how-interfaces-are-identified[EIP section] to learn more about how these IDs are created. This function call must use less than 30 000 gas.",
        "params": {
          "_interfaceId": "InterfaceId to consider. Comes from type(Interface).interfaceId"
        },
        "returns": {
          "_0": "isInterfaceSupported True if the considered interface is supported"
        }
      },
      "symbol()": {
        "details": "See {IERC721Metadata-symbol}."
      },
      "tokenURI(uint256)": {
        "params": {
          "_id": "Token id"
        },
        "returns": {
          "_0": "URI Token URI"
        }
      },
      "totalSupply()": {
        "details": "Burned tokens are calculated here, use _totalMinted() if you want to count just minted tokens."
      },
      "transferFrom(address,address,uint256)": {
        "details": "`transferFrom` wrapper to prevent a non-allowed operator to transfer the NFT",
        "params": {
          "from": "Address to transfer from",
          "to": "Address to transfer to",
          "tokenId": "TokenID to transfer"
        }
      },
      "unpause()": {
        "details": "Sensible part of a contract might be pausable for security reasons. Requirements: - the caller must be the `owner` or have the ``role`` role. - the contrat needs to be unpaused."
      },
      "updateOperatorFilterRegistryAddress(address)": {
        "params": {
          "_newRegistry": "The address of the new OperatorFilterRegistry"
        }
      },
      "userPendingPreMints(address)": {
        "params": {
          "_user": "user address"
        }
      },
      "withdrawAVAX(address)": {
        "params": {
          "_to": "Recipient of the earned AVAX"
        }
      }
    },
    "stateVariables": {
      "allowlistPrice": {
        "details": "allowlistPrice is scaled to 1e18"
      },
      "salePrice": {
        "details": "salePrice is scaled to 1e18"
      }
    },
    "title": "FlatLaunchpeg",
    "version": 1
  },
  "userdoc": {
    "kind": "user",
    "methods": {
      "BASIS_POINT_PRECISION()": {
        "notice": "Percentage base point"
      },
      "PROJECT_OWNER_ROLE()": {
        "notice": "Role granted to project owners"
      },
      "allowlist(address)": {
        "notice": "The amount of NFTs each allowed address can mint during the pre-mint or allowlist mint"
      },
      "allowlistMint(uint256)": {
        "notice": "Mint NFTs during the allowlist mint"
      },
      "allowlistPrice()": {
        "notice": "Price of one NFT for people on the mint list"
      },
      "allowlistStartTime()": {
        "notice": "Start time of the allowlist mint in seconds"
      },
      "amountClaimedDuringPreMint()": {
        "notice": "Tracks the amount of pre-minted NFTs that have been claimed"
      },
      "amountForAllowlist()": {
        "notice": "Amount of NFTs available for the allowlist mint (e.g 1000)"
      },
      "amountForDevs()": {
        "notice": "Amount of NFTs reserved for the project owner (e.g 200)"
      },
      "amountMintedByDevs()": {
        "notice": "Tracks the amount of NFTs minted by `projectOwner`"
      },
      "amountMintedDuringAllowlist()": {
        "notice": "Tracks the amount of NFTs minted on Allowlist phase"
      },
      "amountMintedDuringPreMint()": {
        "notice": "Tracks the amount of NFTs minted in the Pre-Mint phase"
      },
      "amountMintedDuringPublicSale()": {
        "notice": "Tracks the amount of NFTs minted on Public Sale phase"
      },
      "baseURI()": {
        "notice": "Token URI after collection reveal"
      },
      "batchClaimPreMint(uint96)": {
        "notice": "Claim pre-minted NFTs for users"
      },
      "batchReveal()": {
        "notice": "Batch reveal contract"
      },
      "becomeOwner()": {
        "notice": "Transfers the ownership to the new owner (`pendingOwner`). Can only be called by the pending owner"
      },
      "claimPreMint()": {
        "notice": "Claim pre-minted NFTs"
      },
      "collectionSize()": {
        "notice": "The collection size (e.g 10000)"
      },
      "currentPhase()": {
        "notice": "Returns the current phase"
      },
      "devMint(uint256)": {
        "notice": "Mint NFTs to the project owner"
      },
      "getOwnershipData(uint256)": {
        "notice": "Returns the ownership data of a specific token ID"
      },
      "grantRole(bytes32,address)": {
        "notice": "Grants `role` to `account`."
      },
      "hasBatchToReveal()": {
        "notice": "Tells you if a batch can be revealed"
      },
      "initialize((string,string,address,uint256,uint256,uint256,uint256,uint256),(address,address,address,address,uint256))": {
        "notice": "FlatLaunchpeg initialization Can only be called once"
      },
      "initializeBatchReveal(address)": {
        "notice": "Initialize batch reveal. Leave undefined to disable batch reveal for the collection."
      },
      "initializePhases(uint256,uint256,uint256,uint256,uint256,uint256)": {
        "notice": "Initialize the two phases of the sale"
      },
      "joeFeeCollector()": {
        "notice": "The address to which the fees on the sale will be sent"
      },
      "joeFeePercent()": {
        "notice": "The fees collected by Joepegs on the sale benefits"
      },
      "maxPerAddressDuringMint()": {
        "notice": "Max amount of NFTs an address can mint in public phases"
      },
      "numberMinted(address)": {
        "notice": "Returns the number of NFTs minted by a specific address"
      },
      "numberMintedWithPreMint(address)": {
        "notice": "Number minted by user including pre-mints"
      },
      "operatorFilterRegistry()": {
        "notice": "Contract filtering allowed operators, preventing unauthorized contract to transfer NFTs By default, Launchpeg contracts are subscribed to OpenSea's Curated Subscription Address at 0x3cc6CddA760b79bAfa08dF41ECFA224f810dCeB6"
      },
      "owner()": {
        "notice": "Returns the address of the current owner"
      },
      "pause()": {
        "notice": "Pauses the contract."
      },
      "pendingOwner()": {
        "notice": "Returns the address of the current pending owner"
      },
      "preMint(uint96)": {
        "notice": "Mint NFTs during the pre-mint"
      },
      "preMintStartTime()": {
        "notice": "Start time of the pre-mint in seconds"
      },
      "publicSaleEndTime()": {
        "notice": "End time of the public sale in seconds"
      },
      "publicSaleMint(uint256)": {
        "notice": "Mint NFTs during the public sale"
      },
      "publicSaleStartTime()": {
        "notice": "Start time of the public sale in seconds"
      },
      "renounceOwnership()": {
        "notice": "Leaves the contract without owner. It will not be possible to call `onlyOwner` functions anymore. Can only be called by the current owner. NOTE: Renouncing ownership will leave the contract without an owner, thereby removing any functionality that is only available to the owner."
      },
      "renounceRole(bytes32,address)": {
        "notice": "Revokes `role` from the calling account."
      },
      "revealNextBatch()": {
        "notice": "Reveals the next batch if the reveal conditions are met"
      },
      "revokePendingOwner()": {
        "notice": "Revoke the pending owner address. This address will not be able to call {becomeOwner} to become the owner anymore. Can only be called by the owner"
      },
      "revokeRole(bytes32,address)": {
        "notice": "Revokes `role` from `account`."
      },
      "salePrice()": {
        "notice": "Price of one NFT during the public sale"
      },
      "seedAllowlist(address[],uint256[])": {
        "notice": "Set amount of NFTs mintable per address during the allowlist phase"
      },
      "setAllowlistStartTime(uint256)": {
        "notice": "Set the allowlist start time. Can only be set after phases have been initialized."
      },
      "setBaseURI(string)": {
        "notice": "Set the base URI"
      },
      "setPendingOwner(address)": {
        "notice": "Sets the pending owner address. This address will be able to become the owner of this contract by calling {becomeOwner}"
      },
      "setPreMintStartTime(uint256)": {
        "notice": "Set the pre-mint start time. Can only be set after phases have been initialized."
      },
      "setPublicSaleEndTime(uint256)": {
        "notice": "Set the public sale end time. Can only be set after phases have been initialized."
      },
      "setPublicSaleStartTime(uint256)": {
        "notice": "Set the public sale start time. Can only be set after phases have been initialized."
      },
      "setRoyaltyInfo(address,uint96)": {
        "notice": "Set the royalty fee"
      },
      "setUnrevealedURI(string)": {
        "notice": "Set the unrevealed URI"
      },
      "setWithdrawAVAXStartTime(uint256)": {
        "notice": "Set the withdraw AVAX start time."
      },
      "tokenURI(uint256)": {
        "notice": "Returns the Uniform Resource Identifier (URI) for `tokenId` token."
      },
      "unpause()": {
        "notice": "Unpauses the contract."
      },
      "unrevealedURI()": {
        "notice": "Token URI before the collection reveal"
      },
      "updateOperatorFilterRegistryAddress(address)": {
        "notice": "Update the address that the contract will make OperatorFilter checks against. When set to the zero address, checks will be bypassed. OnlyOwner"
      },
      "userPendingPreMints(address)": {
        "notice": "The remaining no. of pre-minted NFTs for the user address"
      },
      "withdrawAVAX(address)": {
        "notice": "Withdraw AVAX to the given recipient"
      },
      "withdrawAVAXStartTime()": {
        "notice": "Start time when funds can be withdrawn"
      }
    },
    "notice": "Implements a simple minting NFT contract with an allowlist and public sale phase.",
    "version": 1
  },
  "storageLayout": {
    "storage": [
      {
        "astId": 825,
        "contract": "contracts/FlatLaunchpeg.sol:FlatLaunchpeg",
        "label": "_initialized",
        "offset": 0,
        "slot": "0",
        "type": "t_uint8"
      },
      {
        "astId": 828,
        "contract": "contracts/FlatLaunchpeg.sol:FlatLaunchpeg",
        "label": "_initializing",
        "offset": 1,
        "slot": "0",
        "type": "t_bool"
      },
      {
        "astId": 3314,
        "contract": "contracts/FlatLaunchpeg.sol:FlatLaunchpeg",
        "label": "__gap",
        "offset": 0,
        "slot": "1",
        "type": "t_array(t_uint256)50_storage"
      },
      {
        "astId": 3533,
        "contract": "contracts/FlatLaunchpeg.sol:FlatLaunchpeg",
        "label": "__gap",
        "offset": 0,
        "slot": "51",
        "type": "t_array(t_uint256)50_storage"
      },
      {
        "astId": 12126,
        "contract": "contracts/FlatLaunchpeg.sol:FlatLaunchpeg",
        "label": "_currentIndex",
        "offset": 0,
        "slot": "101",
        "type": "t_uint256"
      },
      {
        "astId": 12128,
        "contract": "contracts/FlatLaunchpeg.sol:FlatLaunchpeg",
        "label": "_burnCounter",
        "offset": 0,
        "slot": "102",
        "type": "t_uint256"
      },
      {
        "astId": 12130,
        "contract": "contracts/FlatLaunchpeg.sol:FlatLaunchpeg",
        "label": "_name",
        "offset": 0,
        "slot": "103",
        "type": "t_string_storage"
      },
      {
        "astId": 12132,
        "contract": "contracts/FlatLaunchpeg.sol:FlatLaunchpeg",
        "label": "_symbol",
        "offset": 0,
        "slot": "104",
        "type": "t_string_storage"
      },
      {
        "astId": 12137,
        "contract": "contracts/FlatLaunchpeg.sol:FlatLaunchpeg",
        "label": "_ownerships",
        "offset": 0,
        "slot": "105",
        "type": "t_mapping(t_uint256,t_struct(TokenOwnership)12115_storage)"
      },
      {
        "astId": 12142,
        "contract": "contracts/FlatLaunchpeg.sol:FlatLaunchpeg",
        "label": "_addressData",
        "offset": 0,
        "slot": "106",
        "type": "t_mapping(t_address,t_struct(AddressData)12124_storage)"
      },
      {
        "astId": 12146,
        "contract": "contracts/FlatLaunchpeg.sol:FlatLaunchpeg",
        "label": "_tokenApprovals",
        "offset": 0,
        "slot": "107",
        "type": "t_mapping(t_uint256,t_address)"
      },
      {
        "astId": 12152,
        "contract": "contracts/FlatLaunchpeg.sol:FlatLaunchpeg",
        "label": "_operatorApprovals",
        "offset": 0,
        "slot": "108",
        "type": "t_mapping(t_address,t_mapping(t_address,t_bool))"
      },
      {
        "astId": 13400,
        "contract": "contracts/FlatLaunchpeg.sol:FlatLaunchpeg",
        "label": "__gap",
        "offset": 0,
        "slot": "109",
        "type": "t_array(t_uint256)42_storage"
      },
      {
        "astId": 17963,
        "contract": "contracts/FlatLaunchpeg.sol:FlatLaunchpeg",
        "label": "_owner",
        "offset": 0,
        "slot": "151",
        "type": "t_address"
      },
      {
        "astId": 17965,
        "contract": "contracts/FlatLaunchpeg.sol:FlatLaunchpeg",
        "label": "_pendingOwner",
        "offset": 0,
        "slot": "152",
        "type": "t_address"
      },
      {
        "astId": 273,
        "contract": "contracts/FlatLaunchpeg.sol:FlatLaunchpeg",
        "label": "_roles",
        "offset": 0,
        "slot": "153",
        "type": "t_mapping(t_bytes32,t_struct(RoleData)268_storage)"
      },
      {
        "astId": 568,
        "contract": "contracts/FlatLaunchpeg.sol:FlatLaunchpeg",
        "label": "__gap",
        "offset": 0,
        "slot": "154",
        "type": "t_array(t_uint256)49_storage"
      },
      {
        "astId": 122,
        "contract": "contracts/FlatLaunchpeg.sol:FlatLaunchpeg",
        "label": "_roleMembers",
        "offset": 0,
        "slot": "203",
        "type": "t_mapping(t_bytes32,t_struct(AddressSet)4737_storage)"
      },
      {
        "astId": 232,
        "contract": "contracts/FlatLaunchpeg.sol:FlatLaunchpeg",
        "label": "__gap",
        "offset": 0,
        "slot": "204",
        "type": "t_array(t_uint256)49_storage"
      },
      {
        "astId": 1008,
        "contract": "contracts/FlatLaunchpeg.sol:FlatLaunchpeg",
        "label": "_paused",
        "offset": 0,
        "slot": "253",
        "type": "t_bool"
      },
      {
        "astId": 1113,
        "contract": "contracts/FlatLaunchpeg.sol:FlatLaunchpeg",
        "label": "__gap",
        "offset": 0,
        "slot": "254",
        "type": "t_array(t_uint256)49_storage"
      },
      {
        "astId": 1128,
        "contract": "contracts/FlatLaunchpeg.sol:FlatLaunchpeg",
        "label": "_status",
        "offset": 0,
        "slot": "303",
        "type": "t_uint256"
      },
      {
        "astId": 1186,
        "contract": "contracts/FlatLaunchpeg.sol:FlatLaunchpeg",
        "label": "__gap",
        "offset": 0,
        "slot": "304",
        "type": "t_array(t_uint256)49_storage"
      },
      {
        "astId": 2803,
        "contract": "contracts/FlatLaunchpeg.sol:FlatLaunchpeg",
        "label": "_defaultRoyaltyInfo",
        "offset": 0,
        "slot": "353",
        "type": "t_struct(RoyaltyInfo)2800_storage"
      },
      {
        "astId": 2808,
        "contract": "contracts/FlatLaunchpeg.sol:FlatLaunchpeg",
        "label": "_tokenRoyaltyInfo",
        "offset": 0,
        "slot": "354",
        "type": "t_mapping(t_uint256,t_struct(RoyaltyInfo)2800_storage)"
      },
      {
        "astId": 2988,
        "contract": "contracts/FlatLaunchpeg.sol:FlatLaunchpeg",
        "label": "__gap",
        "offset": 0,
        "slot": "355",
        "type": "t_array(t_uint256)48_storage"
      },
      {
        "astId": 6383,
        "contract": "contracts/FlatLaunchpeg.sol:FlatLaunchpeg",
        "label": "collectionSize",
        "offset": 0,
        "slot": "403",
        "type": "t_uint256"
      },
      {
        "astId": 6387,
        "contract": "contracts/FlatLaunchpeg.sol:FlatLaunchpeg",
        "label": "amountForDevs",
        "offset": 0,
        "slot": "404",
        "type": "t_uint256"
      },
      {
        "astId": 6391,
        "contract": "contracts/FlatLaunchpeg.sol:FlatLaunchpeg",
        "label": "amountForAllowlist",
        "offset": 0,
        "slot": "405",
        "type": "t_uint256"
      },
      {
        "astId": 6395,
        "contract": "contracts/FlatLaunchpeg.sol:FlatLaunchpeg",
        "label": "maxPerAddressDuringMint",
        "offset": 0,
        "slot": "406",
        "type": "t_uint256"
      },
      {
        "astId": 6399,
        "contract": "contracts/FlatLaunchpeg.sol:FlatLaunchpeg",
        "label": "joeFeePercent",
        "offset": 0,
        "slot": "407",
        "type": "t_uint256"
      },
      {
        "astId": 6403,
        "contract": "contracts/FlatLaunchpeg.sol:FlatLaunchpeg",
        "label": "joeFeeCollector",
        "offset": 0,
        "slot": "408",
        "type": "t_address"
      },
      {
        "astId": 6407,
        "contract": "contracts/FlatLaunchpeg.sol:FlatLaunchpeg",
        "label": "batchReveal",
        "offset": 0,
        "slot": "409",
        "type": "t_contract(IBatchReveal)17494"
      },
      {
        "astId": 6411,
        "contract": "contracts/FlatLaunchpeg.sol:FlatLaunchpeg",
        "label": "baseURI",
        "offset": 0,
        "slot": "410",
        "type": "t_string_storage"
      },
      {
        "astId": 6415,
        "contract": "contracts/FlatLaunchpeg.sol:FlatLaunchpeg",
        "label": "unrevealedURI",
        "offset": 0,
        "slot": "411",
        "type": "t_string_storage"
      },
      {
        "astId": 6421,
        "contract": "contracts/FlatLaunchpeg.sol:FlatLaunchpeg",
        "label": "allowlist",
        "offset": 0,
        "slot": "412",
        "type": "t_mapping(t_address,t_uint256)"
      },
      {
        "astId": 6425,
        "contract": "contracts/FlatLaunchpeg.sol:FlatLaunchpeg",
        "label": "amountMintedByDevs",
        "offset": 0,
        "slot": "413",
        "type": "t_uint256"
      },
      {
        "astId": 6429,
        "contract": "contracts/FlatLaunchpeg.sol:FlatLaunchpeg",
        "label": "amountMintedDuringPreMint",
        "offset": 0,
        "slot": "414",
        "type": "t_uint256"
      },
      {
        "astId": 6433,
        "contract": "contracts/FlatLaunchpeg.sol:FlatLaunchpeg",
        "label": "amountClaimedDuringPreMint",
        "offset": 0,
        "slot": "415",
        "type": "t_uint256"
      },
      {
        "astId": 6437,
        "contract": "contracts/FlatLaunchpeg.sol:FlatLaunchpeg",
        "label": "amountMintedDuringAllowlist",
        "offset": 0,
        "slot": "416",
        "type": "t_uint256"
      },
      {
        "astId": 6441,
        "contract": "contracts/FlatLaunchpeg.sol:FlatLaunchpeg",
        "label": "amountMintedDuringPublicSale",
        "offset": 0,
        "slot": "417",
        "type": "t_uint256"
      },
      {
        "astId": 6445,
        "contract": "contracts/FlatLaunchpeg.sol:FlatLaunchpeg",
        "label": "preMintStartTime",
        "offset": 0,
        "slot": "418",
        "type": "t_uint256"
      },
      {
        "astId": 6449,
        "contract": "contracts/FlatLaunchpeg.sol:FlatLaunchpeg",
        "label": "allowlistStartTime",
        "offset": 0,
        "slot": "419",
        "type": "t_uint256"
      },
      {
        "astId": 6453,
        "contract": "contracts/FlatLaunchpeg.sol:FlatLaunchpeg",
        "label": "publicSaleStartTime",
        "offset": 0,
        "slot": "420",
        "type": "t_uint256"
      },
      {
        "astId": 6457,
        "contract": "contracts/FlatLaunchpeg.sol:FlatLaunchpeg",
        "label": "publicSaleEndTime",
        "offset": 0,
        "slot": "421",
        "type": "t_uint256"
      },
      {
        "astId": 6461,
        "contract": "contracts/FlatLaunchpeg.sol:FlatLaunchpeg",
        "label": "withdrawAVAXStartTime",
        "offset": 0,
        "slot": "422",
        "type": "t_uint256"
      },
      {
        "astId": 6465,
        "contract": "contracts/FlatLaunchpeg.sol:FlatLaunchpeg",
        "label": "operatorFilterRegistry",
        "offset": 0,
        "slot": "423",
        "type": "t_contract(IOperatorFilterRegistry)18714"
      },
      {
        "astId": 6469,
        "contract": "contracts/FlatLaunchpeg.sol:FlatLaunchpeg",
        "label": "_pendingPreMints",
        "offset": 0,
        "slot": "424",
        "type": "t_struct(PreMintDataSet)6368_storage"
      },
      {
        "astId": 13414,
        "contract": "contracts/FlatLaunchpeg.sol:FlatLaunchpeg",
        "label": "allowlistPrice",
        "offset": 0,
        "slot": "426",
        "type": "t_uint256"
      },
      {
        "astId": 13418,
        "contract": "contracts/FlatLaunchpeg.sol:FlatLaunchpeg",
        "label": "salePrice",
        "offset": 0,
        "slot": "427",
        "type": "t_uint256"
      }
    ],
    "types": {
      "t_address": {
        "encoding": "inplace",
        "label": "address",
        "numberOfBytes": "20"
      },
      "t_array(t_bytes32)dyn_storage": {
        "base": "t_bytes32",
        "encoding": "dynamic_array",
        "label": "bytes32[]",
        "numberOfBytes": "32"
      },
      "t_array(t_struct(PreMintData)6359_storage)dyn_storage": {
        "base": "t_struct(PreMintData)6359_storage",
        "encoding": "dynamic_array",
        "label": "struct BaseLaunchpeg.PreMintData[]",
        "numberOfBytes": "32"
      },
      "t_array(t_uint256)42_storage": {
        "base": "t_uint256",
        "encoding": "inplace",
        "label": "uint256[42]",
        "numberOfBytes": "1344"
      },
      "t_array(t_uint256)48_storage": {
        "base": "t_uint256",
        "encoding": "inplace",
        "label": "uint256[48]",
        "numberOfBytes": "1536"
      },
      "t_array(t_uint256)49_storage": {
        "base": "t_uint256",
        "encoding": "inplace",
        "label": "uint256[49]",
        "numberOfBytes": "1568"
      },
      "t_array(t_uint256)50_storage": {
        "base": "t_uint256",
        "encoding": "inplace",
        "label": "uint256[50]",
        "numberOfBytes": "1600"
      },
      "t_bool": {
        "encoding": "inplace",
        "label": "bool",
        "numberOfBytes": "1"
      },
      "t_bytes32": {
        "encoding": "inplace",
        "label": "bytes32",
        "numberOfBytes": "32"
      },
      "t_contract(IBatchReveal)17494": {
        "encoding": "inplace",
        "label": "contract IBatchReveal",
        "numberOfBytes": "20"
      },
      "t_contract(IOperatorFilterRegistry)18714": {
        "encoding": "inplace",
        "label": "contract IOperatorFilterRegistry",
        "numberOfBytes": "20"
      },
      "t_mapping(t_address,t_bool)": {
        "encoding": "mapping",
        "key": "t_address",
        "label": "mapping(address => bool)",
        "numberOfBytes": "32",
        "value": "t_bool"
      },
      "t_mapping(t_address,t_mapping(t_address,t_bool))": {
        "encoding": "mapping",
        "key": "t_address",
        "label": "mapping(address => mapping(address => bool))",
        "numberOfBytes": "32",
        "value": "t_mapping(t_address,t_bool)"
      },
      "t_mapping(t_address,t_struct(AddressData)12124_storage)": {
        "encoding": "mapping",
        "key": "t_address",
        "label": "mapping(address => struct ERC721AUpgradeable.AddressData)",
        "numberOfBytes": "32",
        "value": "t_struct(AddressData)12124_storage"
      },
      "t_mapping(t_address,t_uint256)": {
        "encoding": "mapping",
        "key": "t_address",
        "label": "mapping(address => uint256)",
        "numberOfBytes": "32",
        "value": "t_uint256"
      },
      "t_mapping(t_bytes32,t_struct(AddressSet)4737_storage)": {
        "encoding": "mapping",
        "key": "t_bytes32",
        "label": "mapping(bytes32 => struct EnumerableSetUpgradeable.AddressSet)",
        "numberOfBytes": "32",
        "value": "t_struct(AddressSet)4737_storage"
      },
      "t_mapping(t_bytes32,t_struct(RoleData)268_storage)": {
        "encoding": "mapping",
        "key": "t_bytes32",
        "label": "mapping(bytes32 => struct AccessControlUpgradeable.RoleData)",
        "numberOfBytes": "32",
        "value": "t_struct(RoleData)268_storage"
      },
      "t_mapping(t_bytes32,t_uint256)": {
        "encoding": "mapping",
        "key": "t_bytes32",
        "label": "mapping(bytes32 => uint256)",
        "numberOfBytes": "32",
        "value": "t_uint256"
      },
      "t_mapping(t_uint256,t_address)": {
        "encoding": "mapping",
        "key": "t_uint256",
        "label": "mapping(uint256 => address)",
        "numberOfBytes": "32",
        "value": "t_address"
      },
      "t_mapping(t_uint256,t_struct(RoyaltyInfo)2800_storage)": {
        "encoding": "mapping",
        "key": "t_uint256",
        "label": "mapping(uint256 => struct ERC2981Upgradeable.RoyaltyInfo)",
        "numberOfBytes": "32",
        "value": "t_struct(RoyaltyInfo)2800_storage"
      },
      "t_mapping(t_uint256,t_struct(TokenOwnership)12115_storage)": {
        "encoding": "mapping",
        "key": "t_uint256",
        "label": "mapping(uint256 => struct ERC721AUpgradeable.TokenOwnership)",
        "numberOfBytes": "32",
        "value": "t_struct(TokenOwnership)12115_storage"
      },
      "t_string_storage": {
        "encoding": "bytes",
        "label": "string",
        "numberOfBytes": "32"
      },
      "t_struct(AddressData)12124_storage": {
        "encoding": "inplace",
        "label": "struct ERC721AUpgradeable.AddressData",
        "members": [
          {
            "astId": 12117,
            "contract": "contracts/FlatLaunchpeg.sol:FlatLaunchpeg",
            "label": "balance",
            "offset": 0,
            "slot": "0",
            "type": "t_uint64"
          },
          {
            "astId": 12119,
            "contract": "contracts/FlatLaunchpeg.sol:FlatLaunchpeg",
            "label": "numberMinted",
            "offset": 8,
            "slot": "0",
            "type": "t_uint64"
          },
          {
            "astId": 12121,
            "contract": "contracts/FlatLaunchpeg.sol:FlatLaunchpeg",
            "label": "numberBurned",
            "offset": 16,
            "slot": "0",
            "type": "t_uint64"
          },
          {
            "astId": 12123,
            "contract": "contracts/FlatLaunchpeg.sol:FlatLaunchpeg",
            "label": "aux",
            "offset": 24,
            "slot": "0",
            "type": "t_uint64"
          }
        ],
        "numberOfBytes": "32"
      },
      "t_struct(AddressSet)4737_storage": {
        "encoding": "inplace",
        "label": "struct EnumerableSetUpgradeable.AddressSet",
        "members": [
          {
            "astId": 4736,
            "contract": "contracts/FlatLaunchpeg.sol:FlatLaunchpeg",
            "label": "_inner",
            "offset": 0,
            "slot": "0",
            "type": "t_struct(Set)4422_storage"
          }
        ],
        "numberOfBytes": "64"
      },
      "t_struct(PreMintData)6359_storage": {
        "encoding": "inplace",
        "label": "struct BaseLaunchpeg.PreMintData",
        "members": [
          {
            "astId": 6356,
            "contract": "contracts/FlatLaunchpeg.sol:FlatLaunchpeg",
            "label": "sender",
            "offset": 0,
            "slot": "0",
            "type": "t_address"
          },
          {
            "astId": 6358,
            "contract": "contracts/FlatLaunchpeg.sol:FlatLaunchpeg",
            "label": "quantity",
            "offset": 20,
            "slot": "0",
            "type": "t_uint96"
          }
        ],
        "numberOfBytes": "32"
      },
      "t_struct(PreMintDataSet)6368_storage": {
        "encoding": "inplace",
        "label": "struct BaseLaunchpeg.PreMintDataSet",
        "members": [
          {
            "astId": 6363,
            "contract": "contracts/FlatLaunchpeg.sol:FlatLaunchpeg",
            "label": "preMintDataArr",
            "offset": 0,
            "slot": "0",
            "type": "t_array(t_struct(PreMintData)6359_storage)dyn_storage"
          },
          {
            "astId": 6367,
            "contract": "contracts/FlatLaunchpeg.sol:FlatLaunchpeg",
            "label": "indexes",
            "offset": 0,
            "slot": "1",
            "type": "t_mapping(t_address,t_uint256)"
          }
        ],
        "numberOfBytes": "64"
      },
      "t_struct(RoleData)268_storage": {
        "encoding": "inplace",
        "label": "struct AccessControlUpgradeable.RoleData",
        "members": [
          {
            "astId": 265,
            "contract": "contracts/FlatLaunchpeg.sol:FlatLaunchpeg",
            "label": "members",
            "offset": 0,
            "slot": "0",
            "type": "t_mapping(t_address,t_bool)"
          },
          {
            "astId": 267,
            "contract": "contracts/FlatLaunchpeg.sol:FlatLaunchpeg",
            "label": "adminRole",
            "offset": 0,
            "slot": "1",
            "type": "t_bytes32"
          }
        ],
        "numberOfBytes": "64"
      },
      "t_struct(RoyaltyInfo)2800_storage": {
        "encoding": "inplace",
        "label": "struct ERC2981Upgradeable.RoyaltyInfo",
        "members": [
          {
            "astId": 2797,
            "contract": "contracts/FlatLaunchpeg.sol:FlatLaunchpeg",
            "label": "receiver",
            "offset": 0,
            "slot": "0",
            "type": "t_address"
          },
          {
            "astId": 2799,
            "contract": "contracts/FlatLaunchpeg.sol:FlatLaunchpeg",
            "label": "royaltyFraction",
            "offset": 20,
            "slot": "0",
            "type": "t_uint96"
          }
        ],
        "numberOfBytes": "32"
      },
      "t_struct(Set)4422_storage": {
        "encoding": "inplace",
        "label": "struct EnumerableSetUpgradeable.Set",
        "members": [
          {
            "astId": 4417,
            "contract": "contracts/FlatLaunchpeg.sol:FlatLaunchpeg",
            "label": "_values",
            "offset": 0,
            "slot": "0",
            "type": "t_array(t_bytes32)dyn_storage"
          },
          {
            "astId": 4421,
            "contract": "contracts/FlatLaunchpeg.sol:FlatLaunchpeg",
            "label": "_indexes",
            "offset": 0,
            "slot": "1",
            "type": "t_mapping(t_bytes32,t_uint256)"
          }
        ],
        "numberOfBytes": "64"
      },
      "t_struct(TokenOwnership)12115_storage": {
        "encoding": "inplace",
        "label": "struct ERC721AUpgradeable.TokenOwnership",
        "members": [
          {
            "astId": 12110,
            "contract": "contracts/FlatLaunchpeg.sol:FlatLaunchpeg",
            "label": "addr",
            "offset": 0,
            "slot": "0",
            "type": "t_address"
          },
          {
            "astId": 12112,
            "contract": "contracts/FlatLaunchpeg.sol:FlatLaunchpeg",
            "label": "startTimestamp",
            "offset": 20,
            "slot": "0",
            "type": "t_uint64"
          },
          {
            "astId": 12114,
            "contract": "contracts/FlatLaunchpeg.sol:FlatLaunchpeg",
            "label": "burned",
            "offset": 28,
            "slot": "0",
            "type": "t_bool"
          }
        ],
        "numberOfBytes": "32"
      },
      "t_uint256": {
        "encoding": "inplace",
        "label": "uint256",
        "numberOfBytes": "32"
      },
      "t_uint64": {
        "encoding": "inplace",
        "label": "uint64",
        "numberOfBytes": "8"
      },
      "t_uint8": {
        "encoding": "inplace",
        "label": "uint8",
        "numberOfBytes": "1"
      },
      "t_uint96": {
        "encoding": "inplace",
        "label": "uint96",
        "numberOfBytes": "12"
      }
    }
  }
}