{
  "address": "0xE2197382f9dD8E3fD274ffaDa2b4Cf862839E15C",
  "abi": [
    {
      "inputs": [
        {
          "internalType": "contract ILaunchpegFactory",
          "name": "_launchpegFactoryV1",
          "type": "address"
        },
        {
          "internalType": "contract ILaunchpegFactory",
          "name": "_launchpegFactoryV2",
          "type": "address"
        },
        {
          "internalType": "address",
          "name": "_batchReveal",
          "type": "address"
        }
      ],
      "stateMutability": "nonpayable",
      "type": "constructor"
    },
    {
      "inputs": [],
      "name": "LaunchpegLens__InvalidContract",
      "type": "error"
    },
    {
      "inputs": [],
      "name": "LaunchpegLens__InvalidLaunchpegType",
      "type": "error"
    },
    {
      "inputs": [],
      "name": "LaunchpegLens__InvalidLaunchpegVersion",
      "type": "error"
    },
    {
      "inputs": [],
      "name": "batchReveal",
      "outputs": [
        {
          "internalType": "address",
          "name": "",
          "type": "address"
        }
      ],
      "stateMutability": "view",
      "type": "function"
    },
    {
      "inputs": [
        {
          "internalType": "address",
          "name": "_launchpeg",
          "type": "address"
        },
        {
          "internalType": "address",
          "name": "_user",
          "type": "address"
        }
      ],
      "name": "getLaunchpegData",
      "outputs": [
        {
          "components": [
            {
              "internalType": "address",
              "name": "id",
              "type": "address"
            },
            {
              "internalType": "enum LaunchpegLens.LaunchpegType",
              "name": "launchType",
              "type": "uint8"
            },
            {
              "components": [
                {
                  "internalType": "string",
                  "name": "name",
                  "type": "string"
                },
                {
                  "internalType": "string",
                  "name": "symbol",
                  "type": "string"
                },
                {
                  "internalType": "uint256",
                  "name": "collectionSize",
                  "type": "uint256"
                },
                {
                  "internalType": "uint256",
                  "name": "maxPerAddressDuringMint",
                  "type": "uint256"
                },
                {
                  "internalType": "uint256",
                  "name": "totalSupply",
                  "type": "uint256"
                },
                {
                  "internalType": "string",
                  "name": "unrevealedURI",
                  "type": "string"
                },
                {
                  "internalType": "string",
                  "name": "baseURI",
                  "type": "string"
                }
              ],
              "internalType": "struct LaunchpegLens.CollectionData",
              "name": "collectionData",
              "type": "tuple"
            },
            {
              "components": [
                {
                  "internalType": "enum IBaseLaunchpeg.Phase",
                  "name": "currentPhase",
                  "type": "uint8"
                },
                {
                  "internalType": "uint256",
                  "name": "amountForAuction",
                  "type": "uint256"
                },
                {
                  "internalType": "uint256",
                  "name": "amountForAllowlist",
                  "type": "uint256"
                },
                {
                  "internalType": "uint256",
                  "name": "amountForDevs",
                  "type": "uint256"
                },
                {
                  "internalType": "uint256",
                  "name": "auctionSaleStartTime",
                  "type": "uint256"
                },
                {
                  "internalType": "uint256",
                  "name": "preMintStartTime",
                  "type": "uint256"
                },
                {
                  "internalType": "uint256",
                  "name": "allowlistStartTime",
                  "type": "uint256"
                },
                {
                  "internalType": "uint256",
                  "name": "publicSaleStartTime",
                  "type": "uint256"
                },
                {
                  "internalType": "uint256",
                  "name": "publicSaleEndTime",
                  "type": "uint256"
                },
                {
                  "internalType": "uint256",
                  "name": "auctionStartPrice",
                  "type": "uint256"
                },
                {
                  "internalType": "uint256",
                  "name": "auctionEndPrice",
                  "type": "uint256"
                },
                {
                  "internalType": "uint256",
                  "name": "auctionSaleDuration",
                  "type": "uint256"
                },
                {
                  "internalType": "uint256",
                  "name": "auctionDropInterval",
                  "type": "uint256"
                },
                {
                  "internalType": "uint256",
                  "name": "auctionDropPerStep",
                  "type": "uint256"
                },
                {
                  "internalType": "uint256",
                  "name": "allowlistDiscountPercent",
                  "type": "uint256"
                },
                {
                  "internalType": "uint256",
                  "name": "publicSaleDiscountPercent",
                  "type": "uint256"
                },
                {
                  "internalType": "uint256",
                  "name": "auctionPrice",
                  "type": "uint256"
                },
                {
                  "internalType": "uint256",
                  "name": "allowlistPrice",
                  "type": "uint256"
                },
                {
                  "internalType": "uint256",
                  "name": "publicSalePrice",
                  "type": "uint256"
                },
                {
                  "internalType": "uint256",
                  "name": "lastAuctionPrice",
                  "type": "uint256"
                },
                {
                  "internalType": "uint256",
                  "name": "amountMintedDuringAuction",
                  "type": "uint256"
                },
                {
                  "internalType": "uint256",
                  "name": "amountMintedDuringPreMint",
                  "type": "uint256"
                },
                {
                  "internalType": "uint256",
                  "name": "amountMintedDuringAllowlist",
                  "type": "uint256"
                },
                {
                  "internalType": "uint256",
                  "name": "amountMintedDuringPublicSale",
                  "type": "uint256"
                }
              ],
              "internalType": "struct LaunchpegLens.LaunchpegData",
              "name": "launchpegData",
              "type": "tuple"
            },
            {
              "components": [
                {
                  "internalType": "enum IBaseLaunchpeg.Phase",
                  "name": "currentPhase",
                  "type": "uint8"
                },
                {
                  "internalType": "uint256",
                  "name": "amountForAllowlist",
                  "type": "uint256"
                },
                {
                  "internalType": "uint256",
                  "name": "amountForDevs",
                  "type": "uint256"
                },
                {
                  "internalType": "uint256",
                  "name": "preMintStartTime",
                  "type": "uint256"
                },
                {
                  "internalType": "uint256",
                  "name": "allowlistStartTime",
                  "type": "uint256"
                },
                {
                  "internalType": "uint256",
                  "name": "publicSaleStartTime",
                  "type": "uint256"
                },
                {
                  "internalType": "uint256",
                  "name": "publicSaleEndTime",
                  "type": "uint256"
                },
                {
                  "internalType": "uint256",
                  "name": "allowlistPrice",
                  "type": "uint256"
                },
                {
                  "internalType": "uint256",
                  "name": "salePrice",
                  "type": "uint256"
                },
                {
                  "internalType": "uint256",
                  "name": "amountMintedDuringPreMint",
                  "type": "uint256"
                },
                {
                  "internalType": "uint256",
                  "name": "amountMintedDuringAllowlist",
                  "type": "uint256"
                },
                {
                  "internalType": "uint256",
                  "name": "amountMintedDuringPublicSale",
                  "type": "uint256"
                }
              ],
              "internalType": "struct LaunchpegLens.FlatLaunchpegData",
              "name": "flatLaunchpegData",
              "type": "tuple"
            },
            {
              "components": [
                {
                  "internalType": "uint256",
                  "name": "revealBatchSize",
                  "type": "uint256"
                },
                {
                  "internalType": "uint256",
                  "name": "lastTokenRevealed",
                  "type": "uint256"
                },
                {
                  "internalType": "uint256",
                  "name": "revealStartTime",
                  "type": "uint256"
                },
                {
                  "internalType": "uint256",
                  "name": "revealInterval",
                  "type": "uint256"
                }
              ],
              "internalType": "struct LaunchpegLens.RevealData",
              "name": "revealData",
              "type": "tuple"
            },
            {
              "components": [
                {
                  "internalType": "uint256",
                  "name": "balanceOf",
                  "type": "uint256"
                },
                {
                  "internalType": "uint256",
                  "name": "numberMinted",
                  "type": "uint256"
                },
                {
                  "internalType": "uint256",
                  "name": "numberMintedWithPreMint",
                  "type": "uint256"
                },
                {
                  "internalType": "uint256",
                  "name": "allowanceForAllowlistMint",
                  "type": "uint256"
                }
              ],
              "internalType": "struct LaunchpegLens.UserData",
              "name": "userData",
              "type": "tuple"
            },
            {
              "components": [
                {
                  "internalType": "address[]",
                  "name": "projectOwners",
                  "type": "address[]"
                },
                {
                  "internalType": "uint256",
                  "name": "amountMintedByDevs",
                  "type": "uint256"
                },
                {
                  "internalType": "uint256",
                  "name": "withdrawAVAXStartTime",
                  "type": "uint256"
                },
                {
                  "internalType": "uint256",
                  "name": "launchpegBalanceAVAX",
                  "type": "uint256"
                }
              ],
              "internalType": "struct LaunchpegLens.ProjectOwnerData",
              "name": "projectOwnerData",
              "type": "tuple"
            }
          ],
          "internalType": "struct LaunchpegLens.LensData",
          "name": "",
          "type": "tuple"
        }
      ],
      "stateMutability": "view",
      "type": "function"
    },
    {
      "inputs": [
        {
          "internalType": "address",
          "name": "_contract",
          "type": "address"
        }
      ],
      "name": "getLaunchpegType",
      "outputs": [
        {
          "internalType": "enum LaunchpegLens.LaunchpegType",
          "name": "",
          "type": "uint8"
        },
        {
          "internalType": "enum LaunchpegLens.LaunchpegVersion",
          "name": "",
          "type": "uint8"
        }
      ],
      "stateMutability": "view",
      "type": "function"
    },
    {
      "inputs": [
        {
          "internalType": "enum LaunchpegLens.LaunchpegType",
          "name": "_type",
          "type": "uint8"
        },
        {
          "internalType": "enum LaunchpegLens.LaunchpegVersion",
          "name": "_version",
          "type": "uint8"
        },
        {
          "internalType": "uint256",
          "name": "_number",
          "type": "uint256"
        },
        {
          "internalType": "uint256",
          "name": "_limit",
          "type": "uint256"
        },
        {
          "internalType": "address",
          "name": "_user",
          "type": "address"
        }
      ],
      "name": "getLaunchpegsByTypeAndVersion",
      "outputs": [
        {
          "components": [
            {
              "internalType": "address",
              "name": "id",
              "type": "address"
            },
            {
              "internalType": "enum LaunchpegLens.LaunchpegType",
              "name": "launchType",
              "type": "uint8"
            },
            {
              "components": [
                {
                  "internalType": "string",
                  "name": "name",
                  "type": "string"
                },
                {
                  "internalType": "string",
                  "name": "symbol",
                  "type": "string"
                },
                {
                  "internalType": "uint256",
                  "name": "collectionSize",
                  "type": "uint256"
                },
                {
                  "internalType": "uint256",
                  "name": "maxPerAddressDuringMint",
                  "type": "uint256"
                },
                {
                  "internalType": "uint256",
                  "name": "totalSupply",
                  "type": "uint256"
                },
                {
                  "internalType": "string",
                  "name": "unrevealedURI",
                  "type": "string"
                },
                {
                  "internalType": "string",
                  "name": "baseURI",
                  "type": "string"
                }
              ],
              "internalType": "struct LaunchpegLens.CollectionData",
              "name": "collectionData",
              "type": "tuple"
            },
            {
              "components": [
                {
                  "internalType": "enum IBaseLaunchpeg.Phase",
                  "name": "currentPhase",
                  "type": "uint8"
                },
                {
                  "internalType": "uint256",
                  "name": "amountForAuction",
                  "type": "uint256"
                },
                {
                  "internalType": "uint256",
                  "name": "amountForAllowlist",
                  "type": "uint256"
                },
                {
                  "internalType": "uint256",
                  "name": "amountForDevs",
                  "type": "uint256"
                },
                {
                  "internalType": "uint256",
                  "name": "auctionSaleStartTime",
                  "type": "uint256"
                },
                {
                  "internalType": "uint256",
                  "name": "preMintStartTime",
                  "type": "uint256"
                },
                {
                  "internalType": "uint256",
                  "name": "allowlistStartTime",
                  "type": "uint256"
                },
                {
                  "internalType": "uint256",
                  "name": "publicSaleStartTime",
                  "type": "uint256"
                },
                {
                  "internalType": "uint256",
                  "name": "publicSaleEndTime",
                  "type": "uint256"
                },
                {
                  "internalType": "uint256",
                  "name": "auctionStartPrice",
                  "type": "uint256"
                },
                {
                  "internalType": "uint256",
                  "name": "auctionEndPrice",
                  "type": "uint256"
                },
                {
                  "internalType": "uint256",
                  "name": "auctionSaleDuration",
                  "type": "uint256"
                },
                {
                  "internalType": "uint256",
                  "name": "auctionDropInterval",
                  "type": "uint256"
                },
                {
                  "internalType": "uint256",
                  "name": "auctionDropPerStep",
                  "type": "uint256"
                },
                {
                  "internalType": "uint256",
                  "name": "allowlistDiscountPercent",
                  "type": "uint256"
                },
                {
                  "internalType": "uint256",
                  "name": "publicSaleDiscountPercent",
                  "type": "uint256"
                },
                {
                  "internalType": "uint256",
                  "name": "auctionPrice",
                  "type": "uint256"
                },
                {
                  "internalType": "uint256",
                  "name": "allowlistPrice",
                  "type": "uint256"
                },
                {
                  "internalType": "uint256",
                  "name": "publicSalePrice",
                  "type": "uint256"
                },
                {
                  "internalType": "uint256",
                  "name": "lastAuctionPrice",
                  "type": "uint256"
                },
                {
                  "internalType": "uint256",
                  "name": "amountMintedDuringAuction",
                  "type": "uint256"
                },
                {
                  "internalType": "uint256",
                  "name": "amountMintedDuringPreMint",
                  "type": "uint256"
                },
                {
                  "internalType": "uint256",
                  "name": "amountMintedDuringAllowlist",
                  "type": "uint256"
                },
                {
                  "internalType": "uint256",
                  "name": "amountMintedDuringPublicSale",
                  "type": "uint256"
                }
              ],
              "internalType": "struct LaunchpegLens.LaunchpegData",
              "name": "launchpegData",
              "type": "tuple"
            },
            {
              "components": [
                {
                  "internalType": "enum IBaseLaunchpeg.Phase",
                  "name": "currentPhase",
                  "type": "uint8"
                },
                {
                  "internalType": "uint256",
                  "name": "amountForAllowlist",
                  "type": "uint256"
                },
                {
                  "internalType": "uint256",
                  "name": "amountForDevs",
                  "type": "uint256"
                },
                {
                  "internalType": "uint256",
                  "name": "preMintStartTime",
                  "type": "uint256"
                },
                {
                  "internalType": "uint256",
                  "name": "allowlistStartTime",
                  "type": "uint256"
                },
                {
                  "internalType": "uint256",
                  "name": "publicSaleStartTime",
                  "type": "uint256"
                },
                {
                  "internalType": "uint256",
                  "name": "publicSaleEndTime",
                  "type": "uint256"
                },
                {
                  "internalType": "uint256",
                  "name": "allowlistPrice",
                  "type": "uint256"
                },
                {
                  "internalType": "uint256",
                  "name": "salePrice",
                  "type": "uint256"
                },
                {
                  "internalType": "uint256",
                  "name": "amountMintedDuringPreMint",
                  "type": "uint256"
                },
                {
                  "internalType": "uint256",
                  "name": "amountMintedDuringAllowlist",
                  "type": "uint256"
                },
                {
                  "internalType": "uint256",
                  "name": "amountMintedDuringPublicSale",
                  "type": "uint256"
                }
              ],
              "internalType": "struct LaunchpegLens.FlatLaunchpegData",
              "name": "flatLaunchpegData",
              "type": "tuple"
            },
            {
              "components": [
                {
                  "internalType": "uint256",
                  "name": "revealBatchSize",
                  "type": "uint256"
                },
                {
                  "internalType": "uint256",
                  "name": "lastTokenRevealed",
                  "type": "uint256"
                },
                {
                  "internalType": "uint256",
                  "name": "revealStartTime",
                  "type": "uint256"
                },
                {
                  "internalType": "uint256",
                  "name": "revealInterval",
                  "type": "uint256"
                }
              ],
              "internalType": "struct LaunchpegLens.RevealData",
              "name": "revealData",
              "type": "tuple"
            },
            {
              "components": [
                {
                  "internalType": "uint256",
                  "name": "balanceOf",
                  "type": "uint256"
                },
                {
                  "internalType": "uint256",
                  "name": "numberMinted",
                  "type": "uint256"
                },
                {
                  "internalType": "uint256",
                  "name": "numberMintedWithPreMint",
                  "type": "uint256"
                },
                {
                  "internalType": "uint256",
                  "name": "allowanceForAllowlistMint",
                  "type": "uint256"
                }
              ],
              "internalType": "struct LaunchpegLens.UserData",
              "name": "userData",
              "type": "tuple"
            },
            {
              "components": [
                {
                  "internalType": "address[]",
                  "name": "projectOwners",
                  "type": "address[]"
                },
                {
                  "internalType": "uint256",
                  "name": "amountMintedByDevs",
                  "type": "uint256"
                },
                {
                  "internalType": "uint256",
                  "name": "withdrawAVAXStartTime",
                  "type": "uint256"
                },
                {
                  "internalType": "uint256",
                  "name": "launchpegBalanceAVAX",
                  "type": "uint256"
                }
              ],
              "internalType": "struct LaunchpegLens.ProjectOwnerData",
              "name": "projectOwnerData",
              "type": "tuple"
            }
          ],
          "internalType": "struct LaunchpegLens.LensData[]",
          "name": "",
          "type": "tuple[]"
        }
      ],
      "stateMutability": "view",
      "type": "function"
    },
    {
      "inputs": [],
      "name": "launchpegFactoryV1",
      "outputs": [
        {
          "internalType": "contract ILaunchpegFactory",
          "name": "",
          "type": "address"
        }
      ],
      "stateMutability": "view",
      "type": "function"
    },
    {
      "inputs": [],
      "name": "launchpegFactoryV2",
      "outputs": [
        {
          "internalType": "contract ILaunchpegFactory",
          "name": "",
          "type": "address"
        }
      ],
      "stateMutability": "view",
      "type": "function"
    }
  ],
  "transactionHash": "0x1811106b0b6b817ee4beeed33ae42b6dac6ee143bb999db3d651750cdf90d843",
  "args": [
    "0xdB40a7b71642FE24CC546bdF4749Aa3c0B042f78",
    "0x0d22EF1C5372677c8680fb485c6A1Ce43eA58eaF",
    "0x55Be138160b53e0D1130fb33556ae360fD625bDe"
  ],
  "numDeployments": 10,
  "solcInputHash": "01e2e6342c96f1200dc578ed1e7d4da2",
  "bytecode": "0x60e06040523480156200001157600080fd5b506040516200342b3803806200342b83398101604081905262000034916200005c565b6001600160601b0319606093841b811660805291831b821660a05290911b1660c052620000c9565b6000806000606084860312156200007257600080fd5b83516200007f81620000b0565b60208501519093506200009281620000b0565b6040850151909250620000a581620000b0565b809150509250925092565b6001600160a01b0381168114620000c657600080fd5b50565b60805160601c60a05160601c60c05160601c6132f462000137600039600081816095015281816110a6015261115901526000818160d4015281816101e30152818161052d015261068f01526000818160fb015281816102090152818161047d01526105de01526132f46000f3fe608060405234801561001057600080fd5b50600436106100625760003560e01c806304fa66ba1461006757806321cc161114610090578063522ea9bc146100cf57806354dbc616146100f6578063a6a7b3ea1461011d578063d0b54b3b1461013e575b600080fd5b61007a610075366004612bf6565b61015e565b6040516100879190613111565b60405180910390f35b6100b77f000000000000000000000000000000000000000000000000000000000000000081565b6040516001600160a01b039091168152602001610087565b6100b77f000000000000000000000000000000000000000000000000000000000000000081565b6100b77f000000000000000000000000000000000000000000000000000000000000000081565b61013061012b366004612b48565b610451565b604051610087929190613173565b61015161014c366004612b82565b610724565b6040516100879190613199565b6060600086600281111561017457610174613247565b14156101935760405163883ee45160e01b815260040160405180910390fd5b60008560028111156101a7576101a7613247565b14156101c6576040516305fdabfd60e41b815260040160405180910390fd5b600060018660028111156101dc576101dc613247565b14610207577f0000000000000000000000000000000000000000000000000000000000000000610229565b7f00000000000000000000000000000000000000000000000000000000000000005b90506000600188600281111561024157610241613247565b61024b91906131c3565b60ff1690506000826001600160a01b031663776f1b1c836040518263ffffffff1660e01b815260040161028091815260200190565b60206040518083038186803b15801561029857600080fd5b505afa1580156102ac573d6000803e3d6000fd5b505050506040513d601f19601f820116820180604052508101906102d09190612bdd565b905060008187116102e157866102e3565b815b905060008189116102fd576102f889836131ac565b610300565b60005b9050606061030e82846131ac565b67ffffffffffffffff81111561032657610326613273565b60405190808252806020026020018201604052801561035f57816020015b61034c612926565b8152602001906001900390816103445790505b50905060005b8151811015610441576104116001600160a01b03881663306ec748888461038d60018a6131ac565b61039791906131ac565b6040516001600160e01b031960e085901b1681526004810192909252602482015260440160206040518083038186803b1580156103d357600080fd5b505afa1580156103e7573d6000803e3d6000fd5b505050506040513d601f19601f8201168201806040525081019061040b9190612b65565b8a610724565b8282815181106104235761042361325d565b6020026020010181905250808061043990613216565b915050610365565b509b9a5050505050505050505050565b60405163abcc761760e01b81526000600482018190526001600160a01b038381166024840152909182917f0000000000000000000000000000000000000000000000000000000000000000169063abcc76179060440160206040518083038186803b1580156104bf57600080fd5b505afa1580156104d3573d6000803e3d6000fd5b505050506040513d601f19601f820116820180604052508101906104f79190612bbb565b1561050757506001928392509050565b60405163abcc761760e01b8152600060048201526001600160a01b0384811660248301527f0000000000000000000000000000000000000000000000000000000000000000169063abcc76179060440160206040518083038186803b15801561056f57600080fd5b505afa158015610583573d6000803e3d6000fd5b505050506040513d601f19601f820116820180604052508101906105a79190612bbb565b156105b85750600192600292509050565b60405163abcc761760e01b8152600160048201526001600160a01b0384811660248301527f0000000000000000000000000000000000000000000000000000000000000000169063abcc76179060440160206040518083038186803b15801561062057600080fd5b505afa158015610634573d6000803e3d6000fd5b505050506040513d601f19601f820116820180604052508101906106589190612bbb565b156106695750600292600192509050565b60405163abcc761760e01b8152600160048201526001600160a01b0384811660248301527f0000000000000000000000000000000000000000000000000000000000000000169063abcc76179060440160206040518083038186803b1580156106d157600080fd5b505afa1580156106e5573d6000803e3d6000fd5b505050506040513d601f19601f820116820180604052508101906107099190612bbb565b1561071957506002928392509050565b506000928392509050565b61072c612926565b60008061073885610451565b9092509050600082600281111561075157610751613247565b141561077057604051630ca92ff360e31b815260040160405180910390fd5b610778612926565b6001600160a01b03861681526020810183600281111561079a5761079a613247565b908160028111156107ad576107ad613247565b9052506107b986610857565b60408201526107c88683610bfb565b60e08201526107d78683610e32565b60a08201526107e78683876111e5565b60c082015260018160200151600281111561080457610804613247565b141561081e576108148683611436565b606082015261084c565b60028160200151600281111561083657610836613247565b141561084c576108468683612118565b60808201525b925050505b92915050565b6108976040518060e00160405280606081526020016060815260200160008152602001600081526020016000815260200160608152602001606081525090565b816001600160a01b03166306fdde036040518163ffffffff1660e01b815260040160006040518083038186803b1580156108d057600080fd5b505afa1580156108e4573d6000803e3d6000fd5b505050506040513d6000823e601f3d908101601f1916820160405261090c9190810190612c76565b8160000181905250816001600160a01b03166395d89b416040518163ffffffff1660e01b815260040160006040518083038186803b15801561094d57600080fd5b505afa158015610961573d6000803e3d6000fd5b505050506040513d6000823e601f3d908101601f191682016040526109899190810190612c76565b8160200181905250816001600160a01b03166345c0f5336040518163ffffffff1660e01b815260040160206040518083038186803b1580156109ca57600080fd5b505afa1580156109de573d6000803e3d6000fd5b505050506040513d601f19601f82011682018060405250810190610a029190612bdd565b816040018181525050816001600160a01b0316638bc35c2f6040518163ffffffff1660e01b815260040160206040518083038186803b158015610a4457600080fd5b505afa158015610a58573d6000803e3d6000fd5b505050506040513d601f19601f82011682018060405250810190610a7c9190612bdd565b816060018181525050816001600160a01b03166318160ddd6040518163ffffffff1660e01b815260040160206040518083038186803b158015610abe57600080fd5b505afa158015610ad2573d6000803e3d6000fd5b505050506040513d601f19601f82011682018060405250810190610af69190612bdd565b816080018181525050816001600160a01b0316637035bf186040518163ffffffff1660e01b815260040160006040518083038186803b158015610b3857600080fd5b505afa158015610b4c573d6000803e3d6000fd5b505050506040513d6000823e601f3d908101601f19168201604052610b749190810190612c76565b8160a00181905250816001600160a01b0316636c0360eb6040518163ffffffff1660e01b815260040160006040518083038186803b158015610bb557600080fd5b505afa158015610bc9573d6000803e3d6000fd5b505050506040513d6000823e601f3d908101601f19168201604052610bf19190810190612c76565b60c0820152919050565b610c266040518060800160405280606081526020016000815260200160008152602001600081525090565b826001600160a01b0316635c7034af6040518163ffffffff1660e01b815260040160206040518083038186803b158015610c5f57600080fd5b505afa158015610c73573d6000803e3d6000fd5b505050506040513d601f19601f82011682018060405250810190610c979190612bdd565b60208201526001600160a01b0383163160608201526001826002811115610cc057610cc0613247565b1415610d8b5760408051600180825281830190925260009160208083019080368337019050509050836001600160a01b031663a4475ce46040518163ffffffff1660e01b815260040160206040518083038186803b158015610d2157600080fd5b505afa158015610d35573d6000803e3d6000fd5b505050506040513d601f19601f82011682018060405250810190610d599190612b65565b81600081518110610d6c57610d6c61325d565b6001600160a01b03909216602092830291909101909101528152610851565b6002826002811115610d9f57610d9f613247565b141561085157610dae8361271b565b8160000181905250826001600160a01b031663c792e1676040518163ffffffff1660e01b815260040160206040518083038186803b158015610def57600080fd5b505afa158015610e03573d6000803e3d6000fd5b505050506040513d601f19601f82011682018060405250810190610e279190612bdd565b604082015292915050565b610e5d6040518060800160405280600081526020016000815260200160008152602001600081525090565b6001826002811115610e7157610e71613247565b1415611066576000839050806001600160a01b0316630b5648106040518163ffffffff1660e01b815260040160206040518083038186803b158015610eb557600080fd5b505afa158015610ec9573d6000803e3d6000fd5b505050506040513d601f19601f82011682018060405250810190610eed9190612bdd565b826000018181525050806001600160a01b031663cc0bef846040518163ffffffff1660e01b815260040160206040518083038186803b158015610f2f57600080fd5b505afa158015610f43573d6000803e3d6000fd5b505050506040513d601f19601f82011682018060405250810190610f679190612bdd565b826040018181525050806001600160a01b031663247cd8ad6040518163ffffffff1660e01b815260040160206040518083038186803b158015610fa957600080fd5b505afa158015610fbd573d6000803e3d6000fd5b505050506040513d601f19601f82011682018060405250810190610fe19190612bdd565b826060018181525050806001600160a01b031663f43191956040518163ffffffff1660e01b815260040160206040518083038186803b15801561102357600080fd5b505afa158015611037573d6000803e3d6000fd5b505050506040513d601f19601f8201168201806040525081019061105b9190612bdd565b602083015250610851565b600282600281111561107a5761107a613247565b141561085157604051630303a4b160e31b81526001600160a01b038481166004830152600091829182917f00000000000000000000000000000000000000000000000000000000000000009091169063181d25889060240160a06040518083038186803b1580156110ea57600080fd5b505afa1580156110fe573d6000803e3d6000fd5b505050506040513d601f19601f820116820180604052508101906111229190612d23565b8289526040808a0183905260608a0182905251635e1578db60e11b81526001600160a01b038c8116600483015293985091965094507f0000000000000000000000000000000000000000000000000000000000000000909116925063bc2af1b6915060240160206040518083038186803b15801561119f57600080fd5b505afa1580156111b3573d6000803e3d6000fd5b505050506040513d601f19601f820116820180604052508101906111d79190612bdd565b602085015250505092915050565b6112106040518060800160405280600081526020016000815260200160008152602001600081525090565b6001600160a01b0382161561142f576040516370a0823160e01b81526001600160a01b0383811660048301528516906370a082319060240160206040518083038186803b15801561126057600080fd5b505afa158015611274573d6000803e3d6000fd5b505050506040513d601f19601f820116820180604052508101906112989190612bdd565b815260405163dc33e68160e01b81526001600160a01b03838116600483015285169063dc33e6819060240160206040518083038186803b1580156112db57600080fd5b505afa1580156112ef573d6000803e3d6000fd5b505050506040513d601f19601f820116820180604052508101906113139190612bdd565b602082015260405163a7cd52cb60e01b81526001600160a01b03838116600483015285169063a7cd52cb9060240160206040518083038186803b15801561135957600080fd5b505afa15801561136d573d6000803e3d6000fd5b505050506040513d601f19601f820116820180604052508101906113919190612bdd565b606082015260028360028111156113aa576113aa613247565b141561142f5760405163aec3922b60e01b81526001600160a01b03838116600483015285169063aec3922b9060240160206040518083038186803b1580156113f157600080fd5b505afa158015611405573d6000803e3d6000fd5b505050506040513d601f19601f820116820180604052508101906114299190612bdd565b60408201525b9392505050565b61143e612a30565b6000839050806001600160a01b031663055ad42e6040518163ffffffff1660e01b815260040160206040518083038186803b15801561147c57600080fd5b505afa158015611490573d6000803e3d6000fd5b505050506040513d601f19601f820116820180604052508101906114b49190612c55565b829060058111156114c7576114c7613247565b908160058111156114da576114da613247565b81525050806001600160a01b031663f7df4c5a6040518163ffffffff1660e01b815260040160206040518083038186803b15801561151757600080fd5b505afa15801561152b573d6000803e3d6000fd5b505050506040513d601f19601f8201168201806040525081019061154f9190612bdd565b826020018181525050806001600160a01b031663d62b63036040518163ffffffff1660e01b815260040160206040518083038186803b15801561159157600080fd5b505afa1580156115a5573d6000803e3d6000fd5b505050506040513d601f19601f820116820180604052508101906115c99190612bdd565b826040018181525050806001600160a01b031663fbe1aa516040518163ffffffff1660e01b815260040160206040518083038186803b15801561160b57600080fd5b505afa15801561161f573d6000803e3d6000fd5b505050506040513d601f19601f820116820180604052508101906116439190612bdd565b826060018181525050806001600160a01b031663fab2bf586040518163ffffffff1660e01b815260040160206040518083038186803b15801561168557600080fd5b505afa158015611699573d6000803e3d6000fd5b505050506040513d601f19601f820116820180604052508101906116bd9190612bdd565b826080018181525050806001600160a01b03166359d7bc4d6040518163ffffffff1660e01b815260040160206040518083038186803b1580156116ff57600080fd5b505afa158015611713573d6000803e3d6000fd5b505050506040513d601f19601f820116820180604052508101906117379190612bdd565b8260c0018181525050806001600160a01b0316636bb7b1d96040518163ffffffff1660e01b815260040160206040518083038186803b15801561177957600080fd5b505afa15801561178d573d6000803e3d6000fd5b505050506040513d601f19601f820116820180604052508101906117b19190612bdd565b8260e0018181525050806001600160a01b031663d756985b6040518163ffffffff1660e01b815260040160206040518083038186803b1580156117f357600080fd5b505afa158015611807573d6000803e3d6000fd5b505050506040513d601f19601f8201168201806040525081019061182b9190612bdd565b82610120018181525050806001600160a01b031663a04a6ac86040518163ffffffff1660e01b815260040160206040518083038186803b15801561186e57600080fd5b505afa158015611882573d6000803e3d6000fd5b505050506040513d601f19601f820116820180604052508101906118a69190612bdd565b82610140018181525050806001600160a01b0316630a212ee26040518163ffffffff1660e01b815260040160206040518083038186803b1580156118e957600080fd5b505afa1580156118fd573d6000803e3d6000fd5b505050506040513d601f19601f820116820180604052508101906119219190612bdd565b82610160018181525050806001600160a01b031663f243669b6040518163ffffffff1660e01b815260040160206040518083038186803b15801561196457600080fd5b505afa158015611978573d6000803e3d6000fd5b505050506040513d601f19601f8201168201806040525081019061199c9190612bdd565b82610180018181525050806001600160a01b031663e6fe34b36040518163ffffffff1660e01b815260040160206040518083038186803b1580156119df57600080fd5b505afa1580156119f3573d6000803e3d6000fd5b505050506040513d601f19601f82011682018060405250810190611a179190612bdd565b826101a0018181525050806001600160a01b031663154895106040518163ffffffff1660e01b815260040160206040518083038186803b158015611a5a57600080fd5b505afa158015611a6e573d6000803e3d6000fd5b505050506040513d601f19601f82011682018060405250810190611a929190612bdd565b826101c0018181525050806001600160a01b03166308a3fb4e6040518163ffffffff1660e01b815260040160206040518083038186803b158015611ad557600080fd5b505afa158015611ae9573d6000803e3d6000fd5b505050506040513d601f19601f82011682018060405250810190611b0d9190612bdd565b6101e083015260808201516040516348be804f60e11b815260048101919091526001600160a01b0382169063917d009e9060240160206040518083038186803b158015611b5957600080fd5b505afa158015611b6d573d6000803e3d6000fd5b505050506040513d601f19601f82011682018060405250810190611b919190612bdd565b82610200018181525050806001600160a01b0316637a18c1fe6040518163ffffffff1660e01b815260040160206040518083038186803b158015611bd457600080fd5b505afa158015611be8573d6000803e3d6000fd5b505050506040513d601f19601f82011682018060405250810190611c0c9190612bdd565b82610260018181525050806001600160a01b031663a54cd7dc6040518163ffffffff1660e01b815260040160206040518083038186803b158015611c4f57600080fd5b505afa158015611c63573d6000803e3d6000fd5b505050506040513d601f19601f82011682018060405250810190611c879190612bdd565b82610280018181525050806001600160a01b0316633cc4cadb6040518163ffffffff1660e01b815260040160206040518083038186803b158015611cca57600080fd5b505afa158015611cde573d6000803e3d6000fd5b505050506040513d601f19601f82011682018060405250810190611d029190612bdd565b826102c0018181525050806001600160a01b031663963331d86040518163ffffffff1660e01b815260040160206040518083038186803b158015611d4557600080fd5b505afa158015611d59573d6000803e3d6000fd5b505050506040513d601f19601f82011682018060405250810190611d7d9190612bdd565b6102e08301526001836002811115611d9757611d97613247565b1415611e9457836001600160a01b0316630b1019e76040518163ffffffff1660e01b815260040160206040518083038186803b158015611dd657600080fd5b505afa158015611dea573d6000803e3d6000fd5b505050506040513d601f19601f82011682018060405250810190611e0e9190612bdd565b82610220018181525050836001600160a01b0316638e8bdd0d6040518163ffffffff1660e01b815260040160206040518083038186803b158015611e5157600080fd5b505afa158015611e65573d6000803e3d6000fd5b505050506040513d601f19601f82011682018060405250810190611e899190612bdd565b610240830152612111565b6002836002811115611ea857611ea8613247565b141561211157806001600160a01b03166390967a526040518163ffffffff1660e01b815260040160206040518083038186803b158015611ee757600080fd5b505afa158015611efb573d6000803e3d6000fd5b505050506040513d601f19601f82011682018060405250810190611f1f9190612bdd565b82610220018181525050806001600160a01b031663f51f96dd6040518163ffffffff1660e01b815260040160206040518083038186803b158015611f6257600080fd5b505afa158015611f76573d6000803e3d6000fd5b505050506040513d601f19601f82011682018060405250810190611f9a9190612bdd565b82610240018181525050806001600160a01b03166362f4fb2d6040518163ffffffff1660e01b815260040160206040518083038186803b158015611fdd57600080fd5b505afa158015611ff1573d6000803e3d6000fd5b505050506040513d601f19601f820116820180604052508101906120159190612bdd565b8260a0018181525050806001600160a01b0316631e4d185f6040518163ffffffff1660e01b815260040160206040518083038186803b15801561205757600080fd5b505afa15801561206b573d6000803e3d6000fd5b505050506040513d601f19601f8201168201806040525081019061208f9190612bdd565b82610100018181525050806001600160a01b0316632e8f1f506040518163ffffffff1660e01b815260040160206040518083038186803b1580156120d257600080fd5b505afa1580156120e6573d6000803e3d6000fd5b505050506040513d601f19601f8201168201806040525081019061210a9190612bdd565b6102a08301525b5092915050565b612120612ae6565b6000839050806001600160a01b031663055ad42e6040518163ffffffff1660e01b815260040160206040518083038186803b15801561215e57600080fd5b505afa158015612172573d6000803e3d6000fd5b505050506040513d601f19601f820116820180604052508101906121969190612c55565b829060058111156121a9576121a9613247565b908160058111156121bc576121bc613247565b81525050806001600160a01b031663d62b63036040518163ffffffff1660e01b815260040160206040518083038186803b1580156121f957600080fd5b505afa15801561220d573d6000803e3d6000fd5b505050506040513d601f19601f820116820180604052508101906122319190612bdd565b826020018181525050806001600160a01b031663fbe1aa516040518163ffffffff1660e01b815260040160206040518083038186803b15801561227357600080fd5b505afa158015612287573d6000803e3d6000fd5b505050506040513d601f19601f820116820180604052508101906122ab9190612bdd565b826040018181525050806001600160a01b03166359d7bc4d6040518163ffffffff1660e01b815260040160206040518083038186803b1580156122ed57600080fd5b505afa158015612301573d6000803e3d6000fd5b505050506040513d601f19601f820116820180604052508101906123259190612bdd565b826080018181525050806001600160a01b0316636bb7b1d96040518163ffffffff1660e01b815260040160206040518083038186803b15801561236757600080fd5b505afa15801561237b573d6000803e3d6000fd5b505050506040513d601f19601f8201168201806040525081019061239f9190612bdd565b8260a0018181525050806001600160a01b03166390967a526040518163ffffffff1660e01b815260040160206040518083038186803b1580156123e157600080fd5b505afa1580156123f5573d6000803e3d6000fd5b505050506040513d601f19601f820116820180604052508101906124199190612bdd565b8260e0018181525050806001600160a01b031663f51f96dd6040518163ffffffff1660e01b815260040160206040518083038186803b15801561245b57600080fd5b505afa15801561246f573d6000803e3d6000fd5b505050506040513d601f19601f820116820180604052508101906124939190612bdd565b82610100018181525050806001600160a01b0316633cc4cadb6040518163ffffffff1660e01b815260040160206040518083038186803b1580156124d657600080fd5b505afa1580156124ea573d6000803e3d6000fd5b505050506040513d601f19601f8201168201806040525081019061250e9190612bdd565b82610140018181525050806001600160a01b031663963331d86040518163ffffffff1660e01b815260040160206040518083038186803b15801561255157600080fd5b505afa158015612565573d6000803e3d6000fd5b505050506040513d601f19601f820116820180604052508101906125899190612bdd565b61016083015260028360028111156125a3576125a3613247565b141561211157806001600160a01b03166362f4fb2d6040518163ffffffff1660e01b815260040160206040518083038186803b1580156125e257600080fd5b505afa1580156125f6573d6000803e3d6000fd5b505050506040513d601f19601f8201168201806040525081019061261a9190612bdd565b826060018181525050806001600160a01b0316631e4d185f6040518163ffffffff1660e01b815260040160206040518083038186803b15801561265c57600080fd5b505afa158015612670573d6000803e3d6000fd5b505050506040513d601f19601f820116820180604052508101906126949190612bdd565b8260c0018181525050806001600160a01b0316632e8f1f506040518163ffffffff1660e01b815260040160206040518083038186803b1580156126d657600080fd5b505afa1580156126ea573d6000803e3d6000fd5b505050506040513d601f19601f8201168201806040525081019061270e9190612bdd565b6101208301525092915050565b60606000826001600160a01b031663be62da0e6040518163ffffffff1660e01b815260040160206040518083038186803b15801561275857600080fd5b505afa15801561276c573d6000803e3d6000fd5b505050506040513d601f19601f820116820180604052508101906127909190612bdd565b60405163ca15c87360e01b8152600481018290529091506000906001600160a01b0385169063ca15c8739060240160206040518083038186803b1580156127d657600080fd5b505afa1580156127ea573d6000803e3d6000fd5b505050506040513d601f19601f8201168201806040525081019061280e9190612bdd565b905060008167ffffffffffffffff81111561282b5761282b613273565b604051908082528060200260200182016040528015612854578160200160208202803683370190505b50905060005b8281101561291d57604051632404341f60e21b815260048101859052602481018290526001600160a01b03871690639010d07c9060440160206040518083038186803b1580156128a957600080fd5b505afa1580156128bd573d6000803e3d6000fd5b505050506040513d601f19601f820116820180604052508101906128e19190612b65565b8282815181106128f3576128f361325d565b6001600160a01b03909216602092830291909101909101528061291581613216565b91505061285a565b50949350505050565b6040805161010081019091526000808252602082019081526020016129816040518060e00160405280606081526020016060815260200160008152602001600081526020016000815260200160608152602001606081525090565b815260200161298e612a30565b815260200161299b612ae6565b81526020016129cb6040518060800160405280600081526020016000815260200160008152602001600081525090565b81526020016129fb6040518060800160405280600081526020016000815260200160008152602001600081525090565b8152602001612a2b6040518060800160405280606081526020016000815260200160008152602001600081525090565b905290565b604080516103008101909152806000815260200160008152602001600081526020016000815260200160008152602001600081526020016000815260200160008152602001600081526020016000815260200160008152602001600081526020016000815260200160008152602001600081526020016000815260200160008152602001600081526020016000815260200160008152602001600081526020016000815260200160008152602001600081525090565b604080516101808101909152806000815260200160008152602001600081526020016000815260200160008152602001600081526020016000815260200160008152602001600081526020016000815260200160008152602001600081525090565b600060208284031215612b5a57600080fd5b813561142f8161329c565b600060208284031215612b7757600080fd5b815161142f8161329c565b60008060408385031215612b9557600080fd5b8235612ba08161329c565b91506020830135612bb08161329c565b809150509250929050565b600060208284031215612bcd57600080fd5b8151801515811461142f57600080fd5b600060208284031215612bef57600080fd5b5051919050565b600080600080600060a08688031215612c0e57600080fd5b8535612c19816132b1565b94506020860135612c29816132b1565b935060408601359250606086013591506080860135612c478161329c565b809150509295509295909350565b600060208284031215612c6757600080fd5b81516006811061142f57600080fd5b600060208284031215612c8857600080fd5b815167ffffffffffffffff80821115612ca057600080fd5b818401915084601f830112612cb457600080fd5b815181811115612cc657612cc6613273565b604051601f8201601f19908116603f01168101908382118183101715612cee57612cee613273565b81604052828152876020848701011115612d0757600080fd5b612d188360208301602088016131e6565b979650505050505050565b600080600080600060a08688031215612d3b57600080fd5b85519450602086015180600f0b8114612d5357600080fd5b6040870151606088015160809098015196999198509695945092505050565b612d7b81613289565b9052565b60068110612d7b57612d7b613247565b60008151808452612da78160208601602086016131e6565b601f01601f19169290920160200192915050565b6000815160e08452612dd060e0850182612d8f565b905060208301518482036020860152612de98282612d8f565b91505060408301516040850152606083015160608501526080830151608085015260a083015184820360a0860152612e218282612d8f565b91505060c083015184820360c0860152612e3b8282612d8f565b95945050505050565b612e4f828251612d7f565b6020810151602083015260408101516040830152606081015160608301526080810151608083015260a081015160a083015260c081015160c083015260e081015160e08301526101008082015181840152506101208082015181840152506101408082015181840152506101608082015181840152505050565b612ed4828251612d7f565b6020818101519083015260408082015190830152606080820151908301526080808201519083015260a0808201519083015260c0808201519083015260e08082015190830152610100808201519083015261012080820151908301526101408082015190830152610160808201519083015261018080820151908301526101a080820151908301526101c080820151908301526101e08082015190830152610200808201519083015261022080820151908301526102408082015190830152610260808201519083015261028080820151908301526102a080820151908301526102c080820151908301526102e090810151910152565b80516001600160a01b0316825260006106006020830151612fef6020860182612d72565b50604083015181604086015261300782860182612dbb565b915050606083015161301c6060860182612ec9565b506080830151613030610360860182612e44565b5060a083015180516104e08601526020810151610500860152604081015161052086015260608101516105408601525060c08301518051610560860152602081015161058086015260408101516105a086015260608101516105c08601525060e08301518482036105e0860152612e3b82828051608080845281519084018190526000916020919082019060a0860190845b818110156130e75783516001600160a01b0316835292840192918401916001016130c2565b50508285015183870152604085015160408701526060850151606087015280935050505092915050565b6000602080830181845280855180835260408601915060408160051b870101925083870160005b8281101561316657603f19888603018452613154858351612fcb565b94509285019290850190600101613138565b5092979650505050505050565b6040810161318084613289565b83825261318c83613289565b8260208301529392505050565b60208152600061142f6020830184612fcb565b6000828210156131be576131be613231565b500390565b600060ff821660ff8416808210156131dd576131dd613231565b90039392505050565b60005b838110156132015781810151838201526020016131e9565b83811115613210576000848401525b50505050565b600060001982141561322a5761322a613231565b5060010190565b634e487b7160e01b600052601160045260246000fd5b634e487b7160e01b600052602160045260246000fd5b634e487b7160e01b600052603260045260246000fd5b634e487b7160e01b600052604160045260246000fd5b6003811061329957613299613247565b50565b6001600160a01b038116811461329957600080fd5b6003811061329957600080fdfea26469706673582212200c741ef66a6485ea48260f77529cefa12ae0327689b2f4bb2c75e8be9376986364736f6c63430008060033",
  "devdoc": {
    "author": "Trader Joe",
    "kind": "dev",
    "methods": {
      "constructor": {
        "details": "LaunchpegLens constructor",
        "params": {
          "_batchReveal": "BatchReveal address",
          "_launchpegFactoryV1": "LaunchpegFactory V1",
          "_launchpegFactoryV2": "LaunchpegFactory V2"
        }
      },
      "getLaunchpegData(address,address)": {
        "params": {
          "_launchpeg": "Contract address to consider",
          "_user": "Address to consider for NFT balances and allowlist allocations"
        },
        "returns": {
          "_0": "LensData Contract data"
        }
      },
      "getLaunchpegType(address)": {
        "params": {
          "_contract": "Contract address to consider"
        },
        "returns": {
          "_0": "LaunchpegType Type of Launchpeg implementation (Dutch Auction / Flat / Unknown)"
        }
      },
      "getLaunchpegsByTypeAndVersion(uint8,uint8,uint256,uint256,address)": {
        "params": {
          "_limit": "Last Launchpeg index to fetch",
          "_number": "Number of Launchpeg to fetch",
          "_type": "Type of Launchpeg to consider",
          "_user": "Address to consider for NFT balances and allowlist allocations",
          "_version": "Launchpeg version"
        },
        "returns": {
          "_0": "LensDataList List of contracts datas, in descending order"
        }
      }
    },
    "title": "Launchpeg Lens",
    "version": 1
  },
  "userdoc": {
    "kind": "user",
    "methods": {
      "batchReveal()": {
        "notice": "BatchReveal address"
      },
      "getLaunchpegData(address,address)": {
        "notice": "Fetch Launchpeg data from the provided address"
      },
      "getLaunchpegType(address)": {
        "notice": "Gets the type and version of Launchpeg"
      },
      "getLaunchpegsByTypeAndVersion(uint8,uint8,uint256,uint256,address)": {
        "notice": "Fetch Launchpeg data by type and version"
      },
      "launchpegFactoryV1()": {
        "notice": "LaunchpegFactory V1"
      },
      "launchpegFactoryV2()": {
        "notice": "LaunchpegFactory V2"
      }
    },
    "notice": "Helper contract to fetch launchpegs data",
    "version": 1
  },
  "storageLayout": {
    "storage": [],
    "types": null
  }
}