{
  "address": "0x1FE0A3274aB8C2FC1d796d3f48e744b7D3b8b6d3",
  "abi": [
    {
      "inputs": [],
      "name": "LaunchpegFactory__InvalidBatchReveal",
      "type": "error"
    },
    {
      "inputs": [],
      "name": "LaunchpegFactory__InvalidImplementation",
      "type": "error"
    },
    {
      "inputs": [],
      "name": "Launchpeg__InvalidJoeFeeCollector",
      "type": "error"
    },
    {
      "inputs": [],
      "name": "Launchpeg__InvalidPercent",
      "type": "error"
    },
    {
      "inputs": [],
      "name": "PendingOwnableUpgradeable__AddressZero",
      "type": "error"
    },
    {
      "inputs": [],
      "name": "PendingOwnableUpgradeable__NoPendingOwner",
      "type": "error"
    },
    {
      "inputs": [],
      "name": "PendingOwnableUpgradeable__NotOwner",
      "type": "error"
    },
    {
      "inputs": [],
      "name": "PendingOwnableUpgradeable__NotPendingOwner",
      "type": "error"
    },
    {
      "inputs": [],
      "name": "PendingOwnableUpgradeable__PendingOwnerAlreadySet",
      "type": "error"
    },
    {
      "inputs": [],
      "name": "SafeAccessControlEnumerableUpgradeable__RoleIsDefaultAdmin",
      "type": "error"
    },
    {
      "inputs": [
        {
          "internalType": "bytes32",
          "name": "role",
          "type": "bytes32"
        },
        {
          "internalType": "address",
          "name": "sender",
          "type": "address"
        }
      ],
      "name": "SafeAccessControlEnumerableUpgradeable__SenderMissingRoleAndIsNotOwner",
      "type": "error"
    },
    {
      "anonymous": false,
      "inputs": [
        {
          "indexed": true,
          "internalType": "address",
          "name": "erc1155SingleBundle",
          "type": "address"
        }
      ],
      "name": "ERC1155SingleBundleCreated",
      "type": "event"
    },
    {
      "anonymous": false,
      "inputs": [
        {
          "indexed": true,
          "internalType": "address",
          "name": "flatLaunchpeg",
          "type": "address"
        },
        {
          "indexed": false,
          "internalType": "string",
          "name": "name",
          "type": "string"
        },
        {
          "indexed": false,
          "internalType": "string",
          "name": "symbol",
          "type": "string"
        },
        {
          "indexed": true,
          "internalType": "address",
          "name": "projectOwner",
          "type": "address"
        },
        {
          "indexed": true,
          "internalType": "address",
          "name": "royaltyReceiver",
          "type": "address"
        },
        {
          "indexed": false,
          "internalType": "uint256",
          "name": "maxPerAddressDuringMint",
          "type": "uint256"
        },
        {
          "indexed": false,
          "internalType": "uint256",
          "name": "collectionSize",
          "type": "uint256"
        },
        {
          "indexed": false,
          "internalType": "uint256",
          "name": "amountForDevs",
          "type": "uint256"
        },
        {
          "indexed": false,
          "internalType": "uint256",
          "name": "amountForAllowlist",
          "type": "uint256"
        }
      ],
      "name": "FlatLaunchpegCreated",
      "type": "event"
    },
    {
      "anonymous": false,
      "inputs": [
        {
          "indexed": false,
          "internalType": "uint8",
          "name": "version",
          "type": "uint8"
        }
      ],
      "name": "Initialized",
      "type": "event"
    },
    {
      "anonymous": false,
      "inputs": [
        {
          "indexed": true,
          "internalType": "address",
          "name": "launchpeg",
          "type": "address"
        },
        {
          "indexed": false,
          "internalType": "string",
          "name": "name",
          "type": "string"
        },
        {
          "indexed": false,
          "internalType": "string",
          "name": "symbol",
          "type": "string"
        },
        {
          "indexed": true,
          "internalType": "address",
          "name": "projectOwner",
          "type": "address"
        },
        {
          "indexed": true,
          "internalType": "address",
          "name": "royaltyReceiver",
          "type": "address"
        },
        {
          "indexed": false,
          "internalType": "uint256",
          "name": "maxPerAddressDuringMint",
          "type": "uint256"
        },
        {
          "indexed": false,
          "internalType": "uint256",
          "name": "collectionSize",
          "type": "uint256"
        },
        {
          "indexed": false,
          "internalType": "uint256",
          "name": "amountForAuction",
          "type": "uint256"
        },
        {
          "indexed": false,
          "internalType": "uint256",
          "name": "amountForAllowlist",
          "type": "uint256"
        },
        {
          "indexed": false,
          "internalType": "uint256",
          "name": "amountForDevs",
          "type": "uint256"
        }
      ],
      "name": "LaunchpegCreated",
      "type": "event"
    },
    {
      "anonymous": false,
      "inputs": [
        {
          "indexed": true,
          "internalType": "address",
          "name": "previousOwner",
          "type": "address"
        },
        {
          "indexed": true,
          "internalType": "address",
          "name": "newOwner",
          "type": "address"
        }
      ],
      "name": "OwnershipTransferred",
      "type": "event"
    },
    {
      "anonymous": false,
      "inputs": [
        {
          "indexed": true,
          "internalType": "address",
          "name": "pendingOwner",
          "type": "address"
        }
      ],
      "name": "PendingOwnerSet",
      "type": "event"
    },
    {
      "anonymous": false,
      "inputs": [
        {
          "indexed": true,
          "internalType": "address",
          "name": "proxyAdmin",
          "type": "address"
        }
      ],
      "name": "ProxyAdminFor1155Created",
      "type": "event"
    },
    {
      "anonymous": false,
      "inputs": [
        {
          "indexed": true,
          "internalType": "bytes32",
          "name": "role",
          "type": "bytes32"
        },
        {
          "indexed": true,
          "internalType": "bytes32",
          "name": "previousAdminRole",
          "type": "bytes32"
        },
        {
          "indexed": true,
          "internalType": "bytes32",
          "name": "newAdminRole",
          "type": "bytes32"
        }
      ],
      "name": "RoleAdminChanged",
      "type": "event"
    },
    {
      "anonymous": false,
      "inputs": [
        {
          "indexed": true,
          "internalType": "bytes32",
          "name": "role",
          "type": "bytes32"
        },
        {
          "indexed": true,
          "internalType": "address",
          "name": "account",
          "type": "address"
        },
        {
          "indexed": true,
          "internalType": "address",
          "name": "sender",
          "type": "address"
        }
      ],
      "name": "RoleGranted",
      "type": "event"
    },
    {
      "anonymous": false,
      "inputs": [
        {
          "indexed": true,
          "internalType": "bytes32",
          "name": "role",
          "type": "bytes32"
        },
        {
          "indexed": true,
          "internalType": "address",
          "name": "account",
          "type": "address"
        },
        {
          "indexed": true,
          "internalType": "address",
          "name": "sender",
          "type": "address"
        }
      ],
      "name": "RoleRevoked",
      "type": "event"
    },
    {
      "anonymous": false,
      "inputs": [
        {
          "indexed": true,
          "internalType": "address",
          "name": "erc1155SingleBundleImplementation",
          "type": "address"
        }
      ],
      "name": "Set1155SingleBundleImplementation",
      "type": "event"
    },
    {
      "anonymous": false,
      "inputs": [
        {
          "indexed": true,
          "internalType": "address",
          "name": "batchReveal",
          "type": "address"
        }
      ],
      "name": "SetBatchReveal",
      "type": "event"
    },
    {
      "anonymous": false,
      "inputs": [
        {
          "indexed": true,
          "internalType": "address",
          "name": "joeFeeCollector",
          "type": "address"
        }
      ],
      "name": "SetDefaultJoeFeeCollector",
      "type": "event"
    },
    {
      "anonymous": false,
      "inputs": [
        {
          "indexed": false,
          "internalType": "uint256",
          "name": "joeFeePercent",
          "type": "uint256"
        }
      ],
      "name": "SetDefaultJoeFeePercent",
      "type": "event"
    },
    {
      "anonymous": false,
      "inputs": [
        {
          "indexed": true,
          "internalType": "address",
          "name": "flatLaunchpegImplementation",
          "type": "address"
        }
      ],
      "name": "SetFlatLaunchpegImplementation",
      "type": "event"
    },
    {
      "anonymous": false,
      "inputs": [
        {
          "indexed": true,
          "internalType": "address",
          "name": "launchpegImplementation",
          "type": "address"
        }
      ],
      "name": "SetLaunchpegImplementation",
      "type": "event"
    },
    {
      "inputs": [],
      "name": "DEFAULT_ADMIN_ROLE",
      "outputs": [
        {
          "internalType": "bytes32",
          "name": "",
          "type": "bytes32"
        }
      ],
      "stateMutability": "view",
      "type": "function"
    },
    {
      "inputs": [],
      "name": "LAUNCHPEG_PAUSER_ROLE",
      "outputs": [
        {
          "internalType": "bytes32",
          "name": "",
          "type": "bytes32"
        }
      ],
      "stateMutability": "view",
      "type": "function"
    },
    {
      "inputs": [
        {
          "internalType": "address",
          "name": "_pauser",
          "type": "address"
        }
      ],
      "name": "addLaunchpegPauser",
      "outputs": [],
      "stateMutability": "nonpayable",
      "type": "function"
    },
    {
      "inputs": [
        {
          "internalType": "uint256",
          "name": "",
          "type": "uint256"
        },
        {
          "internalType": "uint256",
          "name": "",
          "type": "uint256"
        }
      ],
      "name": "allLaunchpegs",
      "outputs": [
        {
          "internalType": "address",
          "name": "",
          "type": "address"
        }
      ],
      "stateMutability": "view",
      "type": "function"
    },
    {
      "inputs": [],
      "name": "batchReveal",
      "outputs": [
        {
          "internalType": "address",
          "name": "",
          "type": "address"
        }
      ],
      "stateMutability": "view",
      "type": "function"
    },
    {
      "inputs": [],
      "name": "becomeOwner",
      "outputs": [],
      "stateMutability": "nonpayable",
      "type": "function"
    },
    {
      "inputs": [
        {
          "internalType": "string",
          "name": "name",
          "type": "string"
        },
        {
          "internalType": "string",
          "name": "symbol",
          "type": "string"
        },
        {
          "internalType": "address",
          "name": "royaltyReceiver",
          "type": "address"
        },
        {
          "internalType": "uint256",
          "name": "maxPerAddressDuringMint",
          "type": "uint256"
        },
        {
          "internalType": "uint256",
          "name": "collectionSize",
          "type": "uint256"
        },
        {
          "internalType": "uint256",
          "name": "amountForDevs",
          "type": "uint256"
        },
        {
          "internalType": "uint256",
          "name": "amountForPreMint",
          "type": "uint256"
        },
        {
          "internalType": "uint256[]",
          "name": "tokenSet",
          "type": "uint256[]"
        },
        {
          "internalType": "bool",
          "name": "isUpgradeable",
          "type": "bool"
        }
      ],
      "name": "create1155SingleBundle",
      "outputs": [
        {
          "internalType": "address",
          "name": "",
          "type": "address"
        }
      ],
      "stateMutability": "nonpayable",
      "type": "function"
    },
    {
      "inputs": [
        {
          "internalType": "string",
          "name": "_name",
          "type": "string"
        },
        {
          "internalType": "string",
          "name": "_symbol",
          "type": "string"
        },
        {
          "internalType": "address",
          "name": "_projectOwner",
          "type": "address"
        },
        {
          "internalType": "address",
          "name": "_royaltyReceiver",
          "type": "address"
        },
        {
          "internalType": "uint256",
          "name": "_maxPerAddressDuringMint",
          "type": "uint256"
        },
        {
          "internalType": "uint256",
          "name": "_collectionSize",
          "type": "uint256"
        },
        {
          "internalType": "uint256",
          "name": "_amountForDevs",
          "type": "uint256"
        },
        {
          "internalType": "uint256",
          "name": "_amountForAllowlist",
          "type": "uint256"
        },
        {
          "internalType": "bool",
          "name": "_enableBatchReveal",
          "type": "bool"
        }
      ],
      "name": "createFlatLaunchpeg",
      "outputs": [
        {
          "internalType": "address",
          "name": "",
          "type": "address"
        }
      ],
      "stateMutability": "nonpayable",
      "type": "function"
    },
    {
      "inputs": [
        {
          "internalType": "string",
          "name": "_name",
          "type": "string"
        },
        {
          "internalType": "string",
          "name": "_symbol",
          "type": "string"
        },
        {
          "internalType": "address",
          "name": "_projectOwner",
          "type": "address"
        },
        {
          "internalType": "address",
          "name": "_royaltyReceiver",
          "type": "address"
        },
        {
          "internalType": "uint256",
          "name": "_maxPerAddressDuringMint",
          "type": "uint256"
        },
        {
          "internalType": "uint256",
          "name": "_collectionSize",
          "type": "uint256"
        },
        {
          "internalType": "uint256",
          "name": "_amountForAuction",
          "type": "uint256"
        },
        {
          "internalType": "uint256",
          "name": "_amountForAllowlist",
          "type": "uint256"
        },
        {
          "internalType": "uint256",
          "name": "_amountForDevs",
          "type": "uint256"
        },
        {
          "internalType": "bool",
          "name": "_enableBatchReveal",
          "type": "bool"
        }
      ],
      "name": "createLaunchpeg",
      "outputs": [
        {
          "internalType": "address",
          "name": "",
          "type": "address"
        }
      ],
      "stateMutability": "nonpayable",
      "type": "function"
    },
    {
      "inputs": [],
      "name": "erc1155SingleBundleImplementation",
      "outputs": [
        {
          "internalType": "address",
          "name": "",
          "type": "address"
        }
      ],
      "stateMutability": "view",
      "type": "function"
    },
    {
      "inputs": [],
      "name": "flatLaunchpegImplementation",
      "outputs": [
        {
          "internalType": "address",
          "name": "",
          "type": "address"
        }
      ],
      "stateMutability": "view",
      "type": "function"
    },
    {
      "inputs": [
        {
          "internalType": "bytes32",
          "name": "role",
          "type": "bytes32"
        }
      ],
      "name": "getRoleAdmin",
      "outputs": [
        {
          "internalType": "bytes32",
          "name": "",
          "type": "bytes32"
        }
      ],
      "stateMutability": "view",
      "type": "function"
    },
    {
      "inputs": [
        {
          "internalType": "bytes32",
          "name": "role",
          "type": "bytes32"
        },
        {
          "internalType": "uint256",
          "name": "index",
          "type": "uint256"
        }
      ],
      "name": "getRoleMember",
      "outputs": [
        {
          "internalType": "address",
          "name": "",
          "type": "address"
        }
      ],
      "stateMutability": "view",
      "type": "function"
    },
    {
      "inputs": [
        {
          "internalType": "bytes32",
          "name": "role",
          "type": "bytes32"
        }
      ],
      "name": "getRoleMemberCount",
      "outputs": [
        {
          "internalType": "uint256",
          "name": "",
          "type": "uint256"
        }
      ],
      "stateMutability": "view",
      "type": "function"
    },
    {
      "inputs": [
        {
          "internalType": "bytes32",
          "name": "role",
          "type": "bytes32"
        },
        {
          "internalType": "address",
          "name": "account",
          "type": "address"
        }
      ],
      "name": "grantRole",
      "outputs": [],
      "stateMutability": "nonpayable",
      "type": "function"
    },
    {
      "inputs": [
        {
          "internalType": "bytes32",
          "name": "role",
          "type": "bytes32"
        },
        {
          "internalType": "address",
          "name": "account",
          "type": "address"
        }
      ],
      "name": "hasRole",
      "outputs": [
        {
          "internalType": "bool",
          "name": "",
          "type": "bool"
        }
      ],
      "stateMutability": "view",
      "type": "function"
    },
    {
      "inputs": [
        {
          "internalType": "address",
          "name": "_launchpegImplementation",
          "type": "address"
        },
        {
          "internalType": "address",
          "name": "_flatLaunchpegImplementation",
          "type": "address"
        },
        {
          "internalType": "address",
          "name": "_erc1155SingleBundleImplementation",
          "type": "address"
        },
        {
          "internalType": "address",
          "name": "_batchReveal",
          "type": "address"
        },
        {
          "internalType": "uint256",
          "name": "_joeFeePercent",
          "type": "uint256"
        },
        {
          "internalType": "address",
          "name": "_joeFeeCollector",
          "type": "address"
        }
      ],
      "name": "initialize",
      "outputs": [],
      "stateMutability": "nonpayable",
      "type": "function"
    },
    {
      "inputs": [
        {
          "internalType": "uint256",
          "name": "",
          "type": "uint256"
        },
        {
          "internalType": "address",
          "name": "",
          "type": "address"
        }
      ],
      "name": "isLaunchpeg",
      "outputs": [
        {
          "internalType": "bool",
          "name": "",
          "type": "bool"
        }
      ],
      "stateMutability": "view",
      "type": "function"
    },
    {
      "inputs": [],
      "name": "joeFeeCollector",
      "outputs": [
        {
          "internalType": "address",
          "name": "",
          "type": "address"
        }
      ],
      "stateMutability": "view",
      "type": "function"
    },
    {
      "inputs": [],
      "name": "joeFeePercent",
      "outputs": [
        {
          "internalType": "uint256",
          "name": "",
          "type": "uint256"
        }
      ],
      "stateMutability": "view",
      "type": "function"
    },
    {
      "inputs": [],
      "name": "launchpegImplementation",
      "outputs": [
        {
          "internalType": "address",
          "name": "",
          "type": "address"
        }
      ],
      "stateMutability": "view",
      "type": "function"
    },
    {
      "inputs": [
        {
          "internalType": "uint256",
          "name": "_launchpegType",
          "type": "uint256"
        }
      ],
      "name": "numLaunchpegs",
      "outputs": [
        {
          "internalType": "uint256",
          "name": "",
          "type": "uint256"
        }
      ],
      "stateMutability": "view",
      "type": "function"
    },
    {
      "inputs": [],
      "name": "owner",
      "outputs": [
        {
          "internalType": "address",
          "name": "",
          "type": "address"
        }
      ],
      "stateMutability": "view",
      "type": "function"
    },
    {
      "inputs": [
        {
          "internalType": "address",
          "name": "_launchpeg",
          "type": "address"
        }
      ],
      "name": "pauseLaunchpeg",
      "outputs": [],
      "stateMutability": "nonpayable",
      "type": "function"
    },
    {
      "inputs": [],
      "name": "pendingOwner",
      "outputs": [
        {
          "internalType": "address",
          "name": "",
          "type": "address"
        }
      ],
      "stateMutability": "view",
      "type": "function"
    },
    {
      "inputs": [
        {
          "internalType": "address",
          "name": "_pauser",
          "type": "address"
        }
      ],
      "name": "removeLaunchpegPauser",
      "outputs": [],
      "stateMutability": "nonpayable",
      "type": "function"
    },
    {
      "inputs": [],
      "name": "renounceOwnership",
      "outputs": [],
      "stateMutability": "nonpayable",
      "type": "function"
    },
    {
      "inputs": [
        {
          "internalType": "bytes32",
          "name": "role",
          "type": "bytes32"
        },
        {
          "internalType": "address",
          "name": "account",
          "type": "address"
        }
      ],
      "name": "renounceRole",
      "outputs": [],
      "stateMutability": "nonpayable",
      "type": "function"
    },
    {
      "inputs": [],
      "name": "revokePendingOwner",
      "outputs": [],
      "stateMutability": "nonpayable",
      "type": "function"
    },
    {
      "inputs": [
        {
          "internalType": "bytes32",
          "name": "role",
          "type": "bytes32"
        },
        {
          "internalType": "address",
          "name": "account",
          "type": "address"
        }
      ],
      "name": "revokeRole",
      "outputs": [],
      "stateMutability": "nonpayable",
      "type": "function"
    },
    {
      "inputs": [
        {
          "internalType": "address",
          "name": "_batchReveal",
          "type": "address"
        }
      ],
      "name": "setBatchReveal",
      "outputs": [],
      "stateMutability": "nonpayable",
      "type": "function"
    },
    {
      "inputs": [
        {
          "internalType": "address",
          "name": "_joeFeeCollector",
          "type": "address"
        }
      ],
      "name": "setDefaultJoeFeeCollector",
      "outputs": [],
      "stateMutability": "nonpayable",
      "type": "function"
    },
    {
      "inputs": [
        {
          "internalType": "uint256",
          "name": "_joeFeePercent",
          "type": "uint256"
        }
      ],
      "name": "setDefaultJoeFeePercent",
      "outputs": [],
      "stateMutability": "nonpayable",
      "type": "function"
    },
    {
      "inputs": [
        {
          "internalType": "address",
          "name": "_erc1155SingleBundleImplementation",
          "type": "address"
        }
      ],
      "name": "setERC1155SingleBundleImplementation",
      "outputs": [],
      "stateMutability": "nonpayable",
      "type": "function"
    },
    {
      "inputs": [
        {
          "internalType": "address",
          "name": "_flatLaunchpegImplementation",
          "type": "address"
        }
      ],
      "name": "setFlatLaunchpegImplementation",
      "outputs": [],
      "stateMutability": "nonpayable",
      "type": "function"
    },
    {
      "inputs": [
        {
          "internalType": "address",
          "name": "_launchpegImplementation",
          "type": "address"
        }
      ],
      "name": "setLaunchpegImplementation",
      "outputs": [],
      "stateMutability": "nonpayable",
      "type": "function"
    },
    {
      "inputs": [
        {
          "internalType": "address",
          "name": "pendingOwner_",
          "type": "address"
        }
      ],
      "name": "setPendingOwner",
      "outputs": [],
      "stateMutability": "nonpayable",
      "type": "function"
    },
    {
      "inputs": [
        {
          "internalType": "bytes4",
          "name": "interfaceId",
          "type": "bytes4"
        }
      ],
      "name": "supportsInterface",
      "outputs": [
        {
          "internalType": "bool",
          "name": "",
          "type": "bool"
        }
      ],
      "stateMutability": "view",
      "type": "function"
    }
  ],
  "transactionHash": "0x7bf288458d5e749a6cead97f3f722ebacce50925ce0495d7c5fff309fa1ef2a9",
  "args": [],
  "numDeployments": 2,
  "solcInputHash": "636ece146a9097d66846abcb58e1ef2c",
  "bytecode": "0x608060405234801561001057600080fd5b50613fd3806100206000396000f3fe60806040523480156200001157600080fd5b50600436106200021d5760003560e01c80638bb4ee241162000127578063bf931cd511620000b6578063bf931cd514620004d6578063c42069ec14620004ed578063c5482fe31462000504578063ca15c873146200050e578063d39d153d1462000525578063d547741f146200053c578063d71d0df01462000553578063e30c3978146200056a578063e4b26d84146200057c578063f9dca989146200059357600080fd5b80638bb4ee24146200040b5780638da5cb5b146200041f5780639010d07c146200042957806391d148541462000440578063954e75c51462000457578063a217fddf146200046e578063a56f01601462000477578063abcc7617146200048e578063b264318c14620004bf57600080fd5b806347f0dcef11620001b057806347f0dcef146200033657806353c425c1146200034d57806353edb42614620003645780635bb21376146200037b5780635c040443146200038f57806367ab8a4e14620003a6578063715018a614620003b0578063776f1b1c14620003ba5780637cbe8d6714620003dd5780637dd71ca414620003f457600080fd5b806301ffc9a7146200022257806320dbb726146200024e57806321cc1611146200027b5780632265708a146200028f578063248a9ca314620002a85780632f2ff15d14620002dd578063306ec74814620002f457806336568abe146200030b57806337daf4ca1462000322575b600080fd5b620002396200023336600462001fd7565b6200059d565b60405190151581526020015b60405180910390f35b60d25462000262906001600160a01b031681565b6040516001600160a01b03909116815260200162000245565b60d15462000262906001600160a01b031681565b620002a6620002a036600462002003565b620005c2565b005b620002ce620002b936600462002003565b60009081526067602052604090206001015490565b60405190815260200162000245565b620002a6620002ee36600462002035565b6200064d565b620002626200030536600462002064565b620006f4565b620002a66200031c36600462002035565b6200072d565b60cc5462000262906001600160a01b031681565b620002ce60008051602062003f7e83398151915281565b620002a66200035e36600462002087565b6200075e565b620002a662000375366004620020ff565b620009c5565b60ce5462000262906001600160a01b031681565b620002a6620003a0366004620020ff565b62000a63565b620002a662000a81565b620002a662000ae5565b620002ce620003cb36600462002003565b600090815260d0602052604090205490565b620002a6620003ee366004620020ff565b62000b1d565b6200026262000405366004620021d8565b62000bbb565b60cb5462000262906001600160a01b031681565b6200026262000e4a565b620002626200043a36600462002064565b62000e59565b620002396200045136600462002035565b62000e7a565b620002a662000468366004620020ff565b62000ea5565b620002ce600081565b620002a662000488366004620020ff565b62000f43565b620002396200049f36600462002035565b60cf60209081526000928352604080842090915290825290205460ff1681565b620002a6620004d0366004620020ff565b62001006565b62000262620004e736600462002333565b62001021565b620002a6620004fe366004620020ff565b620013fd565b620002ce60cd5481565b620002ce6200051f36600462002003565b62001487565b62000262620005363660046200242e565b620014a0565b620002a66200054d36600462002035565b62001733565b620002a662000564366004620020ff565b620017cb565b6066546001600160a01b031662000262565b620002a66200058d366004620020ff565b62001869565b620002a662001907565b6000620005aa826200194a565b80620005bc5750620005bc8262001981565b92915050565b6065546001600160a01b03163314620005ee57604051630202a8bf60e61b815260040160405180910390fd5b61271081111562000612576040516346b7d95d60e11b815260040160405180910390fd5b60cd8190556040518181527f4745ea19c676a0945640ec34419fe0680d70511432fc85a2d605840ab568e6329060200160405180910390a150565b81806200066d5760405163e466584960e01b815260040160405180910390fd5b6000838152606760205260409020600101546200068962000e4a565b6001600160a01b0316336001600160a01b031614158015620006b45750620006b2813362000e7a565b155b15620006e257803360405163f9019a8d60e01b8152600401620006d992919062002502565b60405180910390fd5b620006ee8484620019a9565b50505050565b60d060205281600052604060002081815481106200071157600080fd5b6000918252602090912001546001600160a01b03169150829050565b81806200074d5760405163e466584960e01b815260040160405180910390fd5b620007598383620019cf565b505050565b600054610100900460ff16158080156200077f5750600054600160ff909116105b806200079b5750303b1580156200079b575060005460ff166001145b620008005760405162461bcd60e51b815260206004820152602e60248201527f496e697469616c697a61626c653a20636f6e747261637420697320616c72656160448201526d191e481a5b9a5d1a585b1a5e995960921b6064820152608401620006d9565b6000805460ff19166001179055801562000824576000805461ff0019166101001790555b6200082e62001a51565b6001600160a01b0387166200085657604051637c14876160e01b815260040160405180910390fd5b6001600160a01b0386166200087e57604051637c14876160e01b815260040160405180910390fd5b6001600160a01b038516620008a657604051637c14876160e01b815260040160405180910390fd5b6001600160a01b038416620008ce5760405163600dd44b60e01b815260040160405180910390fd5b612710831115620008f2576040516346b7d95d60e11b815260040160405180910390fd5b6001600160a01b0382166200091a57604051631a1b629760e21b815260040160405180910390fd5b60cb80546001600160a01b03199081166001600160a01b038a81169190911790925560cc8054821689841617905560d28054821688841617905560d18054821687841617905560cd85905560ce80549091169184169190911790558015620009bc576000805461ff0019169055604051600181527f7f26b83ff96e1f2b6a682f133852f6798a09c465da95921460cefb38474024989060200160405180910390a15b50505050505050565b6065546001600160a01b03163314620009f157604051630202a8bf60e61b815260040160405180910390fd5b6001600160a01b03811662000a1957604051631a1b629760e21b815260040160405180910390fd5b60ce80546001600160a01b0319166001600160a01b0383169081179091556040517fe641fd1cd94961ec6280816da07b756907548d41a011cad54123b611f984242f90600090a250565b62000a7e60008051602062003f7e833981519152826200064d565b50565b6065546001600160a01b0316331462000aad57604051630202a8bf60e61b815260040160405180910390fd5b6066546001600160a01b031662000ad75760405163128be5bf60e31b815260040160405180910390fd5b62000ae3600062001a99565b565b6065546001600160a01b0316331462000b1157604051630202a8bf60e61b815260040160405180910390fd5b62000ae3600062001ae3565b6065546001600160a01b0316331462000b4957604051630202a8bf60e61b815260040160405180910390fd5b6001600160a01b03811662000b7157604051637c14876160e01b815260040160405180910390fd5b60cc80546001600160a01b0319166001600160a01b0383169081179091556040517f8549b2b39c65a9c4ca6b1037f64209a139ef0fc440cd914c14088dd2a368287c90600090a250565b6065546000906001600160a01b0316331462000bea57604051630202a8bf60e61b815260040160405180910390fd5b60cc5460009062000c04906001600160a01b031662001b21565b6001600160a01b03811660008181527f9bb4860ae4018b7a63008e1d4c4f2ef74d5a095e46377c820dc3f962c67498e860209081526040808320805460ff1916600190811790915560d083527f77f2c0ceb108931ae1752982c6028a6c43603b39c3741036378ca346c95925298054918201815584527f52a14d2d083875cf73dfb5012a2e3cd61365916b4499c82a2ccbea5f587855140180546001600160a01b0319169094179093558251610100810184528f81529081018e9052929350919081018562000cd557600062000ce2565b60d1546001600160a01b03165b6001600160a01b031681526020018981526020018881526020018781526020016000815260200186815250905060006040518060a00160405280336001600160a01b031681526020018c6001600160a01b031681526020018b6001600160a01b0316815260200160ce60009054906101000a90046001600160a01b03166001600160a01b0316815260200160cd548152509050826001600160a01b031663b560ee6983836040518363ffffffff1660e01b815260040162000da592919062002569565b600060405180830381600087803b15801562000dc057600080fd5b505af115801562000dd5573d6000803e3d6000fd5b505050505050876001600160a01b0316896001600160a01b0316826001600160a01b03167ff3ae30c363365bc3afc1d55a8019ee6e85f834f8cf0bc6e0e9b8ec3229d12de88e8e8c8c8c8c60405162000e349695949392919062002642565b60405180910390a49a9950505050505050505050565b6065546001600160a01b031690565b600082815260996020526040812062000e73908362001bc0565b9392505050565b60009182526067602090815260408084206001600160a01b0393909316845291905290205460ff1690565b6065546001600160a01b0316331462000ed157604051630202a8bf60e61b815260040160405180910390fd5b6001600160a01b03811662000ef957604051637c14876160e01b815260040160405180910390fd5b60cb80546001600160a01b0319166001600160a01b0383169081179091556040517f8084d0fd0870539f0703b9cf74b2618239081b020be6da48c74b2a6ab670dcfb90600090a250565b60008051602062003f7e83398151915262000f5d62000e4a565b6001600160a01b0316336001600160a01b03161415801562000f88575062000f86813362000e7a565b155b1562000fad57803360405163f9019a8d60e01b8152600401620006d992919062002502565b816001600160a01b0316638456cb596040518163ffffffff1660e01b8152600401600060405180830381600087803b15801562000fe957600080fd5b505af115801562000ffe573d6000803e3d6000fd5b505050505050565b62000a7e60008051602062003f7e8339815191528262001733565b6065546000906001600160a01b031633146200105057604051630202a8bf60e61b815260040160405180910390fd5b60006040518060a00160405280336001600160a01b031681526020018b6001600160a01b0316815260200160cd5481526020018f8f8080601f016020809104026020016040519081016040528093929190818152602001838380828437600081840152601f19601f8201169050808301925050505050505081526020018d8d8080601f01602080910402602001604051908101604052809392919081815260200183838082843760009201829052509390945250929350915050831562001293576000637edad31960e01b838b8b8b8f8c8c6040516024016200113a9796959493929190620026c8565b604051602081830303815290604052906001600160e01b0319166020820180516001600160e01b038381831617835250505050905060006040516200117f9062001fbb565b604051809103906000f0801580156200119c573d6000803e3d6000fd5b509050600060d260009054906101000a90046001600160a01b03168284604051620011c79062001fc9565b620011d59392919062002771565b604051809103906000f080158015620011f2573d6000803e3d6000fd5b5060405163f2fde38b60e01b81523360048201529091506001600160a01b0383169063f2fde38b90602401600060405180830381600087803b1580156200123857600080fd5b505af11580156200124d573d6000803e3d6000fd5b50505050809350816001600160a01b03167fdcb15f68cc4eb40d0e1ba393f4aeb63f7370065eb16f5b1db980d9b80902cdda60405160405180910390a25050506200131b565b60d254620012aa906001600160a01b031662001b21565b9050806001600160a01b0316637edad319838b8b8b8f8c8c6040518863ffffffff1660e01b8152600401620012e69796959493929190620026c8565b600060405180830381600087803b1580156200130157600080fd5b505af115801562001316573d6000803e3d6000fd5b505050505b6001600160a01b03811660008181527fd0ae466d391fc1f33c08f0ded38b0edd84e4ee092dcf838570f20223ba1511f660209081526040808320805460ff1916600190811790915560d09092527f67796f102ab9953d5beaba6be251ff75a6b998b676e68c019b9d36459937f4098054928301815583527f3cc59b3183396bf370d05037599bd06355ae44bb9ecc31d3d82b2f973623780590910180546001600160a01b03191684179055517f28fc8bf071e6560be82a3c8c7a7006d6deca4be673098ed6a1dc816bb987d4749190a29e9d5050505050505050505050505050565b6065546001600160a01b031633146200142957604051630202a8bf60e61b815260040160405180910390fd5b6001600160a01b03811662001451576040516386850cc360e01b815260040160405180910390fd5b6066546001600160a01b0316156200147c5760405163033c108960e01b815260040160405180910390fd5b62000a7e8162001a99565b6000818152609960205260408120620005bc9062001bce565b6065546000906001600160a01b03163314620014cf57604051630202a8bf60e61b815260040160405180910390fd5b60cb54600090620014e9906001600160a01b031662001b21565b9050600160cf60008081526020019081526020016000206000836001600160a01b03166001600160a01b0316815260200190815260200160002060006101000a81548160ff02191690831515021790555060d06000808152602001908152602001600020819080600181540180825580915050600190039060005260206000200160009091909190916101000a8154816001600160a01b0302191690836001600160a01b0316021790555060006040518061010001604052808e81526020018d815260200185620015bc576000620015c9565b60d1546001600160a01b03165b6001600160a01b031681526020018a815260200189815260200186815260200188815260200187815250905060006040518060a00160405280336001600160a01b031681526020018d6001600160a01b031681526020018c6001600160a01b0316815260200160ce60009054906101000a90046001600160a01b03166001600160a01b0316815260200160cd548152509050826001600160a01b031663b560ee6983836040518363ffffffff1660e01b81526004016200168b92919062002569565b600060405180830381600087803b158015620016a657600080fd5b505af1158015620016bb573d6000803e3d6000fd5b505050505050886001600160a01b03168a6001600160a01b0316826001600160a01b03167f1f9d8b5611391992ec4de203bc1a4f6ac6efcf804eaa81659960d389ecf444b98f8f8d8d8d8d8d6040516200171c9796959493929190620027a8565b60405180910390a49b9a5050505050505050505050565b8180620017535760405163e466584960e01b815260040160405180910390fd5b6000838152606760205260409020600101546200176f62000e4a565b6001600160a01b0316336001600160a01b0316141580156200179a575062001798813362000e7a565b155b15620017bf57803360405163f9019a8d60e01b8152600401620006d992919062002502565b620006ee848462001bd9565b6065546001600160a01b03163314620017f757604051630202a8bf60e61b815260040160405180910390fd5b6001600160a01b0381166200181f57604051637c14876160e01b815260040160405180910390fd5b60d280546001600160a01b0319166001600160a01b0383169081179091556040517ff36111dd89297c99ff95f5e6174873ac5a051288b3bab45fd2818c195a3903be90600090a250565b6065546001600160a01b031633146200189557604051630202a8bf60e61b815260040160405180910390fd5b6001600160a01b038116620018bd5760405163600dd44b60e01b815260040160405180910390fd5b60d180546001600160a01b0319166001600160a01b0383169081179091556040517f05f6bad02832e7104453b7aac929b5da9f741aa594ab6e603786c38059af4f7190600090a250565b6066546001600160a01b03163314158062001920575033155b156200193f5760405163134aa98760e31b815260040160405180910390fd5b62000ae33362001ae3565b60006001600160e01b031982166322d7505760e11b1480620005bc57506301ffc9a760e01b6001600160e01b0319831614620005bc565b60006001600160e01b03198216635a05180f60e01b1480620005bc5750620005bc8262001bff565b620019b5828262001c27565b600082815260996020526040902062000759908262001cb1565b6001600160a01b038116331462001a415760405162461bcd60e51b815260206004820152602f60248201527f416363657373436f6e74726f6c3a2063616e206f6e6c792072656e6f756e636560448201526e103937b632b9903337b91039b2b63360891b6064820152608401620006d9565b62001a4d828262001bd9565b5050565b600054610100900460ff1662001a7b5760405162461bcd60e51b8152600401620006d990620027fc565b62001a8562001cc8565b62001a8f62001d06565b62000ae362001d06565b606680546001600160a01b0319166001600160a01b0383169081179091556040517f68f49b346b94582a8b5f9d10e3fe3365318fe8f191ff8dce7c59c6cad06b02f590600090a250565b62001af9600062001af362000e4a565b62001bd9565b6001600160a01b0381161562001b165762001b16600082620019a9565b62000a7e8162001d30565b6000604051733d602d80600a3d3981f3363d3d373d3d3d363d7360601b81528260601b60148201526e5af43d82803e903d91602b57fd5bf360881b60288201526037816000f09150506001600160a01b03811662001bbb5760405162461bcd60e51b8152602060048201526016602482015275115490cc4c4d8dce8818dc99585d194819985a5b195960521b6044820152606401620006d9565b919050565b600062000e73838362001d8d565b6000620005bc825490565b62001be5828262001dba565b600082815260996020526040902062000759908262001e24565b60006001600160e01b03198216637965db0b60e01b1480620005bc5750620005bc826200194a565b62001c33828262000e7a565b62001a4d5760008281526067602090815260408083206001600160a01b03851684529091529020805460ff1916600117905562001c6d3390565b6001600160a01b0316816001600160a01b0316837f2f8788117e7eff1d82e926ec794901d17c78024a50270940304540a733656f0d60405160405180910390a45050565b600062000e73836001600160a01b03841662001e3b565b600054610100900460ff1662001cf25760405162461bcd60e51b8152600401620006d990620027fc565b62001cfc62001d06565b62000ae362001e8d565b600054610100900460ff1662000ae35760405162461bcd60e51b8152600401620006d990620027fc565b606580546001600160a01b038381166001600160a01b03198084168217909455606680549094169093556040519116919082907f8be0079c531659141344cd1fd0a4f28419497f9722a3daafe3b4186f6b6457e090600090a35050565b600082600001828154811062001da75762001da762002847565b9060005260206000200154905092915050565b62001dc6828262000e7a565b1562001a4d5760008281526067602090815260408083206001600160a01b0385168085529252808320805460ff1916905551339285917ff6391f5c32d9c69d2a47ea670b442974b53935d1edc7fd64eb21e047a839171b9190a45050565b600062000e73836001600160a01b03841662001eb7565b600081815260018301602052604081205462001e8457508154600181810184556000848152602080822090930184905584548482528286019093526040902091909155620005bc565b506000620005bc565b600054610100900460ff166200193f5760405162461bcd60e51b8152600401620006d990620027fc565b6000818152600183016020526040812054801562001fb057600062001ede6001836200285d565b855490915060009062001ef4906001906200285d565b905081811462001f6057600086600001828154811062001f185762001f1862002847565b906000526020600020015490508087600001848154811062001f3e5762001f3e62002847565b6000918252602080832090910192909255918252600188019052604090208390555b855486908062001f745762001f7462002883565b600190038181906000526020600020016000905590558560010160008681526020019081526020016000206000905560019350505050620005bc565b6000915050620005bc565b6107be806200289a83390190565b610f26806200305883390190565b60006020828403121562001fea57600080fd5b81356001600160e01b03198116811462000e7357600080fd5b6000602082840312156200201657600080fd5b5035919050565b80356001600160a01b038116811462001bbb57600080fd5b600080604083850312156200204957600080fd5b823591506200205b602084016200201d565b90509250929050565b600080604083850312156200207857600080fd5b50508035926020909101359150565b60008060008060008060c08789031215620020a157600080fd5b620020ac876200201d565b9550620020bc602088016200201d565b9450620020cc604088016200201d565b9350620020dc606088016200201d565b925060808701359150620020f360a088016200201d565b90509295509295509295565b6000602082840312156200211257600080fd5b62000e73826200201d565b634e487b7160e01b600052604160045260246000fd5b600082601f8301126200214557600080fd5b81356001600160401b03808211156200216257620021626200211d565b604051601f8301601f19908116603f011681019082821181831017156200218d576200218d6200211d565b81604052838152866020858801011115620021a757600080fd5b836020870160208301376000602085830101528094505050505092915050565b8035801515811462001bbb57600080fd5b60008060008060008060008060006101208a8c031215620021f857600080fd5b89356001600160401b03808211156200221057600080fd5b6200221e8d838e0162002133565b9a5060208c01359150808211156200223557600080fd5b50620022448c828d0162002133565b9850506200225560408b016200201d565b96506200226560608b016200201d565b955060808a0135945060a08a0135935060c08a0135925060e08a01359150620022926101008b01620021c7565b90509295985092959850929598565b60008083601f840112620022b457600080fd5b5081356001600160401b03811115620022cc57600080fd5b602083019150836020828501011115620022e557600080fd5b9250929050565b60008083601f840112620022ff57600080fd5b5081356001600160401b038111156200231757600080fd5b6020830191508360208260051b8501011115620022e557600080fd5b6000806000806000806000806000806000806101208d8f0312156200235757600080fd5b6001600160401b038d3511156200236d57600080fd5b6200237c8e8e358f01620022a1565b909c509a506001600160401b0360208e013511156200239a57600080fd5b620023ac8e60208f01358f01620022a1565b909a509850620023bf60408e016200201d565b975060608d0135965060808d0135955060a08d0135945060c08d013593506001600160401b0360e08e01351115620023f657600080fd5b620024088e60e08f01358f01620022ec565b90935091506200241c6101008e01620021c7565b90509295989b509295989b509295989b565b6000806000806000806000806000806101408b8d0312156200244f57600080fd5b8a356001600160401b03808211156200246757600080fd5b620024758e838f0162002133565b9b5060208d01359150808211156200248c57600080fd5b506200249b8d828e0162002133565b995050620024ac60408c016200201d565b9750620024bc60608c016200201d565b965060808b0135955060a08b0135945060c08b0135935060e08b013592506101008b01359150620024f16101208c01620021c7565b90509295989b9194979a5092959850565b9182526001600160a01b0316602082015260400190565b6000815180845260005b81811015620025415760208185018101518683018201520162002523565b8181111562002554576000602083870101525b50601f01601f19169290920160200192915050565b60c08152600083516101008060c08501526200258a6101c085018362002519565b9150602086015160bf198584030160e0860152620025a9838262002519565b60408801516001600160a01b031692860192909252506060860151610120850152608086015161014085015260a086015161016085015260c086015161018085015260e08601516101a0850152915062000e739050602083018480516001600160a01b03908116835260208083015182169084015260408083015182169084015260608083015190911690830152608090810151910152565b60c0815260006200265760c083018962002519565b82810360208401526200266b818962002519565b9150508560408301528460608301528360808301528260a0830152979650505050505050565b81835260006001600160fb1b03831115620026ab57600080fd5b8260051b8083602087013760009401602001938452509192915050565b60c08152600060018060a01b03808a511660c08401528060208b01511660e0840152506040890151610100830152606089015160a06101208401526200271361016084018262002519565b905060808a015160bf198483030161014085015262002733828262002519565b91505088602084015287604084015286606084015285608084015282810360a08401526200276381858762002691565b9a9950505050505050505050565b6001600160a01b038481168252831660208201526060604082018190526000906200279f9083018462002519565b95945050505050565b60e081526000620027bd60e083018a62002519565b8281036020840152620027d1818a62002519565b604084019890985250506060810194909452608084019290925260a083015260c09091015292915050565b6020808252602b908201527f496e697469616c697a61626c653a20636f6e7472616374206973206e6f74206960408201526a6e697469616c697a696e6760a81b606082015260800190565b634e487b7160e01b600052603260045260246000fd5b6000828210156200287e57634e487b7160e01b600052601160045260246000fd5b500390565b634e487b7160e01b600052603160045260246000fdfe608060405234801561001057600080fd5b5061001a3361001f565b61006f565b600080546001600160a01b038381166001600160a01b0319831681178455604051919092169283917f8be0079c531659141344cd1fd0a4f28419497f9722a3daafe3b4186f6b6457e09190a35050565b6107408061007e6000396000f3fe60806040526004361061006b5760003560e01c8063204e1c7a14610070578063715018a6146100a65780637eff275e146100bd5780638da5cb5b146100dd5780639623609d146100f257806399a88ec414610105578063f2fde38b14610125578063f3b7dead14610145575b600080fd5b34801561007c57600080fd5b5061009061008b3660046104f6565b610165565b60405161009d919061051a565b60405180910390f35b3480156100b257600080fd5b506100bb6101f6565b005b3480156100c957600080fd5b506100bb6100d836600461052e565b61023a565b3480156100e957600080fd5b506100906102cb565b6100bb61010036600461057d565b6102da565b34801561011157600080fd5b506100bb61012036600461052e565b610370565b34801561013157600080fd5b506100bb6101403660046104f6565b6103cb565b34801561015157600080fd5b506100906101603660046104f6565b61046b565b6000806000836001600160a01b031660405161018b90635c60da1b60e01b815260040190565b600060405180830381855afa9150503d80600081146101c6576040519150601f19603f3d011682016040523d82523d6000602084013e6101cb565b606091505b5091509150816101da57600080fd5b808060200190518101906101ee9190610653565b949350505050565b336101ff6102cb565b6001600160a01b03161461022e5760405162461bcd60e51b815260040161022590610670565b60405180910390fd5b6102386000610491565b565b336102436102cb565b6001600160a01b0316146102695760405162461bcd60e51b815260040161022590610670565b6040516308f2839760e41b81526001600160a01b03831690638f2839709061029590849060040161051a565b600060405180830381600087803b1580156102af57600080fd5b505af11580156102c3573d6000803e3d6000fd5b505050505050565b6000546001600160a01b031690565b336102e36102cb565b6001600160a01b0316146103095760405162461bcd60e51b815260040161022590610670565b60405163278f794360e11b81526001600160a01b03841690634f1ef28690349061033990869086906004016106a5565b6000604051808303818588803b15801561035257600080fd5b505af1158015610366573d6000803e3d6000fd5b5050505050505050565b336103796102cb565b6001600160a01b03161461039f5760405162461bcd60e51b815260040161022590610670565b604051631b2ce7f360e11b81526001600160a01b03831690633659cfe69061029590849060040161051a565b336103d46102cb565b6001600160a01b0316146103fa5760405162461bcd60e51b815260040161022590610670565b6001600160a01b03811661045f5760405162461bcd60e51b815260206004820152602660248201527f4f776e61626c653a206e6577206f776e657220697320746865207a65726f206160448201526564647265737360d01b6064820152608401610225565b61046881610491565b50565b6000806000836001600160a01b031660405161018b906303e1469160e61b815260040190565b600080546001600160a01b038381166001600160a01b0319831681178455604051919092169283917f8be0079c531659141344cd1fd0a4f28419497f9722a3daafe3b4186f6b6457e09190a35050565b6001600160a01b038116811461046857600080fd5b60006020828403121561050857600080fd5b8135610513816104e1565b9392505050565b6001600160a01b0391909116815260200190565b6000806040838503121561054157600080fd5b823561054c816104e1565b9150602083013561055c816104e1565b809150509250929050565b634e487b7160e01b600052604160045260246000fd5b60008060006060848603121561059257600080fd5b833561059d816104e1565b925060208401356105ad816104e1565b9150604084013567ffffffffffffffff808211156105ca57600080fd5b818601915086601f8301126105de57600080fd5b8135818111156105f0576105f0610567565b604051601f8201601f19908116603f0116810190838211818310171561061857610618610567565b8160405282815289602084870101111561063157600080fd5b8260208601602083013760006020848301015280955050505050509250925092565b60006020828403121561066557600080fd5b8151610513816104e1565b6020808252818101527f4f776e61626c653a2063616c6c6572206973206e6f7420746865206f776e6572604082015260600190565b60018060a01b038316815260006020604081840152835180604085015260005b818110156106e1578581018301518582016060015282016106c5565b818111156106f3576000606083870101525b50601f01601f19169290920160600194935050505056fea2646970667358221220622aedc32f76cb2d6574824b360ac311f45decd9aff949fcaa5994b307bfacc164736f6c634300080d0033608060405260405162000f2638038062000f26833981016040819052620000269162000519565b82816200005560017f360894a13ba1a3210667c828492db98dca3e2076cc3735a920a3ca505d382bbd620005f9565b60008051602062000edf833981519152146200007557620000756200061f565b6200008382826000620000e7565b50620000b3905060017fb53127684a568b3173ae13b9f8a6016e243e63b6e8ee1178d6a717850b5d6104620005f9565b60008051602062000ebf83398151915214620000d357620000d36200061f565b620000de8262000124565b50505062000688565b620000f2836200017f565b600082511180620001005750805b156200011f576200011d8383620001c160201b6200022e1760201c565b505b505050565b7f7e644d79422f17c01e4894b5f4f588d331ebfa28653d42ae832dc59e38c9798f6200014f620001f0565b604080516001600160a01b03928316815291841660208301520160405180910390a16200017c8162000229565b50565b6200018a81620002de565b6040516001600160a01b038216907fbc7cd75a20ee27fd9adebab32041f755214dbc6bffa90cc0225b39da2e5c2d3b90600090a250565b6060620001e9838360405180606001604052806027815260200162000eff6027913962000381565b9392505050565b60006200021a60008051602062000ebf83398151915260001b6200046760201b620001ea1760201c565b546001600160a01b0316919050565b6001600160a01b038116620002945760405162461bcd60e51b815260206004820152602660248201527f455243313936373a206e65772061646d696e20697320746865207a65726f206160448201526564647265737360d01b60648201526084015b60405180910390fd5b80620002bd60008051602062000ebf83398151915260001b6200046760201b620001ea1760201c565b80546001600160a01b0319166001600160a01b039290921691909117905550565b620002f4816200046a60201b6200025a1760201c565b620003585760405162461bcd60e51b815260206004820152602d60248201527f455243313936373a206e657720696d706c656d656e746174696f6e206973206e60448201526c1bdd08184818dbdb9d1c9858dd609a1b60648201526084016200028b565b80620002bd60008051602062000edf83398151915260001b6200046760201b620001ea1760201c565b60606001600160a01b0384163b620003eb5760405162461bcd60e51b815260206004820152602660248201527f416464726573733a2064656c65676174652063616c6c20746f206e6f6e2d636f6044820152651b9d1c9858dd60d21b60648201526084016200028b565b600080856001600160a01b03168560405162000408919062000635565b600060405180830381855af49150503d806000811462000445576040519150601f19603f3d011682016040523d82523d6000602084013e6200044a565b606091505b5090925090506200045d82828662000479565b9695505050505050565b90565b6001600160a01b03163b151590565b606083156200048a575081620001e9565b8251156200049b5782518084602001fd5b8160405162461bcd60e51b81526004016200028b919062000653565b80516001600160a01b0381168114620004cf57600080fd5b919050565b634e487b7160e01b600052604160045260246000fd5b60005b8381101562000507578181015183820152602001620004ed565b838111156200011d5750506000910152565b6000806000606084860312156200052f57600080fd5b6200053a84620004b7565b92506200054a60208501620004b7565b60408501519092506001600160401b03808211156200056857600080fd5b818601915086601f8301126200057d57600080fd5b815181811115620005925762000592620004d4565b604051601f8201601f19908116603f01168101908382118183101715620005bd57620005bd620004d4565b81604052828152896020848701011115620005d757600080fd5b620005ea836020830160208801620004ea565b80955050505050509250925092565b6000828210156200061a57634e487b7160e01b600052601160045260246000fd5b500390565b634e487b7160e01b600052600160045260246000fd5b6000825162000649818460208701620004ea565b9190910192915050565b602081526000825180602084015262000674816040850160208701620004ea565b601f01601f19169190910160400192915050565b61082780620006986000396000f3fe60806040526004361061004e5760003560e01c80633659cfe6146100655780634f1ef286146100855780635c60da1b146100985780638f283970146100c9578063f851a440146100e95761005d565b3661005d5761005b6100fe565b005b61005b6100fe565b34801561007157600080fd5b5061005b6100803660046106b1565b610118565b61005b6100933660046106cc565b610155565b3480156100a457600080fd5b506100ad6101bc565b6040516001600160a01b03909116815260200160405180910390f35b3480156100d557600080fd5b5061005b6100e43660046106b1565b6101ed565b3480156100f557600080fd5b506100ad61020d565b610106610269565b6101166101116102fe565b610308565b565b61012061032c565b6001600160a01b0316330361014d5761014a8160405180602001604052806000815250600061035f565b50565b61014a6100fe565b61015d61032c565b6001600160a01b031633036101b4576101af8383838080601f0160208091040260200160405190810160405280939291908181526020018383808284376000920191909152506001925061035f915050565b505050565b6101af6100fe565b60006101c661032c565b6001600160a01b031633036101e2576101dd6102fe565b905090565b6101ea6100fe565b90565b6101f561032c565b6001600160a01b0316330361014d5761014a8161038a565b600061021761032c565b6001600160a01b031633036101e2576101dd61032c565b606061025383836040518060600160405280602781526020016107cb602791396103de565b9392505050565b6001600160a01b03163b151590565b61027161032c565b6001600160a01b031633036101165760405162461bcd60e51b815260206004820152604260248201527f5472616e73706172656e745570677261646561626c6550726f78793a2061646d60448201527f696e2063616e6e6f742066616c6c6261636b20746f2070726f78792074617267606482015261195d60f21b608482015260a4015b60405180910390fd5b60006101dd6104b9565b3660008037600080366000845af43d6000803e808015610327573d6000f35b3d6000fd5b60007fb53127684a568b3173ae13b9f8a6016e243e63b6e8ee1178d6a717850b5d61035b546001600160a01b0316919050565b610368836104e1565b6000825111806103755750805b156101af57610384838361022e565b50505050565b7f7e644d79422f17c01e4894b5f4f588d331ebfa28653d42ae832dc59e38c9798f6103b361032c565b604080516001600160a01b03928316815291841660208301520160405180910390a161014a81610521565b60606103e98461025a565b6104445760405162461bcd60e51b815260206004820152602660248201527f416464726573733a2064656c65676174652063616c6c20746f206e6f6e2d636f6044820152651b9d1c9858dd60d21b60648201526084016102f5565b600080856001600160a01b03168560405161045f919061077b565b600060405180830381855af49150503d806000811461049a576040519150601f19603f3d011682016040523d82523d6000602084013e61049f565b606091505b50915091506104af8282866105ca565b9695505050505050565b60007f360894a13ba1a3210667c828492db98dca3e2076cc3735a920a3ca505d382bbc610350565b6104ea81610603565b6040516001600160a01b038216907fbc7cd75a20ee27fd9adebab32041f755214dbc6bffa90cc0225b39da2e5c2d3b90600090a250565b6001600160a01b0381166105865760405162461bcd60e51b815260206004820152602660248201527f455243313936373a206e65772061646d696e20697320746865207a65726f206160448201526564647265737360d01b60648201526084016102f5565b807fb53127684a568b3173ae13b9f8a6016e243e63b6e8ee1178d6a717850b5d61035b80546001600160a01b0319166001600160a01b039290921691909117905550565b606083156105d9575081610253565b8251156105e95782518084602001fd5b8160405162461bcd60e51b81526004016102f59190610797565b61060c8161025a565b61066e5760405162461bcd60e51b815260206004820152602d60248201527f455243313936373a206e657720696d706c656d656e746174696f6e206973206e60448201526c1bdd08184818dbdb9d1c9858dd609a1b60648201526084016102f5565b807f360894a13ba1a3210667c828492db98dca3e2076cc3735a920a3ca505d382bbc6105a9565b80356001600160a01b03811681146106ac57600080fd5b919050565b6000602082840312156106c357600080fd5b61025382610695565b6000806000604084860312156106e157600080fd5b6106ea84610695565b9250602084013567ffffffffffffffff8082111561070757600080fd5b818601915086601f83011261071b57600080fd5b81358181111561072a57600080fd5b87602082850101111561073c57600080fd5b6020830194508093505050509250925092565b60005b8381101561076a578181015183820152602001610752565b838111156103845750506000910152565b6000825161078d81846020870161074f565b9190910192915050565b60208152600082518060208401526107b681604085016020870161074f565b601f01601f1916919091016040019291505056fe416464726573733a206c6f772d6c6576656c2064656c65676174652063616c6c206661696c6564a264697066735822122008ea2a935fa47a1fa52f88693f402756a74ac93f65f9374d5223e8a6394a86e664736f6c634300080d0033b53127684a568b3173ae13b9f8a6016e243e63b6e8ee1178d6a717850b5d6103360894a13ba1a3210667c828492db98dca3e2076cc3735a920a3ca505d382bbc416464726573733a206c6f772d6c6576656c2064656c65676174652063616c6c206661696c65647dbc69cd9b785cb1ad056f848b1d2b371afd61d9e084183209988bd117c24f90a264697066735822122050b4099037a94efc4b71b067d5a5b12a08645bbc0ee17eeb6a87cf5f9d370f8b64736f6c634300080d0033",
  "devdoc": {
    "author": "Trader Joe",
    "kind": "dev",
    "methods": {
      "addLaunchpegPauser(address)": {
        "params": {
          "_pauser": "Pauser address"
        }
      },
      "createFlatLaunchpeg(string,string,address,address,uint256,uint256,uint256,uint256,bool)": {
        "params": {
          "_amountForAllowlist": "Amount of NFTs available for the allowlist mint (e.g 1000)",
          "_amountForDevs": "Amount of NFTs reserved for `projectOwner` (e.g 200)",
          "_collectionSize": "The collection size (e.g 10000)",
          "_enableBatchReveal": "Flag to enable batch reveal for the collection",
          "_maxPerAddressDuringMint": "Max amount of NFTs an address can mint in public phases",
          "_name": "ERC721 name",
          "_projectOwner": "The project owner",
          "_royaltyReceiver": "Royalty fee collector",
          "_symbol": "ERC721 symbol"
        },
        "returns": {
          "_0": "flatLaunchpeg New FlatLaunchpeg address"
        }
      },
      "createLaunchpeg(string,string,address,address,uint256,uint256,uint256,uint256,uint256,bool)": {
        "params": {
          "_amountForAllowlist": "Amount of NFTs available for the allowlist mint (e.g 1000)",
          "_amountForAuction": "Amount of NFTs available for the auction (e.g 8000)",
          "_amountForDevs": "Amount of NFTs reserved for `projectOwner` (e.g 200)",
          "_collectionSize": "The collection size (e.g 10000)",
          "_enableBatchReveal": "Flag to enable batch reveal for the collection",
          "_maxPerAddressDuringMint": "Max amount of NFTs an address can mint in public phases",
          "_name": "ERC721 name",
          "_projectOwner": "The project owner",
          "_royaltyReceiver": "Royalty fee collector",
          "_symbol": "ERC721 symbol"
        },
        "returns": {
          "_0": "launchpeg New Launchpeg address"
        }
      },
      "getRoleAdmin(bytes32)": {
        "details": "Returns the admin role that controls `role`. See {grantRole} and {revokeRole}. To change a role's admin, use {_setRoleAdmin}."
      },
      "getRoleMember(bytes32,uint256)": {
        "details": "Returns one of the accounts that have `role`. `index` must be a value between 0 and {getRoleMemberCount}, non-inclusive. Role bearers are not sorted in any particular way, and their ordering may change at any point. WARNING: When using {getRoleMember} and {getRoleMemberCount}, make sure you perform all queries on the same block. See the following https://forum.openzeppelin.com/t/iterating-over-elements-on-enumerableset-in-openzeppelin-contracts/2296[forum post] for more information."
      },
      "getRoleMemberCount(bytes32)": {
        "details": "Returns the number of accounts that have `role`. Can be used together with {getRoleMember} to enumerate all bearers of a role."
      },
      "grantRole(bytes32,address)": {
        "details": "If `account` had not been already granted `role`, emits a {RoleGranted} event. Requirements: - the caller must be the `owner` or have ``role``'s admin role. - the role granted can't be `DEFAULT_ADMIN`",
        "params": {
          "account": "The address of the account",
          "role": "The role to grant"
        }
      },
      "hasRole(bytes32,address)": {
        "details": "Returns `true` if `account` has been granted `role`."
      },
      "initialize(address,address,address,address,uint256,address)": {
        "details": "Uses clone factory pattern to save space",
        "params": {
          "_batchReveal": "Batch reveal address",
          "_erc1155SingleBundleImplementation": "ERC1155SingleBundle contract to be cloned",
          "_flatLaunchpegImplementation": "FlatLaunchpeg contract to be cloned",
          "_joeFeeCollector": "Default fee collector",
          "_joeFeePercent": "Default fee percentage",
          "_launchpegImplementation": "Launchpeg contract to be cloned"
        }
      },
      "numLaunchpegs(uint256)": {
        "params": {
          "_launchpegType": "Type of Launchpeg to consider"
        },
        "returns": {
          "_0": "LaunchpegNumber The number of Launchpegs ever created"
        }
      },
      "owner()": {
        "returns": {
          "_0": "The address of the current owner"
        }
      },
      "pauseLaunchpeg(address)": {
        "params": {
          "_launchpeg": "Launchpeg address"
        }
      },
      "pendingOwner()": {
        "returns": {
          "_0": "The address of the current pending owner"
        }
      },
      "removeLaunchpegPauser(address)": {
        "params": {
          "_pauser": "Pauser address"
        }
      },
      "renounceRole(bytes32,address)": {
        "details": "Roles are often managed via {grantRole} and {revokeRole}: this function's purpose is to provide a mechanism for accounts to lose their privileges if they are compromised (such as when a trusted device is misplaced). If the calling account had been revoked `role`, emits a {RoleRevoked} event. Requirements: - the caller must be `account`. - the role renounced can't be `DEFAULT_ADMIN`",
        "params": {
          "account": "The address of the account",
          "role": "The role to renounce"
        }
      },
      "revokeRole(bytes32,address)": {
        "details": "If `account` had been granted `role`, emits a {RoleRevoked} event. Requirements: - the caller must be the `owner` or have ``role``'s admin role. - the role revoked can't be `DEFAULT_ADMIN`",
        "params": {
          "account": "The address of the account",
          "role": "The role to revoke"
        }
      },
      "setBatchReveal(address)": {
        "params": {
          "_batchReveal": "New batch reveal"
        }
      },
      "setDefaultJoeFeeCollector(address)": {
        "params": {
          "_joeFeeCollector": "New collector address"
        }
      },
      "setDefaultJoeFeePercent(uint256)": {
        "params": {
          "_joeFeePercent": "New joeFeePercent"
        }
      },
      "setFlatLaunchpegImplementation(address)": {
        "params": {
          "_flatLaunchpegImplementation": "New flatLaunchpegImplementation"
        }
      },
      "setLaunchpegImplementation(address)": {
        "params": {
          "_launchpegImplementation": "New launchpegImplementation"
        }
      },
      "supportsInterface(bytes4)": {
        "details": "Returns true if this contract implements the interface defined by `interfaceId`. See the corresponding https://eips.ethereum.org/EIPS/eip-165#how-interfaces-are-identified[EIP section] to learn more about how these ids are created. This function call must use less than 30 000 gas."
      }
    },
    "stateVariables": {
      "joeFeePercent": {
        "details": "In basis points e.g 100 for 1%"
      }
    },
    "title": "Launchpeg Factory",
    "version": 1
  },
  "userdoc": {
    "kind": "user",
    "methods": {
      "addLaunchpegPauser(address)": {
        "notice": "Grants LAUNCHPEG_PAUSER_ROLE to an address. The address will be able to pause any Launchpeg collection"
      },
      "allLaunchpegs(uint256,uint256)": {
        "notice": "Launchpegs address list by type of Launchpeg"
      },
      "batchReveal()": {
        "notice": "Batch reveal address"
      },
      "becomeOwner()": {
        "notice": "Transfers the ownership to the new owner (`pendingOwner`). Can only be called by the pending owner"
      },
      "createFlatLaunchpeg(string,string,address,address,uint256,uint256,uint256,uint256,bool)": {
        "notice": "FlatLaunchpeg creation"
      },
      "createLaunchpeg(string,string,address,address,uint256,uint256,uint256,uint256,uint256,bool)": {
        "notice": "Launchpeg creation"
      },
      "flatLaunchpegImplementation()": {
        "notice": "FlatLaunchpeg contract to be cloned"
      },
      "grantRole(bytes32,address)": {
        "notice": "Grants `role` to `account`."
      },
      "initialize(address,address,address,address,uint256,address)": {
        "notice": "Initializes the Launchpeg factory"
      },
      "isLaunchpeg(uint256,address)": {
        "notice": "Checks if an address is stored as a Launchpeg, by type of Launchpeg"
      },
      "joeFeeCollector()": {
        "notice": "Default fee collector"
      },
      "joeFeePercent()": {
        "notice": "Default fee percentage"
      },
      "launchpegImplementation()": {
        "notice": "Launchpeg contract to be cloned"
      },
      "numLaunchpegs(uint256)": {
        "notice": "Returns the number of Launchpegs"
      },
      "owner()": {
        "notice": "Returns the address of the current owner"
      },
      "pauseLaunchpeg(address)": {
        "notice": "Pause specified Launchpeg"
      },
      "pendingOwner()": {
        "notice": "Returns the address of the current pending owner"
      },
      "removeLaunchpegPauser(address)": {
        "notice": "Revokes LAUNCHPEG_PAUSER_ROLE from an address. The address will not be able to pause any Launchpeg collection"
      },
      "renounceOwnership()": {
        "notice": "Leaves the contract without owner. It will not be possible to call `onlyOwner` functions anymore. Can only be called by the current owner. NOTE: Renouncing ownership will leave the contract without an owner, thereby removing any functionality that is only available to the owner."
      },
      "renounceRole(bytes32,address)": {
        "notice": "Revokes `role` from the calling account."
      },
      "revokePendingOwner()": {
        "notice": "Revoke the pending owner address. This address will not be able to call {becomeOwner} to become the owner anymore. Can only be called by the owner"
      },
      "revokeRole(bytes32,address)": {
        "notice": "Revokes `role` from `account`."
      },
      "setBatchReveal(address)": {
        "notice": "Set batch reveal address"
      },
      "setDefaultJoeFeeCollector(address)": {
        "notice": "Set default address to collect protocol fees"
      },
      "setDefaultJoeFeePercent(uint256)": {
        "notice": "Set percentage of protocol fees"
      },
      "setFlatLaunchpegImplementation(address)": {
        "notice": "Set address for flatLaunchpegImplementation"
      },
      "setLaunchpegImplementation(address)": {
        "notice": "Set address for launchpegImplementation"
      },
      "setPendingOwner(address)": {
        "notice": "Sets the pending owner address. This address will be able to become the owner of this contract by calling {becomeOwner}"
      }
    },
    "notice": "Factory that creates Launchpeg contracts",
    "version": 1
  },
  "storageLayout": {
    "storage": [
      {
        "astId": 825,
        "contract": "contracts/LaunchpegFactory.sol:LaunchpegFactory",
        "label": "_initialized",
        "offset": 0,
        "slot": "0",
        "type": "t_uint8"
      },
      {
        "astId": 828,
        "contract": "contracts/LaunchpegFactory.sol:LaunchpegFactory",
        "label": "_initializing",
        "offset": 1,
        "slot": "0",
        "type": "t_bool"
      },
      {
        "astId": 3314,
        "contract": "contracts/LaunchpegFactory.sol:LaunchpegFactory",
        "label": "__gap",
        "offset": 0,
        "slot": "1",
        "type": "t_array(t_uint256)50_storage"
      },
      {
        "astId": 3533,
        "contract": "contracts/LaunchpegFactory.sol:LaunchpegFactory",
        "label": "__gap",
        "offset": 0,
        "slot": "51",
        "type": "t_array(t_uint256)50_storage"
      },
      {
        "astId": 19012,
        "contract": "contracts/LaunchpegFactory.sol:LaunchpegFactory",
        "label": "_owner",
        "offset": 0,
        "slot": "101",
        "type": "t_address"
      },
      {
        "astId": 19014,
        "contract": "contracts/LaunchpegFactory.sol:LaunchpegFactory",
        "label": "_pendingOwner",
        "offset": 0,
        "slot": "102",
        "type": "t_address"
      },
      {
        "astId": 273,
        "contract": "contracts/LaunchpegFactory.sol:LaunchpegFactory",
        "label": "_roles",
        "offset": 0,
        "slot": "103",
        "type": "t_mapping(t_bytes32,t_struct(RoleData)268_storage)"
      },
      {
        "astId": 568,
        "contract": "contracts/LaunchpegFactory.sol:LaunchpegFactory",
        "label": "__gap",
        "offset": 0,
        "slot": "104",
        "type": "t_array(t_uint256)49_storage"
      },
      {
        "astId": 122,
        "contract": "contracts/LaunchpegFactory.sol:LaunchpegFactory",
        "label": "_roleMembers",
        "offset": 0,
        "slot": "153",
        "type": "t_mapping(t_bytes32,t_struct(AddressSet)4737_storage)"
      },
      {
        "astId": 232,
        "contract": "contracts/LaunchpegFactory.sol:LaunchpegFactory",
        "label": "__gap",
        "offset": 0,
        "slot": "154",
        "type": "t_array(t_uint256)49_storage"
      },
      {
        "astId": 15061,
        "contract": "contracts/LaunchpegFactory.sol:LaunchpegFactory",
        "label": "launchpegImplementation",
        "offset": 0,
        "slot": "203",
        "type": "t_address"
      },
      {
        "astId": 15065,
        "contract": "contracts/LaunchpegFactory.sol:LaunchpegFactory",
        "label": "flatLaunchpegImplementation",
        "offset": 0,
        "slot": "204",
        "type": "t_address"
      },
      {
        "astId": 15069,
        "contract": "contracts/LaunchpegFactory.sol:LaunchpegFactory",
        "label": "joeFeePercent",
        "offset": 0,
        "slot": "205",
        "type": "t_uint256"
      },
      {
        "astId": 15073,
        "contract": "contracts/LaunchpegFactory.sol:LaunchpegFactory",
        "label": "joeFeeCollector",
        "offset": 0,
        "slot": "206",
        "type": "t_address"
      },
      {
        "astId": 15081,
        "contract": "contracts/LaunchpegFactory.sol:LaunchpegFactory",
        "label": "isLaunchpeg",
        "offset": 0,
        "slot": "207",
        "type": "t_mapping(t_uint256,t_mapping(t_address,t_bool))"
      },
      {
        "astId": 15088,
        "contract": "contracts/LaunchpegFactory.sol:LaunchpegFactory",
        "label": "allLaunchpegs",
        "offset": 0,
        "slot": "208",
        "type": "t_mapping(t_uint256,t_array(t_address)dyn_storage)"
      },
      {
        "astId": 15092,
        "contract": "contracts/LaunchpegFactory.sol:LaunchpegFactory",
        "label": "batchReveal",
        "offset": 0,
        "slot": "209",
        "type": "t_address"
      },
      {
        "astId": 15094,
        "contract": "contracts/LaunchpegFactory.sol:LaunchpegFactory",
        "label": "erc1155SingleBundleImplementation",
        "offset": 0,
        "slot": "210",
        "type": "t_address"
      }
    ],
    "types": {
      "t_address": {
        "encoding": "inplace",
        "label": "address",
        "numberOfBytes": "20"
      },
      "t_array(t_address)dyn_storage": {
        "base": "t_address",
        "encoding": "dynamic_array",
        "label": "address[]",
        "numberOfBytes": "32"
      },
      "t_array(t_bytes32)dyn_storage": {
        "base": "t_bytes32",
        "encoding": "dynamic_array",
        "label": "bytes32[]",
        "numberOfBytes": "32"
      },
      "t_array(t_uint256)49_storage": {
        "base": "t_uint256",
        "encoding": "inplace",
        "label": "uint256[49]",
        "numberOfBytes": "1568"
      },
      "t_array(t_uint256)50_storage": {
        "base": "t_uint256",
        "encoding": "inplace",
        "label": "uint256[50]",
        "numberOfBytes": "1600"
      },
      "t_bool": {
        "encoding": "inplace",
        "label": "bool",
        "numberOfBytes": "1"
      },
      "t_bytes32": {
        "encoding": "inplace",
        "label": "bytes32",
        "numberOfBytes": "32"
      },
      "t_mapping(t_address,t_bool)": {
        "encoding": "mapping",
        "key": "t_address",
        "label": "mapping(address => bool)",
        "numberOfBytes": "32",
        "value": "t_bool"
      },
      "t_mapping(t_bytes32,t_struct(AddressSet)4737_storage)": {
        "encoding": "mapping",
        "key": "t_bytes32",
        "label": "mapping(bytes32 => struct EnumerableSetUpgradeable.AddressSet)",
        "numberOfBytes": "32",
        "value": "t_struct(AddressSet)4737_storage"
      },
      "t_mapping(t_bytes32,t_struct(RoleData)268_storage)": {
        "encoding": "mapping",
        "key": "t_bytes32",
        "label": "mapping(bytes32 => struct AccessControlUpgradeable.RoleData)",
        "numberOfBytes": "32",
        "value": "t_struct(RoleData)268_storage"
      },
      "t_mapping(t_bytes32,t_uint256)": {
        "encoding": "mapping",
        "key": "t_bytes32",
        "label": "mapping(bytes32 => uint256)",
        "numberOfBytes": "32",
        "value": "t_uint256"
      },
      "t_mapping(t_uint256,t_array(t_address)dyn_storage)": {
        "encoding": "mapping",
        "key": "t_uint256",
        "label": "mapping(uint256 => address[])",
        "numberOfBytes": "32",
        "value": "t_array(t_address)dyn_storage"
      },
      "t_mapping(t_uint256,t_mapping(t_address,t_bool))": {
        "encoding": "mapping",
        "key": "t_uint256",
        "label": "mapping(uint256 => mapping(address => bool))",
        "numberOfBytes": "32",
        "value": "t_mapping(t_address,t_bool)"
      },
      "t_struct(AddressSet)4737_storage": {
        "encoding": "inplace",
        "label": "struct EnumerableSetUpgradeable.AddressSet",
        "members": [
          {
            "astId": 4736,
            "contract": "contracts/LaunchpegFactory.sol:LaunchpegFactory",
            "label": "_inner",
            "offset": 0,
            "slot": "0",
            "type": "t_struct(Set)4422_storage"
          }
        ],
        "numberOfBytes": "64"
      },
      "t_struct(RoleData)268_storage": {
        "encoding": "inplace",
        "label": "struct AccessControlUpgradeable.RoleData",
        "members": [
          {
            "astId": 265,
            "contract": "contracts/LaunchpegFactory.sol:LaunchpegFactory",
            "label": "members",
            "offset": 0,
            "slot": "0",
            "type": "t_mapping(t_address,t_bool)"
          },
          {
            "astId": 267,
            "contract": "contracts/LaunchpegFactory.sol:LaunchpegFactory",
            "label": "adminRole",
            "offset": 0,
            "slot": "1",
            "type": "t_bytes32"
          }
        ],
        "numberOfBytes": "64"
      },
      "t_struct(Set)4422_storage": {
        "encoding": "inplace",
        "label": "struct EnumerableSetUpgradeable.Set",
        "members": [
          {
            "astId": 4417,
            "contract": "contracts/LaunchpegFactory.sol:LaunchpegFactory",
            "label": "_values",
            "offset": 0,
            "slot": "0",
            "type": "t_array(t_bytes32)dyn_storage"
          },
          {
            "astId": 4421,
            "contract": "contracts/LaunchpegFactory.sol:LaunchpegFactory",
            "label": "_indexes",
            "offset": 0,
            "slot": "1",
            "type": "t_mapping(t_bytes32,t_uint256)"
          }
        ],
        "numberOfBytes": "64"
      },
      "t_uint256": {
        "encoding": "inplace",
        "label": "uint256",
        "numberOfBytes": "32"
      },
      "t_uint8": {
        "encoding": "inplace",
        "label": "uint8",
        "numberOfBytes": "1"
      }
    }
  }
}